{
  "_format": "hh-sol-artifact-1",
  "contractName": "OBridge",
  "sourceName": "contracts/OBridge.sol",
  "abi": [
    {
      "anonymous": false,
      "inputs": [
        {
          "indexed": false,
          "internalType": "bytes32",
          "name": "transferId",
          "type": "bytes32"
        },
        {
          "indexed": false,
          "internalType": "address",
          "name": "sender",
          "type": "address"
        },
        {
          "indexed": false,
          "internalType": "address",
          "name": "receiver",
          "type": "address"
        },
        {
          "indexed": false,
          "internalType": "address",
          "name": "token",
          "type": "address"
        },
        {
          "indexed": false,
          "internalType": "uint256",
          "name": "token_amount",
          "type": "uint256"
        },
        {
          "indexed": false,
          "internalType": "uint256",
          "name": "eth_amount",
          "type": "uint256"
        },
        {
          "indexed": false,
          "internalType": "bytes32",
          "name": "hashlock",
          "type": "bytes32"
        },
        {
          "indexed": false,
          "internalType": "uint64",
          "name": "timelock",
          "type": "uint64"
        },
        {
          "indexed": false,
          "internalType": "uint64",
          "name": "srcChainId",
          "type": "uint64"
        },
        {
          "indexed": false,
          "internalType": "bytes32",
          "name": "srcTransferId",
          "type": "bytes32"
        }
      ],
      "name": "LogNewTransferIn",
      "type": "event"
    },
    {
      "anonymous": false,
      "inputs": [
        {
          "indexed": false,
          "internalType": "bytes32",
          "name": "transferId",
          "type": "bytes32"
        },
        {
          "indexed": false,
          "internalType": "address",
          "name": "sender",
          "type": "address"
        },
        {
          "indexed": false,
          "internalType": "address",
          "name": "receiver",
          "type": "address"
        },
        {
          "indexed": false,
          "internalType": "address",
          "name": "token",
          "type": "address"
        },
        {
          "indexed": false,
          "internalType": "uint256",
          "name": "amount",
          "type": "uint256"
        },
        {
          "indexed": false,
          "internalType": "bytes32",
          "name": "hashlock",
          "type": "bytes32"
        },
        {
          "indexed": false,
          "internalType": "uint64",
          "name": "timelock",
          "type": "uint64"
        },
        {
          "indexed": false,
          "internalType": "uint64",
          "name": "dstChainId",
          "type": "uint64"
        },
        {
          "indexed": false,
          "internalType": "uint256",
          "name": "dstAddress",
          "type": "uint256"
        },
        {
          "indexed": false,
          "internalType": "uint64",
          "name": "bidId",
          "type": "uint64"
        },
        {
          "indexed": false,
          "internalType": "uint256",
          "name": "tokenDst",
          "type": "uint256"
        },
        {
          "indexed": false,
          "internalType": "uint256",
          "name": "amountDst",
          "type": "uint256"
        }
      ],
      "name": "LogNewTransferOut",
      "type": "event"
    },
    {
      "anonymous": false,
      "inputs": [
        {
          "indexed": false,
          "internalType": "bytes32",
          "name": "transferId",
          "type": "bytes32"
        },
        {
          "indexed": false,
          "internalType": "bytes32",
          "name": "preimage",
          "type": "bytes32"
        }
      ],
      "name": "LogTransferConfirmed",
      "type": "event"
    },
    {
      "anonymous": false,
      "inputs": [
        {
          "indexed": false,
          "internalType": "bytes32",
          "name": "transferId",
          "type": "bytes32"
        }
      ],
      "name": "LogTransferRefunded",
      "type": "event"
    },
    {
      "anonymous": false,
      "inputs": [
        {
          "indexed": true,
          "internalType": "address",
          "name": "previousOwner",
          "type": "address"
        },
        {
          "indexed": true,
          "internalType": "address",
          "name": "newOwner",
          "type": "address"
        }
      ],
      "name": "OwnershipTransferred",
      "type": "event"
    },
    {
      "inputs": [],
      "name": "approveOwnership",
      "outputs": [],
      "stateMutability": "nonpayable",
      "type": "function"
    },
    {
      "inputs": [],
      "name": "basisPointsRate",
      "outputs": [
        {
          "internalType": "uint256",
          "name": "",
          "type": "uint256"
        }
      ],
      "stateMutability": "view",
      "type": "function"
    },
    {
      "inputs": [
        {
          "internalType": "address",
          "name": "_sender",
          "type": "address"
        },
        {
          "internalType": "address",
          "name": "_receiver",
          "type": "address"
        },
        {
          "internalType": "address",
          "name": "_token",
          "type": "address"
        },
        {
          "internalType": "uint256",
          "name": "_token_amount",
          "type": "uint256"
        },
        {
          "internalType": "uint256",
          "name": "_eth_amount",
          "type": "uint256"
        },
        {
          "internalType": "bytes32",
          "name": "_hashlock",
          "type": "bytes32"
        },
        {
          "internalType": "uint64",
          "name": "_timelock",
          "type": "uint64"
        },
        {
          "internalType": "bytes32",
          "name": "_preimage",
          "type": "bytes32"
        }
      ],
      "name": "confirm",
      "outputs": [],
      "stateMutability": "nonpayable",
      "type": "function"
    },
    {
      "inputs": [
        {
          "internalType": "address",
          "name": "",
          "type": "address"
        }
      ],
      "name": "maximumFee",
      "outputs": [
        {
          "internalType": "uint256",
          "name": "",
          "type": "uint256"
        }
      ],
      "stateMutability": "view",
      "type": "function"
    },
    {
      "inputs": [],
      "name": "nextOwner",
      "outputs": [
        {
          "internalType": "address",
          "name": "",
          "type": "address"
        }
      ],
      "stateMutability": "view",
      "type": "function"
    },
    {
      "inputs": [],
      "name": "owner",
      "outputs": [
        {
          "internalType": "address",
          "name": "",
          "type": "address"
        }
      ],
      "stateMutability": "view",
      "type": "function"
    },
    {
      "inputs": [
        {
          "internalType": "address",
          "name": "_sender",
          "type": "address"
        },
        {
          "internalType": "address",
          "name": "_receiver",
          "type": "address"
        },
        {
          "internalType": "address",
          "name": "_token",
          "type": "address"
        },
        {
          "internalType": "uint256",
          "name": "_token_amount",
          "type": "uint256"
        },
        {
          "internalType": "uint256",
          "name": "_eth_amount",
          "type": "uint256"
        },
        {
          "internalType": "bytes32",
          "name": "_hashlock",
          "type": "bytes32"
        },
        {
          "internalType": "uint64",
          "name": "_timelock",
          "type": "uint64"
        }
      ],
      "name": "refund",
      "outputs": [],
      "stateMutability": "nonpayable",
      "type": "function"
    },
    {
      "inputs": [],
      "name": "renounceOwnership",
      "outputs": [],
      "stateMutability": "nonpayable",
      "type": "function"
    },
    {
      "inputs": [
        {
          "internalType": "uint256",
          "name": "rate",
          "type": "uint256"
        }
      ],
      "name": "setBasisPointsRate",
      "outputs": [],
      "stateMutability": "nonpayable",
      "type": "function"
    },
    {
      "inputs": [
        {
          "internalType": "address",
          "name": "token",
          "type": "address"
        },
        {
          "internalType": "uint256",
          "name": "fee",
          "type": "uint256"
        }
      ],
      "name": "setMaximumFee",
      "outputs": [],
      "stateMutability": "nonpayable",
      "type": "function"
    },
    {
      "inputs": [
        {
          "internalType": "address",
          "name": "toll",
          "type": "address"
        }
      ],
      "name": "setTollAddress",
      "outputs": [],
      "stateMutability": "nonpayable",
      "type": "function"
    },
    {
      "inputs": [],
      "name": "tollAddress",
      "outputs": [
        {
          "internalType": "address",
          "name": "",
          "type": "address"
        }
      ],
      "stateMutability": "view",
      "type": "function"
    },
    {
      "inputs": [
        {
          "internalType": "address",
          "name": "_sender",
          "type": "address"
        },
        {
          "internalType": "address",
          "name": "_dstAddress",
          "type": "address"
        },
        {
          "internalType": "address",
          "name": "_token",
          "type": "address"
        },
        {
          "internalType": "uint256",
          "name": "_token_amount",
          "type": "uint256"
        },
        {
          "internalType": "uint256",
          "name": "_eth_amount",
          "type": "uint256"
        },
        {
          "internalType": "bytes32",
          "name": "_hashlock",
          "type": "bytes32"
        },
        {
          "internalType": "uint64",
          "name": "_timelock",
          "type": "uint64"
        },
        {
          "internalType": "uint64",
          "name": "_srcChainId",
          "type": "uint64"
        },
        {
          "internalType": "bytes32",
          "name": "_srcTransferId",
          "type": "bytes32"
        }
      ],
      "name": "transferIn",
      "outputs": [],
      "stateMutability": "payable",
      "type": "function"
    },
    {
      "inputs": [
        {
          "internalType": "address",
          "name": "_sender",
          "type": "address"
        },
        {
          "internalType": "address",
          "name": "_bridge",
          "type": "address"
        },
        {
          "internalType": "address",
          "name": "_token",
          "type": "address"
        },
        {
          "internalType": "uint256",
          "name": "_amount",
          "type": "uint256"
        },
        {
          "internalType": "bytes32",
          "name": "_hashlock",
          "type": "bytes32"
        },
        {
          "internalType": "uint64",
          "name": "_timelock",
          "type": "uint64"
        },
        {
          "internalType": "uint64",
          "name": "_dstChainId",
          "type": "uint64"
        },
        {
          "internalType": "uint256",
          "name": "_dstAddress",
          "type": "uint256"
        },
        {
          "internalType": "uint64",
          "name": "_bidId",
          "type": "uint64"
        },
        {
          "internalType": "uint256",
          "name": "_tokenDst",
          "type": "uint256"
        },
        {
          "internalType": "uint256",
          "name": "_amountDst",
          "type": "uint256"
        }
      ],
      "name": "transferOut",
      "outputs": [],
      "stateMutability": "payable",
      "type": "function"
    },
    {
      "inputs": [
        {
          "internalType": "address",
          "name": "_newOwner",
          "type": "address"
        }
      ],
      "name": "transferOwnership",
      "outputs": [],
      "stateMutability": "nonpayable",
      "type": "function"
    },
    {
      "inputs": [
        {
          "internalType": "bytes32",
          "name": "",
          "type": "bytes32"
        }
      ],
      "name": "transfers",
      "outputs": [
        {
          "internalType": "enum OBridge.TransferStatus",
          "name": "",
          "type": "uint8"
        }
      ],
      "stateMutability": "view",
      "type": "function"
    },
    {
      "stateMutability": "payable",
      "type": "receive"
    }
  ],
  "bytecode": "0x608060405260006002553480156200001657600080fd5b50620000376200002b6200008d60201b60201c565b6200009560201b60201c565b620000476200008d60201b60201c565b600460006101000a81548173ffffffffffffffffffffffffffffffffffffffff021916908373ffffffffffffffffffffffffffffffffffffffff16021790555062000159565b600033905090565b60008060009054906101000a900473ffffffffffffffffffffffffffffffffffffffff169050816000806101000a81548173ffffffffffffffffffffffffffffffffffffffff021916908373ffffffffffffffffffffffffffffffffffffffff1602179055508173ffffffffffffffffffffffffffffffffffffffff168173ffffffffffffffffffffffffffffffffffffffff167f8be0079c531659141344cd1fd0a4f28419497f9722a3daafe3b4186f6b6457e060405160405180910390a35050565b612e8680620001696000396000f3fe6080604052600436106100f75760003560e01c8063715018a61161008a578063b1f6beaf11610059578063b1f6beaf146102df578063b451192d14610308578063dd644f7214610331578063f2fde38b1461035c576100fe565b8063715018a61461025d578063742c81e4146102745780638da5cb5b1461028b578063af1df20f146102b6576100fe565b8063497b32d7116100c6578063497b32d7146101c25780635e5e7fa1146101ed5780635fdf2be01461020957806369f3331d14610232576100fe565b806305d06f5a1461010357806336bdcab8146101405780633c64f04b1461016957806346ce4a94146101a6576100fe565b366100fe57005b600080fd5b34801561010f57600080fd5b5061012a60048036038101906101259190611c07565b610385565b6040516101379190611c4d565b60405180910390f35b34801561014c57600080fd5b5061016760048036038101906101629190611c94565b61039d565b005b34801561017557600080fd5b50610190600480360381019061018b9190611d0a565b61047a565b60405161019d9190611dae565b60405180910390f35b6101c060048036038101906101bb9190611e09565b61049a565b005b3480156101ce57600080fd5b506101d7610577565b6040516101e49190611f0c565b60405180910390f35b61020760048036038101906102029190611f27565b61059d565b005b34801561021557600080fd5b50610230600480360381019061022b9190611ff1565b610673565b005b34801561023e57600080fd5b50610247610712565b6040516102549190611f0c565b60405180910390f35b34801561026957600080fd5b50610272610738565b005b34801561028057600080fd5b506102896107d9565b005b34801561029757600080fd5b506102a0610897565b6040516102ad9190611f0c565b60405180910390f35b3480156102c257600080fd5b506102dd60048036038101906102d8919061201e565b6108bb565b005b3480156102eb57600080fd5b50610306600480360381019061030191906120c0565b610c14565b005b34801561031457600080fd5b5061032f600480360381019061032a9190611c07565b6111db565b005b34801561033d57600080fd5b506103466112b4565b6040516103539190611c4d565b60405180910390f35b34801561036857600080fd5b50610383600480360381019061037e9190611c07565b6112ba565b005b60036020528060005260406000206000915090505481565b6103a5611402565b73ffffffffffffffffffffffffffffffffffffffff1660008054906101000a900473ffffffffffffffffffffffffffffffffffffffff1673ffffffffffffffffffffffffffffffffffffffff1614610432576040517f08c379a0000000000000000000000000000000000000000000000000000000008152600401610429906121d3565b60405180910390fd5b80600360008473ffffffffffffffffffffffffffffffffffffffff1673ffffffffffffffffffffffffffffffffffffffff168152602001908152602001600020819055505050565b60056020528060005260406000206000915054906101000a900460ff1681565b8a73ffffffffffffffffffffffffffffffffffffffff163373ffffffffffffffffffffffffffffffffffffffff1614610508576040517f08c379a00000000000000000000000000000000000000000000000000000000081526004016104ff9061223f565b60405180910390fd5b600061051a8c8c8c8c60008d8d61140a565b90507f573e213380faa927b1c1335457fe327e653e0604ed6a2c2f878f06a042896511818d8d8d8d8d8d8d8d8d8d8d6040516105619c9b9a9998979695949392919061227d565b60405180910390a1505050505050505050505050565b600460009054906101000a900473ffffffffffffffffffffffffffffffffffffffff1681565b8873ffffffffffffffffffffffffffffffffffffffff163373ffffffffffffffffffffffffffffffffffffffff161461060b576040517f08c379a00000000000000000000000000000000000000000000000000000000081526004016106029061223f565b60405180910390fd5b600061061c8a8a8a8a8a8a8a61140a565b90507f48e8c25194d6eb9633068bb38aea36f72e1c4b4d6e892ff556b8a63a803c2fd0818b8b8b8b8b8b8b8b8b60405161065f9a99989796959493929190612337565b60405180910390a150505050505050505050565b61067b611402565b73ffffffffffffffffffffffffffffffffffffffff1660008054906101000a900473ffffffffffffffffffffffffffffffffffffffff1673ffffffffffffffffffffffffffffffffffffffff1614610708576040517f08c379a00000000000000000000000000000000000000000000000000000000081526004016106ff906121d3565b60405180910390fd5b8060028190555050565b600160009054906101000a900473ffffffffffffffffffffffffffffffffffffffff1681565b610740611402565b73ffffffffffffffffffffffffffffffffffffffff1660008054906101000a900473ffffffffffffffffffffffffffffffffffffffff1673ffffffffffffffffffffffffffffffffffffffff16146107cd576040517f08c379a00000000000000000000000000000000000000000000000000000000081526004016107c4906121d3565b60405180910390fd5b6107d760006116cd565b565b3373ffffffffffffffffffffffffffffffffffffffff16600160009054906101000a900473ffffffffffffffffffffffffffffffffffffffff1673ffffffffffffffffffffffffffffffffffffffff161461083357600080fd5b600160009054906101000a900473ffffffffffffffffffffffffffffffffffffffff166000806101000a81548173ffffffffffffffffffffffffffffffffffffffff021916908373ffffffffffffffffffffffffffffffffffffffff160217905550565b60008054906101000a900473ffffffffffffffffffffffffffffffffffffffff1681565b600087878484898989466040516020016108dc989796959493929190612493565b60405160208183030381529060405280519060200120905060006005600083815260200190815260200160002060009054906101000a900460ff1690506001600381111561092d5761092c611d37565b5b8160038111156109405761093f611d37565b5b14610980576040517f08c379a000000000000000000000000000000000000000000000000000000000815260040161097790612571565b60405180910390fd5b428367ffffffffffffffff1611156109cd576040517f08c379a00000000000000000000000000000000000000000000000000000000081526004016109c4906125dd565b60405180910390fd5b60036005600084815260200190815260200160002060006101000a81548160ff02191690836003811115610a0457610a03611d37565b5b0217905550600073ffffffffffffffffffffffffffffffffffffffff168773ffffffffffffffffffffffffffffffffffffffff1603610aef5760008973ffffffffffffffffffffffffffffffffffffffff1687604051610a639061262e565b60006040518083038185875af1925050503d8060008114610aa0576040519150601f19603f3d011682016040523d82523d6000602084013e610aa5565b606091505b5050905080610ae9576040517f08c379a0000000000000000000000000000000000000000000000000000000008152600401610ae09061268f565b60405180910390fd5b50610bd2565b610b1a89878973ffffffffffffffffffffffffffffffffffffffff166117919092919063ffffffff16565b6000851115610bd15760008973ffffffffffffffffffffffffffffffffffffffff1686604051610b499061262e565b60006040518083038185875af1925050503d8060008114610b86576040519150601f19603f3d011682016040523d82523d6000602084013e610b8b565b606091505b5050905080610bcf576040517f08c379a0000000000000000000000000000000000000000000000000000000008152600401610bc69061268f565b60405180910390fd5b505b5b7f70a8f332cabb778f79acc5b97cbb4543970a2f1a34bd0773e4b3012931f752dc82604051610c0191906126af565b60405180910390a1505050505050505050565b6000888885858a8a8a46604051602001610c35989796959493929190612493565b60405160208183030381529060405280519060200120905060006005600083815260200190815260200160002060009054906101000a900460ff16905060016003811115610c8657610c85611d37565b5b816003811115610c9957610c98611d37565b5b14610cd9576040517f08c379a0000000000000000000000000000000000000000000000000000000008152600401610cd090612571565b60405180910390fd5b82604051602001610cea91906126ca565b604051602081830303815290604052805190602001208514610d41576040517f08c379a0000000000000000000000000000000000000000000000000000000008152600401610d3890612731565b60405180910390fd5b60026005600084815260200190815260200160002060006101000a81548160ff02191690836003811115610d7857610d77611d37565b5b0217905550600073ffffffffffffffffffffffffffffffffffffffff168873ffffffffffffffffffffffffffffffffffffffff1603610f57576000610dbd8989611817565b905060008189610dcd9190612780565b90506000808c73ffffffffffffffffffffffffffffffffffffffff1683604051610df69061262e565b60006040518083038185875af1925050503d8060008114610e33576040519150601f19603f3d011682016040523d82523d6000602084013e610e38565b606091505b509150915081610e7d576040517f08c379a0000000000000000000000000000000000000000000000000000000008152600401610e749061268f565b60405180910390fd5b600460009054906101000a900473ffffffffffffffffffffffffffffffffffffffff1673ffffffffffffffffffffffffffffffffffffffff1684604051610ec39061262e565b60006040518083038185875af1925050503d8060008114610f00576040519150601f19603f3d011682016040523d82523d6000602084013e610f05565b606091505b50809250819350505081610f4e576040517f08c379a0000000000000000000000000000000000000000000000000000000008152600401610f459061268f565b60405180910390fd5b50505050611196565b6000610f638989611817565b905060008189610f739190612780565b9050610fa08b828c73ffffffffffffffffffffffffffffffffffffffff166117919092919063ffffffff16565b610fed600460009054906101000a900473ffffffffffffffffffffffffffffffffffffffff16838c73ffffffffffffffffffffffffffffffffffffffff166117919092919063ffffffff16565b600088111561119357611001600089611817565b9150818861100f9190612780565b90506000808c73ffffffffffffffffffffffffffffffffffffffff16836040516110389061262e565b60006040518083038185875af1925050503d8060008114611075576040519150601f19603f3d011682016040523d82523d6000602084013e61107a565b606091505b5091509150816110bf576040517f08c379a00000000000000000000000000000000000000000000000000000000081526004016110b69061268f565b60405180910390fd5b600460009054906101000a900473ffffffffffffffffffffffffffffffffffffffff1673ffffffffffffffffffffffffffffffffffffffff16846040516111059061262e565b60006040518083038185875af1925050503d8060008114611142576040519150601f19603f3d011682016040523d82523d6000602084013e611147565b606091505b50809250819350505081611190576040517f08c379a00000000000000000000000000000000000000000000000000000000081526004016111879061268f565b60405180910390fd5b50505b50505b7fb7ae890c7a4721f7ed769dabfeee74f0e0f5bcdaad9cab432ccea4d9fa435b5082846040516111c79291906127b4565b60405180910390a150505050505050505050565b6111e3611402565b73ffffffffffffffffffffffffffffffffffffffff1660008054906101000a900473ffffffffffffffffffffffffffffffffffffffff1673ffffffffffffffffffffffffffffffffffffffff1614611270576040517f08c379a0000000000000000000000000000000000000000000000000000000008152600401611267906121d3565b60405180910390fd5b80600460006101000a81548173ffffffffffffffffffffffffffffffffffffffff021916908373ffffffffffffffffffffffffffffffffffffffff16021790555050565b60025481565b6112c2611402565b73ffffffffffffffffffffffffffffffffffffffff1660008054906101000a900473ffffffffffffffffffffffffffffffffffffffff1673ffffffffffffffffffffffffffffffffffffffff161461134f576040517f08c379a0000000000000000000000000000000000000000000000000000000008152600401611346906121d3565b60405180910390fd5b600073ffffffffffffffffffffffffffffffffffffffff168173ffffffffffffffffffffffffffffffffffffffff16036113be576040517f08c379a00000000000000000000000000000000000000000000000000000000081526004016113b590612829565b60405180910390fd5b80600160006101000a81548173ffffffffffffffffffffffffffffffffffffffff021916908373ffffffffffffffffffffffffffffffffffffffff16021790555050565b600033905090565b600080851161144e576040517f08c379a000000000000000000000000000000000000000000000000000000000815260040161144590612895565b60405180910390fd5b428267ffffffffffffffff161161149a576040517f08c379a000000000000000000000000000000000000000000000000000000000815260040161149190612901565b60405180910390fd5b87878484898989466040516020016114b9989796959493929190612493565b604051602081830303815290604052805190602001209050600060038111156114e5576114e4611d37565b5b6005600083815260200190815260200160002060009054906101000a900460ff16600381111561151857611517611d37565b5b14611558576040517f08c379a000000000000000000000000000000000000000000000000000000000815260040161154f9061296d565b60405180910390fd5b600073ffffffffffffffffffffffffffffffffffffffff168673ffffffffffffffffffffffffffffffffffffffff160361161657600084146115cf576040517f08c379a00000000000000000000000000000000000000000000000000000000081526004016115c6906129d9565b60405180910390fd5b348514611611576040517f08c379a000000000000000000000000000000000000000000000000000000000815260040161160890612a45565b60405180910390fd5b611686565b348414611658576040517f08c379a000000000000000000000000000000000000000000000000000000000815260040161164f90612a45565b60405180910390fd5b6116858830878973ffffffffffffffffffffffffffffffffffffffff1661189e909392919063ffffffff16565b5b60016005600083815260200190815260200160002060006101000a81548160ff021916908360038111156116bd576116bc611d37565b5b0217905550979650505050505050565b60008060009054906101000a900473ffffffffffffffffffffffffffffffffffffffff169050816000806101000a81548173ffffffffffffffffffffffffffffffffffffffff021916908373ffffffffffffffffffffffffffffffffffffffff1602179055508173ffffffffffffffffffffffffffffffffffffffff168173ffffffffffffffffffffffffffffffffffffffff167f8be0079c531659141344cd1fd0a4f28419497f9722a3daafe3b4186f6b6457e060405160405180910390a35050565b6118128363a9059cbb60e01b84846040516024016117b0929190612a65565b604051602081830303815290604052907bffffffffffffffffffffffffffffffffffffffffffffffffffffffff19166020820180517bffffffffffffffffffffffffffffffffffffffffffffffffffffffff8381831617835250505050611927565b505050565b6000806127106002548461182b9190612a8e565b6118359190612aff565b90506000600360008673ffffffffffffffffffffffffffffffffffffffff1673ffffffffffffffffffffffffffffffffffffffff16815260200190815260200160002054905060008111801561188a57508082115b15611893578091505b819250505092915050565b611921846323b872dd60e01b8585856040516024016118bf93929190612b30565b604051602081830303815290604052907bffffffffffffffffffffffffffffffffffffffffffffffffffffffff19166020820180517bffffffffffffffffffffffffffffffffffffffffffffffffffffffff8381831617835250505050611927565b50505050565b6000611989826040518060400160405280602081526020017f5361666545524332303a206c6f772d6c6576656c2063616c6c206661696c65648152508573ffffffffffffffffffffffffffffffffffffffff166119ee9092919063ffffffff16565b90506000815111156119e957808060200190518101906119a99190612b9f565b6119e8576040517f08c379a00000000000000000000000000000000000000000000000000000000081526004016119df90612c3e565b60405180910390fd5b5b505050565b60606119fd8484600085611a06565b90509392505050565b606082471015611a4b576040517f08c379a0000000000000000000000000000000000000000000000000000000008152600401611a4290612cd0565b60405180910390fd5b611a5485611b1a565b611a93576040517f08c379a0000000000000000000000000000000000000000000000000000000008152600401611a8a90612d3c565b60405180910390fd5b6000808673ffffffffffffffffffffffffffffffffffffffff168587604051611abc9190612dc2565b60006040518083038185875af1925050503d8060008114611af9576040519150601f19603f3d011682016040523d82523d6000602084013e611afe565b606091505b5091509150611b0e828286611b3d565b92505050949350505050565b6000808273ffffffffffffffffffffffffffffffffffffffff163b119050919050565b60608315611b4d57829050611b9d565b600083511115611b605782518084602001fd5b816040517f08c379a0000000000000000000000000000000000000000000000000000000008152600401611b949190612e2e565b60405180910390fd5b9392505050565b600080fd5b600073ffffffffffffffffffffffffffffffffffffffff82169050919050565b6000611bd482611ba9565b9050919050565b611be481611bc9565b8114611bef57600080fd5b50565b600081359050611c0181611bdb565b92915050565b600060208284031215611c1d57611c1c611ba4565b5b6000611c2b84828501611bf2565b91505092915050565b6000819050919050565b611c4781611c34565b82525050565b6000602082019050611c626000830184611c3e565b92915050565b611c7181611c34565b8114611c7c57600080fd5b50565b600081359050611c8e81611c68565b92915050565b60008060408385031215611cab57611caa611ba4565b5b6000611cb985828601611bf2565b9250506020611cca85828601611c7f565b9150509250929050565b6000819050919050565b611ce781611cd4565b8114611cf257600080fd5b50565b600081359050611d0481611cde565b92915050565b600060208284031215611d2057611d1f611ba4565b5b6000611d2e84828501611cf5565b91505092915050565b7f4e487b7100000000000000000000000000000000000000000000000000000000600052602160045260246000fd5b60048110611d7757611d76611d37565b5b50565b6000819050611d8882611d66565b919050565b6000611d9882611d7a565b9050919050565b611da881611d8d565b82525050565b6000602082019050611dc36000830184611d9f565b92915050565b600067ffffffffffffffff82169050919050565b611de681611dc9565b8114611df157600080fd5b50565b600081359050611e0381611ddd565b92915050565b60008060008060008060008060008060006101608c8e031215611e2f57611e2e611ba4565b5b6000611e3d8e828f01611bf2565b9b50506020611e4e8e828f01611bf2565b9a50506040611e5f8e828f01611bf2565b9950506060611e708e828f01611c7f565b9850506080611e818e828f01611cf5565b97505060a0611e928e828f01611df4565b96505060c0611ea38e828f01611df4565b95505060e0611eb48e828f01611c7f565b945050610100611ec68e828f01611df4565b935050610120611ed88e828f01611c7f565b925050610140611eea8e828f01611c7f565b9150509295989b509295989b9093969950565b611f0681611bc9565b82525050565b6000602082019050611f216000830184611efd565b92915050565b60008060008060008060008060006101208a8c031215611f4a57611f49611ba4565b5b6000611f588c828d01611bf2565b9950506020611f698c828d01611bf2565b9850506040611f7a8c828d01611bf2565b9750506060611f8b8c828d01611c7f565b9650506080611f9c8c828d01611c7f565b95505060a0611fad8c828d01611cf5565b94505060c0611fbe8c828d01611df4565b93505060e0611fcf8c828d01611df4565b925050610100611fe18c828d01611cf5565b9150509295985092959850929598565b60006020828403121561200757612006611ba4565b5b600061201584828501611c7f565b91505092915050565b600080600080600080600060e0888a03121561203d5761203c611ba4565b5b600061204b8a828b01611bf2565b975050602061205c8a828b01611bf2565b965050604061206d8a828b01611bf2565b955050606061207e8a828b01611c7f565b945050608061208f8a828b01611c7f565b93505060a06120a08a828b01611cf5565b92505060c06120b18a828b01611df4565b91505092959891949750929550565b600080600080600080600080610100898b0312156120e1576120e0611ba4565b5b60006120ef8b828c01611bf2565b98505060206121008b828c01611bf2565b97505060406121118b828c01611bf2565b96505060606121228b828c01611c7f565b95505060806121338b828c01611c7f565b94505060a06121448b828c01611cf5565b93505060c06121558b828c01611df4565b92505060e06121668b828c01611cf5565b9150509295985092959890939650565b600082825260208201905092915050565b7f4f776e61626c653a2063616c6c6572206973206e6f7420746865206f776e6572600082015250565b60006121bd602083612176565b91506121c882612187565b602082019050919050565b600060208201905081810360008301526121ec816121b0565b9050919050565b7f726571756972652073656e646572000000000000000000000000000000000000600082015250565b6000612229600e83612176565b9150612234826121f3565b602082019050919050565b600060208201905081810360008301526122588161221c565b9050919050565b61226881611cd4565b82525050565b61227781611dc9565b82525050565b600061018082019050612293600083018f61225f565b6122a0602083018e611efd565b6122ad604083018d611efd565b6122ba606083018c611efd565b6122c7608083018b611c3e565b6122d460a083018a61225f565b6122e160c083018961226e565b6122ee60e083018861226e565b6122fc610100830187611c3e565b61230a61012083018661226e565b612318610140830185611c3e565b612326610160830184611c3e565b9d9c50505050505050505050505050565b60006101408201905061234d600083018d61225f565b61235a602083018c611efd565b612367604083018b611efd565b612374606083018a611efd565b6123816080830189611c3e565b61238e60a0830188611c3e565b61239b60c083018761225f565b6123a860e083018661226e565b6123b661010083018561226e565b6123c461012083018461225f565b9b9a5050505050505050505050565b60008160601b9050919050565b60006123eb826123d3565b9050919050565b60006123fd826123e0565b9050919050565b61241561241082611bc9565b6123f2565b82525050565b6000819050919050565b61243661243182611cd4565b61241b565b82525050565b60008160c01b9050919050565b60006124548261243c565b9050919050565b61246c61246782611dc9565b612449565b82525050565b6000819050919050565b61248d61248882611c34565b612472565b82525050565b600061249f828b612404565b6014820191506124af828a612404565b6014820191506124bf8289612425565b6020820191506124cf828861245b565b6008820191506124df8287612404565b6014820191506124ef828661247c565b6020820191506124ff828561247c565b60208201915061250f828461247c565b6020820191508190509998505050505050505050565b7f6e6f742070656e64696e67207472616e73666572000000000000000000000000600082015250565b600061255b601483612176565b915061256682612525565b602082019050919050565b6000602082019050818103600083015261258a8161254e565b9050919050565b7f74696d656c6f636b206e6f742079657420706173736564000000000000000000600082015250565b60006125c7601783612176565b91506125d282612591565b602082019050919050565b600060208201905081810360008301526125f6816125ba565b9050919050565b600081905092915050565b50565b60006126186000836125fd565b915061262382612608565b600082019050919050565b60006126398261260b565b9150819050919050565b7f4661696c656420746f2073656e64204574686572000000000000000000000000600082015250565b6000612679601483612176565b915061268482612643565b602082019050919050565b600060208201905081810360008301526126a88161266c565b9050919050565b60006020820190506126c4600083018461225f565b92915050565b60006126d68284612425565b60208201915081905092915050565b7f696e636f727265637420707265696d6167650000000000000000000000000000600082015250565b600061271b601283612176565b9150612726826126e5565b602082019050919050565b6000602082019050818103600083015261274a8161270e565b9050919050565b7f4e487b7100000000000000000000000000000000000000000000000000000000600052601160045260246000fd5b600061278b82611c34565b915061279683611c34565b92508282039050818111156127ae576127ad612751565b5b92915050565b60006040820190506127c9600083018561225f565b6127d6602083018461225f565b9392505050565b7f416464726573732073686f756c64206e6f742062652030780000000000000000600082015250565b6000612813601883612176565b915061281e826127dd565b602082019050919050565b6000602082019050818103600083015261284281612806565b9050919050565b7f696e76616c696420616d6f756e74000000000000000000000000000000000000600082015250565b600061287f600e83612176565b915061288a82612849565b602082019050919050565b600060208201905081810360008301526128ae81612872565b9050919050565b7f696e76616c69642074696d656c6f636b00000000000000000000000000000000600082015250565b60006128eb601083612176565b91506128f6826128b5565b602082019050919050565b6000602082019050818103600083015261291a816128de565b9050919050565b7f7472616e73666572206578697374730000000000000000000000000000000000600082015250565b6000612957600f83612176565b915061296282612921565b602082019050919050565b600060208201905081810360008301526129868161294a565b9050919050565b7f45746820416d6f756e742073686f756c64207a65726f00000000000000000000600082015250565b60006129c3601683612176565b91506129ce8261298d565b602082019050919050565b600060208201905081810360008301526129f2816129b6565b9050919050565b7f45746820416d6f756e74206d69736d6174636800000000000000000000000000600082015250565b6000612a2f601383612176565b9150612a3a826129f9565b602082019050919050565b60006020820190508181036000830152612a5e81612a22565b9050919050565b6000604082019050612a7a6000830185611efd565b612a876020830184611c3e565b9392505050565b6000612a9982611c34565b9150612aa483611c34565b9250828202612ab281611c34565b91508282048414831517612ac957612ac8612751565b5b5092915050565b7f4e487b7100000000000000000000000000000000000000000000000000000000600052601260045260246000fd5b6000612b0a82611c34565b9150612b1583611c34565b925082612b2557612b24612ad0565b5b828204905092915050565b6000606082019050612b456000830186611efd565b612b526020830185611efd565b612b5f6040830184611c3e565b949350505050565b60008115159050919050565b612b7c81612b67565b8114612b8757600080fd5b50565b600081519050612b9981612b73565b92915050565b600060208284031215612bb557612bb4611ba4565b5b6000612bc384828501612b8a565b91505092915050565b7f5361666545524332303a204552433230206f7065726174696f6e20646964206e60008201527f6f74207375636365656400000000000000000000000000000000000000000000602082015250565b6000612c28602a83612176565b9150612c3382612bcc565b604082019050919050565b60006020820190508181036000830152612c5781612c1b565b9050919050565b7f416464726573733a20696e73756666696369656e742062616c616e636520666f60008201527f722063616c6c0000000000000000000000000000000000000000000000000000602082015250565b6000612cba602683612176565b9150612cc582612c5e565b604082019050919050565b60006020820190508181036000830152612ce981612cad565b9050919050565b7f416464726573733a2063616c6c20746f206e6f6e2d636f6e7472616374000000600082015250565b6000612d26601d83612176565b9150612d3182612cf0565b602082019050919050565b60006020820190508181036000830152612d5581612d19565b9050919050565b600081519050919050565b60005b83811015612d85578082015181840152602081019050612d6a565b60008484015250505050565b6000612d9c82612d5c565b612da681856125fd565b9350612db6818560208601612d67565b80840191505092915050565b6000612dce8284612d91565b915081905092915050565b600081519050919050565b6000601f19601f8301169050919050565b6000612e0082612dd9565b612e0a8185612176565b9350612e1a818560208601612d67565b612e2381612de4565b840191505092915050565b60006020820190508181036000830152612e488184612df5565b90509291505056fea2646970667358221220a29fe8ac8ac79f32e6702d9e9438b529491b5ced1dd1b475aac7300bc93ccc4364736f6c63430008110033",
  "linkReferences": {},
  "deployedLinkReferences": {}
}