{
	"contracts/OBridge.sol": {
		"OBridge": {
			"abi": [
				{
					"anonymous": false,
					"inputs": [
						{
							"indexed": false,
							"internalType": "bytes32",
							"name": "transferId",
							"type": "bytes32"
						},
						{
							"indexed": false,
							"internalType": "address",
							"name": "sender",
							"type": "address"
						},
						{
							"indexed": false,
							"internalType": "address",
							"name": "receiver",
							"type": "address"
						},
						{
							"indexed": false,
							"internalType": "address",
							"name": "token",
							"type": "address"
						},
						{
							"indexed": false,
							"internalType": "uint256",
							"name": "token_amount",
							"type": "uint256"
						},
						{
							"indexed": false,
							"internalType": "uint256",
							"name": "eth_amount",
							"type": "uint256"
						},
						{
							"indexed": false,
							"internalType": "bytes32",
							"name": "hashlock",
							"type": "bytes32"
						},
						{
							"indexed": false,
							"internalType": "uint64",
							"name": "timelock",
							"type": "uint64"
						},
						{
							"indexed": false,
							"internalType": "uint64",
							"name": "srcChainId",
							"type": "uint64"
						},
						{
							"indexed": false,
							"internalType": "bytes32",
							"name": "srcTransferId",
							"type": "bytes32"
						}
					],
					"name": "LogNewTransferIn",
					"type": "event"
				},
				{
					"anonymous": false,
					"inputs": [
						{
							"indexed": false,
							"internalType": "bytes32",
							"name": "transferId",
							"type": "bytes32"
						},
						{
							"indexed": false,
							"internalType": "address",
							"name": "sender",
							"type": "address"
						},
						{
							"indexed": false,
							"internalType": "address",
							"name": "receiver",
							"type": "address"
						},
						{
							"indexed": false,
							"internalType": "address",
							"name": "token",
							"type": "address"
						},
						{
							"indexed": false,
							"internalType": "uint256",
							"name": "amount",
							"type": "uint256"
						},
						{
							"indexed": false,
							"internalType": "bytes32",
							"name": "hashlock",
							"type": "bytes32"
						},
						{
							"indexed": false,
							"internalType": "uint64",
							"name": "timelock",
							"type": "uint64"
						},
						{
							"indexed": false,
							"internalType": "uint64",
							"name": "dstChainId",
							"type": "uint64"
						},
						{
							"indexed": false,
							"internalType": "uint256",
							"name": "dstAddress",
							"type": "uint256"
						},
						{
							"indexed": false,
							"internalType": "uint64",
							"name": "bidId",
							"type": "uint64"
						},
						{
							"indexed": false,
							"internalType": "uint256",
							"name": "tokenDst",
							"type": "uint256"
						},
						{
							"indexed": false,
							"internalType": "uint256",
							"name": "amountDst",
							"type": "uint256"
						}
					],
					"name": "LogNewTransferOut",
					"type": "event"
				},
				{
					"anonymous": false,
					"inputs": [
						{
							"indexed": false,
							"internalType": "bytes32",
							"name": "transferId",
							"type": "bytes32"
						},
						{
							"indexed": false,
							"internalType": "bytes32",
							"name": "preimage",
							"type": "bytes32"
						}
					],
					"name": "LogTransferConfirmed",
					"type": "event"
				},
				{
					"anonymous": false,
					"inputs": [
						{
							"indexed": false,
							"internalType": "bytes32",
							"name": "transferId",
							"type": "bytes32"
						}
					],
					"name": "LogTransferRefunded",
					"type": "event"
				},
				{
					"anonymous": false,
					"inputs": [
						{
							"indexed": true,
							"internalType": "address",
							"name": "previousOwner",
							"type": "address"
						},
						{
							"indexed": true,
							"internalType": "address",
							"name": "newOwner",
							"type": "address"
						}
					],
					"name": "OwnershipTransferred",
					"type": "event"
				},
				{
					"inputs": [],
					"name": "approveOwnership",
					"outputs": [],
					"stateMutability": "nonpayable",
					"type": "function"
				},
				{
					"inputs": [],
					"name": "basisPointsRate",
					"outputs": [
						{
							"internalType": "uint256",
							"name": "",
							"type": "uint256"
						}
					],
					"stateMutability": "view",
					"type": "function"
				},
				{
					"inputs": [
						{
							"internalType": "address",
							"name": "_sender",
							"type": "address"
						},
						{
							"internalType": "address",
							"name": "_receiver",
							"type": "address"
						},
						{
							"internalType": "address",
							"name": "_token",
							"type": "address"
						},
						{
							"internalType": "uint256",
							"name": "_token_amount",
							"type": "uint256"
						},
						{
							"internalType": "uint256",
							"name": "_eth_amount",
							"type": "uint256"
						},
						{
							"internalType": "bytes32",
							"name": "_hashlock",
							"type": "bytes32"
						},
						{
							"internalType": "uint64",
							"name": "_timelock",
							"type": "uint64"
						},
						{
							"internalType": "bytes32",
							"name": "_preimage",
							"type": "bytes32"
						}
					],
					"name": "confirm",
					"outputs": [],
					"stateMutability": "nonpayable",
					"type": "function"
				},
				{
					"inputs": [
						{
							"internalType": "address",
							"name": "",
							"type": "address"
						}
					],
					"name": "maximumFee",
					"outputs": [
						{
							"internalType": "uint256",
							"name": "",
							"type": "uint256"
						}
					],
					"stateMutability": "view",
					"type": "function"
				},
				{
					"inputs": [],
					"name": "nextOwner",
					"outputs": [
						{
							"internalType": "address",
							"name": "",
							"type": "address"
						}
					],
					"stateMutability": "view",
					"type": "function"
				},
				{
					"inputs": [],
					"name": "owner",
					"outputs": [
						{
							"internalType": "address",
							"name": "",
							"type": "address"
						}
					],
					"stateMutability": "view",
					"type": "function"
				},
				{
					"inputs": [
						{
							"internalType": "address",
							"name": "_sender",
							"type": "address"
						},
						{
							"internalType": "address",
							"name": "_receiver",
							"type": "address"
						},
						{
							"internalType": "address",
							"name": "_token",
							"type": "address"
						},
						{
							"internalType": "uint256",
							"name": "_token_amount",
							"type": "uint256"
						},
						{
							"internalType": "uint256",
							"name": "_eth_amount",
							"type": "uint256"
						},
						{
							"internalType": "bytes32",
							"name": "_hashlock",
							"type": "bytes32"
						},
						{
							"internalType": "uint64",
							"name": "_timelock",
							"type": "uint64"
						}
					],
					"name": "refund",
					"outputs": [],
					"stateMutability": "nonpayable",
					"type": "function"
				},
				{
					"inputs": [],
					"name": "renounceOwnership",
					"outputs": [],
					"stateMutability": "nonpayable",
					"type": "function"
				},
				{
					"inputs": [
						{
							"internalType": "uint256",
							"name": "rate",
							"type": "uint256"
						}
					],
					"name": "setBasisPointsRate",
					"outputs": [],
					"stateMutability": "nonpayable",
					"type": "function"
				},
				{
					"inputs": [
						{
							"internalType": "address",
							"name": "token",
							"type": "address"
						},
						{
							"internalType": "uint256",
							"name": "fee",
							"type": "uint256"
						}
					],
					"name": "setMaximumFee",
					"outputs": [],
					"stateMutability": "nonpayable",
					"type": "function"
				},
				{
					"inputs": [
						{
							"internalType": "address",
							"name": "toll",
							"type": "address"
						}
					],
					"name": "setTollAddress",
					"outputs": [],
					"stateMutability": "nonpayable",
					"type": "function"
				},
				{
					"inputs": [],
					"name": "tollAddress",
					"outputs": [
						{
							"internalType": "address",
							"name": "",
							"type": "address"
						}
					],
					"stateMutability": "view",
					"type": "function"
				},
				{
					"inputs": [
						{
							"internalType": "address",
							"name": "_sender",
							"type": "address"
						},
						{
							"internalType": "address",
							"name": "_dstAddress",
							"type": "address"
						},
						{
							"internalType": "address",
							"name": "_token",
							"type": "address"
						},
						{
							"internalType": "uint256",
							"name": "_token_amount",
							"type": "uint256"
						},
						{
							"internalType": "uint256",
							"name": "_eth_amount",
							"type": "uint256"
						},
						{
							"internalType": "bytes32",
							"name": "_hashlock",
							"type": "bytes32"
						},
						{
							"internalType": "uint64",
							"name": "_timelock",
							"type": "uint64"
						},
						{
							"internalType": "uint64",
							"name": "_srcChainId",
							"type": "uint64"
						},
						{
							"internalType": "bytes32",
							"name": "_srcTransferId",
							"type": "bytes32"
						}
					],
					"name": "transferIn",
					"outputs": [],
					"stateMutability": "payable",
					"type": "function"
				},
				{
					"inputs": [
						{
							"internalType": "address",
							"name": "_sender",
							"type": "address"
						},
						{
							"internalType": "address",
							"name": "_bridge",
							"type": "address"
						},
						{
							"internalType": "address",
							"name": "_token",
							"type": "address"
						},
						{
							"internalType": "uint256",
							"name": "_amount",
							"type": "uint256"
						},
						{
							"internalType": "bytes32",
							"name": "_hashlock",
							"type": "bytes32"
						},
						{
							"internalType": "uint64",
							"name": "_timelock",
							"type": "uint64"
						},
						{
							"internalType": "uint64",
							"name": "_dstChainId",
							"type": "uint64"
						},
						{
							"internalType": "uint256",
							"name": "_dstAddress",
							"type": "uint256"
						},
						{
							"internalType": "uint64",
							"name": "_bidId",
							"type": "uint64"
						},
						{
							"internalType": "uint256",
							"name": "_tokenDst",
							"type": "uint256"
						},
						{
							"internalType": "uint256",
							"name": "_amountDst",
							"type": "uint256"
						}
					],
					"name": "transferOut",
					"outputs": [],
					"stateMutability": "payable",
					"type": "function"
				},
				{
					"inputs": [
						{
							"internalType": "address",
							"name": "_newOwner",
							"type": "address"
						}
					],
					"name": "transferOwnership",
					"outputs": [],
					"stateMutability": "nonpayable",
					"type": "function"
				},
				{
					"inputs": [
						{
							"internalType": "bytes32",
							"name": "",
							"type": "bytes32"
						}
					],
					"name": "transfers",
					"outputs": [
						{
							"internalType": "enum OBridge.TransferStatus",
							"name": "",
							"type": "uint8"
						}
					],
					"stateMutability": "view",
					"type": "function"
				},
				{
					"stateMutability": "payable",
					"type": "receive"
				}
			],
			"devdoc": {
				"kind": "dev",
				"methods": {
					"renounceOwnership()": {
						"details": "Leaves the contract without owner. It will not be possible to call `onlyOwner` functions anymore. Can only be called by the current owner. NOTE: Renouncing ownership will leave the contract without an owner, thereby removing any functionality that is only available to the owner."
					},
					"transferIn(address,address,address,uint256,uint256,bytes32,uint64,uint64,bytes32)": {
						"details": "transfer sets up a new inbound transfer with hash time lock."
					},
					"transferOut(address,address,address,uint256,bytes32,uint64,uint64,uint256,uint64,uint256,uint256)": {
						"details": "transfer sets up a new outbound transfer with hash time lock."
					},
					"transferOwnership(address)": {
						"details": "Allows the current owner to transfer control of the contract to a newOwner.",
						"params": {
							"_newOwner": "The address to transfer ownership to."
						}
					}
				},
				"version": 1
			},
			"evm": {
				"assembly": "    /* \"contracts/OBridge.sol\":3096:10083  contract OBridge is BridgeFee{... */\n  mstore(0x40, 0x80)\n    /* \"contracts/OBridge.sol\":2240:2241  0 */\n  0x00\n    /* \"contracts/OBridge.sol\":2207:2241  uint256 public basisPointsRate = 0 */\n  0x02\n  sstore\n    /* \"contracts/OBridge.sol\":3096:10083  contract OBridge is BridgeFee{... */\n  callvalue\n  dup1\n  iszero\n  tag_1\n  jumpi\n  0x00\n  dup1\n  revert\ntag_1:\n  pop\n    /* \"contracts/OBridge.sol\":868:891  _setOwner(_msgSender()) */\n  tag_5\n    /* \"contracts/OBridge.sol\":878:890  _msgSender() */\n  tag_6\n    /* \"contracts/OBridge.sol\":878:888  _msgSender */\n  shl(0x20, tag_7)\n    /* \"contracts/OBridge.sol\":878:890  _msgSender() */\n  0x20\n  shr\n  jump\t// in\ntag_6:\n    /* \"contracts/OBridge.sol\":868:877  _setOwner */\n  shl(0x20, tag_8)\n    /* \"contracts/OBridge.sol\":868:891  _setOwner(_msgSender()) */\n  0x20\n  shr\n  jump\t// in\ntag_5:\n    /* \"contracts/OBridge.sol\":2465:2477  _msgSender() */\n  tag_10\n    /* \"contracts/OBridge.sol\":2465:2475  _msgSender */\n  shl(0x20, tag_7)\n    /* \"contracts/OBridge.sol\":2465:2477  _msgSender() */\n  0x20\n  shr\n  jump\t// in\ntag_10:\n    /* \"contracts/OBridge.sol\":2451:2462  tollAddress */\n  0x04\n  0x00\n    /* \"contracts/OBridge.sol\":2451:2477  tollAddress = _msgSender() */\n  0x0100\n  exp\n  dup2\n  sload\n  dup2\n  0xffffffffffffffffffffffffffffffffffffffff\n  mul\n  not\n  and\n  swap1\n  dup4\n  0xffffffffffffffffffffffffffffffffffffffff\n  and\n  mul\n  or\n  swap1\n  sstore\n  pop\n    /* \"contracts/OBridge.sol\":3096:10083  contract OBridge is BridgeFee{... */\n  jump(tag_11)\n    /* \"contracts/OBridge.sol\":220:316  function _msgSender() internal view virtual returns (address) {... */\ntag_7:\n    /* \"contracts/OBridge.sol\":273:280  address */\n  0x00\n    /* \"contracts/OBridge.sol\":299:309  msg.sender */\n  caller\n    /* \"contracts/OBridge.sol\":292:309  return msg.sender */\n  swap1\n  pop\n    /* \"contracts/OBridge.sol\":220:316  function _msgSender() internal view virtual returns (address) {... */\n  swap1\n  jump\t// out\n    /* \"contracts/OBridge.sol\":2001:2168  function _setOwner(address newOwner) private {... */\ntag_8:\n    /* \"contracts/OBridge.sol\":2056:2072  address oldOwner */\n  0x00\n    /* \"contracts/OBridge.sol\":2075:2080  owner */\n  dup1\n  0x00\n  swap1\n  sload\n  swap1\n  0x0100\n  exp\n  swap1\n  div\n  0xffffffffffffffffffffffffffffffffffffffff\n  and\n    /* \"contracts/OBridge.sol\":2056:2080  address oldOwner = owner */\n  swap1\n  pop\n    /* \"contracts/OBridge.sol\":2098:2106  newOwner */\n  dup2\n    /* \"contracts/OBridge.sol\":2090:2095  owner */\n  0x00\n  dup1\n    /* \"contracts/OBridge.sol\":2090:2106  owner = newOwner */\n  0x0100\n  exp\n  dup2\n  sload\n  dup2\n  0xffffffffffffffffffffffffffffffffffffffff\n  mul\n  not\n  and\n  swap1\n  dup4\n  0xffffffffffffffffffffffffffffffffffffffff\n  and\n  mul\n  or\n  swap1\n  sstore\n  pop\n    /* \"contracts/OBridge.sol\":2152:2160  newOwner */\n  dup2\n    /* \"contracts/OBridge.sol\":2121:2161  OwnershipTransferred(oldOwner, newOwner) */\n  0xffffffffffffffffffffffffffffffffffffffff\n  and\n    /* \"contracts/OBridge.sol\":2142:2150  oldOwner */\n  dup2\n    /* \"contracts/OBridge.sol\":2121:2161  OwnershipTransferred(oldOwner, newOwner) */\n  0xffffffffffffffffffffffffffffffffffffffff\n  and\n  0x8be0079c531659141344cd1fd0a4f28419497f9722a3daafe3b4186f6b6457e0\n  mload(0x40)\n  mload(0x40)\n  dup1\n  swap2\n  sub\n  swap1\n  log3\n    /* \"contracts/OBridge.sol\":2046:2168  {... */\n  pop\n    /* \"contracts/OBridge.sol\":2001:2168  function _setOwner(address newOwner) private {... */\n  pop\n  jump\t// out\n    /* \"contracts/OBridge.sol\":3096:10083  contract OBridge is BridgeFee{... */\ntag_11:\n  dataSize(sub_0)\n  dup1\n  dataOffset(sub_0)\n  0x00\n  codecopy\n  0x00\n  return\nstop\n\nsub_0: assembly {\n        /* \"contracts/OBridge.sol\":3096:10083  contract OBridge is BridgeFee{... */\n      mstore(0x40, 0x80)\n      jumpi(tag_1, lt(calldatasize, 0x04))\n      shr(0xe0, calldataload(0x00))\n      dup1\n      0x715018a6\n      gt\n      tag_19\n      jumpi\n      dup1\n      0xb1f6beaf\n      gt\n      tag_20\n      jumpi\n      dup1\n      0xb1f6beaf\n      eq\n      tag_15\n      jumpi\n      dup1\n      0xb451192d\n      eq\n      tag_16\n      jumpi\n      dup1\n      0xdd644f72\n      eq\n      tag_17\n      jumpi\n      dup1\n      0xf2fde38b\n      eq\n      tag_18\n      jumpi\n      jump(tag_2)\n    tag_20:\n      dup1\n      0x715018a6\n      eq\n      tag_11\n      jumpi\n      dup1\n      0x742c81e4\n      eq\n      tag_12\n      jumpi\n      dup1\n      0x8da5cb5b\n      eq\n      tag_13\n      jumpi\n      dup1\n      0xaf1df20f\n      eq\n      tag_14\n      jumpi\n      jump(tag_2)\n    tag_19:\n      dup1\n      0x497b32d7\n      gt\n      tag_21\n      jumpi\n      dup1\n      0x497b32d7\n      eq\n      tag_7\n      jumpi\n      dup1\n      0x5e5e7fa1\n      eq\n      tag_8\n      jumpi\n      dup1\n      0x5fdf2be0\n      eq\n      tag_9\n      jumpi\n      dup1\n      0x69f3331d\n      eq\n      tag_10\n      jumpi\n      jump(tag_2)\n    tag_21:\n      dup1\n      0x05d06f5a\n      eq\n      tag_3\n      jumpi\n      dup1\n      0x36bdcab8\n      eq\n      tag_4\n      jumpi\n      dup1\n      0x3c64f04b\n      eq\n      tag_5\n      jumpi\n      dup1\n      0x46ce4a94\n      eq\n      tag_6\n      jumpi\n      jump(tag_2)\n    tag_1:\n      jumpi(tag_2, calldatasize)\n      stop\n    tag_2:\n      0x00\n      dup1\n      revert\n        /* \"contracts/OBridge.sol\":2247:2292  mapping(address => uint256) public maximumFee */\n    tag_3:\n      callvalue\n      dup1\n      iszero\n      tag_24\n      jumpi\n      0x00\n      dup1\n      revert\n    tag_24:\n      pop\n      tag_25\n      0x04\n      dup1\n      calldatasize\n      sub\n      dup2\n      add\n      swap1\n      tag_26\n      swap2\n      swap1\n      tag_27\n      jump\t// in\n    tag_26:\n      tag_28\n      jump\t// in\n    tag_25:\n      mload(0x40)\n      tag_29\n      swap2\n      swap1\n      tag_30\n      jump\t// in\n    tag_29:\n      mload(0x40)\n      dup1\n      swap2\n      sub\n      swap1\n      return\n        /* \"contracts/OBridge.sol\":2595:2704  function setMaximumFee(address token, uint256 fee) external onlyOwner{... */\n    tag_4:\n      callvalue\n      dup1\n      iszero\n      tag_31\n      jumpi\n      0x00\n      dup1\n      revert\n    tag_31:\n      pop\n      tag_32\n      0x04\n      dup1\n      calldatasize\n      sub\n      dup2\n      add\n      swap1\n      tag_33\n      swap2\n      swap1\n      tag_34\n      jump\t// in\n    tag_33:\n      tag_35\n      jump\t// in\n    tag_32:\n      stop\n        /* \"contracts/OBridge.sol\":3264:3315  mapping(bytes32 => TransferStatus) public transfers */\n    tag_5:\n      callvalue\n      dup1\n      iszero\n      tag_36\n      jumpi\n      0x00\n      dup1\n      revert\n    tag_36:\n      pop\n      tag_37\n      0x04\n      dup1\n      calldatasize\n      sub\n      dup2\n      add\n      swap1\n      tag_38\n      swap2\n      swap1\n      tag_39\n      jump\t// in\n    tag_38:\n      tag_40\n      jump\t// in\n    tag_37:\n      mload(0x40)\n      tag_41\n      swap2\n      swap1\n      tag_42\n      jump\t// in\n    tag_41:\n      mload(0x40)\n      dup1\n      swap2\n      sub\n      swap1\n      return\n        /* \"contracts/OBridge.sol\":4363:5181  function transferOut(... */\n    tag_6:\n      tag_43\n      0x04\n      dup1\n      calldatasize\n      sub\n      dup2\n      add\n      swap1\n      tag_44\n      swap2\n      swap1\n      tag_45\n      jump\t// in\n    tag_44:\n      tag_46\n      jump\t// in\n    tag_43:\n      stop\n        /* \"contracts/OBridge.sol\":2298:2324  address public tollAddress */\n    tag_7:\n      callvalue\n      dup1\n      iszero\n      tag_47\n      jumpi\n      0x00\n      dup1\n      revert\n    tag_47:\n      pop\n      tag_48\n      tag_49\n      jump\t// in\n    tag_48:\n      mload(0x40)\n      tag_50\n      swap2\n      swap1\n      tag_51\n      jump\t// in\n    tag_50:\n      mload(0x40)\n      dup1\n      swap2\n      sub\n      swap1\n      return\n        /* \"contracts/OBridge.sol\":5276:6040  function transferIn(... */\n    tag_8:\n      tag_52\n      0x04\n      dup1\n      calldatasize\n      sub\n      dup2\n      add\n      swap1\n      tag_53\n      swap2\n      swap1\n      tag_54\n      jump\t// in\n    tag_53:\n      tag_55\n      jump\t// in\n    tag_52:\n      stop\n        /* \"contracts/OBridge.sol\":2490:2589  function setBasisPointsRate(uint256 rate) external onlyOwner{... */\n    tag_9:\n      callvalue\n      dup1\n      iszero\n      tag_56\n      jumpi\n      0x00\n      dup1\n      revert\n    tag_56:\n      pop\n      tag_57\n      0x04\n      dup1\n      calldatasize\n      sub\n      dup2\n      add\n      swap1\n      tag_58\n      swap2\n      swap1\n      tag_59\n      jump\t// in\n    tag_58:\n      tag_60\n      jump\t// in\n    tag_57:\n      stop\n        /* \"contracts/OBridge.sol\":627:651  address public nextOwner */\n    tag_10:\n      callvalue\n      dup1\n      iszero\n      tag_61\n      jumpi\n      0x00\n      dup1\n      revert\n    tag_61:\n      pop\n      tag_62\n      tag_63\n      jump\t// in\n    tag_62:\n      mload(0x40)\n      tag_64\n      swap2\n      swap1\n      tag_51\n      jump\t// in\n    tag_64:\n      mload(0x40)\n      dup1\n      swap2\n      sub\n      swap1\n      return\n        /* \"contracts/OBridge.sol\":1443:1535  function renounceOwnership() public virtual onlyOwner {... */\n    tag_11:\n      callvalue\n      dup1\n      iszero\n      tag_65\n      jumpi\n      0x00\n      dup1\n      revert\n    tag_65:\n      pop\n      tag_66\n      tag_67\n      jump\t// in\n    tag_66:\n      stop\n        /* \"contracts/OBridge.sol\":1885:1995  function approveOwnership() public{... */\n    tag_12:\n      callvalue\n      dup1\n      iszero\n      tag_68\n      jumpi\n      0x00\n      dup1\n      revert\n    tag_68:\n      pop\n      tag_69\n      tag_70\n      jump\t// in\n    tag_69:\n      stop\n        /* \"contracts/OBridge.sol\":601:621  address public owner */\n    tag_13:\n      callvalue\n      dup1\n      iszero\n      tag_71\n      jumpi\n      0x00\n      dup1\n      revert\n    tag_71:\n      pop\n      tag_72\n      tag_73\n      jump\t// in\n    tag_72:\n      mload(0x40)\n      tag_74\n      swap2\n      swap1\n      tag_51\n      jump\t// in\n    tag_74:\n      mload(0x40)\n      dup1\n      swap2\n      sub\n      swap1\n      return\n        /* \"contracts/OBridge.sol\":7880:8980  function refund(... */\n    tag_14:\n      callvalue\n      dup1\n      iszero\n      tag_75\n      jumpi\n      0x00\n      dup1\n      revert\n    tag_75:\n      pop\n      tag_76\n      0x04\n      dup1\n      calldatasize\n      sub\n      dup2\n      add\n      swap1\n      tag_77\n      swap2\n      swap1\n      tag_78\n      jump\t// in\n    tag_77:\n      tag_79\n      jump\t// in\n    tag_76:\n      stop\n        /* \"contracts/OBridge.sol\":6051:7870  function confirm(... */\n    tag_15:\n      callvalue\n      dup1\n      iszero\n      tag_80\n      jumpi\n      0x00\n      dup1\n      revert\n    tag_80:\n      pop\n      tag_81\n      0x04\n      dup1\n      calldatasize\n      sub\n      dup2\n      add\n      swap1\n      tag_82\n      swap2\n      swap1\n      tag_83\n      jump\t// in\n    tag_82:\n      tag_84\n      jump\t// in\n    tag_81:\n      stop\n        /* \"contracts/OBridge.sol\":2710:2802  function setTollAddress(address toll) external onlyOwner {... */\n    tag_16:\n      callvalue\n      dup1\n      iszero\n      tag_85\n      jumpi\n      0x00\n      dup1\n      revert\n    tag_85:\n      pop\n      tag_86\n      0x04\n      dup1\n      calldatasize\n      sub\n      dup2\n      add\n      swap1\n      tag_87\n      swap2\n      swap1\n      tag_27\n      jump\t// in\n    tag_87:\n      tag_88\n      jump\t// in\n    tag_86:\n      stop\n        /* \"contracts/OBridge.sol\":2207:2241  uint256 public basisPointsRate = 0 */\n    tag_17:\n      callvalue\n      dup1\n      iszero\n      tag_89\n      jumpi\n      0x00\n      dup1\n      revert\n    tag_89:\n      pop\n      tag_90\n      tag_91\n      jump\t// in\n    tag_90:\n      mload(0x40)\n      tag_92\n      swap2\n      swap1\n      tag_30\n      jump\t// in\n    tag_92:\n      mload(0x40)\n      dup1\n      swap2\n      sub\n      swap1\n      return\n        /* \"contracts/OBridge.sol\":1704:1875  function transferOwnership(address _newOwner) public onlyOwner {... */\n    tag_18:\n      callvalue\n      dup1\n      iszero\n      tag_93\n      jumpi\n      0x00\n      dup1\n      revert\n    tag_93:\n      pop\n      tag_94\n      0x04\n      dup1\n      calldatasize\n      sub\n      dup2\n      add\n      swap1\n      tag_95\n      swap2\n      swap1\n      tag_27\n      jump\t// in\n    tag_95:\n      tag_96\n      jump\t// in\n    tag_94:\n      stop\n        /* \"contracts/OBridge.sol\":2247:2292  mapping(address => uint256) public maximumFee */\n    tag_28:\n      mstore(0x20, 0x03)\n      dup1\n      0x00\n      mstore\n      keccak256(0x00, 0x40)\n      0x00\n      swap2\n      pop\n      swap1\n      pop\n      sload\n      dup2\n      jump\t// out\n        /* \"contracts/OBridge.sol\":2595:2704  function setMaximumFee(address token, uint256 fee) external onlyOwner{... */\n    tag_35:\n        /* \"contracts/OBridge.sol\":1034:1046  _msgSender() */\n      tag_98\n        /* \"contracts/OBridge.sol\":1034:1044  _msgSender */\n      tag_99\n        /* \"contracts/OBridge.sol\":1034:1046  _msgSender() */\n      jump\t// in\n    tag_98:\n        /* \"contracts/OBridge.sol\":1025:1046  owner == _msgSender() */\n      0xffffffffffffffffffffffffffffffffffffffff\n      and\n        /* \"contracts/OBridge.sol\":1025:1030  owner */\n      0x00\n      dup1\n      sload\n      swap1\n      0x0100\n      exp\n      swap1\n      div\n      0xffffffffffffffffffffffffffffffffffffffff\n      and\n        /* \"contracts/OBridge.sol\":1025:1046  owner == _msgSender() */\n      0xffffffffffffffffffffffffffffffffffffffff\n      and\n      eq\n        /* \"contracts/OBridge.sol\":1017:1083  require(owner == _msgSender(), \"Ownable: caller is not the owner\") */\n      tag_100\n      jumpi\n      mload(0x40)\n      0x08c379a000000000000000000000000000000000000000000000000000000000\n      dup2\n      mstore\n      0x04\n      add\n      tag_101\n      swap1\n      tag_102\n      jump\t// in\n    tag_101:\n      mload(0x40)\n      dup1\n      swap2\n      sub\n      swap1\n      revert\n    tag_100:\n        /* \"contracts/OBridge.sol\":2694:2697  fee */\n      dup1\n        /* \"contracts/OBridge.sol\":2674:2684  maximumFee */\n      0x03\n        /* \"contracts/OBridge.sol\":2674:2691  maximumFee[token] */\n      0x00\n        /* \"contracts/OBridge.sol\":2685:2690  token */\n      dup5\n        /* \"contracts/OBridge.sol\":2674:2691  maximumFee[token] */\n      0xffffffffffffffffffffffffffffffffffffffff\n      and\n      0xffffffffffffffffffffffffffffffffffffffff\n      and\n      dup2\n      mstore\n      0x20\n      add\n      swap1\n      dup2\n      mstore\n      0x20\n      add\n      0x00\n      keccak256\n        /* \"contracts/OBridge.sol\":2674:2697  maximumFee[token] = fee */\n      dup2\n      swap1\n      sstore\n      pop\n        /* \"contracts/OBridge.sol\":2595:2704  function setMaximumFee(address token, uint256 fee) external onlyOwner{... */\n      pop\n      pop\n      jump\t// out\n        /* \"contracts/OBridge.sol\":3264:3315  mapping(bytes32 => TransferStatus) public transfers */\n    tag_40:\n      mstore(0x20, 0x05)\n      dup1\n      0x00\n      mstore\n      keccak256(0x00, 0x40)\n      0x00\n      swap2\n      pop\n      sload\n      swap1\n      0x0100\n      exp\n      swap1\n      div\n      0xff\n      and\n      dup2\n      jump\t// out\n        /* \"contracts/OBridge.sol\":4363:5181  function transferOut(... */\n    tag_46:\n        /* \"contracts/OBridge.sol\":4727:4734  _sender */\n      dup11\n        /* \"contracts/OBridge.sol\":4713:4734  msg.sender == _sender */\n      0xffffffffffffffffffffffffffffffffffffffff\n      and\n        /* \"contracts/OBridge.sol\":4713:4723  msg.sender */\n      caller\n        /* \"contracts/OBridge.sol\":4713:4734  msg.sender == _sender */\n      0xffffffffffffffffffffffffffffffffffffffff\n      and\n      eq\n        /* \"contracts/OBridge.sol\":4704:4753  require( msg.sender == _sender, \"require sender\") */\n      tag_105\n      jumpi\n      mload(0x40)\n      0x08c379a000000000000000000000000000000000000000000000000000000000\n      dup2\n      mstore\n      0x04\n      add\n      tag_106\n      swap1\n      tag_107\n      jump\t// in\n    tag_106:\n      mload(0x40)\n      dup1\n      swap2\n      sub\n      swap1\n      revert\n    tag_105:\n        /* \"contracts/OBridge.sol\":4772:4790  bytes32 transferId */\n      0x00\n        /* \"contracts/OBridge.sol\":4793:4862  _transfer(_sender, _bridge, _token, _amount, 0, _hashlock, _timelock) */\n      tag_108\n        /* \"contracts/OBridge.sol\":4803:4810  _sender */\n      dup13\n        /* \"contracts/OBridge.sol\":4812:4819  _bridge */\n      dup13\n        /* \"contracts/OBridge.sol\":4821:4827  _token */\n      dup13\n        /* \"contracts/OBridge.sol\":4829:4836  _amount */\n      dup13\n        /* \"contracts/OBridge.sol\":4838:4839  0 */\n      0x00\n        /* \"contracts/OBridge.sol\":4841:4850  _hashlock */\n      dup14\n        /* \"contracts/OBridge.sol\":4852:4861  _timelock */\n      dup14\n        /* \"contracts/OBridge.sol\":4793:4802  _transfer */\n      tag_109\n        /* \"contracts/OBridge.sol\":4793:4862  _transfer(_sender, _bridge, _token, _amount, 0, _hashlock, _timelock) */\n      jump\t// in\n    tag_108:\n        /* \"contracts/OBridge.sol\":4772:4862  bytes32 transferId = _transfer(_sender, _bridge, _token, _amount, 0, _hashlock, _timelock) */\n      swap1\n      pop\n        /* \"contracts/OBridge.sol\":4877:5174  LogNewTransferOut(... */\n      0x573e213380faa927b1c1335457fe327e653e0604ed6a2c2f878f06a042896511\n        /* \"contracts/OBridge.sol\":4908:4918  transferId */\n      dup2\n        /* \"contracts/OBridge.sol\":4932:4939  _sender */\n      dup14\n        /* \"contracts/OBridge.sol\":4953:4960  _bridge */\n      dup14\n        /* \"contracts/OBridge.sol\":4974:4980  _token */\n      dup14\n        /* \"contracts/OBridge.sol\":4994:5001  _amount */\n      dup14\n        /* \"contracts/OBridge.sol\":5015:5024  _hashlock */\n      dup14\n        /* \"contracts/OBridge.sol\":5038:5047  _timelock */\n      dup14\n        /* \"contracts/OBridge.sol\":5061:5072  _dstChainId */\n      dup14\n        /* \"contracts/OBridge.sol\":5086:5097  _dstAddress */\n      dup14\n        /* \"contracts/OBridge.sol\":5111:5117  _bidId */\n      dup14\n        /* \"contracts/OBridge.sol\":5131:5140  _tokenDst */\n      dup14\n        /* \"contracts/OBridge.sol\":5154:5164  _amountDst */\n      dup14\n        /* \"contracts/OBridge.sol\":4877:5174  LogNewTransferOut(... */\n      mload(0x40)\n      tag_110\n      swap13\n      swap12\n      swap11\n      swap10\n      swap9\n      swap8\n      swap7\n      swap6\n      swap5\n      swap4\n      swap3\n      swap2\n      swap1\n      tag_111\n      jump\t// in\n    tag_110:\n      mload(0x40)\n      dup1\n      swap2\n      sub\n      swap1\n      log1\n        /* \"contracts/OBridge.sol\":4694:5181  {... */\n      pop\n        /* \"contracts/OBridge.sol\":4363:5181  function transferOut(... */\n      pop\n      pop\n      pop\n      pop\n      pop\n      pop\n      pop\n      pop\n      pop\n      pop\n      pop\n      jump\t// out\n        /* \"contracts/OBridge.sol\":2298:2324  address public tollAddress */\n    tag_49:\n      0x04\n      0x00\n      swap1\n      sload\n      swap1\n      0x0100\n      exp\n      swap1\n      div\n      0xffffffffffffffffffffffffffffffffffffffff\n      and\n      dup2\n      jump\t// out\n        /* \"contracts/OBridge.sol\":5276:6040  function transferIn(... */\n    tag_55:\n        /* \"contracts/OBridge.sol\":5604:5611  _sender */\n      dup9\n        /* \"contracts/OBridge.sol\":5590:5611  msg.sender == _sender */\n      0xffffffffffffffffffffffffffffffffffffffff\n      and\n        /* \"contracts/OBridge.sol\":5590:5600  msg.sender */\n      caller\n        /* \"contracts/OBridge.sol\":5590:5611  msg.sender == _sender */\n      0xffffffffffffffffffffffffffffffffffffffff\n      and\n      eq\n        /* \"contracts/OBridge.sol\":5581:5630  require( msg.sender == _sender, \"require sender\") */\n      tag_113\n      jumpi\n      mload(0x40)\n      0x08c379a000000000000000000000000000000000000000000000000000000000\n      dup2\n      mstore\n      0x04\n      add\n      tag_114\n      swap1\n      tag_107\n      jump\t// in\n    tag_114:\n      mload(0x40)\n      dup1\n      swap2\n      sub\n      swap1\n      revert\n    tag_113:\n        /* \"contracts/OBridge.sol\":5641:5659  bytes32 transferId */\n      0x00\n        /* \"contracts/OBridge.sol\":5662:5751  _transfer(_sender, _dstAddress, _token, _token_amount, _eth_amount, _hashlock, _timelock) */\n      tag_115\n        /* \"contracts/OBridge.sol\":5672:5679  _sender */\n      dup11\n        /* \"contracts/OBridge.sol\":5681:5692  _dstAddress */\n      dup11\n        /* \"contracts/OBridge.sol\":5694:5700  _token */\n      dup11\n        /* \"contracts/OBridge.sol\":5702:5715  _token_amount */\n      dup11\n        /* \"contracts/OBridge.sol\":5717:5728  _eth_amount */\n      dup11\n        /* \"contracts/OBridge.sol\":5730:5739  _hashlock */\n      dup11\n        /* \"contracts/OBridge.sol\":5741:5750  _timelock */\n      dup11\n        /* \"contracts/OBridge.sol\":5662:5671  _transfer */\n      tag_109\n        /* \"contracts/OBridge.sol\":5662:5751  _transfer(_sender, _dstAddress, _token, _token_amount, _eth_amount, _hashlock, _timelock) */\n      jump\t// in\n    tag_115:\n        /* \"contracts/OBridge.sol\":5641:5751  bytes32 transferId = _transfer(_sender, _dstAddress, _token, _token_amount, _eth_amount, _hashlock, _timelock) */\n      swap1\n      pop\n        /* \"contracts/OBridge.sol\":5766:6033  LogNewTransferIn(... */\n      0x48e8c25194d6eb9633068bb38aea36f72e1c4b4d6e892ff556b8a63a803c2fd0\n        /* \"contracts/OBridge.sol\":5796:5806  transferId */\n      dup2\n        /* \"contracts/OBridge.sol\":5820:5827  _sender */\n      dup12\n        /* \"contracts/OBridge.sol\":5841:5852  _dstAddress */\n      dup12\n        /* \"contracts/OBridge.sol\":5866:5872  _token */\n      dup12\n        /* \"contracts/OBridge.sol\":5886:5899  _token_amount */\n      dup12\n        /* \"contracts/OBridge.sol\":5913:5924  _eth_amount */\n      dup12\n        /* \"contracts/OBridge.sol\":5938:5947  _hashlock */\n      dup12\n        /* \"contracts/OBridge.sol\":5961:5970  _timelock */\n      dup12\n        /* \"contracts/OBridge.sol\":5984:5995  _srcChainId */\n      dup12\n        /* \"contracts/OBridge.sol\":6009:6023  _srcTransferId */\n      dup12\n        /* \"contracts/OBridge.sol\":5766:6033  LogNewTransferIn(... */\n      mload(0x40)\n      tag_116\n      swap11\n      swap10\n      swap9\n      swap8\n      swap7\n      swap6\n      swap5\n      swap4\n      swap3\n      swap2\n      swap1\n      tag_117\n      jump\t// in\n    tag_116:\n      mload(0x40)\n      dup1\n      swap2\n      sub\n      swap1\n      log1\n        /* \"contracts/OBridge.sol\":5571:6040  {... */\n      pop\n        /* \"contracts/OBridge.sol\":5276:6040  function transferIn(... */\n      pop\n      pop\n      pop\n      pop\n      pop\n      pop\n      pop\n      pop\n      pop\n      jump\t// out\n        /* \"contracts/OBridge.sol\":2490:2589  function setBasisPointsRate(uint256 rate) external onlyOwner{... */\n    tag_60:\n        /* \"contracts/OBridge.sol\":1034:1046  _msgSender() */\n      tag_119\n        /* \"contracts/OBridge.sol\":1034:1044  _msgSender */\n      tag_99\n        /* \"contracts/OBridge.sol\":1034:1046  _msgSender() */\n      jump\t// in\n    tag_119:\n        /* \"contracts/OBridge.sol\":1025:1046  owner == _msgSender() */\n      0xffffffffffffffffffffffffffffffffffffffff\n      and\n        /* \"contracts/OBridge.sol\":1025:1030  owner */\n      0x00\n      dup1\n      sload\n      swap1\n      0x0100\n      exp\n      swap1\n      div\n      0xffffffffffffffffffffffffffffffffffffffff\n      and\n        /* \"contracts/OBridge.sol\":1025:1046  owner == _msgSender() */\n      0xffffffffffffffffffffffffffffffffffffffff\n      and\n      eq\n        /* \"contracts/OBridge.sol\":1017:1083  require(owner == _msgSender(), \"Ownable: caller is not the owner\") */\n      tag_120\n      jumpi\n      mload(0x40)\n      0x08c379a000000000000000000000000000000000000000000000000000000000\n      dup2\n      mstore\n      0x04\n      add\n      tag_121\n      swap1\n      tag_102\n      jump\t// in\n    tag_121:\n      mload(0x40)\n      dup1\n      swap2\n      sub\n      swap1\n      revert\n    tag_120:\n        /* \"contracts/OBridge.sol\":2578:2582  rate */\n      dup1\n        /* \"contracts/OBridge.sol\":2560:2575  basisPointsRate */\n      0x02\n        /* \"contracts/OBridge.sol\":2560:2582  basisPointsRate = rate */\n      dup2\n      swap1\n      sstore\n      pop\n        /* \"contracts/OBridge.sol\":2490:2589  function setBasisPointsRate(uint256 rate) external onlyOwner{... */\n      pop\n      jump\t// out\n        /* \"contracts/OBridge.sol\":627:651  address public nextOwner */\n    tag_63:\n      0x01\n      0x00\n      swap1\n      sload\n      swap1\n      0x0100\n      exp\n      swap1\n      div\n      0xffffffffffffffffffffffffffffffffffffffff\n      and\n      dup2\n      jump\t// out\n        /* \"contracts/OBridge.sol\":1443:1535  function renounceOwnership() public virtual onlyOwner {... */\n    tag_67:\n        /* \"contracts/OBridge.sol\":1034:1046  _msgSender() */\n      tag_124\n        /* \"contracts/OBridge.sol\":1034:1044  _msgSender */\n      tag_99\n        /* \"contracts/OBridge.sol\":1034:1046  _msgSender() */\n      jump\t// in\n    tag_124:\n        /* \"contracts/OBridge.sol\":1025:1046  owner == _msgSender() */\n      0xffffffffffffffffffffffffffffffffffffffff\n      and\n        /* \"contracts/OBridge.sol\":1025:1030  owner */\n      0x00\n      dup1\n      sload\n      swap1\n      0x0100\n      exp\n      swap1\n      div\n      0xffffffffffffffffffffffffffffffffffffffff\n      and\n        /* \"contracts/OBridge.sol\":1025:1046  owner == _msgSender() */\n      0xffffffffffffffffffffffffffffffffffffffff\n      and\n      eq\n        /* \"contracts/OBridge.sol\":1017:1083  require(owner == _msgSender(), \"Ownable: caller is not the owner\") */\n      tag_125\n      jumpi\n      mload(0x40)\n      0x08c379a000000000000000000000000000000000000000000000000000000000\n      dup2\n      mstore\n      0x04\n      add\n      tag_126\n      swap1\n      tag_102\n      jump\t// in\n    tag_126:\n      mload(0x40)\n      dup1\n      swap2\n      sub\n      swap1\n      revert\n    tag_125:\n        /* \"contracts/OBridge.sol\":1507:1528  _setOwner(address(0)) */\n      tag_128\n        /* \"contracts/OBridge.sol\":1525:1526  0 */\n      0x00\n        /* \"contracts/OBridge.sol\":1507:1516  _setOwner */\n      tag_129\n        /* \"contracts/OBridge.sol\":1507:1528  _setOwner(address(0)) */\n      jump\t// in\n    tag_128:\n        /* \"contracts/OBridge.sol\":1443:1535  function renounceOwnership() public virtual onlyOwner {... */\n      jump\t// out\n        /* \"contracts/OBridge.sol\":1885:1995  function approveOwnership() public{... */\n    tag_70:\n        /* \"contracts/OBridge.sol\":1950:1960  msg.sender */\n      caller\n        /* \"contracts/OBridge.sol\":1937:1960  nextOwner == msg.sender */\n      0xffffffffffffffffffffffffffffffffffffffff\n      and\n        /* \"contracts/OBridge.sol\":1937:1946  nextOwner */\n      0x01\n      0x00\n      swap1\n      sload\n      swap1\n      0x0100\n      exp\n      swap1\n      div\n      0xffffffffffffffffffffffffffffffffffffffff\n      and\n        /* \"contracts/OBridge.sol\":1937:1960  nextOwner == msg.sender */\n      0xffffffffffffffffffffffffffffffffffffffff\n      and\n      eq\n        /* \"contracts/OBridge.sol\":1929:1961  require(nextOwner == msg.sender) */\n      tag_131\n      jumpi\n      0x00\n      dup1\n      revert\n    tag_131:\n        /* \"contracts/OBridge.sol\":1979:1988  nextOwner */\n      0x01\n      0x00\n      swap1\n      sload\n      swap1\n      0x0100\n      exp\n      swap1\n      div\n      0xffffffffffffffffffffffffffffffffffffffff\n      and\n        /* \"contracts/OBridge.sol\":1971:1976  owner */\n      0x00\n      dup1\n        /* \"contracts/OBridge.sol\":1971:1988  owner = nextOwner */\n      0x0100\n      exp\n      dup2\n      sload\n      dup2\n      0xffffffffffffffffffffffffffffffffffffffff\n      mul\n      not\n      and\n      swap1\n      dup4\n      0xffffffffffffffffffffffffffffffffffffffff\n      and\n      mul\n      or\n      swap1\n      sstore\n      pop\n        /* \"contracts/OBridge.sol\":1885:1995  function approveOwnership() public{... */\n      jump\t// out\n        /* \"contracts/OBridge.sol\":601:621  address public owner */\n    tag_73:\n      0x00\n      dup1\n      sload\n      swap1\n      0x0100\n      exp\n      swap1\n      div\n      0xffffffffffffffffffffffffffffffffffffffff\n      and\n      dup2\n      jump\t// out\n        /* \"contracts/OBridge.sol\":7880:8980  function refund(... */\n    tag_79:\n        /* \"contracts/OBridge.sol\":8105:8124  bytes32 _transferId */\n      0x00\n        /* \"contracts/OBridge.sol\":8154:8161  _sender */\n      dup8\n        /* \"contracts/OBridge.sol\":8163:8172  _receiver */\n      dup8\n        /* \"contracts/OBridge.sol\":8174:8183  _hashlock */\n      dup5\n        /* \"contracts/OBridge.sol\":8185:8194  _timelock */\n      dup5\n        /* \"contracts/OBridge.sol\":8196:8202  _token */\n      dup10\n        /* \"contracts/OBridge.sol\":8204:8217  _token_amount */\n      dup10\n        /* \"contracts/OBridge.sol\":8219:8230  _eth_amount */\n      dup10\n        /* \"contracts/OBridge.sol\":8232:8245  block.chainid */\n      chainid\n        /* \"contracts/OBridge.sol\":8137:8246  abi.encodePacked(_sender, _receiver, _hashlock, _timelock, _token, _token_amount, _eth_amount, block.chainid) */\n      add(0x20, mload(0x40))\n      tag_133\n      swap9\n      swap8\n      swap7\n      swap6\n      swap5\n      swap4\n      swap3\n      swap2\n      swap1\n      tag_134\n      jump\t// in\n    tag_133:\n      mload(0x40)\n      0x20\n      dup2\n      dup4\n      sub\n      sub\n      dup2\n      mstore\n      swap1\n      0x40\n      mstore\n        /* \"contracts/OBridge.sol\":8127:8247  keccak256(abi.encodePacked(_sender, _receiver, _hashlock, _timelock, _token, _token_amount, _eth_amount, block.chainid)) */\n      dup1\n      mload\n      swap1\n      0x20\n      add\n      keccak256\n        /* \"contracts/OBridge.sol\":8105:8247  bytes32 _transferId = keccak256(abi.encodePacked(_sender, _receiver, _hashlock, _timelock, _token, _token_amount, _eth_amount, block.chainid)) */\n      swap1\n      pop\n        /* \"contracts/OBridge.sol\":8257:8273  TransferStatus t */\n      0x00\n        /* \"contracts/OBridge.sol\":8276:8285  transfers */\n      0x05\n        /* \"contracts/OBridge.sol\":8276:8298  transfers[_transferId] */\n      0x00\n        /* \"contracts/OBridge.sol\":8286:8297  _transferId */\n      dup4\n        /* \"contracts/OBridge.sol\":8276:8298  transfers[_transferId] */\n      dup2\n      mstore\n      0x20\n      add\n      swap1\n      dup2\n      mstore\n      0x20\n      add\n      0x00\n      keccak256\n      0x00\n      swap1\n      sload\n      swap1\n      0x0100\n      exp\n      swap1\n      div\n      0xff\n      and\n        /* \"contracts/OBridge.sol\":8257:8298  TransferStatus t = transfers[_transferId] */\n      swap1\n      pop\n        /* \"contracts/OBridge.sol\":8322:8344  TransferStatus.Pending */\n      0x01\n        /* \"contracts/OBridge.sol\":8317:8344  t == TransferStatus.Pending */\n      0x03\n      dup2\n      gt\n      iszero\n      tag_135\n      jumpi\n      tag_136\n      tag_137\n      jump\t// in\n    tag_136:\n    tag_135:\n        /* \"contracts/OBridge.sol\":8317:8318  t */\n      dup2\n        /* \"contracts/OBridge.sol\":8317:8344  t == TransferStatus.Pending */\n      0x03\n      dup2\n      gt\n      iszero\n      tag_138\n      jumpi\n      tag_139\n      tag_137\n      jump\t// in\n    tag_139:\n    tag_138:\n      eq\n        /* \"contracts/OBridge.sol\":8309:8369  require(t == TransferStatus.Pending, \"not pending transfer\") */\n      tag_140\n      jumpi\n      mload(0x40)\n      0x08c379a000000000000000000000000000000000000000000000000000000000\n      dup2\n      mstore\n      0x04\n      add\n      tag_141\n      swap1\n      tag_142\n      jump\t// in\n    tag_141:\n      mload(0x40)\n      dup1\n      swap2\n      sub\n      swap1\n      revert\n    tag_140:\n        /* \"contracts/OBridge.sol\":8400:8415  block.timestamp */\n      timestamp\n        /* \"contracts/OBridge.sol\":8387:8396  _timelock */\n      dup4\n        /* \"contracts/OBridge.sol\":8387:8415  _timelock <= block.timestamp */\n      0xffffffffffffffff\n      and\n      gt\n      iszero\n        /* \"contracts/OBridge.sol\":8379:8443  require(_timelock <= block.timestamp, \"timelock not yet passed\") */\n      tag_143\n      jumpi\n      mload(0x40)\n      0x08c379a000000000000000000000000000000000000000000000000000000000\n      dup2\n      mstore\n      0x04\n      add\n      tag_144\n      swap1\n      tag_145\n      jump\t// in\n    tag_144:\n      mload(0x40)\n      dup1\n      swap2\n      sub\n      swap1\n      revert\n    tag_143:\n        /* \"contracts/OBridge.sol\":8479:8502  TransferStatus.Refunded */\n      0x03\n        /* \"contracts/OBridge.sol\":8454:8463  transfers */\n      0x05\n        /* \"contracts/OBridge.sol\":8454:8476  transfers[_transferId] */\n      0x00\n        /* \"contracts/OBridge.sol\":8464:8475  _transferId */\n      dup5\n        /* \"contracts/OBridge.sol\":8454:8476  transfers[_transferId] */\n      dup2\n      mstore\n      0x20\n      add\n      swap1\n      dup2\n      mstore\n      0x20\n      add\n      0x00\n      keccak256\n      0x00\n        /* \"contracts/OBridge.sol\":8454:8502  transfers[_transferId] = TransferStatus.Refunded */\n      0x0100\n      exp\n      dup2\n      sload\n      dup2\n      0xff\n      mul\n      not\n      and\n      swap1\n      dup4\n      0x03\n      dup2\n      gt\n      iszero\n      tag_146\n      jumpi\n      tag_147\n      tag_137\n      jump\t// in\n    tag_147:\n    tag_146:\n      mul\n      or\n      swap1\n      sstore\n      pop\n        /* \"contracts/OBridge.sol\":8535:8536  0 */\n      0x00\n        /* \"contracts/OBridge.sol\":8517:8537  _token == address(0) */\n      0xffffffffffffffffffffffffffffffffffffffff\n      and\n        /* \"contracts/OBridge.sol\":8517:8523  _token */\n      dup8\n        /* \"contracts/OBridge.sol\":8517:8537  _token == address(0) */\n      0xffffffffffffffffffffffffffffffffffffffff\n      and\n      eq\n        /* \"contracts/OBridge.sol\":8513:8927  if( _token == address(0) ) {... */\n      iszero\n      tag_148\n      jumpi\n        /* \"contracts/OBridge.sol\":8555:8564  bool sent */\n      0x00\n        /* \"contracts/OBridge.sol\":8570:8577  _sender */\n      dup10\n        /* \"contracts/OBridge.sol\":8570:8582  _sender.call */\n      0xffffffffffffffffffffffffffffffffffffffff\n      and\n        /* \"contracts/OBridge.sol\":8590:8603  _token_amount */\n      dup8\n        /* \"contracts/OBridge.sol\":8570:8608  _sender.call{value: _token_amount}(\"\") */\n      mload(0x40)\n      tag_149\n      swap1\n      tag_150\n      jump\t// in\n    tag_149:\n      0x00\n      mload(0x40)\n      dup1\n      dup4\n      sub\n      dup2\n      dup6\n      dup8\n      gas\n      call\n      swap3\n      pop\n      pop\n      pop\n      returndatasize\n      dup1\n      0x00\n      dup2\n      eq\n      tag_153\n      jumpi\n      mload(0x40)\n      swap2\n      pop\n      and(add(returndatasize, 0x3f), not(0x1f))\n      dup3\n      add\n      0x40\n      mstore\n      returndatasize\n      dup3\n      mstore\n      returndatasize\n      0x00\n      0x20\n      dup5\n      add\n      returndatacopy\n      jump(tag_152)\n    tag_153:\n      0x60\n      swap2\n      pop\n    tag_152:\n      pop\n        /* \"contracts/OBridge.sol\":8554:8608  (bool sent, ) = _sender.call{value: _token_amount}(\"\") */\n      pop\n      swap1\n      pop\n        /* \"contracts/OBridge.sol\":8630:8634  sent */\n      dup1\n        /* \"contracts/OBridge.sol\":8622:8659  require(sent, \"Failed to send Ether\") */\n      tag_154\n      jumpi\n      mload(0x40)\n      0x08c379a000000000000000000000000000000000000000000000000000000000\n      dup2\n      mstore\n      0x04\n      add\n      tag_155\n      swap1\n      tag_156\n      jump\t// in\n    tag_155:\n      mload(0x40)\n      dup1\n      swap2\n      sub\n      swap1\n      revert\n    tag_154:\n        /* \"contracts/OBridge.sol\":8540:8670  {... */\n      pop\n        /* \"contracts/OBridge.sol\":8513:8927  if( _token == address(0) ) {... */\n      jump(tag_157)\n    tag_148:\n        /* \"contracts/OBridge.sol\":8690:8741  IERC20(_token).safeTransfer(_sender, _token_amount) */\n      tag_158\n        /* \"contracts/OBridge.sol\":8718:8725  _sender */\n      dup10\n        /* \"contracts/OBridge.sol\":8727:8740  _token_amount */\n      dup8\n        /* \"contracts/OBridge.sol\":8697:8703  _token */\n      dup10\n        /* \"contracts/OBridge.sol\":8690:8717  IERC20(_token).safeTransfer */\n      0xffffffffffffffffffffffffffffffffffffffff\n      and\n      tag_159\n      swap1\n        /* \"contracts/OBridge.sol\":8690:8741  IERC20(_token).safeTransfer(_sender, _token_amount) */\n      swap3\n      swap2\n      swap1\n      0xffffffff\n      and\n      jump\t// in\n    tag_158:\n        /* \"contracts/OBridge.sol\":8773:8774  0 */\n      0x00\n        /* \"contracts/OBridge.sol\":8759:8770  _eth_amount */\n      dup6\n        /* \"contracts/OBridge.sol\":8759:8774  _eth_amount > 0 */\n      gt\n        /* \"contracts/OBridge.sol\":8755:8917  if( _eth_amount > 0 ) {... */\n      iszero\n      tag_160\n      jumpi\n        /* \"contracts/OBridge.sol\":8796:8805  bool sent */\n      0x00\n        /* \"contracts/OBridge.sol\":8811:8818  _sender */\n      dup10\n        /* \"contracts/OBridge.sol\":8811:8823  _sender.call */\n      0xffffffffffffffffffffffffffffffffffffffff\n      and\n        /* \"contracts/OBridge.sol\":8831:8842  _eth_amount */\n      dup7\n        /* \"contracts/OBridge.sol\":8811:8847  _sender.call{value: _eth_amount}(\"\") */\n      mload(0x40)\n      tag_161\n      swap1\n      tag_150\n      jump\t// in\n    tag_161:\n      0x00\n      mload(0x40)\n      dup1\n      dup4\n      sub\n      dup2\n      dup6\n      dup8\n      gas\n      call\n      swap3\n      pop\n      pop\n      pop\n      returndatasize\n      dup1\n      0x00\n      dup2\n      eq\n      tag_164\n      jumpi\n      mload(0x40)\n      swap2\n      pop\n      and(add(returndatasize, 0x3f), not(0x1f))\n      dup3\n      add\n      0x40\n      mstore\n      returndatasize\n      dup3\n      mstore\n      returndatasize\n      0x00\n      0x20\n      dup5\n      add\n      returndatacopy\n      jump(tag_163)\n    tag_164:\n      0x60\n      swap2\n      pop\n    tag_163:\n      pop\n        /* \"contracts/OBridge.sol\":8795:8847  (bool sent, ) = _sender.call{value: _eth_amount}(\"\") */\n      pop\n      swap1\n      pop\n        /* \"contracts/OBridge.sol\":8873:8877  sent */\n      dup1\n        /* \"contracts/OBridge.sol\":8865:8902  require(sent, \"Failed to send Ether\") */\n      tag_165\n      jumpi\n      mload(0x40)\n      0x08c379a000000000000000000000000000000000000000000000000000000000\n      dup2\n      mstore\n      0x04\n      add\n      tag_166\n      swap1\n      tag_156\n      jump\t// in\n    tag_166:\n      mload(0x40)\n      dup1\n      swap2\n      sub\n      swap1\n      revert\n    tag_165:\n        /* \"contracts/OBridge.sol\":8777:8917  {... */\n      pop\n        /* \"contracts/OBridge.sol\":8755:8917  if( _eth_amount > 0 ) {... */\n    tag_160:\n        /* \"contracts/OBridge.sol\":8513:8927  if( _token == address(0) ) {... */\n    tag_157:\n        /* \"contracts/OBridge.sol\":8941:8973  LogTransferRefunded(_transferId) */\n      0x70a8f332cabb778f79acc5b97cbb4543970a2f1a34bd0773e4b3012931f752dc\n        /* \"contracts/OBridge.sol\":8961:8972  _transferId */\n      dup3\n        /* \"contracts/OBridge.sol\":8941:8973  LogTransferRefunded(_transferId) */\n      mload(0x40)\n      tag_167\n      swap2\n      swap1\n      tag_168\n      jump\t// in\n    tag_167:\n      mload(0x40)\n      dup1\n      swap2\n      sub\n      swap1\n      log1\n        /* \"contracts/OBridge.sol\":8095:8980  {... */\n      pop\n      pop\n        /* \"contracts/OBridge.sol\":7880:8980  function refund(... */\n      pop\n      pop\n      pop\n      pop\n      pop\n      pop\n      pop\n      jump\t// out\n        /* \"contracts/OBridge.sol\":6051:7870  function confirm(... */\n    tag_84:\n        /* \"contracts/OBridge.sol\":6305:6324  bytes32 _transferId */\n      0x00\n        /* \"contracts/OBridge.sol\":6354:6361  _sender */\n      dup9\n        /* \"contracts/OBridge.sol\":6363:6372  _receiver */\n      dup9\n        /* \"contracts/OBridge.sol\":6374:6383  _hashlock */\n      dup6\n        /* \"contracts/OBridge.sol\":6385:6394  _timelock */\n      dup6\n        /* \"contracts/OBridge.sol\":6396:6402  _token */\n      dup11\n        /* \"contracts/OBridge.sol\":6404:6417  _token_amount */\n      dup11\n        /* \"contracts/OBridge.sol\":6419:6430  _eth_amount */\n      dup11\n        /* \"contracts/OBridge.sol\":6432:6445  block.chainid */\n      chainid\n        /* \"contracts/OBridge.sol\":6337:6446  abi.encodePacked(_sender, _receiver, _hashlock, _timelock, _token, _token_amount, _eth_amount, block.chainid) */\n      add(0x20, mload(0x40))\n      tag_170\n      swap9\n      swap8\n      swap7\n      swap6\n      swap5\n      swap4\n      swap3\n      swap2\n      swap1\n      tag_134\n      jump\t// in\n    tag_170:\n      mload(0x40)\n      0x20\n      dup2\n      dup4\n      sub\n      sub\n      dup2\n      mstore\n      swap1\n      0x40\n      mstore\n        /* \"contracts/OBridge.sol\":6327:6447  keccak256(abi.encodePacked(_sender, _receiver, _hashlock, _timelock, _token, _token_amount, _eth_amount, block.chainid)) */\n      dup1\n      mload\n      swap1\n      0x20\n      add\n      keccak256\n        /* \"contracts/OBridge.sol\":6305:6447  bytes32 _transferId = keccak256(abi.encodePacked(_sender, _receiver, _hashlock, _timelock, _token, _token_amount, _eth_amount, block.chainid)) */\n      swap1\n      pop\n        /* \"contracts/OBridge.sol\":6457:6473  TransferStatus t */\n      0x00\n        /* \"contracts/OBridge.sol\":6476:6485  transfers */\n      0x05\n        /* \"contracts/OBridge.sol\":6476:6498  transfers[_transferId] */\n      0x00\n        /* \"contracts/OBridge.sol\":6486:6497  _transferId */\n      dup4\n        /* \"contracts/OBridge.sol\":6476:6498  transfers[_transferId] */\n      dup2\n      mstore\n      0x20\n      add\n      swap1\n      dup2\n      mstore\n      0x20\n      add\n      0x00\n      keccak256\n      0x00\n      swap1\n      sload\n      swap1\n      0x0100\n      exp\n      swap1\n      div\n      0xff\n      and\n        /* \"contracts/OBridge.sol\":6457:6498  TransferStatus t = transfers[_transferId] */\n      swap1\n      pop\n        /* \"contracts/OBridge.sol\":6522:6544  TransferStatus.Pending */\n      0x01\n        /* \"contracts/OBridge.sol\":6517:6544  t == TransferStatus.Pending */\n      0x03\n      dup2\n      gt\n      iszero\n      tag_171\n      jumpi\n      tag_172\n      tag_137\n      jump\t// in\n    tag_172:\n    tag_171:\n        /* \"contracts/OBridge.sol\":6517:6518  t */\n      dup2\n        /* \"contracts/OBridge.sol\":6517:6544  t == TransferStatus.Pending */\n      0x03\n      dup2\n      gt\n      iszero\n      tag_173\n      jumpi\n      tag_174\n      tag_137\n      jump\t// in\n    tag_174:\n    tag_173:\n      eq\n        /* \"contracts/OBridge.sol\":6509:6569  require(t == TransferStatus.Pending, \"not pending transfer\") */\n      tag_175\n      jumpi\n      mload(0x40)\n      0x08c379a000000000000000000000000000000000000000000000000000000000\n      dup2\n      mstore\n      0x04\n      add\n      tag_176\n      swap1\n      tag_142\n      jump\t// in\n    tag_176:\n      mload(0x40)\n      dup1\n      swap2\n      sub\n      swap1\n      revert\n    tag_175:\n        /* \"contracts/OBridge.sol\":6627:6636  _preimage */\n      dup3\n        /* \"contracts/OBridge.sol\":6610:6637  abi.encodePacked(_preimage) */\n      add(0x20, mload(0x40))\n      tag_177\n      swap2\n      swap1\n      tag_178\n      jump\t// in\n    tag_177:\n      mload(0x40)\n      0x20\n      dup2\n      dup4\n      sub\n      sub\n      dup2\n      mstore\n      swap1\n      0x40\n      mstore\n        /* \"contracts/OBridge.sol\":6600:6638  keccak256(abi.encodePacked(_preimage)) */\n      dup1\n      mload\n      swap1\n      0x20\n      add\n      keccak256\n        /* \"contracts/OBridge.sol\":6587:6596  _hashlock */\n      dup6\n        /* \"contracts/OBridge.sol\":6587:6638  _hashlock == keccak256(abi.encodePacked(_preimage)) */\n      eq\n        /* \"contracts/OBridge.sol\":6579:6661  require(_hashlock == keccak256(abi.encodePacked(_preimage)), \"incorrect preimage\") */\n      tag_179\n      jumpi\n      mload(0x40)\n      0x08c379a000000000000000000000000000000000000000000000000000000000\n      dup2\n      mstore\n      0x04\n      add\n      tag_180\n      swap1\n      tag_181\n      jump\t// in\n    tag_180:\n      mload(0x40)\n      dup1\n      swap2\n      sub\n      swap1\n      revert\n    tag_179:\n        /* \"contracts/OBridge.sol\":6697:6721  TransferStatus.Confirmed */\n      0x02\n        /* \"contracts/OBridge.sol\":6672:6681  transfers */\n      0x05\n        /* \"contracts/OBridge.sol\":6672:6694  transfers[_transferId] */\n      0x00\n        /* \"contracts/OBridge.sol\":6682:6693  _transferId */\n      dup5\n        /* \"contracts/OBridge.sol\":6672:6694  transfers[_transferId] */\n      dup2\n      mstore\n      0x20\n      add\n      swap1\n      dup2\n      mstore\n      0x20\n      add\n      0x00\n      keccak256\n      0x00\n        /* \"contracts/OBridge.sol\":6672:6721  transfers[_transferId] = TransferStatus.Confirmed */\n      0x0100\n      exp\n      dup2\n      sload\n      dup2\n      0xff\n      mul\n      not\n      and\n      swap1\n      dup4\n      0x03\n      dup2\n      gt\n      iszero\n      tag_182\n      jumpi\n      tag_183\n      tag_137\n      jump\t// in\n    tag_183:\n    tag_182:\n      mul\n      or\n      swap1\n      sstore\n      pop\n        /* \"contracts/OBridge.sol\":6754:6755  0 */\n      0x00\n        /* \"contracts/OBridge.sol\":6736:6756  _token == address(0) */\n      0xffffffffffffffffffffffffffffffffffffffff\n      and\n        /* \"contracts/OBridge.sol\":6736:6742  _token */\n      dup9\n        /* \"contracts/OBridge.sol\":6736:6756  _token == address(0) */\n      0xffffffffffffffffffffffffffffffffffffffff\n      and\n      eq\n        /* \"contracts/OBridge.sol\":6732:7804  if( _token == address(0) ) {... */\n      iszero\n      tag_184\n      jumpi\n        /* \"contracts/OBridge.sol\":6773:6784  uint256 fee */\n      0x00\n        /* \"contracts/OBridge.sol\":6787:6817  calcFee(_token, _token_amount) */\n      tag_185\n        /* \"contracts/OBridge.sol\":6795:6801  _token */\n      dup10\n        /* \"contracts/OBridge.sol\":6803:6816  _token_amount */\n      dup10\n        /* \"contracts/OBridge.sol\":6787:6794  calcFee */\n      tag_186\n        /* \"contracts/OBridge.sol\":6787:6817  calcFee(_token, _token_amount) */\n      jump\t// in\n    tag_185:\n        /* \"contracts/OBridge.sol\":6773:6817  uint256 fee = calcFee(_token, _token_amount) */\n      swap1\n      pop\n        /* \"contracts/OBridge.sol\":6831:6849  uint256 sendAmount */\n      0x00\n        /* \"contracts/OBridge.sol\":6868:6871  fee */\n      dup2\n        /* \"contracts/OBridge.sol\":6852:6865  _token_amount */\n      dup10\n        /* \"contracts/OBridge.sol\":6852:6871  _token_amount - fee */\n      tag_187\n      swap2\n      swap1\n      tag_188\n      jump\t// in\n    tag_187:\n        /* \"contracts/OBridge.sol\":6831:6871  uint256 sendAmount = _token_amount - fee */\n      swap1\n      pop\n        /* \"contracts/OBridge.sol\":6887:6896  bool sent */\n      0x00\n        /* \"contracts/OBridge.sol\":6898:6915  bytes memory data */\n      dup1\n        /* \"contracts/OBridge.sol\":6919:6928  _receiver */\n      dup13\n        /* \"contracts/OBridge.sol\":6919:6933  _receiver.call */\n      0xffffffffffffffffffffffffffffffffffffffff\n      and\n        /* \"contracts/OBridge.sol\":6941:6951  sendAmount */\n      dup4\n        /* \"contracts/OBridge.sol\":6919:6956  _receiver.call{value: sendAmount}(\"\") */\n      mload(0x40)\n      tag_189\n      swap1\n      tag_150\n      jump\t// in\n    tag_189:\n      0x00\n      mload(0x40)\n      dup1\n      dup4\n      sub\n      dup2\n      dup6\n      dup8\n      gas\n      call\n      swap3\n      pop\n      pop\n      pop\n      returndatasize\n      dup1\n      0x00\n      dup2\n      eq\n      tag_192\n      jumpi\n      mload(0x40)\n      swap2\n      pop\n      and(add(returndatasize, 0x3f), not(0x1f))\n      dup3\n      add\n      0x40\n      mstore\n      returndatasize\n      dup3\n      mstore\n      returndatasize\n      0x00\n      0x20\n      dup5\n      add\n      returndatacopy\n      jump(tag_191)\n    tag_192:\n      0x60\n      swap2\n      pop\n    tag_191:\n      pop\n        /* \"contracts/OBridge.sol\":6886:6956  (bool sent, bytes memory data) = _receiver.call{value: sendAmount}(\"\") */\n      swap2\n      pop\n      swap2\n      pop\n        /* \"contracts/OBridge.sol\":6978:6982  sent */\n      dup2\n        /* \"contracts/OBridge.sol\":6970:7007  require(sent, \"Failed to send Ether\") */\n      tag_193\n      jumpi\n      mload(0x40)\n      0x08c379a000000000000000000000000000000000000000000000000000000000\n      dup2\n      mstore\n      0x04\n      add\n      tag_194\n      swap1\n      tag_156\n      jump\t// in\n    tag_194:\n      mload(0x40)\n      dup1\n      swap2\n      sub\n      swap1\n      revert\n    tag_193:\n        /* \"contracts/OBridge.sol\":7037:7048  tollAddress */\n      0x04\n      0x00\n      swap1\n      sload\n      swap1\n      0x0100\n      exp\n      swap1\n      div\n      0xffffffffffffffffffffffffffffffffffffffff\n      and\n        /* \"contracts/OBridge.sol\":7037:7053  tollAddress.call */\n      0xffffffffffffffffffffffffffffffffffffffff\n      and\n        /* \"contracts/OBridge.sol\":7061:7064  fee */\n      dup5\n        /* \"contracts/OBridge.sol\":7037:7069  tollAddress.call{value: fee}(\"\") */\n      mload(0x40)\n      tag_195\n      swap1\n      tag_150\n      jump\t// in\n    tag_195:\n      0x00\n      mload(0x40)\n      dup1\n      dup4\n      sub\n      dup2\n      dup6\n      dup8\n      gas\n      call\n      swap3\n      pop\n      pop\n      pop\n      returndatasize\n      dup1\n      0x00\n      dup2\n      eq\n      tag_198\n      jumpi\n      mload(0x40)\n      swap2\n      pop\n      and(add(returndatasize, 0x3f), not(0x1f))\n      dup3\n      add\n      0x40\n      mstore\n      returndatasize\n      dup3\n      mstore\n      returndatasize\n      0x00\n      0x20\n      dup5\n      add\n      returndatacopy\n      jump(tag_197)\n    tag_198:\n      0x60\n      swap2\n      pop\n    tag_197:\n      pop\n        /* \"contracts/OBridge.sol\":7022:7069  (sent, data) = tollAddress.call{value: fee}(\"\") */\n      dup1\n      swap3\n      pop\n      dup2\n      swap4\n      pop\n      pop\n      pop\n        /* \"contracts/OBridge.sol\":7091:7095  sent */\n      dup2\n        /* \"contracts/OBridge.sol\":7083:7120  require(sent, \"Failed to send Ether\") */\n      tag_199\n      jumpi\n      mload(0x40)\n      0x08c379a000000000000000000000000000000000000000000000000000000000\n      dup2\n      mstore\n      0x04\n      add\n      tag_200\n      swap1\n      tag_156\n      jump\t// in\n    tag_200:\n      mload(0x40)\n      dup1\n      swap2\n      sub\n      swap1\n      revert\n    tag_199:\n        /* \"contracts/OBridge.sol\":6759:7131  {... */\n      pop\n      pop\n      pop\n      pop\n        /* \"contracts/OBridge.sol\":6732:7804  if( _token == address(0) ) {... */\n      jump(tag_201)\n    tag_184:\n        /* \"contracts/OBridge.sol\":7151:7162  uint256 fee */\n      0x00\n        /* \"contracts/OBridge.sol\":7165:7195  calcFee(_token, _token_amount) */\n      tag_202\n        /* \"contracts/OBridge.sol\":7173:7179  _token */\n      dup10\n        /* \"contracts/OBridge.sol\":7181:7194  _token_amount */\n      dup10\n        /* \"contracts/OBridge.sol\":7165:7172  calcFee */\n      tag_186\n        /* \"contracts/OBridge.sol\":7165:7195  calcFee(_token, _token_amount) */\n      jump\t// in\n    tag_202:\n        /* \"contracts/OBridge.sol\":7151:7195  uint256 fee = calcFee(_token, _token_amount) */\n      swap1\n      pop\n        /* \"contracts/OBridge.sol\":7209:7227  uint256 sendAmount */\n      0x00\n        /* \"contracts/OBridge.sol\":7246:7249  fee */\n      dup2\n        /* \"contracts/OBridge.sol\":7230:7243  _token_amount */\n      dup10\n        /* \"contracts/OBridge.sol\":7230:7249  _token_amount - fee */\n      tag_203\n      swap2\n      swap1\n      tag_188\n      jump\t// in\n    tag_203:\n        /* \"contracts/OBridge.sol\":7209:7249  uint256 sendAmount = _token_amount - fee */\n      swap1\n      pop\n        /* \"contracts/OBridge.sol\":7264:7314  IERC20(_token).safeTransfer(_receiver, sendAmount) */\n      tag_204\n        /* \"contracts/OBridge.sol\":7292:7301  _receiver */\n      dup12\n        /* \"contracts/OBridge.sol\":7303:7313  sendAmount */\n      dup3\n        /* \"contracts/OBridge.sol\":7271:7277  _token */\n      dup13\n        /* \"contracts/OBridge.sol\":7264:7291  IERC20(_token).safeTransfer */\n      0xffffffffffffffffffffffffffffffffffffffff\n      and\n      tag_159\n      swap1\n        /* \"contracts/OBridge.sol\":7264:7314  IERC20(_token).safeTransfer(_receiver, sendAmount) */\n      swap3\n      swap2\n      swap1\n      0xffffffff\n      and\n      jump\t// in\n    tag_204:\n        /* \"contracts/OBridge.sol\":7328:7373  IERC20(_token).safeTransfer(tollAddress, fee) */\n      tag_205\n        /* \"contracts/OBridge.sol\":7356:7367  tollAddress */\n      0x04\n      0x00\n      swap1\n      sload\n      swap1\n      0x0100\n      exp\n      swap1\n      div\n      0xffffffffffffffffffffffffffffffffffffffff\n      and\n        /* \"contracts/OBridge.sol\":7369:7372  fee */\n      dup4\n        /* \"contracts/OBridge.sol\":7335:7341  _token */\n      dup13\n        /* \"contracts/OBridge.sol\":7328:7355  IERC20(_token).safeTransfer */\n      0xffffffffffffffffffffffffffffffffffffffff\n      and\n      tag_159\n      swap1\n        /* \"contracts/OBridge.sol\":7328:7373  IERC20(_token).safeTransfer(tollAddress, fee) */\n      swap3\n      swap2\n      swap1\n      0xffffffff\n      and\n      jump\t// in\n    tag_205:\n        /* \"contracts/OBridge.sol\":7405:7406  0 */\n      0x00\n        /* \"contracts/OBridge.sol\":7391:7402  _eth_amount */\n      dup9\n        /* \"contracts/OBridge.sol\":7391:7406  _eth_amount > 0 */\n      gt\n        /* \"contracts/OBridge.sol\":7387:7794  if( _eth_amount > 0 ) {... */\n      iszero\n      tag_206\n      jumpi\n        /* \"contracts/OBridge.sol\":7434:7466  calcFee(address(0), _eth_amount) */\n      tag_207\n        /* \"contracts/OBridge.sol\":7450:7451  0 */\n      0x00\n        /* \"contracts/OBridge.sol\":7454:7465  _eth_amount */\n      dup10\n        /* \"contracts/OBridge.sol\":7434:7441  calcFee */\n      tag_186\n        /* \"contracts/OBridge.sol\":7434:7466  calcFee(address(0), _eth_amount) */\n      jump\t// in\n    tag_207:\n        /* \"contracts/OBridge.sol\":7428:7466  fee = calcFee(address(0), _eth_amount) */\n      swap2\n      pop\n        /* \"contracts/OBridge.sol\":7511:7514  fee */\n      dup2\n        /* \"contracts/OBridge.sol\":7497:7508  _eth_amount */\n      dup9\n        /* \"contracts/OBridge.sol\":7497:7514  _eth_amount - fee */\n      tag_208\n      swap2\n      swap1\n      tag_188\n      jump\t// in\n    tag_208:\n        /* \"contracts/OBridge.sol\":7484:7514  sendAmount = _eth_amount - fee */\n      swap1\n      pop\n        /* \"contracts/OBridge.sol\":7534:7543  bool sent */\n      0x00\n        /* \"contracts/OBridge.sol\":7545:7562  bytes memory data */\n      dup1\n        /* \"contracts/OBridge.sol\":7566:7575  _receiver */\n      dup13\n        /* \"contracts/OBridge.sol\":7566:7580  _receiver.call */\n      0xffffffffffffffffffffffffffffffffffffffff\n      and\n        /* \"contracts/OBridge.sol\":7588:7598  sendAmount */\n      dup4\n        /* \"contracts/OBridge.sol\":7566:7603  _receiver.call{value: sendAmount}(\"\") */\n      mload(0x40)\n      tag_209\n      swap1\n      tag_150\n      jump\t// in\n    tag_209:\n      0x00\n      mload(0x40)\n      dup1\n      dup4\n      sub\n      dup2\n      dup6\n      dup8\n      gas\n      call\n      swap3\n      pop\n      pop\n      pop\n      returndatasize\n      dup1\n      0x00\n      dup2\n      eq\n      tag_212\n      jumpi\n      mload(0x40)\n      swap2\n      pop\n      and(add(returndatasize, 0x3f), not(0x1f))\n      dup3\n      add\n      0x40\n      mstore\n      returndatasize\n      dup3\n      mstore\n      returndatasize\n      0x00\n      0x20\n      dup5\n      add\n      returndatacopy\n      jump(tag_211)\n    tag_212:\n      0x60\n      swap2\n      pop\n    tag_211:\n      pop\n        /* \"contracts/OBridge.sol\":7533:7603  (bool sent, bytes memory data) = _receiver.call{value: sendAmount}(\"\") */\n      swap2\n      pop\n      swap2\n      pop\n        /* \"contracts/OBridge.sol\":7629:7633  sent */\n      dup2\n        /* \"contracts/OBridge.sol\":7621:7658  require(sent, \"Failed to send Ether\") */\n      tag_213\n      jumpi\n      mload(0x40)\n      0x08c379a000000000000000000000000000000000000000000000000000000000\n      dup2\n      mstore\n      0x04\n      add\n      tag_214\n      swap1\n      tag_156\n      jump\t// in\n    tag_214:\n      mload(0x40)\n      dup1\n      swap2\n      sub\n      swap1\n      revert\n    tag_213:\n        /* \"contracts/OBridge.sol\":7692:7703  tollAddress */\n      0x04\n      0x00\n      swap1\n      sload\n      swap1\n      0x0100\n      exp\n      swap1\n      div\n      0xffffffffffffffffffffffffffffffffffffffff\n      and\n        /* \"contracts/OBridge.sol\":7692:7708  tollAddress.call */\n      0xffffffffffffffffffffffffffffffffffffffff\n      and\n        /* \"contracts/OBridge.sol\":7716:7719  fee */\n      dup5\n        /* \"contracts/OBridge.sol\":7692:7724  tollAddress.call{value: fee}(\"\") */\n      mload(0x40)\n      tag_215\n      swap1\n      tag_150\n      jump\t// in\n    tag_215:\n      0x00\n      mload(0x40)\n      dup1\n      dup4\n      sub\n      dup2\n      dup6\n      dup8\n      gas\n      call\n      swap3\n      pop\n      pop\n      pop\n      returndatasize\n      dup1\n      0x00\n      dup2\n      eq\n      tag_218\n      jumpi\n      mload(0x40)\n      swap2\n      pop\n      and(add(returndatasize, 0x3f), not(0x1f))\n      dup3\n      add\n      0x40\n      mstore\n      returndatasize\n      dup3\n      mstore\n      returndatasize\n      0x00\n      0x20\n      dup5\n      add\n      returndatacopy\n      jump(tag_217)\n    tag_218:\n      0x60\n      swap2\n      pop\n    tag_217:\n      pop\n        /* \"contracts/OBridge.sol\":7677:7724  (sent, data) = tollAddress.call{value: fee}(\"\") */\n      dup1\n      swap3\n      pop\n      dup2\n      swap4\n      pop\n      pop\n      pop\n        /* \"contracts/OBridge.sol\":7750:7754  sent */\n      dup2\n        /* \"contracts/OBridge.sol\":7742:7779  require(sent, \"Failed to send Ether\") */\n      tag_219\n      jumpi\n      mload(0x40)\n      0x08c379a000000000000000000000000000000000000000000000000000000000\n      dup2\n      mstore\n      0x04\n      add\n      tag_220\n      swap1\n      tag_156\n      jump\t// in\n    tag_220:\n      mload(0x40)\n      dup1\n      swap2\n      sub\n      swap1\n      revert\n    tag_219:\n        /* \"contracts/OBridge.sol\":7409:7794  {... */\n      pop\n      pop\n        /* \"contracts/OBridge.sol\":7387:7794  if( _eth_amount > 0 ) {... */\n    tag_206:\n        /* \"contracts/OBridge.sol\":7137:7804  {... */\n      pop\n      pop\n        /* \"contracts/OBridge.sol\":6732:7804  if( _token == address(0) ) {... */\n    tag_201:\n        /* \"contracts/OBridge.sol\":7819:7863  LogTransferConfirmed(_transferId, _preimage) */\n      0xb7ae890c7a4721f7ed769dabfeee74f0e0f5bcdaad9cab432ccea4d9fa435b50\n        /* \"contracts/OBridge.sol\":7840:7851  _transferId */\n      dup3\n        /* \"contracts/OBridge.sol\":7853:7862  _preimage */\n      dup5\n        /* \"contracts/OBridge.sol\":7819:7863  LogTransferConfirmed(_transferId, _preimage) */\n      mload(0x40)\n      tag_221\n      swap3\n      swap2\n      swap1\n      tag_222\n      jump\t// in\n    tag_221:\n      mload(0x40)\n      dup1\n      swap2\n      sub\n      swap1\n      log1\n        /* \"contracts/OBridge.sol\":6294:7870  {... */\n      pop\n      pop\n        /* \"contracts/OBridge.sol\":6051:7870  function confirm(... */\n      pop\n      pop\n      pop\n      pop\n      pop\n      pop\n      pop\n      pop\n      jump\t// out\n        /* \"contracts/OBridge.sol\":2710:2802  function setTollAddress(address toll) external onlyOwner {... */\n    tag_88:\n        /* \"contracts/OBridge.sol\":1034:1046  _msgSender() */\n      tag_224\n        /* \"contracts/OBridge.sol\":1034:1044  _msgSender */\n      tag_99\n        /* \"contracts/OBridge.sol\":1034:1046  _msgSender() */\n      jump\t// in\n    tag_224:\n        /* \"contracts/OBridge.sol\":1025:1046  owner == _msgSender() */\n      0xffffffffffffffffffffffffffffffffffffffff\n      and\n        /* \"contracts/OBridge.sol\":1025:1030  owner */\n      0x00\n      dup1\n      sload\n      swap1\n      0x0100\n      exp\n      swap1\n      div\n      0xffffffffffffffffffffffffffffffffffffffff\n      and\n        /* \"contracts/OBridge.sol\":1025:1046  owner == _msgSender() */\n      0xffffffffffffffffffffffffffffffffffffffff\n      and\n      eq\n        /* \"contracts/OBridge.sol\":1017:1083  require(owner == _msgSender(), \"Ownable: caller is not the owner\") */\n      tag_225\n      jumpi\n      mload(0x40)\n      0x08c379a000000000000000000000000000000000000000000000000000000000\n      dup2\n      mstore\n      0x04\n      add\n      tag_226\n      swap1\n      tag_102\n      jump\t// in\n    tag_226:\n      mload(0x40)\n      dup1\n      swap2\n      sub\n      swap1\n      revert\n    tag_225:\n        /* \"contracts/OBridge.sol\":2791:2795  toll */\n      dup1\n        /* \"contracts/OBridge.sol\":2777:2788  tollAddress */\n      0x04\n      0x00\n        /* \"contracts/OBridge.sol\":2777:2795  tollAddress = toll */\n      0x0100\n      exp\n      dup2\n      sload\n      dup2\n      0xffffffffffffffffffffffffffffffffffffffff\n      mul\n      not\n      and\n      swap1\n      dup4\n      0xffffffffffffffffffffffffffffffffffffffff\n      and\n      mul\n      or\n      swap1\n      sstore\n      pop\n        /* \"contracts/OBridge.sol\":2710:2802  function setTollAddress(address toll) external onlyOwner {... */\n      pop\n      jump\t// out\n        /* \"contracts/OBridge.sol\":2207:2241  uint256 public basisPointsRate = 0 */\n    tag_91:\n      sload(0x02)\n      dup2\n      jump\t// out\n        /* \"contracts/OBridge.sol\":1704:1875  function transferOwnership(address _newOwner) public onlyOwner {... */\n    tag_96:\n        /* \"contracts/OBridge.sol\":1034:1046  _msgSender() */\n      tag_229\n        /* \"contracts/OBridge.sol\":1034:1044  _msgSender */\n      tag_99\n        /* \"contracts/OBridge.sol\":1034:1046  _msgSender() */\n      jump\t// in\n    tag_229:\n        /* \"contracts/OBridge.sol\":1025:1046  owner == _msgSender() */\n      0xffffffffffffffffffffffffffffffffffffffff\n      and\n        /* \"contracts/OBridge.sol\":1025:1030  owner */\n      0x00\n      dup1\n      sload\n      swap1\n      0x0100\n      exp\n      swap1\n      div\n      0xffffffffffffffffffffffffffffffffffffffff\n      and\n        /* \"contracts/OBridge.sol\":1025:1046  owner == _msgSender() */\n      0xffffffffffffffffffffffffffffffffffffffff\n      and\n      eq\n        /* \"contracts/OBridge.sol\":1017:1083  require(owner == _msgSender(), \"Ownable: caller is not the owner\") */\n      tag_230\n      jumpi\n      mload(0x40)\n      0x08c379a000000000000000000000000000000000000000000000000000000000\n      dup2\n      mstore\n      0x04\n      add\n      tag_231\n      swap1\n      tag_102\n      jump\t// in\n    tag_231:\n      mload(0x40)\n      dup1\n      swap2\n      sub\n      swap1\n      revert\n    tag_230:\n        /* \"contracts/OBridge.sol\":1806:1807  0 */\n      0x00\n        /* \"contracts/OBridge.sol\":1785:1808  _newOwner != address(0) */\n      0xffffffffffffffffffffffffffffffffffffffff\n      and\n        /* \"contracts/OBridge.sol\":1785:1794  _newOwner */\n      dup2\n        /* \"contracts/OBridge.sol\":1785:1808  _newOwner != address(0) */\n      0xffffffffffffffffffffffffffffffffffffffff\n      and\n      eq\n      iszero\n        /* \"contracts/OBridge.sol\":1777:1837  require(_newOwner != address(0), \"Address should not be 0x\") */\n      tag_233\n      jumpi\n      mload(0x40)\n      0x08c379a000000000000000000000000000000000000000000000000000000000\n      dup2\n      mstore\n      0x04\n      add\n      tag_234\n      swap1\n      tag_235\n      jump\t// in\n    tag_234:\n      mload(0x40)\n      dup1\n      swap2\n      sub\n      swap1\n      revert\n    tag_233:\n        /* \"contracts/OBridge.sol\":1859:1868  _newOwner */\n      dup1\n        /* \"contracts/OBridge.sol\":1847:1856  nextOwner */\n      0x01\n      0x00\n        /* \"contracts/OBridge.sol\":1847:1868  nextOwner = _newOwner */\n      0x0100\n      exp\n      dup2\n      sload\n      dup2\n      0xffffffffffffffffffffffffffffffffffffffff\n      mul\n      not\n      and\n      swap1\n      dup4\n      0xffffffffffffffffffffffffffffffffffffffff\n      and\n      mul\n      or\n      swap1\n      sstore\n      pop\n        /* \"contracts/OBridge.sol\":1704:1875  function transferOwnership(address _newOwner) public onlyOwner {... */\n      pop\n      jump\t// out\n        /* \"contracts/OBridge.sol\":220:316  function _msgSender() internal view virtual returns (address) {... */\n    tag_99:\n        /* \"contracts/OBridge.sol\":273:280  address */\n      0x00\n        /* \"contracts/OBridge.sol\":299:309  msg.sender */\n      caller\n        /* \"contracts/OBridge.sol\":292:309  return msg.sender */\n      swap1\n      pop\n        /* \"contracts/OBridge.sol\":220:316  function _msgSender() internal view virtual returns (address) {... */\n      swap1\n      jump\t// out\n        /* \"contracts/OBridge.sol\":8991:10046  function _transfer(... */\n    tag_109:\n        /* \"contracts/OBridge.sol\":9222:9240  bytes32 transferId */\n      0x00\n        /* \"contracts/OBridge.sol\":9276:9277  0 */\n      dup1\n        /* \"contracts/OBridge.sol\":9260:9273  _token_amount */\n      dup6\n        /* \"contracts/OBridge.sol\":9260:9277  _token_amount > 0 */\n      gt\n        /* \"contracts/OBridge.sol\":9252:9296  require(_token_amount > 0, \"invalid amount\") */\n      tag_238\n      jumpi\n      mload(0x40)\n      0x08c379a000000000000000000000000000000000000000000000000000000000\n      dup2\n      mstore\n      0x04\n      add\n      tag_239\n      swap1\n      tag_240\n      jump\t// in\n    tag_239:\n      mload(0x40)\n      dup1\n      swap2\n      sub\n      swap1\n      revert\n    tag_238:\n        /* \"contracts/OBridge.sol\":9326:9341  block.timestamp */\n      timestamp\n        /* \"contracts/OBridge.sol\":9314:9323  _timelock */\n      dup3\n        /* \"contracts/OBridge.sol\":9314:9341  _timelock > block.timestamp */\n      0xffffffffffffffff\n      and\n      gt\n        /* \"contracts/OBridge.sol\":9306:9362  require(_timelock > block.timestamp, \"invalid timelock\") */\n      tag_241\n      jumpi\n      mload(0x40)\n      0x08c379a000000000000000000000000000000000000000000000000000000000\n      dup2\n      mstore\n      0x04\n      add\n      tag_242\n      swap1\n      tag_243\n      jump\t// in\n    tag_242:\n      mload(0x40)\n      dup1\n      swap2\n      sub\n      swap1\n      revert\n    tag_241:\n        /* \"contracts/OBridge.sol\":9413:9420  _sender */\n      dup8\n        /* \"contracts/OBridge.sol\":9422:9431  _receiver */\n      dup8\n        /* \"contracts/OBridge.sol\":9433:9442  _hashlock */\n      dup5\n        /* \"contracts/OBridge.sol\":9444:9453  _timelock */\n      dup5\n        /* \"contracts/OBridge.sol\":9455:9461  _token */\n      dup10\n        /* \"contracts/OBridge.sol\":9463:9476  _token_amount */\n      dup10\n        /* \"contracts/OBridge.sol\":9478:9489  _eth_amount */\n      dup10\n        /* \"contracts/OBridge.sol\":9491:9504  block.chainid */\n      chainid\n        /* \"contracts/OBridge.sol\":9396:9505  abi.encodePacked(_sender, _receiver, _hashlock, _timelock, _token, _token_amount, _eth_amount, block.chainid) */\n      add(0x20, mload(0x40))\n      tag_244\n      swap9\n      swap8\n      swap7\n      swap6\n      swap5\n      swap4\n      swap3\n      swap2\n      swap1\n      tag_134\n      jump\t// in\n    tag_244:\n      mload(0x40)\n      0x20\n      dup2\n      dup4\n      sub\n      sub\n      dup2\n      mstore\n      swap1\n      0x40\n      mstore\n        /* \"contracts/OBridge.sol\":9386:9506  keccak256(abi.encodePacked(_sender, _receiver, _hashlock, _timelock, _token, _token_amount, _eth_amount, block.chainid)) */\n      dup1\n      mload\n      swap1\n      0x20\n      add\n      keccak256\n        /* \"contracts/OBridge.sol\":9373:9506  transferId = keccak256(abi.encodePacked(_sender, _receiver, _hashlock, _timelock, _token, _token_amount, _eth_amount, block.chainid)) */\n      swap1\n      pop\n        /* \"contracts/OBridge.sol\":9549:9568  TransferStatus.Null */\n      0x00\n        /* \"contracts/OBridge.sol\":9524:9568  transfers[transferId] == TransferStatus.Null */\n      0x03\n      dup2\n      gt\n      iszero\n      tag_245\n      jumpi\n      tag_246\n      tag_137\n      jump\t// in\n    tag_246:\n    tag_245:\n        /* \"contracts/OBridge.sol\":9524:9533  transfers */\n      0x05\n        /* \"contracts/OBridge.sol\":9524:9545  transfers[transferId] */\n      0x00\n        /* \"contracts/OBridge.sol\":9534:9544  transferId */\n      dup4\n        /* \"contracts/OBridge.sol\":9524:9545  transfers[transferId] */\n      dup2\n      mstore\n      0x20\n      add\n      swap1\n      dup2\n      mstore\n      0x20\n      add\n      0x00\n      keccak256\n      0x00\n      swap1\n      sload\n      swap1\n      0x0100\n      exp\n      swap1\n      div\n      0xff\n      and\n        /* \"contracts/OBridge.sol\":9524:9568  transfers[transferId] == TransferStatus.Null */\n      0x03\n      dup2\n      gt\n      iszero\n      tag_247\n      jumpi\n      tag_248\n      tag_137\n      jump\t// in\n    tag_248:\n    tag_247:\n      eq\n        /* \"contracts/OBridge.sol\":9516:9588  require(transfers[transferId] == TransferStatus.Null, \"transfer exists\") */\n      tag_249\n      jumpi\n      mload(0x40)\n      0x08c379a000000000000000000000000000000000000000000000000000000000\n      dup2\n      mstore\n      0x04\n      add\n      tag_250\n      swap1\n      tag_251\n      jump\t// in\n    tag_250:\n      mload(0x40)\n      dup1\n      swap2\n      sub\n      swap1\n      revert\n    tag_249:\n        /* \"contracts/OBridge.sol\":9622:9623  0 */\n      0x00\n        /* \"contracts/OBridge.sol\":9604:9624  _token == address(0) */\n      0xffffffffffffffffffffffffffffffffffffffff\n      and\n        /* \"contracts/OBridge.sol\":9604:9610  _token */\n      dup7\n        /* \"contracts/OBridge.sol\":9604:9624  _token == address(0) */\n      0xffffffffffffffffffffffffffffffffffffffff\n      and\n      eq\n        /* \"contracts/OBridge.sol\":9600:9946  if( _token == address(0) ) {... */\n      iszero\n      tag_252\n      jumpi\n        /* \"contracts/OBridge.sol\":9664:9665  0 */\n      0x00\n        /* \"contracts/OBridge.sol\":9649:9660  _eth_amount */\n      dup5\n        /* \"contracts/OBridge.sol\":9649:9665  _eth_amount == 0 */\n      eq\n        /* \"contracts/OBridge.sol\":9641:9692  require(_eth_amount == 0, \"Eth Amount should zero\") */\n      tag_253\n      jumpi\n      mload(0x40)\n      0x08c379a000000000000000000000000000000000000000000000000000000000\n      dup2\n      mstore\n      0x04\n      add\n      tag_254\n      swap1\n      tag_255\n      jump\t// in\n    tag_254:\n      mload(0x40)\n      dup1\n      swap2\n      sub\n      swap1\n      revert\n    tag_253:\n        /* \"contracts/OBridge.sol\":9731:9740  msg.value */\n      callvalue\n        /* \"contracts/OBridge.sol\":9714:9727  _token_amount */\n      dup6\n        /* \"contracts/OBridge.sol\":9714:9740  _token_amount == msg.value */\n      eq\n        /* \"contracts/OBridge.sol\":9706:9764  require(_token_amount == msg.value, \"Eth Amount mismatch\") */\n      tag_256\n      jumpi\n      mload(0x40)\n      0x08c379a000000000000000000000000000000000000000000000000000000000\n      dup2\n      mstore\n      0x04\n      add\n      tag_257\n      swap1\n      tag_258\n      jump\t// in\n    tag_257:\n      mload(0x40)\n      dup1\n      swap2\n      sub\n      swap1\n      revert\n    tag_256:\n        /* \"contracts/OBridge.sol\":9600:9946  if( _token == address(0) ) {... */\n      jump(tag_259)\n    tag_252:\n        /* \"contracts/OBridge.sol\":9818:9827  msg.value */\n      callvalue\n        /* \"contracts/OBridge.sol\":9803:9814  _eth_amount */\n      dup5\n        /* \"contracts/OBridge.sol\":9803:9827  _eth_amount == msg.value */\n      eq\n        /* \"contracts/OBridge.sol\":9795:9851  require(_eth_amount == msg.value, \"Eth Amount mismatch\") */\n      tag_260\n      jumpi\n      mload(0x40)\n      0x08c379a000000000000000000000000000000000000000000000000000000000\n      dup2\n      mstore\n      0x04\n      add\n      tag_261\n      swap1\n      tag_258\n      jump\t// in\n    tag_261:\n      mload(0x40)\n      dup1\n      swap2\n      sub\n      swap1\n      revert\n    tag_260:\n        /* \"contracts/OBridge.sol\":9865:9935  IERC20(_token).safeTransferFrom(_sender, address(this), _token_amount) */\n      tag_262\n        /* \"contracts/OBridge.sol\":9897:9904  _sender */\n      dup9\n        /* \"contracts/OBridge.sol\":9914:9918  this */\n      address\n        /* \"contracts/OBridge.sol\":9921:9934  _token_amount */\n      dup8\n        /* \"contracts/OBridge.sol\":9872:9878  _token */\n      dup10\n        /* \"contracts/OBridge.sol\":9865:9896  IERC20(_token).safeTransferFrom */\n      0xffffffffffffffffffffffffffffffffffffffff\n      and\n      tag_263\n      swap1\n        /* \"contracts/OBridge.sol\":9865:9935  IERC20(_token).safeTransferFrom(_sender, address(this), _token_amount) */\n      swap4\n      swap3\n      swap2\n      swap1\n      0xffffffff\n      and\n      jump\t// in\n    tag_262:\n        /* \"contracts/OBridge.sol\":9600:9946  if( _token == address(0) ) {... */\n    tag_259:\n        /* \"contracts/OBridge.sol\":9990:10012  TransferStatus.Pending */\n      0x01\n        /* \"contracts/OBridge.sol\":9966:9975  transfers */\n      0x05\n        /* \"contracts/OBridge.sol\":9966:9987  transfers[transferId] */\n      0x00\n        /* \"contracts/OBridge.sol\":9976:9986  transferId */\n      dup4\n        /* \"contracts/OBridge.sol\":9966:9987  transfers[transferId] */\n      dup2\n      mstore\n      0x20\n      add\n      swap1\n      dup2\n      mstore\n      0x20\n      add\n      0x00\n      keccak256\n      0x00\n        /* \"contracts/OBridge.sol\":9966:10012  transfers[transferId] = TransferStatus.Pending */\n      0x0100\n      exp\n      dup2\n      sload\n      dup2\n      0xff\n      mul\n      not\n      and\n      swap1\n      dup4\n      0x03\n      dup2\n      gt\n      iszero\n      tag_264\n      jumpi\n      tag_265\n      tag_137\n      jump\t// in\n    tag_265:\n    tag_264:\n      mul\n      or\n      swap1\n      sstore\n      pop\n        /* \"contracts/OBridge.sol\":8991:10046  function _transfer(... */\n      swap8\n      swap7\n      pop\n      pop\n      pop\n      pop\n      pop\n      pop\n      pop\n      jump\t// out\n        /* \"contracts/OBridge.sol\":2001:2168  function _setOwner(address newOwner) private {... */\n    tag_129:\n        /* \"contracts/OBridge.sol\":2056:2072  address oldOwner */\n      0x00\n        /* \"contracts/OBridge.sol\":2075:2080  owner */\n      dup1\n      0x00\n      swap1\n      sload\n      swap1\n      0x0100\n      exp\n      swap1\n      div\n      0xffffffffffffffffffffffffffffffffffffffff\n      and\n        /* \"contracts/OBridge.sol\":2056:2080  address oldOwner = owner */\n      swap1\n      pop\n        /* \"contracts/OBridge.sol\":2098:2106  newOwner */\n      dup2\n        /* \"contracts/OBridge.sol\":2090:2095  owner */\n      0x00\n      dup1\n        /* \"contracts/OBridge.sol\":2090:2106  owner = newOwner */\n      0x0100\n      exp\n      dup2\n      sload\n      dup2\n      0xffffffffffffffffffffffffffffffffffffffff\n      mul\n      not\n      and\n      swap1\n      dup4\n      0xffffffffffffffffffffffffffffffffffffffff\n      and\n      mul\n      or\n      swap1\n      sstore\n      pop\n        /* \"contracts/OBridge.sol\":2152:2160  newOwner */\n      dup2\n        /* \"contracts/OBridge.sol\":2121:2161  OwnershipTransferred(oldOwner, newOwner) */\n      0xffffffffffffffffffffffffffffffffffffffff\n      and\n        /* \"contracts/OBridge.sol\":2142:2150  oldOwner */\n      dup2\n        /* \"contracts/OBridge.sol\":2121:2161  OwnershipTransferred(oldOwner, newOwner) */\n      0xffffffffffffffffffffffffffffffffffffffff\n      and\n      0x8be0079c531659141344cd1fd0a4f28419497f9722a3daafe3b4186f6b6457e0\n      mload(0x40)\n      mload(0x40)\n      dup1\n      swap2\n      sub\n      swap1\n      log3\n        /* \"contracts/OBridge.sol\":2046:2168  {... */\n      pop\n        /* \"contracts/OBridge.sol\":2001:2168  function _setOwner(address newOwner) private {... */\n      pop\n      jump\t// out\n        /* \"@openzeppelin/contracts/token/ERC20/utils/SafeERC20.sol\":763:968  function safeTransfer(... */\n    tag_159:\n        /* \"@openzeppelin/contracts/token/ERC20/utils/SafeERC20.sol\":875:961  _callOptionalReturn(token, abi.encodeWithSelector(token.transfer.selector, to, value)) */\n      tag_268\n        /* \"@openzeppelin/contracts/token/ERC20/utils/SafeERC20.sol\":895:900  token */\n      dup4\n        /* \"@openzeppelin/contracts/token/ERC20/utils/SafeERC20.sol\":925:948  token.transfer.selector */\n      shl(0xe0, 0xa9059cbb)\n        /* \"@openzeppelin/contracts/token/ERC20/utils/SafeERC20.sol\":950:952  to */\n      dup5\n        /* \"@openzeppelin/contracts/token/ERC20/utils/SafeERC20.sol\":954:959  value */\n      dup5\n        /* \"@openzeppelin/contracts/token/ERC20/utils/SafeERC20.sol\":902:960  abi.encodeWithSelector(token.transfer.selector, to, value) */\n      add(0x24, mload(0x40))\n      tag_269\n      swap3\n      swap2\n      swap1\n      tag_270\n      jump\t// in\n    tag_269:\n      mload(0x40)\n      0x20\n      dup2\n      dup4\n      sub\n      sub\n      dup2\n      mstore\n      swap1\n      0x40\n      mstore\n      swap1\n      not(0xffffffffffffffffffffffffffffffffffffffffffffffffffffffff)\n      and\n      0x20\n      dup3\n      add\n      dup1\n      mload\n      0xffffffffffffffffffffffffffffffffffffffffffffffffffffffff\n      dup4\n      dup2\n      dup4\n      and\n      or\n      dup4\n      mstore\n      pop\n      pop\n      pop\n      pop\n        /* \"@openzeppelin/contracts/token/ERC20/utils/SafeERC20.sol\":875:894  _callOptionalReturn */\n      tag_271\n        /* \"@openzeppelin/contracts/token/ERC20/utils/SafeERC20.sol\":875:961  _callOptionalReturn(token, abi.encodeWithSelector(token.transfer.selector, to, value)) */\n      jump\t// in\n    tag_268:\n        /* \"@openzeppelin/contracts/token/ERC20/utils/SafeERC20.sol\":763:968  function safeTransfer(... */\n      pop\n      pop\n      pop\n      jump\t// out\n        /* \"contracts/OBridge.sol\":2808:3092  function calcFee(address token, uint256 value) view internal returns (uint256) {... */\n    tag_186:\n        /* \"contracts/OBridge.sol\":2878:2885  uint256 */\n      0x00\n        /* \"contracts/OBridge.sol\":2897:2908  uint256 fee */\n      dup1\n        /* \"contracts/OBridge.sol\":2937:2942  10000 */\n      0x2710\n        /* \"contracts/OBridge.sol\":2919:2934  basisPointsRate */\n      sload(0x02)\n        /* \"contracts/OBridge.sol\":2911:2916  value */\n      dup5\n        /* \"contracts/OBridge.sol\":2911:2934  value * basisPointsRate */\n      tag_273\n      swap2\n      swap1\n      tag_274\n      jump\t// in\n    tag_273:\n        /* \"contracts/OBridge.sol\":2911:2942  value * basisPointsRate / 10000 */\n      tag_275\n      swap2\n      swap1\n      tag_276\n      jump\t// in\n    tag_275:\n        /* \"contracts/OBridge.sol\":2897:2942  uint256 fee = value * basisPointsRate / 10000 */\n      swap1\n      pop\n        /* \"contracts/OBridge.sol\":2953:2967  uint256 maxFee */\n      0x00\n        /* \"contracts/OBridge.sol\":2970:2980  maximumFee */\n      0x03\n        /* \"contracts/OBridge.sol\":2970:2987  maximumFee[token] */\n      0x00\n        /* \"contracts/OBridge.sol\":2981:2986  token */\n      dup7\n        /* \"contracts/OBridge.sol\":2970:2987  maximumFee[token] */\n      0xffffffffffffffffffffffffffffffffffffffff\n      and\n      0xffffffffffffffffffffffffffffffffffffffff\n      and\n      dup2\n      mstore\n      0x20\n      add\n      swap1\n      dup2\n      mstore\n      0x20\n      add\n      0x00\n      keccak256\n      sload\n        /* \"contracts/OBridge.sol\":2953:2987  uint256 maxFee = maximumFee[token] */\n      swap1\n      pop\n        /* \"contracts/OBridge.sol\":3010:3011  0 */\n      0x00\n        /* \"contracts/OBridge.sol\":3001:3007  maxFee */\n      dup2\n        /* \"contracts/OBridge.sol\":3001:3011  maxFee > 0 */\n      gt\n        /* \"contracts/OBridge.sol\":3001:3027  maxFee > 0 && fee > maxFee */\n      dup1\n      iszero\n      tag_277\n      jumpi\n      pop\n        /* \"contracts/OBridge.sol\":3021:3027  maxFee */\n      dup1\n        /* \"contracts/OBridge.sol\":3015:3018  fee */\n      dup3\n        /* \"contracts/OBridge.sol\":3015:3027  fee > maxFee */\n      gt\n        /* \"contracts/OBridge.sol\":3001:3027  maxFee > 0 && fee > maxFee */\n    tag_277:\n        /* \"contracts/OBridge.sol\":2997:3065  if (maxFee > 0 && fee > maxFee){... */\n      iszero\n      tag_278\n      jumpi\n        /* \"contracts/OBridge.sol\":3048:3054  maxFee */\n      dup1\n        /* \"contracts/OBridge.sol\":3042:3054  fee = maxFee */\n      swap2\n      pop\n        /* \"contracts/OBridge.sol\":2997:3065  if (maxFee > 0 && fee > maxFee){... */\n    tag_278:\n        /* \"contracts/OBridge.sol\":3082:3085  fee */\n      dup2\n        /* \"contracts/OBridge.sol\":3075:3085  return fee */\n      swap3\n      pop\n      pop\n      pop\n        /* \"contracts/OBridge.sol\":2808:3092  function calcFee(address token, uint256 value) view internal returns (uint256) {... */\n      swap3\n      swap2\n      pop\n      pop\n      jump\t// out\n        /* \"@openzeppelin/contracts/token/ERC20/utils/SafeERC20.sol\":974:1215  function safeTransferFrom(... */\n    tag_263:\n        /* \"@openzeppelin/contracts/token/ERC20/utils/SafeERC20.sol\":1112:1208  _callOptionalReturn(token, abi.encodeWithSelector(token.transferFrom.selector, from, to, value)) */\n      tag_280\n        /* \"@openzeppelin/contracts/token/ERC20/utils/SafeERC20.sol\":1132:1137  token */\n      dup5\n        /* \"@openzeppelin/contracts/token/ERC20/utils/SafeERC20.sol\":1162:1189  token.transferFrom.selector */\n      shl(0xe0, 0x23b872dd)\n        /* \"@openzeppelin/contracts/token/ERC20/utils/SafeERC20.sol\":1191:1195  from */\n      dup6\n        /* \"@openzeppelin/contracts/token/ERC20/utils/SafeERC20.sol\":1197:1199  to */\n      dup6\n        /* \"@openzeppelin/contracts/token/ERC20/utils/SafeERC20.sol\":1201:1206  value */\n      dup6\n        /* \"@openzeppelin/contracts/token/ERC20/utils/SafeERC20.sol\":1139:1207  abi.encodeWithSelector(token.transferFrom.selector, from, to, value) */\n      add(0x24, mload(0x40))\n      tag_281\n      swap4\n      swap3\n      swap2\n      swap1\n      tag_282\n      jump\t// in\n    tag_281:\n      mload(0x40)\n      0x20\n      dup2\n      dup4\n      sub\n      sub\n      dup2\n      mstore\n      swap1\n      0x40\n      mstore\n      swap1\n      not(0xffffffffffffffffffffffffffffffffffffffffffffffffffffffff)\n      and\n      0x20\n      dup3\n      add\n      dup1\n      mload\n      0xffffffffffffffffffffffffffffffffffffffffffffffffffffffff\n      dup4\n      dup2\n      dup4\n      and\n      or\n      dup4\n      mstore\n      pop\n      pop\n      pop\n      pop\n        /* \"@openzeppelin/contracts/token/ERC20/utils/SafeERC20.sol\":1112:1131  _callOptionalReturn */\n      tag_271\n        /* \"@openzeppelin/contracts/token/ERC20/utils/SafeERC20.sol\":1112:1208  _callOptionalReturn(token, abi.encodeWithSelector(token.transferFrom.selector, from, to, value)) */\n      jump\t// in\n    tag_280:\n        /* \"@openzeppelin/contracts/token/ERC20/utils/SafeERC20.sol\":974:1215  function safeTransferFrom(... */\n      pop\n      pop\n      pop\n      pop\n      jump\t// out\n        /* \"@openzeppelin/contracts/token/ERC20/utils/SafeERC20.sol\":3747:4453  function _callOptionalReturn(IERC20 token, bytes memory data) private {... */\n    tag_271:\n        /* \"@openzeppelin/contracts/token/ERC20/utils/SafeERC20.sol\":4166:4189  bytes memory returndata */\n      0x00\n        /* \"@openzeppelin/contracts/token/ERC20/utils/SafeERC20.sol\":4192:4261  address(token).functionCall(data, \"SafeERC20: low-level call failed\") */\n      tag_284\n        /* \"@openzeppelin/contracts/token/ERC20/utils/SafeERC20.sol\":4220:4224  data */\n      dup3\n        /* \"@openzeppelin/contracts/token/ERC20/utils/SafeERC20.sol\":4192:4261  address(token).functionCall(data, \"SafeERC20: low-level call failed\") */\n      mload(0x40)\n      dup1\n      0x40\n      add\n      0x40\n      mstore\n      dup1\n      0x20\n      dup2\n      mstore\n      0x20\n      add\n      0x5361666545524332303a206c6f772d6c6576656c2063616c6c206661696c6564\n      dup2\n      mstore\n      pop\n        /* \"@openzeppelin/contracts/token/ERC20/utils/SafeERC20.sol\":4200:4205  token */\n      dup6\n        /* \"@openzeppelin/contracts/token/ERC20/utils/SafeERC20.sol\":4192:4219  address(token).functionCall */\n      0xffffffffffffffffffffffffffffffffffffffff\n      and\n      tag_285\n      swap1\n        /* \"@openzeppelin/contracts/token/ERC20/utils/SafeERC20.sol\":4192:4261  address(token).functionCall(data, \"SafeERC20: low-level call failed\") */\n      swap3\n      swap2\n      swap1\n      0xffffffff\n      and\n      jump\t// in\n    tag_284:\n        /* \"@openzeppelin/contracts/token/ERC20/utils/SafeERC20.sol\":4166:4261  bytes memory returndata = address(token).functionCall(data, \"SafeERC20: low-level call failed\") */\n      swap1\n      pop\n        /* \"@openzeppelin/contracts/token/ERC20/utils/SafeERC20.sol\":4295:4296  0 */\n      0x00\n        /* \"@openzeppelin/contracts/token/ERC20/utils/SafeERC20.sol\":4275:4285  returndata */\n      dup2\n        /* \"@openzeppelin/contracts/token/ERC20/utils/SafeERC20.sol\":4275:4292  returndata.length */\n      mload\n        /* \"@openzeppelin/contracts/token/ERC20/utils/SafeERC20.sol\":4275:4296  returndata.length > 0 */\n      gt\n        /* \"@openzeppelin/contracts/token/ERC20/utils/SafeERC20.sol\":4271:4447  if (returndata.length > 0) {... */\n      iszero\n      tag_286\n      jumpi\n        /* \"@openzeppelin/contracts/token/ERC20/utils/SafeERC20.sol\":4370:4380  returndata */\n      dup1\n        /* \"@openzeppelin/contracts/token/ERC20/utils/SafeERC20.sol\":4359:4389  abi.decode(returndata, (bool)) */\n      dup1\n      0x20\n      add\n      swap1\n      mload\n      dup2\n      add\n      swap1\n      tag_287\n      swap2\n      swap1\n      tag_288\n      jump\t// in\n    tag_287:\n        /* \"@openzeppelin/contracts/token/ERC20/utils/SafeERC20.sol\":4351:4436  require(abi.decode(returndata, (bool)), \"SafeERC20: ERC20 operation did not succeed\") */\n      tag_289\n      jumpi\n      mload(0x40)\n      0x08c379a000000000000000000000000000000000000000000000000000000000\n      dup2\n      mstore\n      0x04\n      add\n      tag_290\n      swap1\n      tag_291\n      jump\t// in\n    tag_290:\n      mload(0x40)\n      dup1\n      swap2\n      sub\n      swap1\n      revert\n    tag_289:\n        /* \"@openzeppelin/contracts/token/ERC20/utils/SafeERC20.sol\":4271:4447  if (returndata.length > 0) {... */\n    tag_286:\n        /* \"@openzeppelin/contracts/token/ERC20/utils/SafeERC20.sol\":3817:4453  {... */\n      pop\n        /* \"@openzeppelin/contracts/token/ERC20/utils/SafeERC20.sol\":3747:4453  function _callOptionalReturn(IERC20 token, bytes memory data) private {... */\n      pop\n      pop\n      jump\t// out\n        /* \"@openzeppelin/contracts/utils/Address.sol\":3861:4084  function functionCall(... */\n    tag_285:\n        /* \"@openzeppelin/contracts/utils/Address.sol\":3994:4006  bytes memory */\n      0x60\n        /* \"@openzeppelin/contracts/utils/Address.sol\":4025:4077  functionCallWithValue(target, data, 0, errorMessage) */\n      tag_293\n        /* \"@openzeppelin/contracts/utils/Address.sol\":4047:4053  target */\n      dup5\n        /* \"@openzeppelin/contracts/utils/Address.sol\":4055:4059  data */\n      dup5\n        /* \"@openzeppelin/contracts/utils/Address.sol\":4061:4062  0 */\n      0x00\n        /* \"@openzeppelin/contracts/utils/Address.sol\":4064:4076  errorMessage */\n      dup6\n        /* \"@openzeppelin/contracts/utils/Address.sol\":4025:4046  functionCallWithValue */\n      tag_294\n        /* \"@openzeppelin/contracts/utils/Address.sol\":4025:4077  functionCallWithValue(target, data, 0, errorMessage) */\n      jump\t// in\n    tag_293:\n        /* \"@openzeppelin/contracts/utils/Address.sol\":4018:4077  return functionCallWithValue(target, data, 0, errorMessage) */\n      swap1\n      pop\n        /* \"@openzeppelin/contracts/utils/Address.sol\":3861:4084  function functionCall(... */\n      swap4\n      swap3\n      pop\n      pop\n      pop\n      jump\t// out\n        /* \"@openzeppelin/contracts/utils/Address.sol\":4948:5447  function functionCallWithValue(... */\n    tag_294:\n        /* \"@openzeppelin/contracts/utils/Address.sol\":5113:5125  bytes memory */\n      0x60\n        /* \"@openzeppelin/contracts/utils/Address.sol\":5170:5175  value */\n      dup3\n        /* \"@openzeppelin/contracts/utils/Address.sol\":5145:5166  address(this).balance */\n      selfbalance\n        /* \"@openzeppelin/contracts/utils/Address.sol\":5145:5175  address(this).balance >= value */\n      lt\n      iszero\n        /* \"@openzeppelin/contracts/utils/Address.sol\":5137:5218  require(address(this).balance >= value, \"Address: insufficient balance for call\") */\n      tag_296\n      jumpi\n      mload(0x40)\n      0x08c379a000000000000000000000000000000000000000000000000000000000\n      dup2\n      mstore\n      0x04\n      add\n      tag_297\n      swap1\n      tag_298\n      jump\t// in\n    tag_297:\n      mload(0x40)\n      dup1\n      swap2\n      sub\n      swap1\n      revert\n    tag_296:\n        /* \"@openzeppelin/contracts/utils/Address.sol\":5236:5254  isContract(target) */\n      tag_299\n        /* \"@openzeppelin/contracts/utils/Address.sol\":5247:5253  target */\n      dup6\n        /* \"@openzeppelin/contracts/utils/Address.sol\":5236:5246  isContract */\n      tag_300\n        /* \"@openzeppelin/contracts/utils/Address.sol\":5236:5254  isContract(target) */\n      jump\t// in\n    tag_299:\n        /* \"@openzeppelin/contracts/utils/Address.sol\":5228:5288  require(isContract(target), \"Address: call to non-contract\") */\n      tag_301\n      jumpi\n      mload(0x40)\n      0x08c379a000000000000000000000000000000000000000000000000000000000\n      dup2\n      mstore\n      0x04\n      add\n      tag_302\n      swap1\n      tag_303\n      jump\t// in\n    tag_302:\n      mload(0x40)\n      dup1\n      swap2\n      sub\n      swap1\n      revert\n    tag_301:\n        /* \"@openzeppelin/contracts/utils/Address.sol\":5300:5312  bool success */\n      0x00\n        /* \"@openzeppelin/contracts/utils/Address.sol\":5314:5337  bytes memory returndata */\n      dup1\n        /* \"@openzeppelin/contracts/utils/Address.sol\":5341:5347  target */\n      dup7\n        /* \"@openzeppelin/contracts/utils/Address.sol\":5341:5352  target.call */\n      0xffffffffffffffffffffffffffffffffffffffff\n      and\n        /* \"@openzeppelin/contracts/utils/Address.sol\":5360:5365  value */\n      dup6\n        /* \"@openzeppelin/contracts/utils/Address.sol\":5367:5371  data */\n      dup8\n        /* \"@openzeppelin/contracts/utils/Address.sol\":5341:5372  target.call{value: value}(data) */\n      mload(0x40)\n      tag_304\n      swap2\n      swap1\n      tag_305\n      jump\t// in\n    tag_304:\n      0x00\n      mload(0x40)\n      dup1\n      dup4\n      sub\n      dup2\n      dup6\n      dup8\n      gas\n      call\n      swap3\n      pop\n      pop\n      pop\n      returndatasize\n      dup1\n      0x00\n      dup2\n      eq\n      tag_308\n      jumpi\n      mload(0x40)\n      swap2\n      pop\n      and(add(returndatasize, 0x3f), not(0x1f))\n      dup3\n      add\n      0x40\n      mstore\n      returndatasize\n      dup3\n      mstore\n      returndatasize\n      0x00\n      0x20\n      dup5\n      add\n      returndatacopy\n      jump(tag_307)\n    tag_308:\n      0x60\n      swap2\n      pop\n    tag_307:\n      pop\n        /* \"@openzeppelin/contracts/utils/Address.sol\":5299:5372  (bool success, bytes memory returndata) = target.call{value: value}(data) */\n      swap2\n      pop\n      swap2\n      pop\n        /* \"@openzeppelin/contracts/utils/Address.sol\":5389:5440  verifyCallResult(success, returndata, errorMessage) */\n      tag_309\n        /* \"@openzeppelin/contracts/utils/Address.sol\":5406:5413  success */\n      dup3\n        /* \"@openzeppelin/contracts/utils/Address.sol\":5415:5425  returndata */\n      dup3\n        /* \"@openzeppelin/contracts/utils/Address.sol\":5427:5439  errorMessage */\n      dup7\n        /* \"@openzeppelin/contracts/utils/Address.sol\":5389:5405  verifyCallResult */\n      tag_310\n        /* \"@openzeppelin/contracts/utils/Address.sol\":5389:5440  verifyCallResult(success, returndata, errorMessage) */\n      jump\t// in\n    tag_309:\n        /* \"@openzeppelin/contracts/utils/Address.sol\":5382:5440  return verifyCallResult(success, returndata, errorMessage) */\n      swap3\n      pop\n      pop\n      pop\n        /* \"@openzeppelin/contracts/utils/Address.sol\":4948:5447  function functionCallWithValue(... */\n      swap5\n      swap4\n      pop\n      pop\n      pop\n      pop\n      jump\t// out\n        /* \"@openzeppelin/contracts/utils/Address.sol\":1175:1495  function isContract(address account) internal view returns (bool) {... */\n    tag_300:\n        /* \"@openzeppelin/contracts/utils/Address.sol\":1235:1239  bool */\n      0x00\n        /* \"@openzeppelin/contracts/utils/Address.sol\":1487:1488  0 */\n      dup1\n        /* \"@openzeppelin/contracts/utils/Address.sol\":1465:1472  account */\n      dup3\n        /* \"@openzeppelin/contracts/utils/Address.sol\":1465:1484  account.code.length */\n      0xffffffffffffffffffffffffffffffffffffffff\n      and\n      extcodesize\n        /* \"@openzeppelin/contracts/utils/Address.sol\":1465:1488  account.code.length > 0 */\n      gt\n        /* \"@openzeppelin/contracts/utils/Address.sol\":1458:1488  return account.code.length > 0 */\n      swap1\n      pop\n        /* \"@openzeppelin/contracts/utils/Address.sol\":1175:1495  function isContract(address account) internal view returns (bool) {... */\n      swap2\n      swap1\n      pop\n      jump\t// out\n        /* \"@openzeppelin/contracts/utils/Address.sol\":7561:8303  function verifyCallResult(... */\n    tag_310:\n        /* \"@openzeppelin/contracts/utils/Address.sol\":7707:7719  bytes memory */\n      0x60\n        /* \"@openzeppelin/contracts/utils/Address.sol\":7735:7742  success */\n      dup4\n        /* \"@openzeppelin/contracts/utils/Address.sol\":7731:8297  if (success) {... */\n      iszero\n      tag_313\n      jumpi\n        /* \"@openzeppelin/contracts/utils/Address.sol\":7765:7775  returndata */\n      dup3\n        /* \"@openzeppelin/contracts/utils/Address.sol\":7758:7775  return returndata */\n      swap1\n      pop\n      jump(tag_312)\n        /* \"@openzeppelin/contracts/utils/Address.sol\":7731:8297  if (success) {... */\n    tag_313:\n        /* \"@openzeppelin/contracts/utils/Address.sol\":7896:7897  0 */\n      0x00\n        /* \"@openzeppelin/contracts/utils/Address.sol\":7876:7886  returndata */\n      dup4\n        /* \"@openzeppelin/contracts/utils/Address.sol\":7876:7893  returndata.length */\n      mload\n        /* \"@openzeppelin/contracts/utils/Address.sol\":7876:7897  returndata.length > 0 */\n      gt\n        /* \"@openzeppelin/contracts/utils/Address.sol\":7872:8287  if (returndata.length > 0) {... */\n      iszero\n      tag_315\n      jumpi\n        /* \"@openzeppelin/contracts/utils/Address.sol\":8120:8130  returndata */\n      dup3\n        /* \"@openzeppelin/contracts/utils/Address.sol\":8114:8131  mload(returndata) */\n      mload\n        /* \"@openzeppelin/contracts/utils/Address.sol\":8180:8195  returndata_size */\n      dup1\n        /* \"@openzeppelin/contracts/utils/Address.sol\":8167:8177  returndata */\n      dup5\n        /* \"@openzeppelin/contracts/utils/Address.sol\":8163:8165  32 */\n      0x20\n        /* \"@openzeppelin/contracts/utils/Address.sol\":8159:8178  add(32, returndata) */\n      add\n        /* \"@openzeppelin/contracts/utils/Address.sol\":8152:8196  revert(add(32, returndata), returndata_size) */\n      revert\n        /* \"@openzeppelin/contracts/utils/Address.sol\":7872:8287  if (returndata.length > 0) {... */\n    tag_315:\n        /* \"@openzeppelin/contracts/utils/Address.sol\":8259:8271  errorMessage */\n      dup2\n        /* \"@openzeppelin/contracts/utils/Address.sol\":8252:8272  revert(errorMessage) */\n      mload(0x40)\n      0x08c379a000000000000000000000000000000000000000000000000000000000\n      dup2\n      mstore\n      0x04\n      add\n      tag_317\n      swap2\n      swap1\n      tag_318\n      jump\t// in\n    tag_317:\n      mload(0x40)\n      dup1\n      swap2\n      sub\n      swap1\n      revert\n        /* \"@openzeppelin/contracts/utils/Address.sol\":7561:8303  function verifyCallResult(... */\n    tag_312:\n      swap4\n      swap3\n      pop\n      pop\n      pop\n      jump\t// out\n        /* \"#utility.yul\":88:205   */\n    tag_320:\n        /* \"#utility.yul\":197:198   */\n      0x00\n        /* \"#utility.yul\":194:195   */\n      dup1\n        /* \"#utility.yul\":187:199   */\n      revert\n        /* \"#utility.yul\":334:460   */\n    tag_322:\n        /* \"#utility.yul\":371:378   */\n      0x00\n        /* \"#utility.yul\":411:453   */\n      0xffffffffffffffffffffffffffffffffffffffff\n        /* \"#utility.yul\":404:409   */\n      dup3\n        /* \"#utility.yul\":400:454   */\n      and\n        /* \"#utility.yul\":389:454   */\n      swap1\n      pop\n        /* \"#utility.yul\":334:460   */\n      swap2\n      swap1\n      pop\n      jump\t// out\n        /* \"#utility.yul\":466:562   */\n    tag_323:\n        /* \"#utility.yul\":503:510   */\n      0x00\n        /* \"#utility.yul\":532:556   */\n      tag_405\n        /* \"#utility.yul\":550:555   */\n      dup3\n        /* \"#utility.yul\":532:556   */\n      tag_322\n      jump\t// in\n    tag_405:\n        /* \"#utility.yul\":521:556   */\n      swap1\n      pop\n        /* \"#utility.yul\":466:562   */\n      swap2\n      swap1\n      pop\n      jump\t// out\n        /* \"#utility.yul\":568:690   */\n    tag_324:\n        /* \"#utility.yul\":641:665   */\n      tag_407\n        /* \"#utility.yul\":659:664   */\n      dup2\n        /* \"#utility.yul\":641:665   */\n      tag_323\n      jump\t// in\n    tag_407:\n        /* \"#utility.yul\":634:639   */\n      dup2\n        /* \"#utility.yul\":631:666   */\n      eq\n        /* \"#utility.yul\":621:684   */\n      tag_408\n      jumpi\n        /* \"#utility.yul\":680:681   */\n      0x00\n        /* \"#utility.yul\":677:678   */\n      dup1\n        /* \"#utility.yul\":670:682   */\n      revert\n        /* \"#utility.yul\":621:684   */\n    tag_408:\n        /* \"#utility.yul\":568:690   */\n      pop\n      jump\t// out\n        /* \"#utility.yul\":696:835   */\n    tag_325:\n        /* \"#utility.yul\":742:747   */\n      0x00\n        /* \"#utility.yul\":780:786   */\n      dup2\n        /* \"#utility.yul\":767:787   */\n      calldataload\n        /* \"#utility.yul\":758:787   */\n      swap1\n      pop\n        /* \"#utility.yul\":796:829   */\n      tag_410\n        /* \"#utility.yul\":823:828   */\n      dup2\n        /* \"#utility.yul\":796:829   */\n      tag_324\n      jump\t// in\n    tag_410:\n        /* \"#utility.yul\":696:835   */\n      swap3\n      swap2\n      pop\n      pop\n      jump\t// out\n        /* \"#utility.yul\":841:1170   */\n    tag_27:\n        /* \"#utility.yul\":900:906   */\n      0x00\n        /* \"#utility.yul\":949:951   */\n      0x20\n        /* \"#utility.yul\":937:946   */\n      dup3\n        /* \"#utility.yul\":928:935   */\n      dup5\n        /* \"#utility.yul\":924:947   */\n      sub\n        /* \"#utility.yul\":920:952   */\n      slt\n        /* \"#utility.yul\":917:1036   */\n      iszero\n      tag_412\n      jumpi\n        /* \"#utility.yul\":955:1034   */\n      tag_413\n      tag_320\n      jump\t// in\n    tag_413:\n        /* \"#utility.yul\":917:1036   */\n    tag_412:\n        /* \"#utility.yul\":1075:1076   */\n      0x00\n        /* \"#utility.yul\":1100:1153   */\n      tag_414\n        /* \"#utility.yul\":1145:1152   */\n      dup5\n        /* \"#utility.yul\":1136:1142   */\n      dup3\n        /* \"#utility.yul\":1125:1134   */\n      dup6\n        /* \"#utility.yul\":1121:1143   */\n      add\n        /* \"#utility.yul\":1100:1153   */\n      tag_325\n      jump\t// in\n    tag_414:\n        /* \"#utility.yul\":1090:1153   */\n      swap2\n      pop\n        /* \"#utility.yul\":1046:1163   */\n      pop\n        /* \"#utility.yul\":841:1170   */\n      swap3\n      swap2\n      pop\n      pop\n      jump\t// out\n        /* \"#utility.yul\":1176:1253   */\n    tag_326:\n        /* \"#utility.yul\":1213:1220   */\n      0x00\n        /* \"#utility.yul\":1242:1247   */\n      dup2\n        /* \"#utility.yul\":1231:1247   */\n      swap1\n      pop\n        /* \"#utility.yul\":1176:1253   */\n      swap2\n      swap1\n      pop\n      jump\t// out\n        /* \"#utility.yul\":1259:1377   */\n    tag_327:\n        /* \"#utility.yul\":1346:1370   */\n      tag_417\n        /* \"#utility.yul\":1364:1369   */\n      dup2\n        /* \"#utility.yul\":1346:1370   */\n      tag_326\n      jump\t// in\n    tag_417:\n        /* \"#utility.yul\":1341:1344   */\n      dup3\n        /* \"#utility.yul\":1334:1371   */\n      mstore\n        /* \"#utility.yul\":1259:1377   */\n      pop\n      pop\n      jump\t// out\n        /* \"#utility.yul\":1383:1605   */\n    tag_30:\n        /* \"#utility.yul\":1476:1480   */\n      0x00\n        /* \"#utility.yul\":1514:1516   */\n      0x20\n        /* \"#utility.yul\":1503:1512   */\n      dup3\n        /* \"#utility.yul\":1499:1517   */\n      add\n        /* \"#utility.yul\":1491:1517   */\n      swap1\n      pop\n        /* \"#utility.yul\":1527:1598   */\n      tag_419\n        /* \"#utility.yul\":1595:1596   */\n      0x00\n        /* \"#utility.yul\":1584:1593   */\n      dup4\n        /* \"#utility.yul\":1580:1597   */\n      add\n        /* \"#utility.yul\":1571:1577   */\n      dup5\n        /* \"#utility.yul\":1527:1598   */\n      tag_327\n      jump\t// in\n    tag_419:\n        /* \"#utility.yul\":1383:1605   */\n      swap3\n      swap2\n      pop\n      pop\n      jump\t// out\n        /* \"#utility.yul\":1611:1733   */\n    tag_328:\n        /* \"#utility.yul\":1684:1708   */\n      tag_421\n        /* \"#utility.yul\":1702:1707   */\n      dup2\n        /* \"#utility.yul\":1684:1708   */\n      tag_326\n      jump\t// in\n    tag_421:\n        /* \"#utility.yul\":1677:1682   */\n      dup2\n        /* \"#utility.yul\":1674:1709   */\n      eq\n        /* \"#utility.yul\":1664:1727   */\n      tag_422\n      jumpi\n        /* \"#utility.yul\":1723:1724   */\n      0x00\n        /* \"#utility.yul\":1720:1721   */\n      dup1\n        /* \"#utility.yul\":1713:1725   */\n      revert\n        /* \"#utility.yul\":1664:1727   */\n    tag_422:\n        /* \"#utility.yul\":1611:1733   */\n      pop\n      jump\t// out\n        /* \"#utility.yul\":1739:1878   */\n    tag_329:\n        /* \"#utility.yul\":1785:1790   */\n      0x00\n        /* \"#utility.yul\":1823:1829   */\n      dup2\n        /* \"#utility.yul\":1810:1830   */\n      calldataload\n        /* \"#utility.yul\":1801:1830   */\n      swap1\n      pop\n        /* \"#utility.yul\":1839:1872   */\n      tag_424\n        /* \"#utility.yul\":1866:1871   */\n      dup2\n        /* \"#utility.yul\":1839:1872   */\n      tag_328\n      jump\t// in\n    tag_424:\n        /* \"#utility.yul\":1739:1878   */\n      swap3\n      swap2\n      pop\n      pop\n      jump\t// out\n        /* \"#utility.yul\":1884:2358   */\n    tag_34:\n        /* \"#utility.yul\":1952:1958   */\n      0x00\n        /* \"#utility.yul\":1960:1966   */\n      dup1\n        /* \"#utility.yul\":2009:2011   */\n      0x40\n        /* \"#utility.yul\":1997:2006   */\n      dup4\n        /* \"#utility.yul\":1988:1995   */\n      dup6\n        /* \"#utility.yul\":1984:2007   */\n      sub\n        /* \"#utility.yul\":1980:2012   */\n      slt\n        /* \"#utility.yul\":1977:2096   */\n      iszero\n      tag_426\n      jumpi\n        /* \"#utility.yul\":2015:2094   */\n      tag_427\n      tag_320\n      jump\t// in\n    tag_427:\n        /* \"#utility.yul\":1977:2096   */\n    tag_426:\n        /* \"#utility.yul\":2135:2136   */\n      0x00\n        /* \"#utility.yul\":2160:2213   */\n      tag_428\n        /* \"#utility.yul\":2205:2212   */\n      dup6\n        /* \"#utility.yul\":2196:2202   */\n      dup3\n        /* \"#utility.yul\":2185:2194   */\n      dup7\n        /* \"#utility.yul\":2181:2203   */\n      add\n        /* \"#utility.yul\":2160:2213   */\n      tag_325\n      jump\t// in\n    tag_428:\n        /* \"#utility.yul\":2150:2213   */\n      swap3\n      pop\n        /* \"#utility.yul\":2106:2223   */\n      pop\n        /* \"#utility.yul\":2262:2264   */\n      0x20\n        /* \"#utility.yul\":2288:2341   */\n      tag_429\n        /* \"#utility.yul\":2333:2340   */\n      dup6\n        /* \"#utility.yul\":2324:2330   */\n      dup3\n        /* \"#utility.yul\":2313:2322   */\n      dup7\n        /* \"#utility.yul\":2309:2331   */\n      add\n        /* \"#utility.yul\":2288:2341   */\n      tag_329\n      jump\t// in\n    tag_429:\n        /* \"#utility.yul\":2278:2341   */\n      swap2\n      pop\n        /* \"#utility.yul\":2233:2351   */\n      pop\n        /* \"#utility.yul\":1884:2358   */\n      swap3\n      pop\n      swap3\n      swap1\n      pop\n      jump\t// out\n        /* \"#utility.yul\":2364:2441   */\n    tag_330:\n        /* \"#utility.yul\":2401:2408   */\n      0x00\n        /* \"#utility.yul\":2430:2435   */\n      dup2\n        /* \"#utility.yul\":2419:2435   */\n      swap1\n      pop\n        /* \"#utility.yul\":2364:2441   */\n      swap2\n      swap1\n      pop\n      jump\t// out\n        /* \"#utility.yul\":2447:2569   */\n    tag_331:\n        /* \"#utility.yul\":2520:2544   */\n      tag_432\n        /* \"#utility.yul\":2538:2543   */\n      dup2\n        /* \"#utility.yul\":2520:2544   */\n      tag_330\n      jump\t// in\n    tag_432:\n        /* \"#utility.yul\":2513:2518   */\n      dup2\n        /* \"#utility.yul\":2510:2545   */\n      eq\n        /* \"#utility.yul\":2500:2563   */\n      tag_433\n      jumpi\n        /* \"#utility.yul\":2559:2560   */\n      0x00\n        /* \"#utility.yul\":2556:2557   */\n      dup1\n        /* \"#utility.yul\":2549:2561   */\n      revert\n        /* \"#utility.yul\":2500:2563   */\n    tag_433:\n        /* \"#utility.yul\":2447:2569   */\n      pop\n      jump\t// out\n        /* \"#utility.yul\":2575:2714   */\n    tag_332:\n        /* \"#utility.yul\":2621:2626   */\n      0x00\n        /* \"#utility.yul\":2659:2665   */\n      dup2\n        /* \"#utility.yul\":2646:2666   */\n      calldataload\n        /* \"#utility.yul\":2637:2666   */\n      swap1\n      pop\n        /* \"#utility.yul\":2675:2708   */\n      tag_435\n        /* \"#utility.yul\":2702:2707   */\n      dup2\n        /* \"#utility.yul\":2675:2708   */\n      tag_331\n      jump\t// in\n    tag_435:\n        /* \"#utility.yul\":2575:2714   */\n      swap3\n      swap2\n      pop\n      pop\n      jump\t// out\n        /* \"#utility.yul\":2720:3049   */\n    tag_39:\n        /* \"#utility.yul\":2779:2785   */\n      0x00\n        /* \"#utility.yul\":2828:2830   */\n      0x20\n        /* \"#utility.yul\":2816:2825   */\n      dup3\n        /* \"#utility.yul\":2807:2814   */\n      dup5\n        /* \"#utility.yul\":2803:2826   */\n      sub\n        /* \"#utility.yul\":2799:2831   */\n      slt\n        /* \"#utility.yul\":2796:2915   */\n      iszero\n      tag_437\n      jumpi\n        /* \"#utility.yul\":2834:2913   */\n      tag_438\n      tag_320\n      jump\t// in\n    tag_438:\n        /* \"#utility.yul\":2796:2915   */\n    tag_437:\n        /* \"#utility.yul\":2954:2955   */\n      0x00\n        /* \"#utility.yul\":2979:3032   */\n      tag_439\n        /* \"#utility.yul\":3024:3031   */\n      dup5\n        /* \"#utility.yul\":3015:3021   */\n      dup3\n        /* \"#utility.yul\":3004:3013   */\n      dup6\n        /* \"#utility.yul\":3000:3022   */\n      add\n        /* \"#utility.yul\":2979:3032   */\n      tag_332\n      jump\t// in\n    tag_439:\n        /* \"#utility.yul\":2969:3032   */\n      swap2\n      pop\n        /* \"#utility.yul\":2925:3042   */\n      pop\n        /* \"#utility.yul\":2720:3049   */\n      swap3\n      swap2\n      pop\n      pop\n      jump\t// out\n        /* \"#utility.yul\":3055:3235   */\n    tag_137:\n        /* \"#utility.yul\":3103:3180   */\n      0x4e487b7100000000000000000000000000000000000000000000000000000000\n        /* \"#utility.yul\":3100:3101   */\n      0x00\n        /* \"#utility.yul\":3093:3181   */\n      mstore\n        /* \"#utility.yul\":3200:3204   */\n      0x21\n        /* \"#utility.yul\":3197:3198   */\n      0x04\n        /* \"#utility.yul\":3190:3205   */\n      mstore\n        /* \"#utility.yul\":3224:3228   */\n      0x24\n        /* \"#utility.yul\":3221:3222   */\n      0x00\n        /* \"#utility.yul\":3214:3229   */\n      revert\n        /* \"#utility.yul\":3241:3364   */\n    tag_333:\n        /* \"#utility.yul\":3332:3333   */\n      0x04\n        /* \"#utility.yul\":3325:3330   */\n      dup2\n        /* \"#utility.yul\":3322:3334   */\n      lt\n        /* \"#utility.yul\":3312:3358   */\n      tag_442\n      jumpi\n        /* \"#utility.yul\":3338:3356   */\n      tag_443\n      tag_137\n      jump\t// in\n    tag_443:\n        /* \"#utility.yul\":3312:3358   */\n    tag_442:\n        /* \"#utility.yul\":3241:3364   */\n      pop\n      jump\t// out\n        /* \"#utility.yul\":3370:3517   */\n    tag_334:\n        /* \"#utility.yul\":3425:3432   */\n      0x00\n        /* \"#utility.yul\":3454:3459   */\n      dup2\n        /* \"#utility.yul\":3443:3459   */\n      swap1\n      pop\n        /* \"#utility.yul\":3460:3511   */\n      tag_445\n        /* \"#utility.yul\":3505:3510   */\n      dup3\n        /* \"#utility.yul\":3460:3511   */\n      tag_333\n      jump\t// in\n    tag_445:\n        /* \"#utility.yul\":3370:3517   */\n      swap2\n      swap1\n      pop\n      jump\t// out\n        /* \"#utility.yul\":3523:3670   */\n    tag_335:\n        /* \"#utility.yul\":3589:3598   */\n      0x00\n        /* \"#utility.yul\":3622:3664   */\n      tag_447\n        /* \"#utility.yul\":3658:3663   */\n      dup3\n        /* \"#utility.yul\":3622:3664   */\n      tag_334\n      jump\t// in\n    tag_447:\n        /* \"#utility.yul\":3609:3664   */\n      swap1\n      pop\n        /* \"#utility.yul\":3523:3670   */\n      swap2\n      swap1\n      pop\n      jump\t// out\n        /* \"#utility.yul\":3676:3839   */\n    tag_336:\n        /* \"#utility.yul\":3779:3832   */\n      tag_449\n        /* \"#utility.yul\":3826:3831   */\n      dup2\n        /* \"#utility.yul\":3779:3832   */\n      tag_335\n      jump\t// in\n    tag_449:\n        /* \"#utility.yul\":3774:3777   */\n      dup3\n        /* \"#utility.yul\":3767:3833   */\n      mstore\n        /* \"#utility.yul\":3676:3839   */\n      pop\n      pop\n      jump\t// out\n        /* \"#utility.yul\":3845:4099   */\n    tag_42:\n        /* \"#utility.yul\":3954:3958   */\n      0x00\n        /* \"#utility.yul\":3992:3994   */\n      0x20\n        /* \"#utility.yul\":3981:3990   */\n      dup3\n        /* \"#utility.yul\":3977:3995   */\n      add\n        /* \"#utility.yul\":3969:3995   */\n      swap1\n      pop\n        /* \"#utility.yul\":4005:4092   */\n      tag_451\n        /* \"#utility.yul\":4089:4090   */\n      0x00\n        /* \"#utility.yul\":4078:4087   */\n      dup4\n        /* \"#utility.yul\":4074:4091   */\n      add\n        /* \"#utility.yul\":4065:4071   */\n      dup5\n        /* \"#utility.yul\":4005:4092   */\n      tag_336\n      jump\t// in\n    tag_451:\n        /* \"#utility.yul\":3845:4099   */\n      swap3\n      swap2\n      pop\n      pop\n      jump\t// out\n        /* \"#utility.yul\":4105:4206   */\n    tag_337:\n        /* \"#utility.yul\":4141:4148   */\n      0x00\n        /* \"#utility.yul\":4181:4199   */\n      0xffffffffffffffff\n        /* \"#utility.yul\":4174:4179   */\n      dup3\n        /* \"#utility.yul\":4170:4200   */\n      and\n        /* \"#utility.yul\":4159:4200   */\n      swap1\n      pop\n        /* \"#utility.yul\":4105:4206   */\n      swap2\n      swap1\n      pop\n      jump\t// out\n        /* \"#utility.yul\":4212:4332   */\n    tag_338:\n        /* \"#utility.yul\":4284:4307   */\n      tag_454\n        /* \"#utility.yul\":4301:4306   */\n      dup2\n        /* \"#utility.yul\":4284:4307   */\n      tag_337\n      jump\t// in\n    tag_454:\n        /* \"#utility.yul\":4277:4282   */\n      dup2\n        /* \"#utility.yul\":4274:4308   */\n      eq\n        /* \"#utility.yul\":4264:4326   */\n      tag_455\n      jumpi\n        /* \"#utility.yul\":4322:4323   */\n      0x00\n        /* \"#utility.yul\":4319:4320   */\n      dup1\n        /* \"#utility.yul\":4312:4324   */\n      revert\n        /* \"#utility.yul\":4264:4326   */\n    tag_455:\n        /* \"#utility.yul\":4212:4332   */\n      pop\n      jump\t// out\n        /* \"#utility.yul\":4338:4475   */\n    tag_339:\n        /* \"#utility.yul\":4383:4388   */\n      0x00\n        /* \"#utility.yul\":4421:4427   */\n      dup2\n        /* \"#utility.yul\":4408:4428   */\n      calldataload\n        /* \"#utility.yul\":4399:4428   */\n      swap1\n      pop\n        /* \"#utility.yul\":4437:4469   */\n      tag_457\n        /* \"#utility.yul\":4463:4468   */\n      dup2\n        /* \"#utility.yul\":4437:4469   */\n      tag_338\n      jump\t// in\n    tag_457:\n        /* \"#utility.yul\":4338:4475   */\n      swap3\n      swap2\n      pop\n      pop\n      jump\t// out\n        /* \"#utility.yul\":4481:6264   */\n    tag_45:\n        /* \"#utility.yul\":4627:4633   */\n      0x00\n        /* \"#utility.yul\":4635:4641   */\n      dup1\n        /* \"#utility.yul\":4643:4649   */\n      0x00\n        /* \"#utility.yul\":4651:4657   */\n      dup1\n        /* \"#utility.yul\":4659:4665   */\n      0x00\n        /* \"#utility.yul\":4667:4673   */\n      dup1\n        /* \"#utility.yul\":4675:4681   */\n      0x00\n        /* \"#utility.yul\":4683:4689   */\n      dup1\n        /* \"#utility.yul\":4691:4697   */\n      0x00\n        /* \"#utility.yul\":4699:4705   */\n      dup1\n        /* \"#utility.yul\":4707:4714   */\n      0x00\n        /* \"#utility.yul\":4757:4760   */\n      0x0160\n        /* \"#utility.yul\":4745:4754   */\n      dup13\n        /* \"#utility.yul\":4736:4743   */\n      dup15\n        /* \"#utility.yul\":4732:4755   */\n      sub\n        /* \"#utility.yul\":4728:4761   */\n      slt\n        /* \"#utility.yul\":4725:4845   */\n      iszero\n      tag_459\n      jumpi\n        /* \"#utility.yul\":4764:4843   */\n      tag_460\n      tag_320\n      jump\t// in\n    tag_460:\n        /* \"#utility.yul\":4725:4845   */\n    tag_459:\n        /* \"#utility.yul\":4884:4885   */\n      0x00\n        /* \"#utility.yul\":4909:4962   */\n      tag_461\n        /* \"#utility.yul\":4954:4961   */\n      dup15\n        /* \"#utility.yul\":4945:4951   */\n      dup3\n        /* \"#utility.yul\":4934:4943   */\n      dup16\n        /* \"#utility.yul\":4930:4952   */\n      add\n        /* \"#utility.yul\":4909:4962   */\n      tag_325\n      jump\t// in\n    tag_461:\n        /* \"#utility.yul\":4899:4962   */\n      swap12\n      pop\n        /* \"#utility.yul\":4855:4972   */\n      pop\n        /* \"#utility.yul\":5011:5013   */\n      0x20\n        /* \"#utility.yul\":5037:5090   */\n      tag_462\n        /* \"#utility.yul\":5082:5089   */\n      dup15\n        /* \"#utility.yul\":5073:5079   */\n      dup3\n        /* \"#utility.yul\":5062:5071   */\n      dup16\n        /* \"#utility.yul\":5058:5080   */\n      add\n        /* \"#utility.yul\":5037:5090   */\n      tag_325\n      jump\t// in\n    tag_462:\n        /* \"#utility.yul\":5027:5090   */\n      swap11\n      pop\n        /* \"#utility.yul\":4982:5100   */\n      pop\n        /* \"#utility.yul\":5139:5141   */\n      0x40\n        /* \"#utility.yul\":5165:5218   */\n      tag_463\n        /* \"#utility.yul\":5210:5217   */\n      dup15\n        /* \"#utility.yul\":5201:5207   */\n      dup3\n        /* \"#utility.yul\":5190:5199   */\n      dup16\n        /* \"#utility.yul\":5186:5208   */\n      add\n        /* \"#utility.yul\":5165:5218   */\n      tag_325\n      jump\t// in\n    tag_463:\n        /* \"#utility.yul\":5155:5218   */\n      swap10\n      pop\n        /* \"#utility.yul\":5110:5228   */\n      pop\n        /* \"#utility.yul\":5267:5269   */\n      0x60\n        /* \"#utility.yul\":5293:5346   */\n      tag_464\n        /* \"#utility.yul\":5338:5345   */\n      dup15\n        /* \"#utility.yul\":5329:5335   */\n      dup3\n        /* \"#utility.yul\":5318:5327   */\n      dup16\n        /* \"#utility.yul\":5314:5336   */\n      add\n        /* \"#utility.yul\":5293:5346   */\n      tag_329\n      jump\t// in\n    tag_464:\n        /* \"#utility.yul\":5283:5346   */\n      swap9\n      pop\n        /* \"#utility.yul\":5238:5356   */\n      pop\n        /* \"#utility.yul\":5395:5398   */\n      0x80\n        /* \"#utility.yul\":5422:5475   */\n      tag_465\n        /* \"#utility.yul\":5467:5474   */\n      dup15\n        /* \"#utility.yul\":5458:5464   */\n      dup3\n        /* \"#utility.yul\":5447:5456   */\n      dup16\n        /* \"#utility.yul\":5443:5465   */\n      add\n        /* \"#utility.yul\":5422:5475   */\n      tag_332\n      jump\t// in\n    tag_465:\n        /* \"#utility.yul\":5412:5475   */\n      swap8\n      pop\n        /* \"#utility.yul\":5366:5485   */\n      pop\n        /* \"#utility.yul\":5524:5527   */\n      0xa0\n        /* \"#utility.yul\":5551:5603   */\n      tag_466\n        /* \"#utility.yul\":5595:5602   */\n      dup15\n        /* \"#utility.yul\":5586:5592   */\n      dup3\n        /* \"#utility.yul\":5575:5584   */\n      dup16\n        /* \"#utility.yul\":5571:5593   */\n      add\n        /* \"#utility.yul\":5551:5603   */\n      tag_339\n      jump\t// in\n    tag_466:\n        /* \"#utility.yul\":5541:5603   */\n      swap7\n      pop\n        /* \"#utility.yul\":5495:5613   */\n      pop\n        /* \"#utility.yul\":5652:5655   */\n      0xc0\n        /* \"#utility.yul\":5679:5731   */\n      tag_467\n        /* \"#utility.yul\":5723:5730   */\n      dup15\n        /* \"#utility.yul\":5714:5720   */\n      dup3\n        /* \"#utility.yul\":5703:5712   */\n      dup16\n        /* \"#utility.yul\":5699:5721   */\n      add\n        /* \"#utility.yul\":5679:5731   */\n      tag_339\n      jump\t// in\n    tag_467:\n        /* \"#utility.yul\":5669:5731   */\n      swap6\n      pop\n        /* \"#utility.yul\":5623:5741   */\n      pop\n        /* \"#utility.yul\":5780:5783   */\n      0xe0\n        /* \"#utility.yul\":5807:5860   */\n      tag_468\n        /* \"#utility.yul\":5852:5859   */\n      dup15\n        /* \"#utility.yul\":5843:5849   */\n      dup3\n        /* \"#utility.yul\":5832:5841   */\n      dup16\n        /* \"#utility.yul\":5828:5850   */\n      add\n        /* \"#utility.yul\":5807:5860   */\n      tag_329\n      jump\t// in\n    tag_468:\n        /* \"#utility.yul\":5797:5860   */\n      swap5\n      pop\n        /* \"#utility.yul\":5751:5870   */\n      pop\n        /* \"#utility.yul\":5909:5912   */\n      0x0100\n        /* \"#utility.yul\":5936:5988   */\n      tag_469\n        /* \"#utility.yul\":5980:5987   */\n      dup15\n        /* \"#utility.yul\":5971:5977   */\n      dup3\n        /* \"#utility.yul\":5960:5969   */\n      dup16\n        /* \"#utility.yul\":5956:5978   */\n      add\n        /* \"#utility.yul\":5936:5988   */\n      tag_339\n      jump\t// in\n    tag_469:\n        /* \"#utility.yul\":5926:5988   */\n      swap4\n      pop\n        /* \"#utility.yul\":5880:5998   */\n      pop\n        /* \"#utility.yul\":6037:6040   */\n      0x0120\n        /* \"#utility.yul\":6064:6117   */\n      tag_470\n        /* \"#utility.yul\":6109:6116   */\n      dup15\n        /* \"#utility.yul\":6100:6106   */\n      dup3\n        /* \"#utility.yul\":6089:6098   */\n      dup16\n        /* \"#utility.yul\":6085:6107   */\n      add\n        /* \"#utility.yul\":6064:6117   */\n      tag_329\n      jump\t// in\n    tag_470:\n        /* \"#utility.yul\":6054:6117   */\n      swap3\n      pop\n        /* \"#utility.yul\":6008:6127   */\n      pop\n        /* \"#utility.yul\":6166:6169   */\n      0x0140\n        /* \"#utility.yul\":6194:6247   */\n      tag_471\n        /* \"#utility.yul\":6239:6246   */\n      dup15\n        /* \"#utility.yul\":6230:6236   */\n      dup3\n        /* \"#utility.yul\":6219:6228   */\n      dup16\n        /* \"#utility.yul\":6215:6237   */\n      add\n        /* \"#utility.yul\":6194:6247   */\n      tag_329\n      jump\t// in\n    tag_471:\n        /* \"#utility.yul\":6183:6247   */\n      swap2\n      pop\n        /* \"#utility.yul\":6137:6257   */\n      pop\n        /* \"#utility.yul\":4481:6264   */\n      swap3\n      swap6\n      swap9\n      swap12\n      pop\n      swap3\n      swap6\n      swap9\n      swap12\n      swap1\n      swap4\n      swap7\n      swap10\n      pop\n      jump\t// out\n        /* \"#utility.yul\":6270:6388   */\n    tag_340:\n        /* \"#utility.yul\":6357:6381   */\n      tag_473\n        /* \"#utility.yul\":6375:6380   */\n      dup2\n        /* \"#utility.yul\":6357:6381   */\n      tag_323\n      jump\t// in\n    tag_473:\n        /* \"#utility.yul\":6352:6355   */\n      dup3\n        /* \"#utility.yul\":6345:6382   */\n      mstore\n        /* \"#utility.yul\":6270:6388   */\n      pop\n      pop\n      jump\t// out\n        /* \"#utility.yul\":6394:6616   */\n    tag_51:\n        /* \"#utility.yul\":6487:6491   */\n      0x00\n        /* \"#utility.yul\":6525:6527   */\n      0x20\n        /* \"#utility.yul\":6514:6523   */\n      dup3\n        /* \"#utility.yul\":6510:6528   */\n      add\n        /* \"#utility.yul\":6502:6528   */\n      swap1\n      pop\n        /* \"#utility.yul\":6538:6609   */\n      tag_475\n        /* \"#utility.yul\":6606:6607   */\n      0x00\n        /* \"#utility.yul\":6595:6604   */\n      dup4\n        /* \"#utility.yul\":6591:6608   */\n      add\n        /* \"#utility.yul\":6582:6588   */\n      dup5\n        /* \"#utility.yul\":6538:6609   */\n      tag_340\n      jump\t// in\n    tag_475:\n        /* \"#utility.yul\":6394:6616   */\n      swap3\n      swap2\n      pop\n      pop\n      jump\t// out\n        /* \"#utility.yul\":6622:8113   */\n    tag_54:\n        /* \"#utility.yul\":6751:6757   */\n      0x00\n        /* \"#utility.yul\":6759:6765   */\n      dup1\n        /* \"#utility.yul\":6767:6773   */\n      0x00\n        /* \"#utility.yul\":6775:6781   */\n      dup1\n        /* \"#utility.yul\":6783:6789   */\n      0x00\n        /* \"#utility.yul\":6791:6797   */\n      dup1\n        /* \"#utility.yul\":6799:6805   */\n      0x00\n        /* \"#utility.yul\":6807:6813   */\n      dup1\n        /* \"#utility.yul\":6815:6821   */\n      0x00\n        /* \"#utility.yul\":6864:6867   */\n      0x0120\n        /* \"#utility.yul\":6852:6861   */\n      dup11\n        /* \"#utility.yul\":6843:6850   */\n      dup13\n        /* \"#utility.yul\":6839:6862   */\n      sub\n        /* \"#utility.yul\":6835:6868   */\n      slt\n        /* \"#utility.yul\":6832:6952   */\n      iszero\n      tag_477\n      jumpi\n        /* \"#utility.yul\":6871:6950   */\n      tag_478\n      tag_320\n      jump\t// in\n    tag_478:\n        /* \"#utility.yul\":6832:6952   */\n    tag_477:\n        /* \"#utility.yul\":6991:6992   */\n      0x00\n        /* \"#utility.yul\":7016:7069   */\n      tag_479\n        /* \"#utility.yul\":7061:7068   */\n      dup13\n        /* \"#utility.yul\":7052:7058   */\n      dup3\n        /* \"#utility.yul\":7041:7050   */\n      dup14\n        /* \"#utility.yul\":7037:7059   */\n      add\n        /* \"#utility.yul\":7016:7069   */\n      tag_325\n      jump\t// in\n    tag_479:\n        /* \"#utility.yul\":7006:7069   */\n      swap10\n      pop\n        /* \"#utility.yul\":6962:7079   */\n      pop\n        /* \"#utility.yul\":7118:7120   */\n      0x20\n        /* \"#utility.yul\":7144:7197   */\n      tag_480\n        /* \"#utility.yul\":7189:7196   */\n      dup13\n        /* \"#utility.yul\":7180:7186   */\n      dup3\n        /* \"#utility.yul\":7169:7178   */\n      dup14\n        /* \"#utility.yul\":7165:7187   */\n      add\n        /* \"#utility.yul\":7144:7197   */\n      tag_325\n      jump\t// in\n    tag_480:\n        /* \"#utility.yul\":7134:7197   */\n      swap9\n      pop\n        /* \"#utility.yul\":7089:7207   */\n      pop\n        /* \"#utility.yul\":7246:7248   */\n      0x40\n        /* \"#utility.yul\":7272:7325   */\n      tag_481\n        /* \"#utility.yul\":7317:7324   */\n      dup13\n        /* \"#utility.yul\":7308:7314   */\n      dup3\n        /* \"#utility.yul\":7297:7306   */\n      dup14\n        /* \"#utility.yul\":7293:7315   */\n      add\n        /* \"#utility.yul\":7272:7325   */\n      tag_325\n      jump\t// in\n    tag_481:\n        /* \"#utility.yul\":7262:7325   */\n      swap8\n      pop\n        /* \"#utility.yul\":7217:7335   */\n      pop\n        /* \"#utility.yul\":7374:7376   */\n      0x60\n        /* \"#utility.yul\":7400:7453   */\n      tag_482\n        /* \"#utility.yul\":7445:7452   */\n      dup13\n        /* \"#utility.yul\":7436:7442   */\n      dup3\n        /* \"#utility.yul\":7425:7434   */\n      dup14\n        /* \"#utility.yul\":7421:7443   */\n      add\n        /* \"#utility.yul\":7400:7453   */\n      tag_329\n      jump\t// in\n    tag_482:\n        /* \"#utility.yul\":7390:7453   */\n      swap7\n      pop\n        /* \"#utility.yul\":7345:7463   */\n      pop\n        /* \"#utility.yul\":7502:7505   */\n      0x80\n        /* \"#utility.yul\":7529:7582   */\n      tag_483\n        /* \"#utility.yul\":7574:7581   */\n      dup13\n        /* \"#utility.yul\":7565:7571   */\n      dup3\n        /* \"#utility.yul\":7554:7563   */\n      dup14\n        /* \"#utility.yul\":7550:7572   */\n      add\n        /* \"#utility.yul\":7529:7582   */\n      tag_329\n      jump\t// in\n    tag_483:\n        /* \"#utility.yul\":7519:7582   */\n      swap6\n      pop\n        /* \"#utility.yul\":7473:7592   */\n      pop\n        /* \"#utility.yul\":7631:7634   */\n      0xa0\n        /* \"#utility.yul\":7658:7711   */\n      tag_484\n        /* \"#utility.yul\":7703:7710   */\n      dup13\n        /* \"#utility.yul\":7694:7700   */\n      dup3\n        /* \"#utility.yul\":7683:7692   */\n      dup14\n        /* \"#utility.yul\":7679:7701   */\n      add\n        /* \"#utility.yul\":7658:7711   */\n      tag_332\n      jump\t// in\n    tag_484:\n        /* \"#utility.yul\":7648:7711   */\n      swap5\n      pop\n        /* \"#utility.yul\":7602:7721   */\n      pop\n        /* \"#utility.yul\":7760:7763   */\n      0xc0\n        /* \"#utility.yul\":7787:7839   */\n      tag_485\n        /* \"#utility.yul\":7831:7838   */\n      dup13\n        /* \"#utility.yul\":7822:7828   */\n      dup3\n        /* \"#utility.yul\":7811:7820   */\n      dup14\n        /* \"#utility.yul\":7807:7829   */\n      add\n        /* \"#utility.yul\":7787:7839   */\n      tag_339\n      jump\t// in\n    tag_485:\n        /* \"#utility.yul\":7777:7839   */\n      swap4\n      pop\n        /* \"#utility.yul\":7731:7849   */\n      pop\n        /* \"#utility.yul\":7888:7891   */\n      0xe0\n        /* \"#utility.yul\":7915:7967   */\n      tag_486\n        /* \"#utility.yul\":7959:7966   */\n      dup13\n        /* \"#utility.yul\":7950:7956   */\n      dup3\n        /* \"#utility.yul\":7939:7948   */\n      dup14\n        /* \"#utility.yul\":7935:7957   */\n      add\n        /* \"#utility.yul\":7915:7967   */\n      tag_339\n      jump\t// in\n    tag_486:\n        /* \"#utility.yul\":7905:7967   */\n      swap3\n      pop\n        /* \"#utility.yul\":7859:7977   */\n      pop\n        /* \"#utility.yul\":8016:8019   */\n      0x0100\n        /* \"#utility.yul\":8043:8096   */\n      tag_487\n        /* \"#utility.yul\":8088:8095   */\n      dup13\n        /* \"#utility.yul\":8079:8085   */\n      dup3\n        /* \"#utility.yul\":8068:8077   */\n      dup14\n        /* \"#utility.yul\":8064:8086   */\n      add\n        /* \"#utility.yul\":8043:8096   */\n      tag_332\n      jump\t// in\n    tag_487:\n        /* \"#utility.yul\":8033:8096   */\n      swap2\n      pop\n        /* \"#utility.yul\":7987:8106   */\n      pop\n        /* \"#utility.yul\":6622:8113   */\n      swap3\n      swap6\n      swap9\n      pop\n      swap3\n      swap6\n      swap9\n      pop\n      swap3\n      swap6\n      swap9\n      jump\t// out\n        /* \"#utility.yul\":8119:8448   */\n    tag_59:\n        /* \"#utility.yul\":8178:8184   */\n      0x00\n        /* \"#utility.yul\":8227:8229   */\n      0x20\n        /* \"#utility.yul\":8215:8224   */\n      dup3\n        /* \"#utility.yul\":8206:8213   */\n      dup5\n        /* \"#utility.yul\":8202:8225   */\n      sub\n        /* \"#utility.yul\":8198:8230   */\n      slt\n        /* \"#utility.yul\":8195:8314   */\n      iszero\n      tag_489\n      jumpi\n        /* \"#utility.yul\":8233:8312   */\n      tag_490\n      tag_320\n      jump\t// in\n    tag_490:\n        /* \"#utility.yul\":8195:8314   */\n    tag_489:\n        /* \"#utility.yul\":8353:8354   */\n      0x00\n        /* \"#utility.yul\":8378:8431   */\n      tag_491\n        /* \"#utility.yul\":8423:8430   */\n      dup5\n        /* \"#utility.yul\":8414:8420   */\n      dup3\n        /* \"#utility.yul\":8403:8412   */\n      dup6\n        /* \"#utility.yul\":8399:8421   */\n      add\n        /* \"#utility.yul\":8378:8431   */\n      tag_329\n      jump\t// in\n    tag_491:\n        /* \"#utility.yul\":8368:8431   */\n      swap2\n      pop\n        /* \"#utility.yul\":8324:8441   */\n      pop\n        /* \"#utility.yul\":8119:8448   */\n      swap3\n      swap2\n      pop\n      pop\n      jump\t// out\n        /* \"#utility.yul\":8454:9655   */\n    tag_78:\n        /* \"#utility.yul\":8566:8572   */\n      0x00\n        /* \"#utility.yul\":8574:8580   */\n      dup1\n        /* \"#utility.yul\":8582:8588   */\n      0x00\n        /* \"#utility.yul\":8590:8596   */\n      dup1\n        /* \"#utility.yul\":8598:8604   */\n      0x00\n        /* \"#utility.yul\":8606:8612   */\n      dup1\n        /* \"#utility.yul\":8614:8620   */\n      0x00\n        /* \"#utility.yul\":8663:8666   */\n      0xe0\n        /* \"#utility.yul\":8651:8660   */\n      dup9\n        /* \"#utility.yul\":8642:8649   */\n      dup11\n        /* \"#utility.yul\":8638:8661   */\n      sub\n        /* \"#utility.yul\":8634:8667   */\n      slt\n        /* \"#utility.yul\":8631:8751   */\n      iszero\n      tag_493\n      jumpi\n        /* \"#utility.yul\":8670:8749   */\n      tag_494\n      tag_320\n      jump\t// in\n    tag_494:\n        /* \"#utility.yul\":8631:8751   */\n    tag_493:\n        /* \"#utility.yul\":8790:8791   */\n      0x00\n        /* \"#utility.yul\":8815:8868   */\n      tag_495\n        /* \"#utility.yul\":8860:8867   */\n      dup11\n        /* \"#utility.yul\":8851:8857   */\n      dup3\n        /* \"#utility.yul\":8840:8849   */\n      dup12\n        /* \"#utility.yul\":8836:8858   */\n      add\n        /* \"#utility.yul\":8815:8868   */\n      tag_325\n      jump\t// in\n    tag_495:\n        /* \"#utility.yul\":8805:8868   */\n      swap8\n      pop\n        /* \"#utility.yul\":8761:8878   */\n      pop\n        /* \"#utility.yul\":8917:8919   */\n      0x20\n        /* \"#utility.yul\":8943:8996   */\n      tag_496\n        /* \"#utility.yul\":8988:8995   */\n      dup11\n        /* \"#utility.yul\":8979:8985   */\n      dup3\n        /* \"#utility.yul\":8968:8977   */\n      dup12\n        /* \"#utility.yul\":8964:8986   */\n      add\n        /* \"#utility.yul\":8943:8996   */\n      tag_325\n      jump\t// in\n    tag_496:\n        /* \"#utility.yul\":8933:8996   */\n      swap7\n      pop\n        /* \"#utility.yul\":8888:9006   */\n      pop\n        /* \"#utility.yul\":9045:9047   */\n      0x40\n        /* \"#utility.yul\":9071:9124   */\n      tag_497\n        /* \"#utility.yul\":9116:9123   */\n      dup11\n        /* \"#utility.yul\":9107:9113   */\n      dup3\n        /* \"#utility.yul\":9096:9105   */\n      dup12\n        /* \"#utility.yul\":9092:9114   */\n      add\n        /* \"#utility.yul\":9071:9124   */\n      tag_325\n      jump\t// in\n    tag_497:\n        /* \"#utility.yul\":9061:9124   */\n      swap6\n      pop\n        /* \"#utility.yul\":9016:9134   */\n      pop\n        /* \"#utility.yul\":9173:9175   */\n      0x60\n        /* \"#utility.yul\":9199:9252   */\n      tag_498\n        /* \"#utility.yul\":9244:9251   */\n      dup11\n        /* \"#utility.yul\":9235:9241   */\n      dup3\n        /* \"#utility.yul\":9224:9233   */\n      dup12\n        /* \"#utility.yul\":9220:9242   */\n      add\n        /* \"#utility.yul\":9199:9252   */\n      tag_329\n      jump\t// in\n    tag_498:\n        /* \"#utility.yul\":9189:9252   */\n      swap5\n      pop\n        /* \"#utility.yul\":9144:9262   */\n      pop\n        /* \"#utility.yul\":9301:9304   */\n      0x80\n        /* \"#utility.yul\":9328:9381   */\n      tag_499\n        /* \"#utility.yul\":9373:9380   */\n      dup11\n        /* \"#utility.yul\":9364:9370   */\n      dup3\n        /* \"#utility.yul\":9353:9362   */\n      dup12\n        /* \"#utility.yul\":9349:9371   */\n      add\n        /* \"#utility.yul\":9328:9381   */\n      tag_329\n      jump\t// in\n    tag_499:\n        /* \"#utility.yul\":9318:9381   */\n      swap4\n      pop\n        /* \"#utility.yul\":9272:9391   */\n      pop\n        /* \"#utility.yul\":9430:9433   */\n      0xa0\n        /* \"#utility.yul\":9457:9510   */\n      tag_500\n        /* \"#utility.yul\":9502:9509   */\n      dup11\n        /* \"#utility.yul\":9493:9499   */\n      dup3\n        /* \"#utility.yul\":9482:9491   */\n      dup12\n        /* \"#utility.yul\":9478:9500   */\n      add\n        /* \"#utility.yul\":9457:9510   */\n      tag_332\n      jump\t// in\n    tag_500:\n        /* \"#utility.yul\":9447:9510   */\n      swap3\n      pop\n        /* \"#utility.yul\":9401:9520   */\n      pop\n        /* \"#utility.yul\":9559:9562   */\n      0xc0\n        /* \"#utility.yul\":9586:9638   */\n      tag_501\n        /* \"#utility.yul\":9630:9637   */\n      dup11\n        /* \"#utility.yul\":9621:9627   */\n      dup3\n        /* \"#utility.yul\":9610:9619   */\n      dup12\n        /* \"#utility.yul\":9606:9628   */\n      add\n        /* \"#utility.yul\":9586:9638   */\n      tag_339\n      jump\t// in\n    tag_501:\n        /* \"#utility.yul\":9576:9638   */\n      swap2\n      pop\n        /* \"#utility.yul\":9530:9648   */\n      pop\n        /* \"#utility.yul\":8454:9655   */\n      swap3\n      swap6\n      swap9\n      swap2\n      swap5\n      swap8\n      pop\n      swap3\n      swap6\n      pop\n      jump\t// out\n        /* \"#utility.yul\":9661:11008   */\n    tag_83:\n        /* \"#utility.yul\":9782:9788   */\n      0x00\n        /* \"#utility.yul\":9790:9796   */\n      dup1\n        /* \"#utility.yul\":9798:9804   */\n      0x00\n        /* \"#utility.yul\":9806:9812   */\n      dup1\n        /* \"#utility.yul\":9814:9820   */\n      0x00\n        /* \"#utility.yul\":9822:9828   */\n      dup1\n        /* \"#utility.yul\":9830:9836   */\n      0x00\n        /* \"#utility.yul\":9838:9844   */\n      dup1\n        /* \"#utility.yul\":9887:9890   */\n      0x0100\n        /* \"#utility.yul\":9875:9884   */\n      dup10\n        /* \"#utility.yul\":9866:9873   */\n      dup12\n        /* \"#utility.yul\":9862:9885   */\n      sub\n        /* \"#utility.yul\":9858:9891   */\n      slt\n        /* \"#utility.yul\":9855:9975   */\n      iszero\n      tag_503\n      jumpi\n        /* \"#utility.yul\":9894:9973   */\n      tag_504\n      tag_320\n      jump\t// in\n    tag_504:\n        /* \"#utility.yul\":9855:9975   */\n    tag_503:\n        /* \"#utility.yul\":10014:10015   */\n      0x00\n        /* \"#utility.yul\":10039:10092   */\n      tag_505\n        /* \"#utility.yul\":10084:10091   */\n      dup12\n        /* \"#utility.yul\":10075:10081   */\n      dup3\n        /* \"#utility.yul\":10064:10073   */\n      dup13\n        /* \"#utility.yul\":10060:10082   */\n      add\n        /* \"#utility.yul\":10039:10092   */\n      tag_325\n      jump\t// in\n    tag_505:\n        /* \"#utility.yul\":10029:10092   */\n      swap9\n      pop\n        /* \"#utility.yul\":9985:10102   */\n      pop\n        /* \"#utility.yul\":10141:10143   */\n      0x20\n        /* \"#utility.yul\":10167:10220   */\n      tag_506\n        /* \"#utility.yul\":10212:10219   */\n      dup12\n        /* \"#utility.yul\":10203:10209   */\n      dup3\n        /* \"#utility.yul\":10192:10201   */\n      dup13\n        /* \"#utility.yul\":10188:10210   */\n      add\n        /* \"#utility.yul\":10167:10220   */\n      tag_325\n      jump\t// in\n    tag_506:\n        /* \"#utility.yul\":10157:10220   */\n      swap8\n      pop\n        /* \"#utility.yul\":10112:10230   */\n      pop\n        /* \"#utility.yul\":10269:10271   */\n      0x40\n        /* \"#utility.yul\":10295:10348   */\n      tag_507\n        /* \"#utility.yul\":10340:10347   */\n      dup12\n        /* \"#utility.yul\":10331:10337   */\n      dup3\n        /* \"#utility.yul\":10320:10329   */\n      dup13\n        /* \"#utility.yul\":10316:10338   */\n      add\n        /* \"#utility.yul\":10295:10348   */\n      tag_325\n      jump\t// in\n    tag_507:\n        /* \"#utility.yul\":10285:10348   */\n      swap7\n      pop\n        /* \"#utility.yul\":10240:10358   */\n      pop\n        /* \"#utility.yul\":10397:10399   */\n      0x60\n        /* \"#utility.yul\":10423:10476   */\n      tag_508\n        /* \"#utility.yul\":10468:10475   */\n      dup12\n        /* \"#utility.yul\":10459:10465   */\n      dup3\n        /* \"#utility.yul\":10448:10457   */\n      dup13\n        /* \"#utility.yul\":10444:10466   */\n      add\n        /* \"#utility.yul\":10423:10476   */\n      tag_329\n      jump\t// in\n    tag_508:\n        /* \"#utility.yul\":10413:10476   */\n      swap6\n      pop\n        /* \"#utility.yul\":10368:10486   */\n      pop\n        /* \"#utility.yul\":10525:10528   */\n      0x80\n        /* \"#utility.yul\":10552:10605   */\n      tag_509\n        /* \"#utility.yul\":10597:10604   */\n      dup12\n        /* \"#utility.yul\":10588:10594   */\n      dup3\n        /* \"#utility.yul\":10577:10586   */\n      dup13\n        /* \"#utility.yul\":10573:10595   */\n      add\n        /* \"#utility.yul\":10552:10605   */\n      tag_329\n      jump\t// in\n    tag_509:\n        /* \"#utility.yul\":10542:10605   */\n      swap5\n      pop\n        /* \"#utility.yul\":10496:10615   */\n      pop\n        /* \"#utility.yul\":10654:10657   */\n      0xa0\n        /* \"#utility.yul\":10681:10734   */\n      tag_510\n        /* \"#utility.yul\":10726:10733   */\n      dup12\n        /* \"#utility.yul\":10717:10723   */\n      dup3\n        /* \"#utility.yul\":10706:10715   */\n      dup13\n        /* \"#utility.yul\":10702:10724   */\n      add\n        /* \"#utility.yul\":10681:10734   */\n      tag_332\n      jump\t// in\n    tag_510:\n        /* \"#utility.yul\":10671:10734   */\n      swap4\n      pop\n        /* \"#utility.yul\":10625:10744   */\n      pop\n        /* \"#utility.yul\":10783:10786   */\n      0xc0\n        /* \"#utility.yul\":10810:10862   */\n      tag_511\n        /* \"#utility.yul\":10854:10861   */\n      dup12\n        /* \"#utility.yul\":10845:10851   */\n      dup3\n        /* \"#utility.yul\":10834:10843   */\n      dup13\n        /* \"#utility.yul\":10830:10852   */\n      add\n        /* \"#utility.yul\":10810:10862   */\n      tag_339\n      jump\t// in\n    tag_511:\n        /* \"#utility.yul\":10800:10862   */\n      swap3\n      pop\n        /* \"#utility.yul\":10754:10872   */\n      pop\n        /* \"#utility.yul\":10911:10914   */\n      0xe0\n        /* \"#utility.yul\":10938:10991   */\n      tag_512\n        /* \"#utility.yul\":10983:10990   */\n      dup12\n        /* \"#utility.yul\":10974:10980   */\n      dup3\n        /* \"#utility.yul\":10963:10972   */\n      dup13\n        /* \"#utility.yul\":10959:10981   */\n      add\n        /* \"#utility.yul\":10938:10991   */\n      tag_332\n      jump\t// in\n    tag_512:\n        /* \"#utility.yul\":10928:10991   */\n      swap2\n      pop\n        /* \"#utility.yul\":10882:11001   */\n      pop\n        /* \"#utility.yul\":9661:11008   */\n      swap3\n      swap6\n      swap9\n      pop\n      swap3\n      swap6\n      swap9\n      swap1\n      swap4\n      swap7\n      pop\n      jump\t// out\n        /* \"#utility.yul\":11014:11183   */\n    tag_341:\n        /* \"#utility.yul\":11098:11109   */\n      0x00\n        /* \"#utility.yul\":11132:11138   */\n      dup3\n        /* \"#utility.yul\":11127:11130   */\n      dup3\n        /* \"#utility.yul\":11120:11139   */\n      mstore\n        /* \"#utility.yul\":11172:11176   */\n      0x20\n        /* \"#utility.yul\":11167:11170   */\n      dup3\n        /* \"#utility.yul\":11163:11177   */\n      add\n        /* \"#utility.yul\":11148:11177   */\n      swap1\n      pop\n        /* \"#utility.yul\":11014:11183   */\n      swap3\n      swap2\n      pop\n      pop\n      jump\t// out\n        /* \"#utility.yul\":11189:11371   */\n    tag_342:\n        /* \"#utility.yul\":11329:11363   */\n      0x4f776e61626c653a2063616c6c6572206973206e6f7420746865206f776e6572\n        /* \"#utility.yul\":11325:11326   */\n      0x00\n        /* \"#utility.yul\":11317:11323   */\n      dup3\n        /* \"#utility.yul\":11313:11327   */\n      add\n        /* \"#utility.yul\":11306:11364   */\n      mstore\n        /* \"#utility.yul\":11189:11371   */\n      pop\n      jump\t// out\n        /* \"#utility.yul\":11377:11743   */\n    tag_343:\n        /* \"#utility.yul\":11519:11522   */\n      0x00\n        /* \"#utility.yul\":11540:11607   */\n      tag_516\n        /* \"#utility.yul\":11604:11606   */\n      0x20\n        /* \"#utility.yul\":11599:11602   */\n      dup4\n        /* \"#utility.yul\":11540:11607   */\n      tag_341\n      jump\t// in\n    tag_516:\n        /* \"#utility.yul\":11533:11607   */\n      swap2\n      pop\n        /* \"#utility.yul\":11616:11709   */\n      tag_517\n        /* \"#utility.yul\":11705:11708   */\n      dup3\n        /* \"#utility.yul\":11616:11709   */\n      tag_342\n      jump\t// in\n    tag_517:\n        /* \"#utility.yul\":11734:11736   */\n      0x20\n        /* \"#utility.yul\":11729:11732   */\n      dup3\n        /* \"#utility.yul\":11725:11737   */\n      add\n        /* \"#utility.yul\":11718:11737   */\n      swap1\n      pop\n        /* \"#utility.yul\":11377:11743   */\n      swap2\n      swap1\n      pop\n      jump\t// out\n        /* \"#utility.yul\":11749:12168   */\n    tag_102:\n        /* \"#utility.yul\":11915:11919   */\n      0x00\n        /* \"#utility.yul\":11953:11955   */\n      0x20\n        /* \"#utility.yul\":11942:11951   */\n      dup3\n        /* \"#utility.yul\":11938:11956   */\n      add\n        /* \"#utility.yul\":11930:11956   */\n      swap1\n      pop\n        /* \"#utility.yul\":12002:12011   */\n      dup2\n        /* \"#utility.yul\":11996:12000   */\n      dup2\n        /* \"#utility.yul\":11992:12012   */\n      sub\n        /* \"#utility.yul\":11988:11989   */\n      0x00\n        /* \"#utility.yul\":11977:11986   */\n      dup4\n        /* \"#utility.yul\":11973:11990   */\n      add\n        /* \"#utility.yul\":11966:12013   */\n      mstore\n        /* \"#utility.yul\":12030:12161   */\n      tag_519\n        /* \"#utility.yul\":12156:12160   */\n      dup2\n        /* \"#utility.yul\":12030:12161   */\n      tag_343\n      jump\t// in\n    tag_519:\n        /* \"#utility.yul\":12022:12161   */\n      swap1\n      pop\n        /* \"#utility.yul\":11749:12168   */\n      swap2\n      swap1\n      pop\n      jump\t// out\n        /* \"#utility.yul\":12174:12338   */\n    tag_344:\n        /* \"#utility.yul\":12314:12330   */\n      0x726571756972652073656e646572000000000000000000000000000000000000\n        /* \"#utility.yul\":12310:12311   */\n      0x00\n        /* \"#utility.yul\":12302:12308   */\n      dup3\n        /* \"#utility.yul\":12298:12312   */\n      add\n        /* \"#utility.yul\":12291:12331   */\n      mstore\n        /* \"#utility.yul\":12174:12338   */\n      pop\n      jump\t// out\n        /* \"#utility.yul\":12344:12710   */\n    tag_345:\n        /* \"#utility.yul\":12486:12489   */\n      0x00\n        /* \"#utility.yul\":12507:12574   */\n      tag_522\n        /* \"#utility.yul\":12571:12573   */\n      0x0e\n        /* \"#utility.yul\":12566:12569   */\n      dup4\n        /* \"#utility.yul\":12507:12574   */\n      tag_341\n      jump\t// in\n    tag_522:\n        /* \"#utility.yul\":12500:12574   */\n      swap2\n      pop\n        /* \"#utility.yul\":12583:12676   */\n      tag_523\n        /* \"#utility.yul\":12672:12675   */\n      dup3\n        /* \"#utility.yul\":12583:12676   */\n      tag_344\n      jump\t// in\n    tag_523:\n        /* \"#utility.yul\":12701:12703   */\n      0x20\n        /* \"#utility.yul\":12696:12699   */\n      dup3\n        /* \"#utility.yul\":12692:12704   */\n      add\n        /* \"#utility.yul\":12685:12704   */\n      swap1\n      pop\n        /* \"#utility.yul\":12344:12710   */\n      swap2\n      swap1\n      pop\n      jump\t// out\n        /* \"#utility.yul\":12716:13135   */\n    tag_107:\n        /* \"#utility.yul\":12882:12886   */\n      0x00\n        /* \"#utility.yul\":12920:12922   */\n      0x20\n        /* \"#utility.yul\":12909:12918   */\n      dup3\n        /* \"#utility.yul\":12905:12923   */\n      add\n        /* \"#utility.yul\":12897:12923   */\n      swap1\n      pop\n        /* \"#utility.yul\":12969:12978   */\n      dup2\n        /* \"#utility.yul\":12963:12967   */\n      dup2\n        /* \"#utility.yul\":12959:12979   */\n      sub\n        /* \"#utility.yul\":12955:12956   */\n      0x00\n        /* \"#utility.yul\":12944:12953   */\n      dup4\n        /* \"#utility.yul\":12940:12957   */\n      add\n        /* \"#utility.yul\":12933:12980   */\n      mstore\n        /* \"#utility.yul\":12997:13128   */\n      tag_525\n        /* \"#utility.yul\":13123:13127   */\n      dup2\n        /* \"#utility.yul\":12997:13128   */\n      tag_345\n      jump\t// in\n    tag_525:\n        /* \"#utility.yul\":12989:13128   */\n      swap1\n      pop\n        /* \"#utility.yul\":12716:13135   */\n      swap2\n      swap1\n      pop\n      jump\t// out\n        /* \"#utility.yul\":13141:13259   */\n    tag_346:\n        /* \"#utility.yul\":13228:13252   */\n      tag_527\n        /* \"#utility.yul\":13246:13251   */\n      dup2\n        /* \"#utility.yul\":13228:13252   */\n      tag_330\n      jump\t// in\n    tag_527:\n        /* \"#utility.yul\":13223:13226   */\n      dup3\n        /* \"#utility.yul\":13216:13253   */\n      mstore\n        /* \"#utility.yul\":13141:13259   */\n      pop\n      pop\n      jump\t// out\n        /* \"#utility.yul\":13265:13380   */\n    tag_347:\n        /* \"#utility.yul\":13350:13373   */\n      tag_529\n        /* \"#utility.yul\":13367:13372   */\n      dup2\n        /* \"#utility.yul\":13350:13373   */\n      tag_337\n      jump\t// in\n    tag_529:\n        /* \"#utility.yul\":13345:13348   */\n      dup3\n        /* \"#utility.yul\":13338:13374   */\n      mstore\n        /* \"#utility.yul\":13265:13380   */\n      pop\n      pop\n      jump\t// out\n        /* \"#utility.yul\":13386:14819   */\n    tag_111:\n        /* \"#utility.yul\":13783:13787   */\n      0x00\n        /* \"#utility.yul\":13821:13824   */\n      0x0180\n        /* \"#utility.yul\":13810:13819   */\n      dup3\n        /* \"#utility.yul\":13806:13825   */\n      add\n        /* \"#utility.yul\":13798:13825   */\n      swap1\n      pop\n        /* \"#utility.yul\":13835:13906   */\n      tag_531\n        /* \"#utility.yul\":13903:13904   */\n      0x00\n        /* \"#utility.yul\":13892:13901   */\n      dup4\n        /* \"#utility.yul\":13888:13905   */\n      add\n        /* \"#utility.yul\":13879:13885   */\n      dup16\n        /* \"#utility.yul\":13835:13906   */\n      tag_346\n      jump\t// in\n    tag_531:\n        /* \"#utility.yul\":13916:13988   */\n      tag_532\n        /* \"#utility.yul\":13984:13986   */\n      0x20\n        /* \"#utility.yul\":13973:13982   */\n      dup4\n        /* \"#utility.yul\":13969:13987   */\n      add\n        /* \"#utility.yul\":13960:13966   */\n      dup15\n        /* \"#utility.yul\":13916:13988   */\n      tag_340\n      jump\t// in\n    tag_532:\n        /* \"#utility.yul\":13998:14070   */\n      tag_533\n        /* \"#utility.yul\":14066:14068   */\n      0x40\n        /* \"#utility.yul\":14055:14064   */\n      dup4\n        /* \"#utility.yul\":14051:14069   */\n      add\n        /* \"#utility.yul\":14042:14048   */\n      dup14\n        /* \"#utility.yul\":13998:14070   */\n      tag_340\n      jump\t// in\n    tag_533:\n        /* \"#utility.yul\":14080:14152   */\n      tag_534\n        /* \"#utility.yul\":14148:14150   */\n      0x60\n        /* \"#utility.yul\":14137:14146   */\n      dup4\n        /* \"#utility.yul\":14133:14151   */\n      add\n        /* \"#utility.yul\":14124:14130   */\n      dup13\n        /* \"#utility.yul\":14080:14152   */\n      tag_340\n      jump\t// in\n    tag_534:\n        /* \"#utility.yul\":14162:14235   */\n      tag_535\n        /* \"#utility.yul\":14230:14233   */\n      0x80\n        /* \"#utility.yul\":14219:14228   */\n      dup4\n        /* \"#utility.yul\":14215:14234   */\n      add\n        /* \"#utility.yul\":14206:14212   */\n      dup12\n        /* \"#utility.yul\":14162:14235   */\n      tag_327\n      jump\t// in\n    tag_535:\n        /* \"#utility.yul\":14245:14318   */\n      tag_536\n        /* \"#utility.yul\":14313:14316   */\n      0xa0\n        /* \"#utility.yul\":14302:14311   */\n      dup4\n        /* \"#utility.yul\":14298:14317   */\n      add\n        /* \"#utility.yul\":14289:14295   */\n      dup11\n        /* \"#utility.yul\":14245:14318   */\n      tag_346\n      jump\t// in\n    tag_536:\n        /* \"#utility.yul\":14328:14399   */\n      tag_537\n        /* \"#utility.yul\":14394:14397   */\n      0xc0\n        /* \"#utility.yul\":14383:14392   */\n      dup4\n        /* \"#utility.yul\":14379:14398   */\n      add\n        /* \"#utility.yul\":14370:14376   */\n      dup10\n        /* \"#utility.yul\":14328:14399   */\n      tag_347\n      jump\t// in\n    tag_537:\n        /* \"#utility.yul\":14409:14480   */\n      tag_538\n        /* \"#utility.yul\":14475:14478   */\n      0xe0\n        /* \"#utility.yul\":14464:14473   */\n      dup4\n        /* \"#utility.yul\":14460:14479   */\n      add\n        /* \"#utility.yul\":14451:14457   */\n      dup9\n        /* \"#utility.yul\":14409:14480   */\n      tag_347\n      jump\t// in\n    tag_538:\n        /* \"#utility.yul\":14490:14563   */\n      tag_539\n        /* \"#utility.yul\":14558:14561   */\n      0x0100\n        /* \"#utility.yul\":14547:14556   */\n      dup4\n        /* \"#utility.yul\":14543:14562   */\n      add\n        /* \"#utility.yul\":14534:14540   */\n      dup8\n        /* \"#utility.yul\":14490:14563   */\n      tag_327\n      jump\t// in\n    tag_539:\n        /* \"#utility.yul\":14573:14644   */\n      tag_540\n        /* \"#utility.yul\":14639:14642   */\n      0x0120\n        /* \"#utility.yul\":14628:14637   */\n      dup4\n        /* \"#utility.yul\":14624:14643   */\n      add\n        /* \"#utility.yul\":14615:14621   */\n      dup7\n        /* \"#utility.yul\":14573:14644   */\n      tag_347\n      jump\t// in\n    tag_540:\n        /* \"#utility.yul\":14654:14728   */\n      tag_541\n        /* \"#utility.yul\":14723:14726   */\n      0x0140\n        /* \"#utility.yul\":14712:14721   */\n      dup4\n        /* \"#utility.yul\":14708:14727   */\n      add\n        /* \"#utility.yul\":14698:14705   */\n      dup6\n        /* \"#utility.yul\":14654:14728   */\n      tag_327\n      jump\t// in\n    tag_541:\n        /* \"#utility.yul\":14738:14812   */\n      tag_542\n        /* \"#utility.yul\":14807:14810   */\n      0x0160\n        /* \"#utility.yul\":14796:14805   */\n      dup4\n        /* \"#utility.yul\":14792:14811   */\n      add\n        /* \"#utility.yul\":14782:14789   */\n      dup5\n        /* \"#utility.yul\":14738:14812   */\n      tag_327\n      jump\t// in\n    tag_542:\n        /* \"#utility.yul\":13386:14819   */\n      swap14\n      swap13\n      pop\n      pop\n      pop\n      pop\n      pop\n      pop\n      pop\n      pop\n      pop\n      pop\n      pop\n      pop\n      pop\n      jump\t// out\n        /* \"#utility.yul\":14825:16036   */\n    tag_117:\n        /* \"#utility.yul\":15166:15170   */\n      0x00\n        /* \"#utility.yul\":15204:15207   */\n      0x0140\n        /* \"#utility.yul\":15193:15202   */\n      dup3\n        /* \"#utility.yul\":15189:15208   */\n      add\n        /* \"#utility.yul\":15181:15208   */\n      swap1\n      pop\n        /* \"#utility.yul\":15218:15289   */\n      tag_544\n        /* \"#utility.yul\":15286:15287   */\n      0x00\n        /* \"#utility.yul\":15275:15284   */\n      dup4\n        /* \"#utility.yul\":15271:15288   */\n      add\n        /* \"#utility.yul\":15262:15268   */\n      dup14\n        /* \"#utility.yul\":15218:15289   */\n      tag_346\n      jump\t// in\n    tag_544:\n        /* \"#utility.yul\":15299:15371   */\n      tag_545\n        /* \"#utility.yul\":15367:15369   */\n      0x20\n        /* \"#utility.yul\":15356:15365   */\n      dup4\n        /* \"#utility.yul\":15352:15370   */\n      add\n        /* \"#utility.yul\":15343:15349   */\n      dup13\n        /* \"#utility.yul\":15299:15371   */\n      tag_340\n      jump\t// in\n    tag_545:\n        /* \"#utility.yul\":15381:15453   */\n      tag_546\n        /* \"#utility.yul\":15449:15451   */\n      0x40\n        /* \"#utility.yul\":15438:15447   */\n      dup4\n        /* \"#utility.yul\":15434:15452   */\n      add\n        /* \"#utility.yul\":15425:15431   */\n      dup12\n        /* \"#utility.yul\":15381:15453   */\n      tag_340\n      jump\t// in\n    tag_546:\n        /* \"#utility.yul\":15463:15535   */\n      tag_547\n        /* \"#utility.yul\":15531:15533   */\n      0x60\n        /* \"#utility.yul\":15520:15529   */\n      dup4\n        /* \"#utility.yul\":15516:15534   */\n      add\n        /* \"#utility.yul\":15507:15513   */\n      dup11\n        /* \"#utility.yul\":15463:15535   */\n      tag_340\n      jump\t// in\n    tag_547:\n        /* \"#utility.yul\":15545:15618   */\n      tag_548\n        /* \"#utility.yul\":15613:15616   */\n      0x80\n        /* \"#utility.yul\":15602:15611   */\n      dup4\n        /* \"#utility.yul\":15598:15617   */\n      add\n        /* \"#utility.yul\":15589:15595   */\n      dup10\n        /* \"#utility.yul\":15545:15618   */\n      tag_327\n      jump\t// in\n    tag_548:\n        /* \"#utility.yul\":15628:15701   */\n      tag_549\n        /* \"#utility.yul\":15696:15699   */\n      0xa0\n        /* \"#utility.yul\":15685:15694   */\n      dup4\n        /* \"#utility.yul\":15681:15700   */\n      add\n        /* \"#utility.yul\":15672:15678   */\n      dup9\n        /* \"#utility.yul\":15628:15701   */\n      tag_327\n      jump\t// in\n    tag_549:\n        /* \"#utility.yul\":15711:15784   */\n      tag_550\n        /* \"#utility.yul\":15779:15782   */\n      0xc0\n        /* \"#utility.yul\":15768:15777   */\n      dup4\n        /* \"#utility.yul\":15764:15783   */\n      add\n        /* \"#utility.yul\":15755:15761   */\n      dup8\n        /* \"#utility.yul\":15711:15784   */\n      tag_346\n      jump\t// in\n    tag_550:\n        /* \"#utility.yul\":15794:15865   */\n      tag_551\n        /* \"#utility.yul\":15860:15863   */\n      0xe0\n        /* \"#utility.yul\":15849:15858   */\n      dup4\n        /* \"#utility.yul\":15845:15864   */\n      add\n        /* \"#utility.yul\":15836:15842   */\n      dup7\n        /* \"#utility.yul\":15794:15865   */\n      tag_347\n      jump\t// in\n    tag_551:\n        /* \"#utility.yul\":15875:15946   */\n      tag_552\n        /* \"#utility.yul\":15941:15944   */\n      0x0100\n        /* \"#utility.yul\":15930:15939   */\n      dup4\n        /* \"#utility.yul\":15926:15945   */\n      add\n        /* \"#utility.yul\":15917:15923   */\n      dup6\n        /* \"#utility.yul\":15875:15946   */\n      tag_347\n      jump\t// in\n    tag_552:\n        /* \"#utility.yul\":15956:16029   */\n      tag_553\n        /* \"#utility.yul\":16024:16027   */\n      0x0120\n        /* \"#utility.yul\":16013:16022   */\n      dup4\n        /* \"#utility.yul\":16009:16028   */\n      add\n        /* \"#utility.yul\":16000:16006   */\n      dup5\n        /* \"#utility.yul\":15956:16029   */\n      tag_346\n      jump\t// in\n    tag_553:\n        /* \"#utility.yul\":14825:16036   */\n      swap12\n      swap11\n      pop\n      pop\n      pop\n      pop\n      pop\n      pop\n      pop\n      pop\n      pop\n      pop\n      pop\n      jump\t// out\n        /* \"#utility.yul\":16042:16136   */\n    tag_348:\n        /* \"#utility.yul\":16075:16083   */\n      0x00\n        /* \"#utility.yul\":16123:16128   */\n      dup2\n        /* \"#utility.yul\":16119:16121   */\n      0x60\n        /* \"#utility.yul\":16115:16129   */\n      shl\n        /* \"#utility.yul\":16094:16129   */\n      swap1\n      pop\n        /* \"#utility.yul\":16042:16136   */\n      swap2\n      swap1\n      pop\n      jump\t// out\n        /* \"#utility.yul\":16142:16236   */\n    tag_349:\n        /* \"#utility.yul\":16181:16188   */\n      0x00\n        /* \"#utility.yul\":16210:16230   */\n      tag_556\n        /* \"#utility.yul\":16224:16229   */\n      dup3\n        /* \"#utility.yul\":16210:16230   */\n      tag_348\n      jump\t// in\n    tag_556:\n        /* \"#utility.yul\":16199:16230   */\n      swap1\n      pop\n        /* \"#utility.yul\":16142:16236   */\n      swap2\n      swap1\n      pop\n      jump\t// out\n        /* \"#utility.yul\":16242:16342   */\n    tag_350:\n        /* \"#utility.yul\":16281:16288   */\n      0x00\n        /* \"#utility.yul\":16310:16336   */\n      tag_558\n        /* \"#utility.yul\":16330:16335   */\n      dup3\n        /* \"#utility.yul\":16310:16336   */\n      tag_349\n      jump\t// in\n    tag_558:\n        /* \"#utility.yul\":16299:16336   */\n      swap1\n      pop\n        /* \"#utility.yul\":16242:16342   */\n      swap2\n      swap1\n      pop\n      jump\t// out\n        /* \"#utility.yul\":16348:16505   */\n    tag_351:\n        /* \"#utility.yul\":16453:16498   */\n      tag_560\n        /* \"#utility.yul\":16473:16497   */\n      tag_561\n        /* \"#utility.yul\":16491:16496   */\n      dup3\n        /* \"#utility.yul\":16473:16497   */\n      tag_323\n      jump\t// in\n    tag_561:\n        /* \"#utility.yul\":16453:16498   */\n      tag_350\n      jump\t// in\n    tag_560:\n        /* \"#utility.yul\":16448:16451   */\n      dup3\n        /* \"#utility.yul\":16441:16499   */\n      mstore\n        /* \"#utility.yul\":16348:16505   */\n      pop\n      pop\n      jump\t// out\n        /* \"#utility.yul\":16511:16590   */\n    tag_352:\n        /* \"#utility.yul\":16550:16557   */\n      0x00\n        /* \"#utility.yul\":16579:16584   */\n      dup2\n        /* \"#utility.yul\":16568:16584   */\n      swap1\n      pop\n        /* \"#utility.yul\":16511:16590   */\n      swap2\n      swap1\n      pop\n      jump\t// out\n        /* \"#utility.yul\":16596:16753   */\n    tag_353:\n        /* \"#utility.yul\":16701:16746   */\n      tag_564\n        /* \"#utility.yul\":16721:16745   */\n      tag_565\n        /* \"#utility.yul\":16739:16744   */\n      dup3\n        /* \"#utility.yul\":16721:16745   */\n      tag_330\n      jump\t// in\n    tag_565:\n        /* \"#utility.yul\":16701:16746   */\n      tag_352\n      jump\t// in\n    tag_564:\n        /* \"#utility.yul\":16696:16699   */\n      dup3\n        /* \"#utility.yul\":16689:16747   */\n      mstore\n        /* \"#utility.yul\":16596:16753   */\n      pop\n      pop\n      jump\t// out\n        /* \"#utility.yul\":16759:16855   */\n    tag_354:\n        /* \"#utility.yul\":16793:16801   */\n      0x00\n        /* \"#utility.yul\":16842:16847   */\n      dup2\n        /* \"#utility.yul\":16837:16840   */\n      0xc0\n        /* \"#utility.yul\":16833:16848   */\n      shl\n        /* \"#utility.yul\":16812:16848   */\n      swap1\n      pop\n        /* \"#utility.yul\":16759:16855   */\n      swap2\n      swap1\n      pop\n      jump\t// out\n        /* \"#utility.yul\":16861:16955   */\n    tag_355:\n        /* \"#utility.yul\":16899:16906   */\n      0x00\n        /* \"#utility.yul\":16928:16949   */\n      tag_568\n        /* \"#utility.yul\":16943:16948   */\n      dup3\n        /* \"#utility.yul\":16928:16949   */\n      tag_354\n      jump\t// in\n    tag_568:\n        /* \"#utility.yul\":16917:16949   */\n      swap1\n      pop\n        /* \"#utility.yul\":16861:16955   */\n      swap2\n      swap1\n      pop\n      jump\t// out\n        /* \"#utility.yul\":16961:17114   */\n    tag_356:\n        /* \"#utility.yul\":17064:17107   */\n      tag_570\n        /* \"#utility.yul\":17083:17106   */\n      tag_571\n        /* \"#utility.yul\":17100:17105   */\n      dup3\n        /* \"#utility.yul\":17083:17106   */\n      tag_337\n      jump\t// in\n    tag_571:\n        /* \"#utility.yul\":17064:17107   */\n      tag_355\n      jump\t// in\n    tag_570:\n        /* \"#utility.yul\":17059:17062   */\n      dup3\n        /* \"#utility.yul\":17052:17108   */\n      mstore\n        /* \"#utility.yul\":16961:17114   */\n      pop\n      pop\n      jump\t// out\n        /* \"#utility.yul\":17120:17199   */\n    tag_357:\n        /* \"#utility.yul\":17159:17166   */\n      0x00\n        /* \"#utility.yul\":17188:17193   */\n      dup2\n        /* \"#utility.yul\":17177:17193   */\n      swap1\n      pop\n        /* \"#utility.yul\":17120:17199   */\n      swap2\n      swap1\n      pop\n      jump\t// out\n        /* \"#utility.yul\":17205:17362   */\n    tag_358:\n        /* \"#utility.yul\":17310:17355   */\n      tag_574\n        /* \"#utility.yul\":17330:17354   */\n      tag_575\n        /* \"#utility.yul\":17348:17353   */\n      dup3\n        /* \"#utility.yul\":17330:17354   */\n      tag_326\n      jump\t// in\n    tag_575:\n        /* \"#utility.yul\":17310:17355   */\n      tag_357\n      jump\t// in\n    tag_574:\n        /* \"#utility.yul\":17305:17308   */\n      dup3\n        /* \"#utility.yul\":17298:17356   */\n      mstore\n        /* \"#utility.yul\":17205:17362   */\n      pop\n      pop\n      jump\t// out\n        /* \"#utility.yul\":17368:18606   */\n    tag_134:\n        /* \"#utility.yul\":17674:17677   */\n      0x00\n        /* \"#utility.yul\":17689:17764   */\n      tag_577\n        /* \"#utility.yul\":17760:17763   */\n      dup3\n        /* \"#utility.yul\":17751:17757   */\n      dup12\n        /* \"#utility.yul\":17689:17764   */\n      tag_351\n      jump\t// in\n    tag_577:\n        /* \"#utility.yul\":17789:17791   */\n      0x14\n        /* \"#utility.yul\":17784:17787   */\n      dup3\n        /* \"#utility.yul\":17780:17792   */\n      add\n        /* \"#utility.yul\":17773:17792   */\n      swap2\n      pop\n        /* \"#utility.yul\":17802:17877   */\n      tag_578\n        /* \"#utility.yul\":17873:17876   */\n      dup3\n        /* \"#utility.yul\":17864:17870   */\n      dup11\n        /* \"#utility.yul\":17802:17877   */\n      tag_351\n      jump\t// in\n    tag_578:\n        /* \"#utility.yul\":17902:17904   */\n      0x14\n        /* \"#utility.yul\":17897:17900   */\n      dup3\n        /* \"#utility.yul\":17893:17905   */\n      add\n        /* \"#utility.yul\":17886:17905   */\n      swap2\n      pop\n        /* \"#utility.yul\":17915:17990   */\n      tag_579\n        /* \"#utility.yul\":17986:17989   */\n      dup3\n        /* \"#utility.yul\":17977:17983   */\n      dup10\n        /* \"#utility.yul\":17915:17990   */\n      tag_353\n      jump\t// in\n    tag_579:\n        /* \"#utility.yul\":18015:18017   */\n      0x20\n        /* \"#utility.yul\":18010:18013   */\n      dup3\n        /* \"#utility.yul\":18006:18018   */\n      add\n        /* \"#utility.yul\":17999:18018   */\n      swap2\n      pop\n        /* \"#utility.yul\":18028:18101   */\n      tag_580\n        /* \"#utility.yul\":18097:18100   */\n      dup3\n        /* \"#utility.yul\":18088:18094   */\n      dup9\n        /* \"#utility.yul\":18028:18101   */\n      tag_356\n      jump\t// in\n    tag_580:\n        /* \"#utility.yul\":18126:18127   */\n      0x08\n        /* \"#utility.yul\":18121:18124   */\n      dup3\n        /* \"#utility.yul\":18117:18128   */\n      add\n        /* \"#utility.yul\":18110:18128   */\n      swap2\n      pop\n        /* \"#utility.yul\":18138:18213   */\n      tag_581\n        /* \"#utility.yul\":18209:18212   */\n      dup3\n        /* \"#utility.yul\":18200:18206   */\n      dup8\n        /* \"#utility.yul\":18138:18213   */\n      tag_351\n      jump\t// in\n    tag_581:\n        /* \"#utility.yul\":18238:18240   */\n      0x14\n        /* \"#utility.yul\":18233:18236   */\n      dup3\n        /* \"#utility.yul\":18229:18241   */\n      add\n        /* \"#utility.yul\":18222:18241   */\n      swap2\n      pop\n        /* \"#utility.yul\":18251:18326   */\n      tag_582\n        /* \"#utility.yul\":18322:18325   */\n      dup3\n        /* \"#utility.yul\":18313:18319   */\n      dup7\n        /* \"#utility.yul\":18251:18326   */\n      tag_358\n      jump\t// in\n    tag_582:\n        /* \"#utility.yul\":18351:18353   */\n      0x20\n        /* \"#utility.yul\":18346:18349   */\n      dup3\n        /* \"#utility.yul\":18342:18354   */\n      add\n        /* \"#utility.yul\":18335:18354   */\n      swap2\n      pop\n        /* \"#utility.yul\":18364:18439   */\n      tag_583\n        /* \"#utility.yul\":18435:18438   */\n      dup3\n        /* \"#utility.yul\":18426:18432   */\n      dup6\n        /* \"#utility.yul\":18364:18439   */\n      tag_358\n      jump\t// in\n    tag_583:\n        /* \"#utility.yul\":18464:18466   */\n      0x20\n        /* \"#utility.yul\":18459:18462   */\n      dup3\n        /* \"#utility.yul\":18455:18467   */\n      add\n        /* \"#utility.yul\":18448:18467   */\n      swap2\n      pop\n        /* \"#utility.yul\":18477:18552   */\n      tag_584\n        /* \"#utility.yul\":18548:18551   */\n      dup3\n        /* \"#utility.yul\":18539:18545   */\n      dup5\n        /* \"#utility.yul\":18477:18552   */\n      tag_358\n      jump\t// in\n    tag_584:\n        /* \"#utility.yul\":18577:18579   */\n      0x20\n        /* \"#utility.yul\":18572:18575   */\n      dup3\n        /* \"#utility.yul\":18568:18580   */\n      add\n        /* \"#utility.yul\":18561:18580   */\n      swap2\n      pop\n        /* \"#utility.yul\":18597:18600   */\n      dup2\n        /* \"#utility.yul\":18590:18600   */\n      swap1\n      pop\n        /* \"#utility.yul\":17368:18606   */\n      swap10\n      swap9\n      pop\n      pop\n      pop\n      pop\n      pop\n      pop\n      pop\n      pop\n      pop\n      jump\t// out\n        /* \"#utility.yul\":18612:18782   */\n    tag_359:\n        /* \"#utility.yul\":18752:18774   */\n      0x6e6f742070656e64696e67207472616e73666572000000000000000000000000\n        /* \"#utility.yul\":18748:18749   */\n      0x00\n        /* \"#utility.yul\":18740:18746   */\n      dup3\n        /* \"#utility.yul\":18736:18750   */\n      add\n        /* \"#utility.yul\":18729:18775   */\n      mstore\n        /* \"#utility.yul\":18612:18782   */\n      pop\n      jump\t// out\n        /* \"#utility.yul\":18788:19154   */\n    tag_360:\n        /* \"#utility.yul\":18930:18933   */\n      0x00\n        /* \"#utility.yul\":18951:19018   */\n      tag_587\n        /* \"#utility.yul\":19015:19017   */\n      0x14\n        /* \"#utility.yul\":19010:19013   */\n      dup4\n        /* \"#utility.yul\":18951:19018   */\n      tag_341\n      jump\t// in\n    tag_587:\n        /* \"#utility.yul\":18944:19018   */\n      swap2\n      pop\n        /* \"#utility.yul\":19027:19120   */\n      tag_588\n        /* \"#utility.yul\":19116:19119   */\n      dup3\n        /* \"#utility.yul\":19027:19120   */\n      tag_359\n      jump\t// in\n    tag_588:\n        /* \"#utility.yul\":19145:19147   */\n      0x20\n        /* \"#utility.yul\":19140:19143   */\n      dup3\n        /* \"#utility.yul\":19136:19148   */\n      add\n        /* \"#utility.yul\":19129:19148   */\n      swap1\n      pop\n        /* \"#utility.yul\":18788:19154   */\n      swap2\n      swap1\n      pop\n      jump\t// out\n        /* \"#utility.yul\":19160:19579   */\n    tag_142:\n        /* \"#utility.yul\":19326:19330   */\n      0x00\n        /* \"#utility.yul\":19364:19366   */\n      0x20\n        /* \"#utility.yul\":19353:19362   */\n      dup3\n        /* \"#utility.yul\":19349:19367   */\n      add\n        /* \"#utility.yul\":19341:19367   */\n      swap1\n      pop\n        /* \"#utility.yul\":19413:19422   */\n      dup2\n        /* \"#utility.yul\":19407:19411   */\n      dup2\n        /* \"#utility.yul\":19403:19423   */\n      sub\n        /* \"#utility.yul\":19399:19400   */\n      0x00\n        /* \"#utility.yul\":19388:19397   */\n      dup4\n        /* \"#utility.yul\":19384:19401   */\n      add\n        /* \"#utility.yul\":19377:19424   */\n      mstore\n        /* \"#utility.yul\":19441:19572   */\n      tag_590\n        /* \"#utility.yul\":19567:19571   */\n      dup2\n        /* \"#utility.yul\":19441:19572   */\n      tag_360\n      jump\t// in\n    tag_590:\n        /* \"#utility.yul\":19433:19572   */\n      swap1\n      pop\n        /* \"#utility.yul\":19160:19579   */\n      swap2\n      swap1\n      pop\n      jump\t// out\n        /* \"#utility.yul\":19585:19758   */\n    tag_361:\n        /* \"#utility.yul\":19725:19750   */\n      0x74696d656c6f636b206e6f742079657420706173736564000000000000000000\n        /* \"#utility.yul\":19721:19722   */\n      0x00\n        /* \"#utility.yul\":19713:19719   */\n      dup3\n        /* \"#utility.yul\":19709:19723   */\n      add\n        /* \"#utility.yul\":19702:19751   */\n      mstore\n        /* \"#utility.yul\":19585:19758   */\n      pop\n      jump\t// out\n        /* \"#utility.yul\":19764:20130   */\n    tag_362:\n        /* \"#utility.yul\":19906:19909   */\n      0x00\n        /* \"#utility.yul\":19927:19994   */\n      tag_593\n        /* \"#utility.yul\":19991:19993   */\n      0x17\n        /* \"#utility.yul\":19986:19989   */\n      dup4\n        /* \"#utility.yul\":19927:19994   */\n      tag_341\n      jump\t// in\n    tag_593:\n        /* \"#utility.yul\":19920:19994   */\n      swap2\n      pop\n        /* \"#utility.yul\":20003:20096   */\n      tag_594\n        /* \"#utility.yul\":20092:20095   */\n      dup3\n        /* \"#utility.yul\":20003:20096   */\n      tag_361\n      jump\t// in\n    tag_594:\n        /* \"#utility.yul\":20121:20123   */\n      0x20\n        /* \"#utility.yul\":20116:20119   */\n      dup3\n        /* \"#utility.yul\":20112:20124   */\n      add\n        /* \"#utility.yul\":20105:20124   */\n      swap1\n      pop\n        /* \"#utility.yul\":19764:20130   */\n      swap2\n      swap1\n      pop\n      jump\t// out\n        /* \"#utility.yul\":20136:20555   */\n    tag_145:\n        /* \"#utility.yul\":20302:20306   */\n      0x00\n        /* \"#utility.yul\":20340:20342   */\n      0x20\n        /* \"#utility.yul\":20329:20338   */\n      dup3\n        /* \"#utility.yul\":20325:20343   */\n      add\n        /* \"#utility.yul\":20317:20343   */\n      swap1\n      pop\n        /* \"#utility.yul\":20389:20398   */\n      dup2\n        /* \"#utility.yul\":20383:20387   */\n      dup2\n        /* \"#utility.yul\":20379:20399   */\n      sub\n        /* \"#utility.yul\":20375:20376   */\n      0x00\n        /* \"#utility.yul\":20364:20373   */\n      dup4\n        /* \"#utility.yul\":20360:20377   */\n      add\n        /* \"#utility.yul\":20353:20400   */\n      mstore\n        /* \"#utility.yul\":20417:20548   */\n      tag_596\n        /* \"#utility.yul\":20543:20547   */\n      dup2\n        /* \"#utility.yul\":20417:20548   */\n      tag_362\n      jump\t// in\n    tag_596:\n        /* \"#utility.yul\":20409:20548   */\n      swap1\n      pop\n        /* \"#utility.yul\":20136:20555   */\n      swap2\n      swap1\n      pop\n      jump\t// out\n        /* \"#utility.yul\":20561:20708   */\n    tag_363:\n        /* \"#utility.yul\":20662:20673   */\n      0x00\n        /* \"#utility.yul\":20699:20702   */\n      dup2\n        /* \"#utility.yul\":20684:20702   */\n      swap1\n      pop\n        /* \"#utility.yul\":20561:20708   */\n      swap3\n      swap2\n      pop\n      pop\n      jump\t// out\n        /* \"#utility.yul\":20714:20828   */\n    tag_364:\n      pop\n      jump\t// out\n        /* \"#utility.yul\":20834:21232   */\n    tag_365:\n        /* \"#utility.yul\":20993:20996   */\n      0x00\n        /* \"#utility.yul\":21014:21097   */\n      tag_600\n        /* \"#utility.yul\":21095:21096   */\n      0x00\n        /* \"#utility.yul\":21090:21093   */\n      dup4\n        /* \"#utility.yul\":21014:21097   */\n      tag_363\n      jump\t// in\n    tag_600:\n        /* \"#utility.yul\":21007:21097   */\n      swap2\n      pop\n        /* \"#utility.yul\":21106:21199   */\n      tag_601\n        /* \"#utility.yul\":21195:21198   */\n      dup3\n        /* \"#utility.yul\":21106:21199   */\n      tag_364\n      jump\t// in\n    tag_601:\n        /* \"#utility.yul\":21224:21225   */\n      0x00\n        /* \"#utility.yul\":21219:21222   */\n      dup3\n        /* \"#utility.yul\":21215:21226   */\n      add\n        /* \"#utility.yul\":21208:21226   */\n      swap1\n      pop\n        /* \"#utility.yul\":20834:21232   */\n      swap2\n      swap1\n      pop\n      jump\t// out\n        /* \"#utility.yul\":21238:21617   */\n    tag_150:\n        /* \"#utility.yul\":21422:21425   */\n      0x00\n        /* \"#utility.yul\":21444:21591   */\n      tag_603\n        /* \"#utility.yul\":21587:21590   */\n      dup3\n        /* \"#utility.yul\":21444:21591   */\n      tag_365\n      jump\t// in\n    tag_603:\n        /* \"#utility.yul\":21437:21591   */\n      swap2\n      pop\n        /* \"#utility.yul\":21608:21611   */\n      dup2\n        /* \"#utility.yul\":21601:21611   */\n      swap1\n      pop\n        /* \"#utility.yul\":21238:21617   */\n      swap2\n      swap1\n      pop\n      jump\t// out\n        /* \"#utility.yul\":21623:21793   */\n    tag_366:\n        /* \"#utility.yul\":21763:21785   */\n      0x4661696c656420746f2073656e64204574686572000000000000000000000000\n        /* \"#utility.yul\":21759:21760   */\n      0x00\n        /* \"#utility.yul\":21751:21757   */\n      dup3\n        /* \"#utility.yul\":21747:21761   */\n      add\n        /* \"#utility.yul\":21740:21786   */\n      mstore\n        /* \"#utility.yul\":21623:21793   */\n      pop\n      jump\t// out\n        /* \"#utility.yul\":21799:22165   */\n    tag_367:\n        /* \"#utility.yul\":21941:21944   */\n      0x00\n        /* \"#utility.yul\":21962:22029   */\n      tag_606\n        /* \"#utility.yul\":22026:22028   */\n      0x14\n        /* \"#utility.yul\":22021:22024   */\n      dup4\n        /* \"#utility.yul\":21962:22029   */\n      tag_341\n      jump\t// in\n    tag_606:\n        /* \"#utility.yul\":21955:22029   */\n      swap2\n      pop\n        /* \"#utility.yul\":22038:22131   */\n      tag_607\n        /* \"#utility.yul\":22127:22130   */\n      dup3\n        /* \"#utility.yul\":22038:22131   */\n      tag_366\n      jump\t// in\n    tag_607:\n        /* \"#utility.yul\":22156:22158   */\n      0x20\n        /* \"#utility.yul\":22151:22154   */\n      dup3\n        /* \"#utility.yul\":22147:22159   */\n      add\n        /* \"#utility.yul\":22140:22159   */\n      swap1\n      pop\n        /* \"#utility.yul\":21799:22165   */\n      swap2\n      swap1\n      pop\n      jump\t// out\n        /* \"#utility.yul\":22171:22590   */\n    tag_156:\n        /* \"#utility.yul\":22337:22341   */\n      0x00\n        /* \"#utility.yul\":22375:22377   */\n      0x20\n        /* \"#utility.yul\":22364:22373   */\n      dup3\n        /* \"#utility.yul\":22360:22378   */\n      add\n        /* \"#utility.yul\":22352:22378   */\n      swap1\n      pop\n        /* \"#utility.yul\":22424:22433   */\n      dup2\n        /* \"#utility.yul\":22418:22422   */\n      dup2\n        /* \"#utility.yul\":22414:22434   */\n      sub\n        /* \"#utility.yul\":22410:22411   */\n      0x00\n        /* \"#utility.yul\":22399:22408   */\n      dup4\n        /* \"#utility.yul\":22395:22412   */\n      add\n        /* \"#utility.yul\":22388:22435   */\n      mstore\n        /* \"#utility.yul\":22452:22583   */\n      tag_609\n        /* \"#utility.yul\":22578:22582   */\n      dup2\n        /* \"#utility.yul\":22452:22583   */\n      tag_367\n      jump\t// in\n    tag_609:\n        /* \"#utility.yul\":22444:22583   */\n      swap1\n      pop\n        /* \"#utility.yul\":22171:22590   */\n      swap2\n      swap1\n      pop\n      jump\t// out\n        /* \"#utility.yul\":22596:22818   */\n    tag_168:\n        /* \"#utility.yul\":22689:22693   */\n      0x00\n        /* \"#utility.yul\":22727:22729   */\n      0x20\n        /* \"#utility.yul\":22716:22725   */\n      dup3\n        /* \"#utility.yul\":22712:22730   */\n      add\n        /* \"#utility.yul\":22704:22730   */\n      swap1\n      pop\n        /* \"#utility.yul\":22740:22811   */\n      tag_611\n        /* \"#utility.yul\":22808:22809   */\n      0x00\n        /* \"#utility.yul\":22797:22806   */\n      dup4\n        /* \"#utility.yul\":22793:22810   */\n      add\n        /* \"#utility.yul\":22784:22790   */\n      dup5\n        /* \"#utility.yul\":22740:22811   */\n      tag_346\n      jump\t// in\n    tag_611:\n        /* \"#utility.yul\":22596:22818   */\n      swap3\n      swap2\n      pop\n      pop\n      jump\t// out\n        /* \"#utility.yul\":22824:23080   */\n    tag_178:\n        /* \"#utility.yul\":22936:22939   */\n      0x00\n        /* \"#utility.yul\":22951:23026   */\n      tag_613\n        /* \"#utility.yul\":23022:23025   */\n      dup3\n        /* \"#utility.yul\":23013:23019   */\n      dup5\n        /* \"#utility.yul\":22951:23026   */\n      tag_353\n      jump\t// in\n    tag_613:\n        /* \"#utility.yul\":23051:23053   */\n      0x20\n        /* \"#utility.yul\":23046:23049   */\n      dup3\n        /* \"#utility.yul\":23042:23054   */\n      add\n        /* \"#utility.yul\":23035:23054   */\n      swap2\n      pop\n        /* \"#utility.yul\":23071:23074   */\n      dup2\n        /* \"#utility.yul\":23064:23074   */\n      swap1\n      pop\n        /* \"#utility.yul\":22824:23080   */\n      swap3\n      swap2\n      pop\n      pop\n      jump\t// out\n        /* \"#utility.yul\":23086:23254   */\n    tag_368:\n        /* \"#utility.yul\":23226:23246   */\n      0x696e636f727265637420707265696d6167650000000000000000000000000000\n        /* \"#utility.yul\":23222:23223   */\n      0x00\n        /* \"#utility.yul\":23214:23220   */\n      dup3\n        /* \"#utility.yul\":23210:23224   */\n      add\n        /* \"#utility.yul\":23203:23247   */\n      mstore\n        /* \"#utility.yul\":23086:23254   */\n      pop\n      jump\t// out\n        /* \"#utility.yul\":23260:23626   */\n    tag_369:\n        /* \"#utility.yul\":23402:23405   */\n      0x00\n        /* \"#utility.yul\":23423:23490   */\n      tag_616\n        /* \"#utility.yul\":23487:23489   */\n      0x12\n        /* \"#utility.yul\":23482:23485   */\n      dup4\n        /* \"#utility.yul\":23423:23490   */\n      tag_341\n      jump\t// in\n    tag_616:\n        /* \"#utility.yul\":23416:23490   */\n      swap2\n      pop\n        /* \"#utility.yul\":23499:23592   */\n      tag_617\n        /* \"#utility.yul\":23588:23591   */\n      dup3\n        /* \"#utility.yul\":23499:23592   */\n      tag_368\n      jump\t// in\n    tag_617:\n        /* \"#utility.yul\":23617:23619   */\n      0x20\n        /* \"#utility.yul\":23612:23615   */\n      dup3\n        /* \"#utility.yul\":23608:23620   */\n      add\n        /* \"#utility.yul\":23601:23620   */\n      swap1\n      pop\n        /* \"#utility.yul\":23260:23626   */\n      swap2\n      swap1\n      pop\n      jump\t// out\n        /* \"#utility.yul\":23632:24051   */\n    tag_181:\n        /* \"#utility.yul\":23798:23802   */\n      0x00\n        /* \"#utility.yul\":23836:23838   */\n      0x20\n        /* \"#utility.yul\":23825:23834   */\n      dup3\n        /* \"#utility.yul\":23821:23839   */\n      add\n        /* \"#utility.yul\":23813:23839   */\n      swap1\n      pop\n        /* \"#utility.yul\":23885:23894   */\n      dup2\n        /* \"#utility.yul\":23879:23883   */\n      dup2\n        /* \"#utility.yul\":23875:23895   */\n      sub\n        /* \"#utility.yul\":23871:23872   */\n      0x00\n        /* \"#utility.yul\":23860:23869   */\n      dup4\n        /* \"#utility.yul\":23856:23873   */\n      add\n        /* \"#utility.yul\":23849:23896   */\n      mstore\n        /* \"#utility.yul\":23913:24044   */\n      tag_619\n        /* \"#utility.yul\":24039:24043   */\n      dup2\n        /* \"#utility.yul\":23913:24044   */\n      tag_369\n      jump\t// in\n    tag_619:\n        /* \"#utility.yul\":23905:24044   */\n      swap1\n      pop\n        /* \"#utility.yul\":23632:24051   */\n      swap2\n      swap1\n      pop\n      jump\t// out\n        /* \"#utility.yul\":24057:24237   */\n    tag_370:\n        /* \"#utility.yul\":24105:24182   */\n      0x4e487b7100000000000000000000000000000000000000000000000000000000\n        /* \"#utility.yul\":24102:24103   */\n      0x00\n        /* \"#utility.yul\":24095:24183   */\n      mstore\n        /* \"#utility.yul\":24202:24206   */\n      0x11\n        /* \"#utility.yul\":24199:24200   */\n      0x04\n        /* \"#utility.yul\":24192:24207   */\n      mstore\n        /* \"#utility.yul\":24226:24230   */\n      0x24\n        /* \"#utility.yul\":24223:24224   */\n      0x00\n        /* \"#utility.yul\":24216:24231   */\n      revert\n        /* \"#utility.yul\":24243:24434   */\n    tag_188:\n        /* \"#utility.yul\":24283:24287   */\n      0x00\n        /* \"#utility.yul\":24303:24323   */\n      tag_622\n        /* \"#utility.yul\":24321:24322   */\n      dup3\n        /* \"#utility.yul\":24303:24323   */\n      tag_326\n      jump\t// in\n    tag_622:\n        /* \"#utility.yul\":24298:24323   */\n      swap2\n      pop\n        /* \"#utility.yul\":24337:24357   */\n      tag_623\n        /* \"#utility.yul\":24355:24356   */\n      dup4\n        /* \"#utility.yul\":24337:24357   */\n      tag_326\n      jump\t// in\n    tag_623:\n        /* \"#utility.yul\":24332:24357   */\n      swap3\n      pop\n        /* \"#utility.yul\":24376:24377   */\n      dup3\n        /* \"#utility.yul\":24373:24374   */\n      dup3\n        /* \"#utility.yul\":24370:24378   */\n      lt\n        /* \"#utility.yul\":24367:24401   */\n      iszero\n      tag_624\n      jumpi\n        /* \"#utility.yul\":24381:24399   */\n      tag_625\n      tag_370\n      jump\t// in\n    tag_625:\n        /* \"#utility.yul\":24367:24401   */\n    tag_624:\n        /* \"#utility.yul\":24426:24427   */\n      dup3\n        /* \"#utility.yul\":24423:24424   */\n      dup3\n        /* \"#utility.yul\":24419:24428   */\n      sub\n        /* \"#utility.yul\":24411:24428   */\n      swap1\n      pop\n        /* \"#utility.yul\":24243:24434   */\n      swap3\n      swap2\n      pop\n      pop\n      jump\t// out\n        /* \"#utility.yul\":24440:24772   */\n    tag_222:\n        /* \"#utility.yul\":24561:24565   */\n      0x00\n        /* \"#utility.yul\":24599:24601   */\n      0x40\n        /* \"#utility.yul\":24588:24597   */\n      dup3\n        /* \"#utility.yul\":24584:24602   */\n      add\n        /* \"#utility.yul\":24576:24602   */\n      swap1\n      pop\n        /* \"#utility.yul\":24612:24683   */\n      tag_627\n        /* \"#utility.yul\":24680:24681   */\n      0x00\n        /* \"#utility.yul\":24669:24678   */\n      dup4\n        /* \"#utility.yul\":24665:24682   */\n      add\n        /* \"#utility.yul\":24656:24662   */\n      dup6\n        /* \"#utility.yul\":24612:24683   */\n      tag_346\n      jump\t// in\n    tag_627:\n        /* \"#utility.yul\":24693:24765   */\n      tag_628\n        /* \"#utility.yul\":24761:24763   */\n      0x20\n        /* \"#utility.yul\":24750:24759   */\n      dup4\n        /* \"#utility.yul\":24746:24764   */\n      add\n        /* \"#utility.yul\":24737:24743   */\n      dup5\n        /* \"#utility.yul\":24693:24765   */\n      tag_346\n      jump\t// in\n    tag_628:\n        /* \"#utility.yul\":24440:24772   */\n      swap4\n      swap3\n      pop\n      pop\n      pop\n      jump\t// out\n        /* \"#utility.yul\":24778:24952   */\n    tag_371:\n        /* \"#utility.yul\":24918:24944   */\n      0x416464726573732073686f756c64206e6f742062652030780000000000000000\n        /* \"#utility.yul\":24914:24915   */\n      0x00\n        /* \"#utility.yul\":24906:24912   */\n      dup3\n        /* \"#utility.yul\":24902:24916   */\n      add\n        /* \"#utility.yul\":24895:24945   */\n      mstore\n        /* \"#utility.yul\":24778:24952   */\n      pop\n      jump\t// out\n        /* \"#utility.yul\":24958:25324   */\n    tag_372:\n        /* \"#utility.yul\":25100:25103   */\n      0x00\n        /* \"#utility.yul\":25121:25188   */\n      tag_631\n        /* \"#utility.yul\":25185:25187   */\n      0x18\n        /* \"#utility.yul\":25180:25183   */\n      dup4\n        /* \"#utility.yul\":25121:25188   */\n      tag_341\n      jump\t// in\n    tag_631:\n        /* \"#utility.yul\":25114:25188   */\n      swap2\n      pop\n        /* \"#utility.yul\":25197:25290   */\n      tag_632\n        /* \"#utility.yul\":25286:25289   */\n      dup3\n        /* \"#utility.yul\":25197:25290   */\n      tag_371\n      jump\t// in\n    tag_632:\n        /* \"#utility.yul\":25315:25317   */\n      0x20\n        /* \"#utility.yul\":25310:25313   */\n      dup3\n        /* \"#utility.yul\":25306:25318   */\n      add\n        /* \"#utility.yul\":25299:25318   */\n      swap1\n      pop\n        /* \"#utility.yul\":24958:25324   */\n      swap2\n      swap1\n      pop\n      jump\t// out\n        /* \"#utility.yul\":25330:25749   */\n    tag_235:\n        /* \"#utility.yul\":25496:25500   */\n      0x00\n        /* \"#utility.yul\":25534:25536   */\n      0x20\n        /* \"#utility.yul\":25523:25532   */\n      dup3\n        /* \"#utility.yul\":25519:25537   */\n      add\n        /* \"#utility.yul\":25511:25537   */\n      swap1\n      pop\n        /* \"#utility.yul\":25583:25592   */\n      dup2\n        /* \"#utility.yul\":25577:25581   */\n      dup2\n        /* \"#utility.yul\":25573:25593   */\n      sub\n        /* \"#utility.yul\":25569:25570   */\n      0x00\n        /* \"#utility.yul\":25558:25567   */\n      dup4\n        /* \"#utility.yul\":25554:25571   */\n      add\n        /* \"#utility.yul\":25547:25594   */\n      mstore\n        /* \"#utility.yul\":25611:25742   */\n      tag_634\n        /* \"#utility.yul\":25737:25741   */\n      dup2\n        /* \"#utility.yul\":25611:25742   */\n      tag_372\n      jump\t// in\n    tag_634:\n        /* \"#utility.yul\":25603:25742   */\n      swap1\n      pop\n        /* \"#utility.yul\":25330:25749   */\n      swap2\n      swap1\n      pop\n      jump\t// out\n        /* \"#utility.yul\":25755:25919   */\n    tag_373:\n        /* \"#utility.yul\":25895:25911   */\n      0x696e76616c696420616d6f756e74000000000000000000000000000000000000\n        /* \"#utility.yul\":25891:25892   */\n      0x00\n        /* \"#utility.yul\":25883:25889   */\n      dup3\n        /* \"#utility.yul\":25879:25893   */\n      add\n        /* \"#utility.yul\":25872:25912   */\n      mstore\n        /* \"#utility.yul\":25755:25919   */\n      pop\n      jump\t// out\n        /* \"#utility.yul\":25925:26291   */\n    tag_374:\n        /* \"#utility.yul\":26067:26070   */\n      0x00\n        /* \"#utility.yul\":26088:26155   */\n      tag_637\n        /* \"#utility.yul\":26152:26154   */\n      0x0e\n        /* \"#utility.yul\":26147:26150   */\n      dup4\n        /* \"#utility.yul\":26088:26155   */\n      tag_341\n      jump\t// in\n    tag_637:\n        /* \"#utility.yul\":26081:26155   */\n      swap2\n      pop\n        /* \"#utility.yul\":26164:26257   */\n      tag_638\n        /* \"#utility.yul\":26253:26256   */\n      dup3\n        /* \"#utility.yul\":26164:26257   */\n      tag_373\n      jump\t// in\n    tag_638:\n        /* \"#utility.yul\":26282:26284   */\n      0x20\n        /* \"#utility.yul\":26277:26280   */\n      dup3\n        /* \"#utility.yul\":26273:26285   */\n      add\n        /* \"#utility.yul\":26266:26285   */\n      swap1\n      pop\n        /* \"#utility.yul\":25925:26291   */\n      swap2\n      swap1\n      pop\n      jump\t// out\n        /* \"#utility.yul\":26297:26716   */\n    tag_240:\n        /* \"#utility.yul\":26463:26467   */\n      0x00\n        /* \"#utility.yul\":26501:26503   */\n      0x20\n        /* \"#utility.yul\":26490:26499   */\n      dup3\n        /* \"#utility.yul\":26486:26504   */\n      add\n        /* \"#utility.yul\":26478:26504   */\n      swap1\n      pop\n        /* \"#utility.yul\":26550:26559   */\n      dup2\n        /* \"#utility.yul\":26544:26548   */\n      dup2\n        /* \"#utility.yul\":26540:26560   */\n      sub\n        /* \"#utility.yul\":26536:26537   */\n      0x00\n        /* \"#utility.yul\":26525:26534   */\n      dup4\n        /* \"#utility.yul\":26521:26538   */\n      add\n        /* \"#utility.yul\":26514:26561   */\n      mstore\n        /* \"#utility.yul\":26578:26709   */\n      tag_640\n        /* \"#utility.yul\":26704:26708   */\n      dup2\n        /* \"#utility.yul\":26578:26709   */\n      tag_374\n      jump\t// in\n    tag_640:\n        /* \"#utility.yul\":26570:26709   */\n      swap1\n      pop\n        /* \"#utility.yul\":26297:26716   */\n      swap2\n      swap1\n      pop\n      jump\t// out\n        /* \"#utility.yul\":26722:26888   */\n    tag_375:\n        /* \"#utility.yul\":26862:26880   */\n      0x696e76616c69642074696d656c6f636b00000000000000000000000000000000\n        /* \"#utility.yul\":26858:26859   */\n      0x00\n        /* \"#utility.yul\":26850:26856   */\n      dup3\n        /* \"#utility.yul\":26846:26860   */\n      add\n        /* \"#utility.yul\":26839:26881   */\n      mstore\n        /* \"#utility.yul\":26722:26888   */\n      pop\n      jump\t// out\n        /* \"#utility.yul\":26894:27260   */\n    tag_376:\n        /* \"#utility.yul\":27036:27039   */\n      0x00\n        /* \"#utility.yul\":27057:27124   */\n      tag_643\n        /* \"#utility.yul\":27121:27123   */\n      0x10\n        /* \"#utility.yul\":27116:27119   */\n      dup4\n        /* \"#utility.yul\":27057:27124   */\n      tag_341\n      jump\t// in\n    tag_643:\n        /* \"#utility.yul\":27050:27124   */\n      swap2\n      pop\n        /* \"#utility.yul\":27133:27226   */\n      tag_644\n        /* \"#utility.yul\":27222:27225   */\n      dup3\n        /* \"#utility.yul\":27133:27226   */\n      tag_375\n      jump\t// in\n    tag_644:\n        /* \"#utility.yul\":27251:27253   */\n      0x20\n        /* \"#utility.yul\":27246:27249   */\n      dup3\n        /* \"#utility.yul\":27242:27254   */\n      add\n        /* \"#utility.yul\":27235:27254   */\n      swap1\n      pop\n        /* \"#utility.yul\":26894:27260   */\n      swap2\n      swap1\n      pop\n      jump\t// out\n        /* \"#utility.yul\":27266:27685   */\n    tag_243:\n        /* \"#utility.yul\":27432:27436   */\n      0x00\n        /* \"#utility.yul\":27470:27472   */\n      0x20\n        /* \"#utility.yul\":27459:27468   */\n      dup3\n        /* \"#utility.yul\":27455:27473   */\n      add\n        /* \"#utility.yul\":27447:27473   */\n      swap1\n      pop\n        /* \"#utility.yul\":27519:27528   */\n      dup2\n        /* \"#utility.yul\":27513:27517   */\n      dup2\n        /* \"#utility.yul\":27509:27529   */\n      sub\n        /* \"#utility.yul\":27505:27506   */\n      0x00\n        /* \"#utility.yul\":27494:27503   */\n      dup4\n        /* \"#utility.yul\":27490:27507   */\n      add\n        /* \"#utility.yul\":27483:27530   */\n      mstore\n        /* \"#utility.yul\":27547:27678   */\n      tag_646\n        /* \"#utility.yul\":27673:27677   */\n      dup2\n        /* \"#utility.yul\":27547:27678   */\n      tag_376\n      jump\t// in\n    tag_646:\n        /* \"#utility.yul\":27539:27678   */\n      swap1\n      pop\n        /* \"#utility.yul\":27266:27685   */\n      swap2\n      swap1\n      pop\n      jump\t// out\n        /* \"#utility.yul\":27691:27856   */\n    tag_377:\n        /* \"#utility.yul\":27831:27848   */\n      0x7472616e73666572206578697374730000000000000000000000000000000000\n        /* \"#utility.yul\":27827:27828   */\n      0x00\n        /* \"#utility.yul\":27819:27825   */\n      dup3\n        /* \"#utility.yul\":27815:27829   */\n      add\n        /* \"#utility.yul\":27808:27849   */\n      mstore\n        /* \"#utility.yul\":27691:27856   */\n      pop\n      jump\t// out\n        /* \"#utility.yul\":27862:28228   */\n    tag_378:\n        /* \"#utility.yul\":28004:28007   */\n      0x00\n        /* \"#utility.yul\":28025:28092   */\n      tag_649\n        /* \"#utility.yul\":28089:28091   */\n      0x0f\n        /* \"#utility.yul\":28084:28087   */\n      dup4\n        /* \"#utility.yul\":28025:28092   */\n      tag_341\n      jump\t// in\n    tag_649:\n        /* \"#utility.yul\":28018:28092   */\n      swap2\n      pop\n        /* \"#utility.yul\":28101:28194   */\n      tag_650\n        /* \"#utility.yul\":28190:28193   */\n      dup3\n        /* \"#utility.yul\":28101:28194   */\n      tag_377\n      jump\t// in\n    tag_650:\n        /* \"#utility.yul\":28219:28221   */\n      0x20\n        /* \"#utility.yul\":28214:28217   */\n      dup3\n        /* \"#utility.yul\":28210:28222   */\n      add\n        /* \"#utility.yul\":28203:28222   */\n      swap1\n      pop\n        /* \"#utility.yul\":27862:28228   */\n      swap2\n      swap1\n      pop\n      jump\t// out\n        /* \"#utility.yul\":28234:28653   */\n    tag_251:\n        /* \"#utility.yul\":28400:28404   */\n      0x00\n        /* \"#utility.yul\":28438:28440   */\n      0x20\n        /* \"#utility.yul\":28427:28436   */\n      dup3\n        /* \"#utility.yul\":28423:28441   */\n      add\n        /* \"#utility.yul\":28415:28441   */\n      swap1\n      pop\n        /* \"#utility.yul\":28487:28496   */\n      dup2\n        /* \"#utility.yul\":28481:28485   */\n      dup2\n        /* \"#utility.yul\":28477:28497   */\n      sub\n        /* \"#utility.yul\":28473:28474   */\n      0x00\n        /* \"#utility.yul\":28462:28471   */\n      dup4\n        /* \"#utility.yul\":28458:28475   */\n      add\n        /* \"#utility.yul\":28451:28498   */\n      mstore\n        /* \"#utility.yul\":28515:28646   */\n      tag_652\n        /* \"#utility.yul\":28641:28645   */\n      dup2\n        /* \"#utility.yul\":28515:28646   */\n      tag_378\n      jump\t// in\n    tag_652:\n        /* \"#utility.yul\":28507:28646   */\n      swap1\n      pop\n        /* \"#utility.yul\":28234:28653   */\n      swap2\n      swap1\n      pop\n      jump\t// out\n        /* \"#utility.yul\":28659:28831   */\n    tag_379:\n        /* \"#utility.yul\":28799:28823   */\n      0x45746820416d6f756e742073686f756c64207a65726f00000000000000000000\n        /* \"#utility.yul\":28795:28796   */\n      0x00\n        /* \"#utility.yul\":28787:28793   */\n      dup3\n        /* \"#utility.yul\":28783:28797   */\n      add\n        /* \"#utility.yul\":28776:28824   */\n      mstore\n        /* \"#utility.yul\":28659:28831   */\n      pop\n      jump\t// out\n        /* \"#utility.yul\":28837:29203   */\n    tag_380:\n        /* \"#utility.yul\":28979:28982   */\n      0x00\n        /* \"#utility.yul\":29000:29067   */\n      tag_655\n        /* \"#utility.yul\":29064:29066   */\n      0x16\n        /* \"#utility.yul\":29059:29062   */\n      dup4\n        /* \"#utility.yul\":29000:29067   */\n      tag_341\n      jump\t// in\n    tag_655:\n        /* \"#utility.yul\":28993:29067   */\n      swap2\n      pop\n        /* \"#utility.yul\":29076:29169   */\n      tag_656\n        /* \"#utility.yul\":29165:29168   */\n      dup3\n        /* \"#utility.yul\":29076:29169   */\n      tag_379\n      jump\t// in\n    tag_656:\n        /* \"#utility.yul\":29194:29196   */\n      0x20\n        /* \"#utility.yul\":29189:29192   */\n      dup3\n        /* \"#utility.yul\":29185:29197   */\n      add\n        /* \"#utility.yul\":29178:29197   */\n      swap1\n      pop\n        /* \"#utility.yul\":28837:29203   */\n      swap2\n      swap1\n      pop\n      jump\t// out\n        /* \"#utility.yul\":29209:29628   */\n    tag_255:\n        /* \"#utility.yul\":29375:29379   */\n      0x00\n        /* \"#utility.yul\":29413:29415   */\n      0x20\n        /* \"#utility.yul\":29402:29411   */\n      dup3\n        /* \"#utility.yul\":29398:29416   */\n      add\n        /* \"#utility.yul\":29390:29416   */\n      swap1\n      pop\n        /* \"#utility.yul\":29462:29471   */\n      dup2\n        /* \"#utility.yul\":29456:29460   */\n      dup2\n        /* \"#utility.yul\":29452:29472   */\n      sub\n        /* \"#utility.yul\":29448:29449   */\n      0x00\n        /* \"#utility.yul\":29437:29446   */\n      dup4\n        /* \"#utility.yul\":29433:29450   */\n      add\n        /* \"#utility.yul\":29426:29473   */\n      mstore\n        /* \"#utility.yul\":29490:29621   */\n      tag_658\n        /* \"#utility.yul\":29616:29620   */\n      dup2\n        /* \"#utility.yul\":29490:29621   */\n      tag_380\n      jump\t// in\n    tag_658:\n        /* \"#utility.yul\":29482:29621   */\n      swap1\n      pop\n        /* \"#utility.yul\":29209:29628   */\n      swap2\n      swap1\n      pop\n      jump\t// out\n        /* \"#utility.yul\":29634:29803   */\n    tag_381:\n        /* \"#utility.yul\":29774:29795   */\n      0x45746820416d6f756e74206d69736d6174636800000000000000000000000000\n        /* \"#utility.yul\":29770:29771   */\n      0x00\n        /* \"#utility.yul\":29762:29768   */\n      dup3\n        /* \"#utility.yul\":29758:29772   */\n      add\n        /* \"#utility.yul\":29751:29796   */\n      mstore\n        /* \"#utility.yul\":29634:29803   */\n      pop\n      jump\t// out\n        /* \"#utility.yul\":29809:30175   */\n    tag_382:\n        /* \"#utility.yul\":29951:29954   */\n      0x00\n        /* \"#utility.yul\":29972:30039   */\n      tag_661\n        /* \"#utility.yul\":30036:30038   */\n      0x13\n        /* \"#utility.yul\":30031:30034   */\n      dup4\n        /* \"#utility.yul\":29972:30039   */\n      tag_341\n      jump\t// in\n    tag_661:\n        /* \"#utility.yul\":29965:30039   */\n      swap2\n      pop\n        /* \"#utility.yul\":30048:30141   */\n      tag_662\n        /* \"#utility.yul\":30137:30140   */\n      dup3\n        /* \"#utility.yul\":30048:30141   */\n      tag_381\n      jump\t// in\n    tag_662:\n        /* \"#utility.yul\":30166:30168   */\n      0x20\n        /* \"#utility.yul\":30161:30164   */\n      dup3\n        /* \"#utility.yul\":30157:30169   */\n      add\n        /* \"#utility.yul\":30150:30169   */\n      swap1\n      pop\n        /* \"#utility.yul\":29809:30175   */\n      swap2\n      swap1\n      pop\n      jump\t// out\n        /* \"#utility.yul\":30181:30600   */\n    tag_258:\n        /* \"#utility.yul\":30347:30351   */\n      0x00\n        /* \"#utility.yul\":30385:30387   */\n      0x20\n        /* \"#utility.yul\":30374:30383   */\n      dup3\n        /* \"#utility.yul\":30370:30388   */\n      add\n        /* \"#utility.yul\":30362:30388   */\n      swap1\n      pop\n        /* \"#utility.yul\":30434:30443   */\n      dup2\n        /* \"#utility.yul\":30428:30432   */\n      dup2\n        /* \"#utility.yul\":30424:30444   */\n      sub\n        /* \"#utility.yul\":30420:30421   */\n      0x00\n        /* \"#utility.yul\":30409:30418   */\n      dup4\n        /* \"#utility.yul\":30405:30422   */\n      add\n        /* \"#utility.yul\":30398:30445   */\n      mstore\n        /* \"#utility.yul\":30462:30593   */\n      tag_664\n        /* \"#utility.yul\":30588:30592   */\n      dup2\n        /* \"#utility.yul\":30462:30593   */\n      tag_382\n      jump\t// in\n    tag_664:\n        /* \"#utility.yul\":30454:30593   */\n      swap1\n      pop\n        /* \"#utility.yul\":30181:30600   */\n      swap2\n      swap1\n      pop\n      jump\t// out\n        /* \"#utility.yul\":30606:30938   */\n    tag_270:\n        /* \"#utility.yul\":30727:30731   */\n      0x00\n        /* \"#utility.yul\":30765:30767   */\n      0x40\n        /* \"#utility.yul\":30754:30763   */\n      dup3\n        /* \"#utility.yul\":30750:30768   */\n      add\n        /* \"#utility.yul\":30742:30768   */\n      swap1\n      pop\n        /* \"#utility.yul\":30778:30849   */\n      tag_666\n        /* \"#utility.yul\":30846:30847   */\n      0x00\n        /* \"#utility.yul\":30835:30844   */\n      dup4\n        /* \"#utility.yul\":30831:30848   */\n      add\n        /* \"#utility.yul\":30822:30828   */\n      dup6\n        /* \"#utility.yul\":30778:30849   */\n      tag_340\n      jump\t// in\n    tag_666:\n        /* \"#utility.yul\":30859:30931   */\n      tag_667\n        /* \"#utility.yul\":30927:30929   */\n      0x20\n        /* \"#utility.yul\":30916:30925   */\n      dup4\n        /* \"#utility.yul\":30912:30930   */\n      add\n        /* \"#utility.yul\":30903:30909   */\n      dup5\n        /* \"#utility.yul\":30859:30931   */\n      tag_327\n      jump\t// in\n    tag_667:\n        /* \"#utility.yul\":30606:30938   */\n      swap4\n      swap3\n      pop\n      pop\n      pop\n      jump\t// out\n        /* \"#utility.yul\":30944:31292   */\n    tag_274:\n        /* \"#utility.yul\":30984:30991   */\n      0x00\n        /* \"#utility.yul\":31007:31027   */\n      tag_669\n        /* \"#utility.yul\":31025:31026   */\n      dup3\n        /* \"#utility.yul\":31007:31027   */\n      tag_326\n      jump\t// in\n    tag_669:\n        /* \"#utility.yul\":31002:31027   */\n      swap2\n      pop\n        /* \"#utility.yul\":31041:31061   */\n      tag_670\n        /* \"#utility.yul\":31059:31060   */\n      dup4\n        /* \"#utility.yul\":31041:31061   */\n      tag_326\n      jump\t// in\n    tag_670:\n        /* \"#utility.yul\":31036:31061   */\n      swap3\n      pop\n        /* \"#utility.yul\":31229:31230   */\n      dup2\n        /* \"#utility.yul\":31161:31227   */\n      0xffffffffffffffffffffffffffffffffffffffffffffffffffffffffffffffff\n        /* \"#utility.yul\":31157:31231   */\n      div\n        /* \"#utility.yul\":31154:31155   */\n      dup4\n        /* \"#utility.yul\":31151:31232   */\n      gt\n        /* \"#utility.yul\":31146:31147   */\n      dup3\n        /* \"#utility.yul\":31139:31148   */\n      iszero\n        /* \"#utility.yul\":31132:31149   */\n      iszero\n        /* \"#utility.yul\":31128:31233   */\n      and\n        /* \"#utility.yul\":31125:31256   */\n      iszero\n      tag_671\n      jumpi\n        /* \"#utility.yul\":31236:31254   */\n      tag_672\n      tag_370\n      jump\t// in\n    tag_672:\n        /* \"#utility.yul\":31125:31256   */\n    tag_671:\n        /* \"#utility.yul\":31284:31285   */\n      dup3\n        /* \"#utility.yul\":31281:31282   */\n      dup3\n        /* \"#utility.yul\":31277:31286   */\n      mul\n        /* \"#utility.yul\":31266:31286   */\n      swap1\n      pop\n        /* \"#utility.yul\":30944:31292   */\n      swap3\n      swap2\n      pop\n      pop\n      jump\t// out\n        /* \"#utility.yul\":31298:31478   */\n    tag_383:\n        /* \"#utility.yul\":31346:31423   */\n      0x4e487b7100000000000000000000000000000000000000000000000000000000\n        /* \"#utility.yul\":31343:31344   */\n      0x00\n        /* \"#utility.yul\":31336:31424   */\n      mstore\n        /* \"#utility.yul\":31443:31447   */\n      0x12\n        /* \"#utility.yul\":31440:31441   */\n      0x04\n        /* \"#utility.yul\":31433:31448   */\n      mstore\n        /* \"#utility.yul\":31467:31471   */\n      0x24\n        /* \"#utility.yul\":31464:31465   */\n      0x00\n        /* \"#utility.yul\":31457:31472   */\n      revert\n        /* \"#utility.yul\":31484:31669   */\n    tag_276:\n        /* \"#utility.yul\":31524:31525   */\n      0x00\n        /* \"#utility.yul\":31541:31561   */\n      tag_675\n        /* \"#utility.yul\":31559:31560   */\n      dup3\n        /* \"#utility.yul\":31541:31561   */\n      tag_326\n      jump\t// in\n    tag_675:\n        /* \"#utility.yul\":31536:31561   */\n      swap2\n      pop\n        /* \"#utility.yul\":31575:31595   */\n      tag_676\n        /* \"#utility.yul\":31593:31594   */\n      dup4\n        /* \"#utility.yul\":31575:31595   */\n      tag_326\n      jump\t// in\n    tag_676:\n        /* \"#utility.yul\":31570:31595   */\n      swap3\n      pop\n        /* \"#utility.yul\":31614:31615   */\n      dup3\n        /* \"#utility.yul\":31604:31639   */\n      tag_677\n      jumpi\n        /* \"#utility.yul\":31619:31637   */\n      tag_678\n      tag_383\n      jump\t// in\n    tag_678:\n        /* \"#utility.yul\":31604:31639   */\n    tag_677:\n        /* \"#utility.yul\":31661:31662   */\n      dup3\n        /* \"#utility.yul\":31658:31659   */\n      dup3\n        /* \"#utility.yul\":31654:31663   */\n      div\n        /* \"#utility.yul\":31649:31663   */\n      swap1\n      pop\n        /* \"#utility.yul\":31484:31669   */\n      swap3\n      swap2\n      pop\n      pop\n      jump\t// out\n        /* \"#utility.yul\":31675:32117   */\n    tag_282:\n        /* \"#utility.yul\":31824:31828   */\n      0x00\n        /* \"#utility.yul\":31862:31864   */\n      0x60\n        /* \"#utility.yul\":31851:31860   */\n      dup3\n        /* \"#utility.yul\":31847:31865   */\n      add\n        /* \"#utility.yul\":31839:31865   */\n      swap1\n      pop\n        /* \"#utility.yul\":31875:31946   */\n      tag_680\n        /* \"#utility.yul\":31943:31944   */\n      0x00\n        /* \"#utility.yul\":31932:31941   */\n      dup4\n        /* \"#utility.yul\":31928:31945   */\n      add\n        /* \"#utility.yul\":31919:31925   */\n      dup7\n        /* \"#utility.yul\":31875:31946   */\n      tag_340\n      jump\t// in\n    tag_680:\n        /* \"#utility.yul\":31956:32028   */\n      tag_681\n        /* \"#utility.yul\":32024:32026   */\n      0x20\n        /* \"#utility.yul\":32013:32022   */\n      dup4\n        /* \"#utility.yul\":32009:32027   */\n      add\n        /* \"#utility.yul\":32000:32006   */\n      dup6\n        /* \"#utility.yul\":31956:32028   */\n      tag_340\n      jump\t// in\n    tag_681:\n        /* \"#utility.yul\":32038:32110   */\n      tag_682\n        /* \"#utility.yul\":32106:32108   */\n      0x40\n        /* \"#utility.yul\":32095:32104   */\n      dup4\n        /* \"#utility.yul\":32091:32109   */\n      add\n        /* \"#utility.yul\":32082:32088   */\n      dup5\n        /* \"#utility.yul\":32038:32110   */\n      tag_327\n      jump\t// in\n    tag_682:\n        /* \"#utility.yul\":31675:32117   */\n      swap5\n      swap4\n      pop\n      pop\n      pop\n      pop\n      jump\t// out\n        /* \"#utility.yul\":32123:32213   */\n    tag_384:\n        /* \"#utility.yul\":32157:32164   */\n      0x00\n        /* \"#utility.yul\":32200:32205   */\n      dup2\n        /* \"#utility.yul\":32193:32206   */\n      iszero\n        /* \"#utility.yul\":32186:32207   */\n      iszero\n        /* \"#utility.yul\":32175:32207   */\n      swap1\n      pop\n        /* \"#utility.yul\":32123:32213   */\n      swap2\n      swap1\n      pop\n      jump\t// out\n        /* \"#utility.yul\":32219:32335   */\n    tag_385:\n        /* \"#utility.yul\":32289:32310   */\n      tag_685\n        /* \"#utility.yul\":32304:32309   */\n      dup2\n        /* \"#utility.yul\":32289:32310   */\n      tag_384\n      jump\t// in\n    tag_685:\n        /* \"#utility.yul\":32282:32287   */\n      dup2\n        /* \"#utility.yul\":32279:32311   */\n      eq\n        /* \"#utility.yul\":32269:32329   */\n      tag_686\n      jumpi\n        /* \"#utility.yul\":32325:32326   */\n      0x00\n        /* \"#utility.yul\":32322:32323   */\n      dup1\n        /* \"#utility.yul\":32315:32327   */\n      revert\n        /* \"#utility.yul\":32269:32329   */\n    tag_686:\n        /* \"#utility.yul\":32219:32335   */\n      pop\n      jump\t// out\n        /* \"#utility.yul\":32341:32478   */\n    tag_386:\n        /* \"#utility.yul\":32395:32400   */\n      0x00\n        /* \"#utility.yul\":32426:32432   */\n      dup2\n        /* \"#utility.yul\":32420:32433   */\n      mload\n        /* \"#utility.yul\":32411:32433   */\n      swap1\n      pop\n        /* \"#utility.yul\":32442:32472   */\n      tag_688\n        /* \"#utility.yul\":32466:32471   */\n      dup2\n        /* \"#utility.yul\":32442:32472   */\n      tag_385\n      jump\t// in\n    tag_688:\n        /* \"#utility.yul\":32341:32478   */\n      swap3\n      swap2\n      pop\n      pop\n      jump\t// out\n        /* \"#utility.yul\":32484:32829   */\n    tag_288:\n        /* \"#utility.yul\":32551:32557   */\n      0x00\n        /* \"#utility.yul\":32600:32602   */\n      0x20\n        /* \"#utility.yul\":32588:32597   */\n      dup3\n        /* \"#utility.yul\":32579:32586   */\n      dup5\n        /* \"#utility.yul\":32575:32598   */\n      sub\n        /* \"#utility.yul\":32571:32603   */\n      slt\n        /* \"#utility.yul\":32568:32687   */\n      iszero\n      tag_690\n      jumpi\n        /* \"#utility.yul\":32606:32685   */\n      tag_691\n      tag_320\n      jump\t// in\n    tag_691:\n        /* \"#utility.yul\":32568:32687   */\n    tag_690:\n        /* \"#utility.yul\":32726:32727   */\n      0x00\n        /* \"#utility.yul\":32751:32812   */\n      tag_692\n        /* \"#utility.yul\":32804:32811   */\n      dup5\n        /* \"#utility.yul\":32795:32801   */\n      dup3\n        /* \"#utility.yul\":32784:32793   */\n      dup6\n        /* \"#utility.yul\":32780:32802   */\n      add\n        /* \"#utility.yul\":32751:32812   */\n      tag_386\n      jump\t// in\n    tag_692:\n        /* \"#utility.yul\":32741:32812   */\n      swap2\n      pop\n        /* \"#utility.yul\":32697:32822   */\n      pop\n        /* \"#utility.yul\":32484:32829   */\n      swap3\n      swap2\n      pop\n      pop\n      jump\t// out\n        /* \"#utility.yul\":32835:33064   */\n    tag_387:\n        /* \"#utility.yul\":32975:33009   */\n      0x5361666545524332303a204552433230206f7065726174696f6e20646964206e\n        /* \"#utility.yul\":32971:32972   */\n      0x00\n        /* \"#utility.yul\":32963:32969   */\n      dup3\n        /* \"#utility.yul\":32959:32973   */\n      add\n        /* \"#utility.yul\":32952:33010   */\n      mstore\n        /* \"#utility.yul\":33044:33056   */\n      0x6f74207375636365656400000000000000000000000000000000000000000000\n        /* \"#utility.yul\":33039:33041   */\n      0x20\n        /* \"#utility.yul\":33031:33037   */\n      dup3\n        /* \"#utility.yul\":33027:33042   */\n      add\n        /* \"#utility.yul\":33020:33057   */\n      mstore\n        /* \"#utility.yul\":32835:33064   */\n      pop\n      jump\t// out\n        /* \"#utility.yul\":33070:33436   */\n    tag_388:\n        /* \"#utility.yul\":33212:33215   */\n      0x00\n        /* \"#utility.yul\":33233:33300   */\n      tag_695\n        /* \"#utility.yul\":33297:33299   */\n      0x2a\n        /* \"#utility.yul\":33292:33295   */\n      dup4\n        /* \"#utility.yul\":33233:33300   */\n      tag_341\n      jump\t// in\n    tag_695:\n        /* \"#utility.yul\":33226:33300   */\n      swap2\n      pop\n        /* \"#utility.yul\":33309:33402   */\n      tag_696\n        /* \"#utility.yul\":33398:33401   */\n      dup3\n        /* \"#utility.yul\":33309:33402   */\n      tag_387\n      jump\t// in\n    tag_696:\n        /* \"#utility.yul\":33427:33429   */\n      0x40\n        /* \"#utility.yul\":33422:33425   */\n      dup3\n        /* \"#utility.yul\":33418:33430   */\n      add\n        /* \"#utility.yul\":33411:33430   */\n      swap1\n      pop\n        /* \"#utility.yul\":33070:33436   */\n      swap2\n      swap1\n      pop\n      jump\t// out\n        /* \"#utility.yul\":33442:33861   */\n    tag_291:\n        /* \"#utility.yul\":33608:33612   */\n      0x00\n        /* \"#utility.yul\":33646:33648   */\n      0x20\n        /* \"#utility.yul\":33635:33644   */\n      dup3\n        /* \"#utility.yul\":33631:33649   */\n      add\n        /* \"#utility.yul\":33623:33649   */\n      swap1\n      pop\n        /* \"#utility.yul\":33695:33704   */\n      dup2\n        /* \"#utility.yul\":33689:33693   */\n      dup2\n        /* \"#utility.yul\":33685:33705   */\n      sub\n        /* \"#utility.yul\":33681:33682   */\n      0x00\n        /* \"#utility.yul\":33670:33679   */\n      dup4\n        /* \"#utility.yul\":33666:33683   */\n      add\n        /* \"#utility.yul\":33659:33706   */\n      mstore\n        /* \"#utility.yul\":33723:33854   */\n      tag_698\n        /* \"#utility.yul\":33849:33853   */\n      dup2\n        /* \"#utility.yul\":33723:33854   */\n      tag_388\n      jump\t// in\n    tag_698:\n        /* \"#utility.yul\":33715:33854   */\n      swap1\n      pop\n        /* \"#utility.yul\":33442:33861   */\n      swap2\n      swap1\n      pop\n      jump\t// out\n        /* \"#utility.yul\":33867:34092   */\n    tag_389:\n        /* \"#utility.yul\":34007:34041   */\n      0x416464726573733a20696e73756666696369656e742062616c616e636520666f\n        /* \"#utility.yul\":34003:34004   */\n      0x00\n        /* \"#utility.yul\":33995:34001   */\n      dup3\n        /* \"#utility.yul\":33991:34005   */\n      add\n        /* \"#utility.yul\":33984:34042   */\n      mstore\n        /* \"#utility.yul\":34076:34084   */\n      0x722063616c6c0000000000000000000000000000000000000000000000000000\n        /* \"#utility.yul\":34071:34073   */\n      0x20\n        /* \"#utility.yul\":34063:34069   */\n      dup3\n        /* \"#utility.yul\":34059:34074   */\n      add\n        /* \"#utility.yul\":34052:34085   */\n      mstore\n        /* \"#utility.yul\":33867:34092   */\n      pop\n      jump\t// out\n        /* \"#utility.yul\":34098:34464   */\n    tag_390:\n        /* \"#utility.yul\":34240:34243   */\n      0x00\n        /* \"#utility.yul\":34261:34328   */\n      tag_701\n        /* \"#utility.yul\":34325:34327   */\n      0x26\n        /* \"#utility.yul\":34320:34323   */\n      dup4\n        /* \"#utility.yul\":34261:34328   */\n      tag_341\n      jump\t// in\n    tag_701:\n        /* \"#utility.yul\":34254:34328   */\n      swap2\n      pop\n        /* \"#utility.yul\":34337:34430   */\n      tag_702\n        /* \"#utility.yul\":34426:34429   */\n      dup3\n        /* \"#utility.yul\":34337:34430   */\n      tag_389\n      jump\t// in\n    tag_702:\n        /* \"#utility.yul\":34455:34457   */\n      0x40\n        /* \"#utility.yul\":34450:34453   */\n      dup3\n        /* \"#utility.yul\":34446:34458   */\n      add\n        /* \"#utility.yul\":34439:34458   */\n      swap1\n      pop\n        /* \"#utility.yul\":34098:34464   */\n      swap2\n      swap1\n      pop\n      jump\t// out\n        /* \"#utility.yul\":34470:34889   */\n    tag_298:\n        /* \"#utility.yul\":34636:34640   */\n      0x00\n        /* \"#utility.yul\":34674:34676   */\n      0x20\n        /* \"#utility.yul\":34663:34672   */\n      dup3\n        /* \"#utility.yul\":34659:34677   */\n      add\n        /* \"#utility.yul\":34651:34677   */\n      swap1\n      pop\n        /* \"#utility.yul\":34723:34732   */\n      dup2\n        /* \"#utility.yul\":34717:34721   */\n      dup2\n        /* \"#utility.yul\":34713:34733   */\n      sub\n        /* \"#utility.yul\":34709:34710   */\n      0x00\n        /* \"#utility.yul\":34698:34707   */\n      dup4\n        /* \"#utility.yul\":34694:34711   */\n      add\n        /* \"#utility.yul\":34687:34734   */\n      mstore\n        /* \"#utility.yul\":34751:34882   */\n      tag_704\n        /* \"#utility.yul\":34877:34881   */\n      dup2\n        /* \"#utility.yul\":34751:34882   */\n      tag_390\n      jump\t// in\n    tag_704:\n        /* \"#utility.yul\":34743:34882   */\n      swap1\n      pop\n        /* \"#utility.yul\":34470:34889   */\n      swap2\n      swap1\n      pop\n      jump\t// out\n        /* \"#utility.yul\":34895:35074   */\n    tag_391:\n        /* \"#utility.yul\":35035:35066   */\n      0x416464726573733a2063616c6c20746f206e6f6e2d636f6e7472616374000000\n        /* \"#utility.yul\":35031:35032   */\n      0x00\n        /* \"#utility.yul\":35023:35029   */\n      dup3\n        /* \"#utility.yul\":35019:35033   */\n      add\n        /* \"#utility.yul\":35012:35067   */\n      mstore\n        /* \"#utility.yul\":34895:35074   */\n      pop\n      jump\t// out\n        /* \"#utility.yul\":35080:35446   */\n    tag_392:\n        /* \"#utility.yul\":35222:35225   */\n      0x00\n        /* \"#utility.yul\":35243:35310   */\n      tag_707\n        /* \"#utility.yul\":35307:35309   */\n      0x1d\n        /* \"#utility.yul\":35302:35305   */\n      dup4\n        /* \"#utility.yul\":35243:35310   */\n      tag_341\n      jump\t// in\n    tag_707:\n        /* \"#utility.yul\":35236:35310   */\n      swap2\n      pop\n        /* \"#utility.yul\":35319:35412   */\n      tag_708\n        /* \"#utility.yul\":35408:35411   */\n      dup3\n        /* \"#utility.yul\":35319:35412   */\n      tag_391\n      jump\t// in\n    tag_708:\n        /* \"#utility.yul\":35437:35439   */\n      0x20\n        /* \"#utility.yul\":35432:35435   */\n      dup3\n        /* \"#utility.yul\":35428:35440   */\n      add\n        /* \"#utility.yul\":35421:35440   */\n      swap1\n      pop\n        /* \"#utility.yul\":35080:35446   */\n      swap2\n      swap1\n      pop\n      jump\t// out\n        /* \"#utility.yul\":35452:35871   */\n    tag_303:\n        /* \"#utility.yul\":35618:35622   */\n      0x00\n        /* \"#utility.yul\":35656:35658   */\n      0x20\n        /* \"#utility.yul\":35645:35654   */\n      dup3\n        /* \"#utility.yul\":35641:35659   */\n      add\n        /* \"#utility.yul\":35633:35659   */\n      swap1\n      pop\n        /* \"#utility.yul\":35705:35714   */\n      dup2\n        /* \"#utility.yul\":35699:35703   */\n      dup2\n        /* \"#utility.yul\":35695:35715   */\n      sub\n        /* \"#utility.yul\":35691:35692   */\n      0x00\n        /* \"#utility.yul\":35680:35689   */\n      dup4\n        /* \"#utility.yul\":35676:35693   */\n      add\n        /* \"#utility.yul\":35669:35716   */\n      mstore\n        /* \"#utility.yul\":35733:35864   */\n      tag_710\n        /* \"#utility.yul\":35859:35863   */\n      dup2\n        /* \"#utility.yul\":35733:35864   */\n      tag_392\n      jump\t// in\n    tag_710:\n        /* \"#utility.yul\":35725:35864   */\n      swap1\n      pop\n        /* \"#utility.yul\":35452:35871   */\n      swap2\n      swap1\n      pop\n      jump\t// out\n        /* \"#utility.yul\":35877:35975   */\n    tag_393:\n        /* \"#utility.yul\":35928:35934   */\n      0x00\n        /* \"#utility.yul\":35962:35967   */\n      dup2\n        /* \"#utility.yul\":35956:35968   */\n      mload\n        /* \"#utility.yul\":35946:35968   */\n      swap1\n      pop\n        /* \"#utility.yul\":35877:35975   */\n      swap2\n      swap1\n      pop\n      jump\t// out\n        /* \"#utility.yul\":35981:36288   */\n    tag_394:\n        /* \"#utility.yul\":36049:36050   */\n      0x00\n        /* \"#utility.yul\":36059:36172   */\n    tag_713:\n        /* \"#utility.yul\":36073:36079   */\n      dup4\n        /* \"#utility.yul\":36070:36071   */\n      dup2\n        /* \"#utility.yul\":36067:36080   */\n      lt\n        /* \"#utility.yul\":36059:36172   */\n      iszero\n      tag_715\n      jumpi\n        /* \"#utility.yul\":36158:36159   */\n      dup1\n        /* \"#utility.yul\":36153:36156   */\n      dup3\n        /* \"#utility.yul\":36149:36160   */\n      add\n        /* \"#utility.yul\":36143:36161   */\n      mload\n        /* \"#utility.yul\":36139:36140   */\n      dup2\n        /* \"#utility.yul\":36134:36137   */\n      dup5\n        /* \"#utility.yul\":36130:36141   */\n      add\n        /* \"#utility.yul\":36123:36162   */\n      mstore\n        /* \"#utility.yul\":36095:36097   */\n      0x20\n        /* \"#utility.yul\":36092:36093   */\n      dup2\n        /* \"#utility.yul\":36088:36098   */\n      add\n        /* \"#utility.yul\":36083:36098   */\n      swap1\n      pop\n        /* \"#utility.yul\":36059:36172   */\n      jump(tag_713)\n    tag_715:\n        /* \"#utility.yul\":36190:36196   */\n      dup4\n        /* \"#utility.yul\":36187:36188   */\n      dup2\n        /* \"#utility.yul\":36184:36197   */\n      gt\n        /* \"#utility.yul\":36181:36282   */\n      iszero\n      tag_716\n      jumpi\n        /* \"#utility.yul\":36270:36271   */\n      0x00\n        /* \"#utility.yul\":36261:36267   */\n      dup5\n        /* \"#utility.yul\":36256:36259   */\n      dup5\n        /* \"#utility.yul\":36252:36268   */\n      add\n        /* \"#utility.yul\":36245:36272   */\n      mstore\n        /* \"#utility.yul\":36181:36282   */\n    tag_716:\n        /* \"#utility.yul\":36030:36288   */\n      pop\n        /* \"#utility.yul\":35981:36288   */\n      pop\n      pop\n      pop\n      jump\t// out\n        /* \"#utility.yul\":36294:36667   */\n    tag_395:\n        /* \"#utility.yul\":36398:36401   */\n      0x00\n        /* \"#utility.yul\":36426:36464   */\n      tag_718\n        /* \"#utility.yul\":36458:36463   */\n      dup3\n        /* \"#utility.yul\":36426:36464   */\n      tag_393\n      jump\t// in\n    tag_718:\n        /* \"#utility.yul\":36480:36568   */\n      tag_719\n        /* \"#utility.yul\":36561:36567   */\n      dup2\n        /* \"#utility.yul\":36556:36559   */\n      dup6\n        /* \"#utility.yul\":36480:36568   */\n      tag_363\n      jump\t// in\n    tag_719:\n        /* \"#utility.yul\":36473:36568   */\n      swap4\n      pop\n        /* \"#utility.yul\":36577:36629   */\n      tag_720\n        /* \"#utility.yul\":36622:36628   */\n      dup2\n        /* \"#utility.yul\":36617:36620   */\n      dup6\n        /* \"#utility.yul\":36610:36614   */\n      0x20\n        /* \"#utility.yul\":36603:36608   */\n      dup7\n        /* \"#utility.yul\":36599:36615   */\n      add\n        /* \"#utility.yul\":36577:36629   */\n      tag_394\n      jump\t// in\n    tag_720:\n        /* \"#utility.yul\":36654:36660   */\n      dup1\n        /* \"#utility.yul\":36649:36652   */\n      dup5\n        /* \"#utility.yul\":36645:36661   */\n      add\n        /* \"#utility.yul\":36638:36661   */\n      swap2\n      pop\n        /* \"#utility.yul\":36402:36667   */\n      pop\n        /* \"#utility.yul\":36294:36667   */\n      swap3\n      swap2\n      pop\n      pop\n      jump\t// out\n        /* \"#utility.yul\":36673:36944   */\n    tag_305:\n        /* \"#utility.yul\":36803:36806   */\n      0x00\n        /* \"#utility.yul\":36825:36918   */\n      tag_722\n        /* \"#utility.yul\":36914:36917   */\n      dup3\n        /* \"#utility.yul\":36905:36911   */\n      dup5\n        /* \"#utility.yul\":36825:36918   */\n      tag_395\n      jump\t// in\n    tag_722:\n        /* \"#utility.yul\":36818:36918   */\n      swap2\n      pop\n        /* \"#utility.yul\":36935:36938   */\n      dup2\n        /* \"#utility.yul\":36928:36938   */\n      swap1\n      pop\n        /* \"#utility.yul\":36673:36944   */\n      swap3\n      swap2\n      pop\n      pop\n      jump\t// out\n        /* \"#utility.yul\":36950:37049   */\n    tag_396:\n        /* \"#utility.yul\":37002:37008   */\n      0x00\n        /* \"#utility.yul\":37036:37041   */\n      dup2\n        /* \"#utility.yul\":37030:37042   */\n      mload\n        /* \"#utility.yul\":37020:37042   */\n      swap1\n      pop\n        /* \"#utility.yul\":36950:37049   */\n      swap2\n      swap1\n      pop\n      jump\t// out\n        /* \"#utility.yul\":37055:37157   */\n    tag_397:\n        /* \"#utility.yul\":37096:37102   */\n      0x00\n        /* \"#utility.yul\":37147:37149   */\n      0x1f\n        /* \"#utility.yul\":37143:37150   */\n      not\n        /* \"#utility.yul\":37138:37140   */\n      0x1f\n        /* \"#utility.yul\":37131:37136   */\n      dup4\n        /* \"#utility.yul\":37127:37141   */\n      add\n        /* \"#utility.yul\":37123:37151   */\n      and\n        /* \"#utility.yul\":37113:37151   */\n      swap1\n      pop\n        /* \"#utility.yul\":37055:37157   */\n      swap2\n      swap1\n      pop\n      jump\t// out\n        /* \"#utility.yul\":37163:37527   */\n    tag_398:\n        /* \"#utility.yul\":37251:37254   */\n      0x00\n        /* \"#utility.yul\":37279:37318   */\n      tag_726\n        /* \"#utility.yul\":37312:37317   */\n      dup3\n        /* \"#utility.yul\":37279:37318   */\n      tag_396\n      jump\t// in\n    tag_726:\n        /* \"#utility.yul\":37334:37405   */\n      tag_727\n        /* \"#utility.yul\":37398:37404   */\n      dup2\n        /* \"#utility.yul\":37393:37396   */\n      dup6\n        /* \"#utility.yul\":37334:37405   */\n      tag_341\n      jump\t// in\n    tag_727:\n        /* \"#utility.yul\":37327:37405   */\n      swap4\n      pop\n        /* \"#utility.yul\":37414:37466   */\n      tag_728\n        /* \"#utility.yul\":37459:37465   */\n      dup2\n        /* \"#utility.yul\":37454:37457   */\n      dup6\n        /* \"#utility.yul\":37447:37451   */\n      0x20\n        /* \"#utility.yul\":37440:37445   */\n      dup7\n        /* \"#utility.yul\":37436:37452   */\n      add\n        /* \"#utility.yul\":37414:37466   */\n      tag_394\n      jump\t// in\n    tag_728:\n        /* \"#utility.yul\":37491:37520   */\n      tag_729\n        /* \"#utility.yul\":37513:37519   */\n      dup2\n        /* \"#utility.yul\":37491:37520   */\n      tag_397\n      jump\t// in\n    tag_729:\n        /* \"#utility.yul\":37486:37489   */\n      dup5\n        /* \"#utility.yul\":37482:37521   */\n      add\n        /* \"#utility.yul\":37475:37521   */\n      swap2\n      pop\n        /* \"#utility.yul\":37255:37527   */\n      pop\n        /* \"#utility.yul\":37163:37527   */\n      swap3\n      swap2\n      pop\n      pop\n      jump\t// out\n        /* \"#utility.yul\":37533:37846   */\n    tag_318:\n        /* \"#utility.yul\":37646:37650   */\n      0x00\n        /* \"#utility.yul\":37684:37686   */\n      0x20\n        /* \"#utility.yul\":37673:37682   */\n      dup3\n        /* \"#utility.yul\":37669:37687   */\n      add\n        /* \"#utility.yul\":37661:37687   */\n      swap1\n      pop\n        /* \"#utility.yul\":37733:37742   */\n      dup2\n        /* \"#utility.yul\":37727:37731   */\n      dup2\n        /* \"#utility.yul\":37723:37743   */\n      sub\n        /* \"#utility.yul\":37719:37720   */\n      0x00\n        /* \"#utility.yul\":37708:37717   */\n      dup4\n        /* \"#utility.yul\":37704:37721   */\n      add\n        /* \"#utility.yul\":37697:37744   */\n      mstore\n        /* \"#utility.yul\":37761:37839   */\n      tag_731\n        /* \"#utility.yul\":37834:37838   */\n      dup2\n        /* \"#utility.yul\":37825:37831   */\n      dup5\n        /* \"#utility.yul\":37761:37839   */\n      tag_398\n      jump\t// in\n    tag_731:\n        /* \"#utility.yul\":37753:37839   */\n      swap1\n      pop\n        /* \"#utility.yul\":37533:37846   */\n      swap3\n      swap2\n      pop\n      pop\n      jump\t// out\n\n    auxdata: 0xa26469706673582212202ae5c99e079c4228614415385894b5325abd24ceab58d50d5f36d5bd85de61e864736f6c63430008090033\n}\n",
				"bytecode": {
					"linkReferences": {},
					"object": "608060405260006002553480156200001657600080fd5b50620000376200002b6200008d60201b60201c565b6200009560201b60201c565b620000476200008d60201b60201c565b600460006101000a81548173ffffffffffffffffffffffffffffffffffffffff021916908373ffffffffffffffffffffffffffffffffffffffff16021790555062000159565b600033905090565b60008060009054906101000a900473ffffffffffffffffffffffffffffffffffffffff169050816000806101000a81548173ffffffffffffffffffffffffffffffffffffffff021916908373ffffffffffffffffffffffffffffffffffffffff1602179055508173ffffffffffffffffffffffffffffffffffffffff168173ffffffffffffffffffffffffffffffffffffffff167f8be0079c531659141344cd1fd0a4f28419497f9722a3daafe3b4186f6b6457e060405160405180910390a35050565b612eab80620001696000396000f3fe6080604052600436106100f75760003560e01c8063715018a61161008a578063b1f6beaf11610059578063b1f6beaf146102df578063b451192d14610308578063dd644f7214610331578063f2fde38b1461035c576100fe565b8063715018a61461025d578063742c81e4146102745780638da5cb5b1461028b578063af1df20f146102b6576100fe565b8063497b32d7116100c6578063497b32d7146101c25780635e5e7fa1146101ed5780635fdf2be01461020957806369f3331d14610232576100fe565b806305d06f5a1461010357806336bdcab8146101405780633c64f04b1461016957806346ce4a94146101a6576100fe565b366100fe57005b600080fd5b34801561010f57600080fd5b5061012a60048036038101906101259190611c0b565b610385565b6040516101379190611c51565b60405180910390f35b34801561014c57600080fd5b5061016760048036038101906101629190611c98565b61039d565b005b34801561017557600080fd5b50610190600480360381019061018b9190611d0e565b61047a565b60405161019d9190611db2565b60405180910390f35b6101c060048036038101906101bb9190611e0d565b61049a565b005b3480156101ce57600080fd5b506101d7610577565b6040516101e49190611f10565b60405180910390f35b61020760048036038101906102029190611f2b565b61059d565b005b34801561021557600080fd5b50610230600480360381019061022b9190611ff5565b610673565b005b34801561023e57600080fd5b50610247610712565b6040516102549190611f10565b60405180910390f35b34801561026957600080fd5b50610272610738565b005b34801561028057600080fd5b506102896107d9565b005b34801561029757600080fd5b506102a0610897565b6040516102ad9190611f10565b60405180910390f35b3480156102c257600080fd5b506102dd60048036038101906102d89190612022565b6108bb565b005b3480156102eb57600080fd5b50610306600480360381019061030191906120c4565b610c15565b005b34801561031457600080fd5b5061032f600480360381019061032a9190611c0b565b6111dd565b005b34801561033d57600080fd5b506103466112b6565b6040516103539190611c51565b60405180910390f35b34801561036857600080fd5b50610383600480360381019061037e9190611c0b565b6112bc565b005b60036020528060005260406000206000915090505481565b6103a5611405565b73ffffffffffffffffffffffffffffffffffffffff1660008054906101000a900473ffffffffffffffffffffffffffffffffffffffff1673ffffffffffffffffffffffffffffffffffffffff1614610432576040517f08c379a0000000000000000000000000000000000000000000000000000000008152600401610429906121d7565b60405180910390fd5b80600360008473ffffffffffffffffffffffffffffffffffffffff1673ffffffffffffffffffffffffffffffffffffffff168152602001908152602001600020819055505050565b60056020528060005260406000206000915054906101000a900460ff1681565b8a73ffffffffffffffffffffffffffffffffffffffff163373ffffffffffffffffffffffffffffffffffffffff1614610508576040517f08c379a00000000000000000000000000000000000000000000000000000000081526004016104ff90612243565b60405180910390fd5b600061051a8c8c8c8c60008d8d61140d565b90507f573e213380faa927b1c1335457fe327e653e0604ed6a2c2f878f06a042896511818d8d8d8d8d8d8d8d8d8d8d6040516105619c9b9a99989796959493929190612281565b60405180910390a1505050505050505050505050565b600460009054906101000a900473ffffffffffffffffffffffffffffffffffffffff1681565b8873ffffffffffffffffffffffffffffffffffffffff163373ffffffffffffffffffffffffffffffffffffffff161461060b576040517f08c379a000000000000000000000000000000000000000000000000000000000815260040161060290612243565b60405180910390fd5b600061061c8a8a8a8a8a8a8a61140d565b90507f48e8c25194d6eb9633068bb38aea36f72e1c4b4d6e892ff556b8a63a803c2fd0818b8b8b8b8b8b8b8b8b60405161065f9a9998979695949392919061233b565b60405180910390a150505050505050505050565b61067b611405565b73ffffffffffffffffffffffffffffffffffffffff1660008054906101000a900473ffffffffffffffffffffffffffffffffffffffff1673ffffffffffffffffffffffffffffffffffffffff1614610708576040517f08c379a00000000000000000000000000000000000000000000000000000000081526004016106ff906121d7565b60405180910390fd5b8060028190555050565b600160009054906101000a900473ffffffffffffffffffffffffffffffffffffffff1681565b610740611405565b73ffffffffffffffffffffffffffffffffffffffff1660008054906101000a900473ffffffffffffffffffffffffffffffffffffffff1673ffffffffffffffffffffffffffffffffffffffff16146107cd576040517f08c379a00000000000000000000000000000000000000000000000000000000081526004016107c4906121d7565b60405180910390fd5b6107d760006116d1565b565b3373ffffffffffffffffffffffffffffffffffffffff16600160009054906101000a900473ffffffffffffffffffffffffffffffffffffffff1673ffffffffffffffffffffffffffffffffffffffff161461083357600080fd5b600160009054906101000a900473ffffffffffffffffffffffffffffffffffffffff166000806101000a81548173ffffffffffffffffffffffffffffffffffffffff021916908373ffffffffffffffffffffffffffffffffffffffff160217905550565b60008054906101000a900473ffffffffffffffffffffffffffffffffffffffff1681565b600087878484898989466040516020016108dc989796959493929190612497565b60405160208183030381529060405280519060200120905060006005600083815260200190815260200160002060009054906101000a900460ff1690506001600381111561092d5761092c611d3b565b5b8160038111156109405761093f611d3b565b5b14610980576040517f08c379a000000000000000000000000000000000000000000000000000000000815260040161097790612575565b60405180910390fd5b428367ffffffffffffffff1611156109cd576040517f08c379a00000000000000000000000000000000000000000000000000000000081526004016109c4906125e1565b60405180910390fd5b60036005600084815260200190815260200160002060006101000a81548160ff02191690836003811115610a0457610a03611d3b565b5b0217905550600073ffffffffffffffffffffffffffffffffffffffff168773ffffffffffffffffffffffffffffffffffffffff161415610af05760008973ffffffffffffffffffffffffffffffffffffffff1687604051610a6490612632565b60006040518083038185875af1925050503d8060008114610aa1576040519150601f19603f3d011682016040523d82523d6000602084013e610aa6565b606091505b5050905080610aea576040517f08c379a0000000000000000000000000000000000000000000000000000000008152600401610ae190612693565b60405180910390fd5b50610bd3565b610b1b89878973ffffffffffffffffffffffffffffffffffffffff166117959092919063ffffffff16565b6000851115610bd25760008973ffffffffffffffffffffffffffffffffffffffff1686604051610b4a90612632565b60006040518083038185875af1925050503d8060008114610b87576040519150601f19603f3d011682016040523d82523d6000602084013e610b8c565b606091505b5050905080610bd0576040517f08c379a0000000000000000000000000000000000000000000000000000000008152600401610bc790612693565b60405180910390fd5b505b5b7f70a8f332cabb778f79acc5b97cbb4543970a2f1a34bd0773e4b3012931f752dc82604051610c0291906126b3565b60405180910390a1505050505050505050565b6000888885858a8a8a46604051602001610c36989796959493929190612497565b60405160208183030381529060405280519060200120905060006005600083815260200190815260200160002060009054906101000a900460ff16905060016003811115610c8757610c86611d3b565b5b816003811115610c9a57610c99611d3b565b5b14610cda576040517f08c379a0000000000000000000000000000000000000000000000000000000008152600401610cd190612575565b60405180910390fd5b82604051602001610ceb91906126ce565b604051602081830303815290604052805190602001208514610d42576040517f08c379a0000000000000000000000000000000000000000000000000000000008152600401610d3990612735565b60405180910390fd5b60026005600084815260200190815260200160002060006101000a81548160ff02191690836003811115610d7957610d78611d3b565b5b0217905550600073ffffffffffffffffffffffffffffffffffffffff168873ffffffffffffffffffffffffffffffffffffffff161415610f59576000610dbf898961181b565b905060008189610dcf9190612784565b90506000808c73ffffffffffffffffffffffffffffffffffffffff1683604051610df890612632565b60006040518083038185875af1925050503d8060008114610e35576040519150601f19603f3d011682016040523d82523d6000602084013e610e3a565b606091505b509150915081610e7f576040517f08c379a0000000000000000000000000000000000000000000000000000000008152600401610e7690612693565b60405180910390fd5b600460009054906101000a900473ffffffffffffffffffffffffffffffffffffffff1673ffffffffffffffffffffffffffffffffffffffff1684604051610ec590612632565b60006040518083038185875af1925050503d8060008114610f02576040519150601f19603f3d011682016040523d82523d6000602084013e610f07565b606091505b50809250819350505081610f50576040517f08c379a0000000000000000000000000000000000000000000000000000000008152600401610f4790612693565b60405180910390fd5b50505050611198565b6000610f65898961181b565b905060008189610f759190612784565b9050610fa28b828c73ffffffffffffffffffffffffffffffffffffffff166117959092919063ffffffff16565b610fef600460009054906101000a900473ffffffffffffffffffffffffffffffffffffffff16838c73ffffffffffffffffffffffffffffffffffffffff166117959092919063ffffffff16565b60008811156111955761100360008961181b565b915081886110119190612784565b90506000808c73ffffffffffffffffffffffffffffffffffffffff168360405161103a90612632565b60006040518083038185875af1925050503d8060008114611077576040519150601f19603f3d011682016040523d82523d6000602084013e61107c565b606091505b5091509150816110c1576040517f08c379a00000000000000000000000000000000000000000000000000000000081526004016110b890612693565b60405180910390fd5b600460009054906101000a900473ffffffffffffffffffffffffffffffffffffffff1673ffffffffffffffffffffffffffffffffffffffff168460405161110790612632565b60006040518083038185875af1925050503d8060008114611144576040519150601f19603f3d011682016040523d82523d6000602084013e611149565b606091505b50809250819350505081611192576040517f08c379a000000000000000000000000000000000000000000000000000000000815260040161118990612693565b60405180910390fd5b50505b50505b7fb7ae890c7a4721f7ed769dabfeee74f0e0f5bcdaad9cab432ccea4d9fa435b5082846040516111c99291906127b8565b60405180910390a150505050505050505050565b6111e5611405565b73ffffffffffffffffffffffffffffffffffffffff1660008054906101000a900473ffffffffffffffffffffffffffffffffffffffff1673ffffffffffffffffffffffffffffffffffffffff1614611272576040517f08c379a0000000000000000000000000000000000000000000000000000000008152600401611269906121d7565b60405180910390fd5b80600460006101000a81548173ffffffffffffffffffffffffffffffffffffffff021916908373ffffffffffffffffffffffffffffffffffffffff16021790555050565b60025481565b6112c4611405565b73ffffffffffffffffffffffffffffffffffffffff1660008054906101000a900473ffffffffffffffffffffffffffffffffffffffff1673ffffffffffffffffffffffffffffffffffffffff1614611351576040517f08c379a0000000000000000000000000000000000000000000000000000000008152600401611348906121d7565b60405180910390fd5b600073ffffffffffffffffffffffffffffffffffffffff168173ffffffffffffffffffffffffffffffffffffffff1614156113c1576040517f08c379a00000000000000000000000000000000000000000000000000000000081526004016113b89061282d565b60405180910390fd5b80600160006101000a81548173ffffffffffffffffffffffffffffffffffffffff021916908373ffffffffffffffffffffffffffffffffffffffff16021790555050565b600033905090565b6000808511611451576040517f08c379a000000000000000000000000000000000000000000000000000000000815260040161144890612899565b60405180910390fd5b428267ffffffffffffffff161161149d576040517f08c379a000000000000000000000000000000000000000000000000000000000815260040161149490612905565b60405180910390fd5b87878484898989466040516020016114bc989796959493929190612497565b604051602081830303815290604052805190602001209050600060038111156114e8576114e7611d3b565b5b6005600083815260200190815260200160002060009054906101000a900460ff16600381111561151b5761151a611d3b565b5b1461155b576040517f08c379a000000000000000000000000000000000000000000000000000000000815260040161155290612971565b60405180910390fd5b600073ffffffffffffffffffffffffffffffffffffffff168673ffffffffffffffffffffffffffffffffffffffff16141561161a57600084146115d3576040517f08c379a00000000000000000000000000000000000000000000000000000000081526004016115ca906129dd565b60405180910390fd5b348514611615576040517f08c379a000000000000000000000000000000000000000000000000000000000815260040161160c90612a49565b60405180910390fd5b61168a565b34841461165c576040517f08c379a000000000000000000000000000000000000000000000000000000000815260040161165390612a49565b60405180910390fd5b6116898830878973ffffffffffffffffffffffffffffffffffffffff166118a2909392919063ffffffff16565b5b60016005600083815260200190815260200160002060006101000a81548160ff021916908360038111156116c1576116c0611d3b565b5b0217905550979650505050505050565b60008060009054906101000a900473ffffffffffffffffffffffffffffffffffffffff169050816000806101000a81548173ffffffffffffffffffffffffffffffffffffffff021916908373ffffffffffffffffffffffffffffffffffffffff1602179055508173ffffffffffffffffffffffffffffffffffffffff168173ffffffffffffffffffffffffffffffffffffffff167f8be0079c531659141344cd1fd0a4f28419497f9722a3daafe3b4186f6b6457e060405160405180910390a35050565b6118168363a9059cbb60e01b84846040516024016117b4929190612a69565b604051602081830303815290604052907bffffffffffffffffffffffffffffffffffffffffffffffffffffffff19166020820180517bffffffffffffffffffffffffffffffffffffffffffffffffffffffff838183161783525050505061192b565b505050565b6000806127106002548461182f9190612a92565b6118399190612b1b565b90506000600360008673ffffffffffffffffffffffffffffffffffffffff1673ffffffffffffffffffffffffffffffffffffffff16815260200190815260200160002054905060008111801561188e57508082115b15611897578091505b819250505092915050565b611925846323b872dd60e01b8585856040516024016118c393929190612b4c565b604051602081830303815290604052907bffffffffffffffffffffffffffffffffffffffffffffffffffffffff19166020820180517bffffffffffffffffffffffffffffffffffffffffffffffffffffffff838183161783525050505061192b565b50505050565b600061198d826040518060400160405280602081526020017f5361666545524332303a206c6f772d6c6576656c2063616c6c206661696c65648152508573ffffffffffffffffffffffffffffffffffffffff166119f29092919063ffffffff16565b90506000815111156119ed57808060200190518101906119ad9190612bbb565b6119ec576040517f08c379a00000000000000000000000000000000000000000000000000000000081526004016119e390612c5a565b60405180910390fd5b5b505050565b6060611a018484600085611a0a565b90509392505050565b606082471015611a4f576040517f08c379a0000000000000000000000000000000000000000000000000000000008152600401611a4690612cec565b60405180910390fd5b611a5885611b1e565b611a97576040517f08c379a0000000000000000000000000000000000000000000000000000000008152600401611a8e90612d58565b60405180910390fd5b6000808673ffffffffffffffffffffffffffffffffffffffff168587604051611ac09190612de7565b60006040518083038185875af1925050503d8060008114611afd576040519150601f19603f3d011682016040523d82523d6000602084013e611b02565b606091505b5091509150611b12828286611b41565b92505050949350505050565b6000808273ffffffffffffffffffffffffffffffffffffffff163b119050919050565b60608315611b5157829050611ba1565b600083511115611b645782518084602001fd5b816040517f08c379a0000000000000000000000000000000000000000000000000000000008152600401611b989190612e53565b60405180910390fd5b9392505050565b600080fd5b600073ffffffffffffffffffffffffffffffffffffffff82169050919050565b6000611bd882611bad565b9050919050565b611be881611bcd565b8114611bf357600080fd5b50565b600081359050611c0581611bdf565b92915050565b600060208284031215611c2157611c20611ba8565b5b6000611c2f84828501611bf6565b91505092915050565b6000819050919050565b611c4b81611c38565b82525050565b6000602082019050611c666000830184611c42565b92915050565b611c7581611c38565b8114611c8057600080fd5b50565b600081359050611c9281611c6c565b92915050565b60008060408385031215611caf57611cae611ba8565b5b6000611cbd85828601611bf6565b9250506020611cce85828601611c83565b9150509250929050565b6000819050919050565b611ceb81611cd8565b8114611cf657600080fd5b50565b600081359050611d0881611ce2565b92915050565b600060208284031215611d2457611d23611ba8565b5b6000611d3284828501611cf9565b91505092915050565b7f4e487b7100000000000000000000000000000000000000000000000000000000600052602160045260246000fd5b60048110611d7b57611d7a611d3b565b5b50565b6000819050611d8c82611d6a565b919050565b6000611d9c82611d7e565b9050919050565b611dac81611d91565b82525050565b6000602082019050611dc76000830184611da3565b92915050565b600067ffffffffffffffff82169050919050565b611dea81611dcd565b8114611df557600080fd5b50565b600081359050611e0781611de1565b92915050565b60008060008060008060008060008060006101608c8e031215611e3357611e32611ba8565b5b6000611e418e828f01611bf6565b9b50506020611e528e828f01611bf6565b9a50506040611e638e828f01611bf6565b9950506060611e748e828f01611c83565b9850506080611e858e828f01611cf9565b97505060a0611e968e828f01611df8565b96505060c0611ea78e828f01611df8565b95505060e0611eb88e828f01611c83565b945050610100611eca8e828f01611df8565b935050610120611edc8e828f01611c83565b925050610140611eee8e828f01611c83565b9150509295989b509295989b9093969950565b611f0a81611bcd565b82525050565b6000602082019050611f256000830184611f01565b92915050565b60008060008060008060008060006101208a8c031215611f4e57611f4d611ba8565b5b6000611f5c8c828d01611bf6565b9950506020611f6d8c828d01611bf6565b9850506040611f7e8c828d01611bf6565b9750506060611f8f8c828d01611c83565b9650506080611fa08c828d01611c83565b95505060a0611fb18c828d01611cf9565b94505060c0611fc28c828d01611df8565b93505060e0611fd38c828d01611df8565b925050610100611fe58c828d01611cf9565b9150509295985092959850929598565b60006020828403121561200b5761200a611ba8565b5b600061201984828501611c83565b91505092915050565b600080600080600080600060e0888a03121561204157612040611ba8565b5b600061204f8a828b01611bf6565b97505060206120608a828b01611bf6565b96505060406120718a828b01611bf6565b95505060606120828a828b01611c83565b94505060806120938a828b01611c83565b93505060a06120a48a828b01611cf9565b92505060c06120b58a828b01611df8565b91505092959891949750929550565b600080600080600080600080610100898b0312156120e5576120e4611ba8565b5b60006120f38b828c01611bf6565b98505060206121048b828c01611bf6565b97505060406121158b828c01611bf6565b96505060606121268b828c01611c83565b95505060806121378b828c01611c83565b94505060a06121488b828c01611cf9565b93505060c06121598b828c01611df8565b92505060e061216a8b828c01611cf9565b9150509295985092959890939650565b600082825260208201905092915050565b7f4f776e61626c653a2063616c6c6572206973206e6f7420746865206f776e6572600082015250565b60006121c160208361217a565b91506121cc8261218b565b602082019050919050565b600060208201905081810360008301526121f0816121b4565b9050919050565b7f726571756972652073656e646572000000000000000000000000000000000000600082015250565b600061222d600e8361217a565b9150612238826121f7565b602082019050919050565b6000602082019050818103600083015261225c81612220565b9050919050565b61226c81611cd8565b82525050565b61227b81611dcd565b82525050565b600061018082019050612297600083018f612263565b6122a4602083018e611f01565b6122b1604083018d611f01565b6122be606083018c611f01565b6122cb608083018b611c42565b6122d860a083018a612263565b6122e560c0830189612272565b6122f260e0830188612272565b612300610100830187611c42565b61230e610120830186612272565b61231c610140830185611c42565b61232a610160830184611c42565b9d9c50505050505050505050505050565b600061014082019050612351600083018d612263565b61235e602083018c611f01565b61236b604083018b611f01565b612378606083018a611f01565b6123856080830189611c42565b61239260a0830188611c42565b61239f60c0830187612263565b6123ac60e0830186612272565b6123ba610100830185612272565b6123c8610120830184612263565b9b9a5050505050505050505050565b60008160601b9050919050565b60006123ef826123d7565b9050919050565b6000612401826123e4565b9050919050565b61241961241482611bcd565b6123f6565b82525050565b6000819050919050565b61243a61243582611cd8565b61241f565b82525050565b60008160c01b9050919050565b600061245882612440565b9050919050565b61247061246b82611dcd565b61244d565b82525050565b6000819050919050565b61249161248c82611c38565b612476565b82525050565b60006124a3828b612408565b6014820191506124b3828a612408565b6014820191506124c38289612429565b6020820191506124d3828861245f565b6008820191506124e38287612408565b6014820191506124f38286612480565b6020820191506125038285612480565b6020820191506125138284612480565b6020820191508190509998505050505050505050565b7f6e6f742070656e64696e67207472616e73666572000000000000000000000000600082015250565b600061255f60148361217a565b915061256a82612529565b602082019050919050565b6000602082019050818103600083015261258e81612552565b9050919050565b7f74696d656c6f636b206e6f742079657420706173736564000000000000000000600082015250565b60006125cb60178361217a565b91506125d682612595565b602082019050919050565b600060208201905081810360008301526125fa816125be565b9050919050565b600081905092915050565b50565b600061261c600083612601565b91506126278261260c565b600082019050919050565b600061263d8261260f565b9150819050919050565b7f4661696c656420746f2073656e64204574686572000000000000000000000000600082015250565b600061267d60148361217a565b915061268882612647565b602082019050919050565b600060208201905081810360008301526126ac81612670565b9050919050565b60006020820190506126c86000830184612263565b92915050565b60006126da8284612429565b60208201915081905092915050565b7f696e636f727265637420707265696d6167650000000000000000000000000000600082015250565b600061271f60128361217a565b915061272a826126e9565b602082019050919050565b6000602082019050818103600083015261274e81612712565b9050919050565b7f4e487b7100000000000000000000000000000000000000000000000000000000600052601160045260246000fd5b600061278f82611c38565b915061279a83611c38565b9250828210156127ad576127ac612755565b5b828203905092915050565b60006040820190506127cd6000830185612263565b6127da6020830184612263565b9392505050565b7f416464726573732073686f756c64206e6f742062652030780000000000000000600082015250565b600061281760188361217a565b9150612822826127e1565b602082019050919050565b600060208201905081810360008301526128468161280a565b9050919050565b7f696e76616c696420616d6f756e74000000000000000000000000000000000000600082015250565b6000612883600e8361217a565b915061288e8261284d565b602082019050919050565b600060208201905081810360008301526128b281612876565b9050919050565b7f696e76616c69642074696d656c6f636b00000000000000000000000000000000600082015250565b60006128ef60108361217a565b91506128fa826128b9565b602082019050919050565b6000602082019050818103600083015261291e816128e2565b9050919050565b7f7472616e73666572206578697374730000000000000000000000000000000000600082015250565b600061295b600f8361217a565b915061296682612925565b602082019050919050565b6000602082019050818103600083015261298a8161294e565b9050919050565b7f45746820416d6f756e742073686f756c64207a65726f00000000000000000000600082015250565b60006129c760168361217a565b91506129d282612991565b602082019050919050565b600060208201905081810360008301526129f6816129ba565b9050919050565b7f45746820416d6f756e74206d69736d6174636800000000000000000000000000600082015250565b6000612a3360138361217a565b9150612a3e826129fd565b602082019050919050565b60006020820190508181036000830152612a6281612a26565b9050919050565b6000604082019050612a7e6000830185611f01565b612a8b6020830184611c42565b9392505050565b6000612a9d82611c38565b9150612aa883611c38565b9250817fffffffffffffffffffffffffffffffffffffffffffffffffffffffffffffffff0483118215151615612ae157612ae0612755565b5b828202905092915050565b7f4e487b7100000000000000000000000000000000000000000000000000000000600052601260045260246000fd5b6000612b2682611c38565b9150612b3183611c38565b925082612b4157612b40612aec565b5b828204905092915050565b6000606082019050612b616000830186611f01565b612b6e6020830185611f01565b612b7b6040830184611c42565b949350505050565b60008115159050919050565b612b9881612b83565b8114612ba357600080fd5b50565b600081519050612bb581612b8f565b92915050565b600060208284031215612bd157612bd0611ba8565b5b6000612bdf84828501612ba6565b91505092915050565b7f5361666545524332303a204552433230206f7065726174696f6e20646964206e60008201527f6f74207375636365656400000000000000000000000000000000000000000000602082015250565b6000612c44602a8361217a565b9150612c4f82612be8565b604082019050919050565b60006020820190508181036000830152612c7381612c37565b9050919050565b7f416464726573733a20696e73756666696369656e742062616c616e636520666f60008201527f722063616c6c0000000000000000000000000000000000000000000000000000602082015250565b6000612cd660268361217a565b9150612ce182612c7a565b604082019050919050565b60006020820190508181036000830152612d0581612cc9565b9050919050565b7f416464726573733a2063616c6c20746f206e6f6e2d636f6e7472616374000000600082015250565b6000612d42601d8361217a565b9150612d4d82612d0c565b602082019050919050565b60006020820190508181036000830152612d7181612d35565b9050919050565b600081519050919050565b60005b83811015612da1578082015181840152602081019050612d86565b83811115612db0576000848401525b50505050565b6000612dc182612d78565b612dcb8185612601565b9350612ddb818560208601612d83565b80840191505092915050565b6000612df38284612db6565b915081905092915050565b600081519050919050565b6000601f19601f8301169050919050565b6000612e2582612dfe565b612e2f818561217a565b9350612e3f818560208601612d83565b612e4881612e09565b840191505092915050565b60006020820190508181036000830152612e6d8184612e1a565b90509291505056fea26469706673582212202ae5c99e079c4228614415385894b5325abd24ceab58d50d5f36d5bd85de61e864736f6c63430008090033",
					"opcodes": "PUSH1 0x80 PUSH1 0x40 MSTORE PUSH1 0x0 PUSH1 0x2 SSTORE CALLVALUE DUP1 ISZERO PUSH3 0x16 JUMPI PUSH1 0x0 DUP1 REVERT JUMPDEST POP PUSH3 0x37 PUSH3 0x2B PUSH3 0x8D PUSH1 0x20 SHL PUSH1 0x20 SHR JUMP JUMPDEST PUSH3 0x95 PUSH1 0x20 SHL PUSH1 0x20 SHR JUMP JUMPDEST PUSH3 0x47 PUSH3 0x8D PUSH1 0x20 SHL PUSH1 0x20 SHR JUMP JUMPDEST PUSH1 0x4 PUSH1 0x0 PUSH2 0x100 EXP DUP2 SLOAD DUP2 PUSH20 0xFFFFFFFFFFFFFFFFFFFFFFFFFFFFFFFFFFFFFFFF MUL NOT AND SWAP1 DUP4 PUSH20 0xFFFFFFFFFFFFFFFFFFFFFFFFFFFFFFFFFFFFFFFF AND MUL OR SWAP1 SSTORE POP PUSH3 0x159 JUMP JUMPDEST PUSH1 0x0 CALLER SWAP1 POP SWAP1 JUMP JUMPDEST PUSH1 0x0 DUP1 PUSH1 0x0 SWAP1 SLOAD SWAP1 PUSH2 0x100 EXP SWAP1 DIV PUSH20 0xFFFFFFFFFFFFFFFFFFFFFFFFFFFFFFFFFFFFFFFF AND SWAP1 POP DUP2 PUSH1 0x0 DUP1 PUSH2 0x100 EXP DUP2 SLOAD DUP2 PUSH20 0xFFFFFFFFFFFFFFFFFFFFFFFFFFFFFFFFFFFFFFFF MUL NOT AND SWAP1 DUP4 PUSH20 0xFFFFFFFFFFFFFFFFFFFFFFFFFFFFFFFFFFFFFFFF AND MUL OR SWAP1 SSTORE POP DUP2 PUSH20 0xFFFFFFFFFFFFFFFFFFFFFFFFFFFFFFFFFFFFFFFF AND DUP2 PUSH20 0xFFFFFFFFFFFFFFFFFFFFFFFFFFFFFFFFFFFFFFFF AND PUSH32 0x8BE0079C531659141344CD1FD0A4F28419497F9722A3DAAFE3B4186F6B6457E0 PUSH1 0x40 MLOAD PUSH1 0x40 MLOAD DUP1 SWAP2 SUB SWAP1 LOG3 POP POP JUMP JUMPDEST PUSH2 0x2EAB DUP1 PUSH3 0x169 PUSH1 0x0 CODECOPY PUSH1 0x0 RETURN INVALID PUSH1 0x80 PUSH1 0x40 MSTORE PUSH1 0x4 CALLDATASIZE LT PUSH2 0xF7 JUMPI PUSH1 0x0 CALLDATALOAD PUSH1 0xE0 SHR DUP1 PUSH4 0x715018A6 GT PUSH2 0x8A JUMPI DUP1 PUSH4 0xB1F6BEAF GT PUSH2 0x59 JUMPI DUP1 PUSH4 0xB1F6BEAF EQ PUSH2 0x2DF JUMPI DUP1 PUSH4 0xB451192D EQ PUSH2 0x308 JUMPI DUP1 PUSH4 0xDD644F72 EQ PUSH2 0x331 JUMPI DUP1 PUSH4 0xF2FDE38B EQ PUSH2 0x35C JUMPI PUSH2 0xFE JUMP JUMPDEST DUP1 PUSH4 0x715018A6 EQ PUSH2 0x25D JUMPI DUP1 PUSH4 0x742C81E4 EQ PUSH2 0x274 JUMPI DUP1 PUSH4 0x8DA5CB5B EQ PUSH2 0x28B JUMPI DUP1 PUSH4 0xAF1DF20F EQ PUSH2 0x2B6 JUMPI PUSH2 0xFE JUMP JUMPDEST DUP1 PUSH4 0x497B32D7 GT PUSH2 0xC6 JUMPI DUP1 PUSH4 0x497B32D7 EQ PUSH2 0x1C2 JUMPI DUP1 PUSH4 0x5E5E7FA1 EQ PUSH2 0x1ED JUMPI DUP1 PUSH4 0x5FDF2BE0 EQ PUSH2 0x209 JUMPI DUP1 PUSH4 0x69F3331D EQ PUSH2 0x232 JUMPI PUSH2 0xFE JUMP JUMPDEST DUP1 PUSH4 0x5D06F5A EQ PUSH2 0x103 JUMPI DUP1 PUSH4 0x36BDCAB8 EQ PUSH2 0x140 JUMPI DUP1 PUSH4 0x3C64F04B EQ PUSH2 0x169 JUMPI DUP1 PUSH4 0x46CE4A94 EQ PUSH2 0x1A6 JUMPI PUSH2 0xFE JUMP JUMPDEST CALLDATASIZE PUSH2 0xFE JUMPI STOP JUMPDEST PUSH1 0x0 DUP1 REVERT JUMPDEST CALLVALUE DUP1 ISZERO PUSH2 0x10F JUMPI PUSH1 0x0 DUP1 REVERT JUMPDEST POP PUSH2 0x12A PUSH1 0x4 DUP1 CALLDATASIZE SUB DUP2 ADD SWAP1 PUSH2 0x125 SWAP2 SWAP1 PUSH2 0x1C0B JUMP JUMPDEST PUSH2 0x385 JUMP JUMPDEST PUSH1 0x40 MLOAD PUSH2 0x137 SWAP2 SWAP1 PUSH2 0x1C51 JUMP JUMPDEST PUSH1 0x40 MLOAD DUP1 SWAP2 SUB SWAP1 RETURN JUMPDEST CALLVALUE DUP1 ISZERO PUSH2 0x14C JUMPI PUSH1 0x0 DUP1 REVERT JUMPDEST POP PUSH2 0x167 PUSH1 0x4 DUP1 CALLDATASIZE SUB DUP2 ADD SWAP1 PUSH2 0x162 SWAP2 SWAP1 PUSH2 0x1C98 JUMP JUMPDEST PUSH2 0x39D JUMP JUMPDEST STOP JUMPDEST CALLVALUE DUP1 ISZERO PUSH2 0x175 JUMPI PUSH1 0x0 DUP1 REVERT JUMPDEST POP PUSH2 0x190 PUSH1 0x4 DUP1 CALLDATASIZE SUB DUP2 ADD SWAP1 PUSH2 0x18B SWAP2 SWAP1 PUSH2 0x1D0E JUMP JUMPDEST PUSH2 0x47A JUMP JUMPDEST PUSH1 0x40 MLOAD PUSH2 0x19D SWAP2 SWAP1 PUSH2 0x1DB2 JUMP JUMPDEST PUSH1 0x40 MLOAD DUP1 SWAP2 SUB SWAP1 RETURN JUMPDEST PUSH2 0x1C0 PUSH1 0x4 DUP1 CALLDATASIZE SUB DUP2 ADD SWAP1 PUSH2 0x1BB SWAP2 SWAP1 PUSH2 0x1E0D JUMP JUMPDEST PUSH2 0x49A JUMP JUMPDEST STOP JUMPDEST CALLVALUE DUP1 ISZERO PUSH2 0x1CE JUMPI PUSH1 0x0 DUP1 REVERT JUMPDEST POP PUSH2 0x1D7 PUSH2 0x577 JUMP JUMPDEST PUSH1 0x40 MLOAD PUSH2 0x1E4 SWAP2 SWAP1 PUSH2 0x1F10 JUMP JUMPDEST PUSH1 0x40 MLOAD DUP1 SWAP2 SUB SWAP1 RETURN JUMPDEST PUSH2 0x207 PUSH1 0x4 DUP1 CALLDATASIZE SUB DUP2 ADD SWAP1 PUSH2 0x202 SWAP2 SWAP1 PUSH2 0x1F2B JUMP JUMPDEST PUSH2 0x59D JUMP JUMPDEST STOP JUMPDEST CALLVALUE DUP1 ISZERO PUSH2 0x215 JUMPI PUSH1 0x0 DUP1 REVERT JUMPDEST POP PUSH2 0x230 PUSH1 0x4 DUP1 CALLDATASIZE SUB DUP2 ADD SWAP1 PUSH2 0x22B SWAP2 SWAP1 PUSH2 0x1FF5 JUMP JUMPDEST PUSH2 0x673 JUMP JUMPDEST STOP JUMPDEST CALLVALUE DUP1 ISZERO PUSH2 0x23E JUMPI PUSH1 0x0 DUP1 REVERT JUMPDEST POP PUSH2 0x247 PUSH2 0x712 JUMP JUMPDEST PUSH1 0x40 MLOAD PUSH2 0x254 SWAP2 SWAP1 PUSH2 0x1F10 JUMP JUMPDEST PUSH1 0x40 MLOAD DUP1 SWAP2 SUB SWAP1 RETURN JUMPDEST CALLVALUE DUP1 ISZERO PUSH2 0x269 JUMPI PUSH1 0x0 DUP1 REVERT JUMPDEST POP PUSH2 0x272 PUSH2 0x738 JUMP JUMPDEST STOP JUMPDEST CALLVALUE DUP1 ISZERO PUSH2 0x280 JUMPI PUSH1 0x0 DUP1 REVERT JUMPDEST POP PUSH2 0x289 PUSH2 0x7D9 JUMP JUMPDEST STOP JUMPDEST CALLVALUE DUP1 ISZERO PUSH2 0x297 JUMPI PUSH1 0x0 DUP1 REVERT JUMPDEST POP PUSH2 0x2A0 PUSH2 0x897 JUMP JUMPDEST PUSH1 0x40 MLOAD PUSH2 0x2AD SWAP2 SWAP1 PUSH2 0x1F10 JUMP JUMPDEST PUSH1 0x40 MLOAD DUP1 SWAP2 SUB SWAP1 RETURN JUMPDEST CALLVALUE DUP1 ISZERO PUSH2 0x2C2 JUMPI PUSH1 0x0 DUP1 REVERT JUMPDEST POP PUSH2 0x2DD PUSH1 0x4 DUP1 CALLDATASIZE SUB DUP2 ADD SWAP1 PUSH2 0x2D8 SWAP2 SWAP1 PUSH2 0x2022 JUMP JUMPDEST PUSH2 0x8BB JUMP JUMPDEST STOP JUMPDEST CALLVALUE DUP1 ISZERO PUSH2 0x2EB JUMPI PUSH1 0x0 DUP1 REVERT JUMPDEST POP PUSH2 0x306 PUSH1 0x4 DUP1 CALLDATASIZE SUB DUP2 ADD SWAP1 PUSH2 0x301 SWAP2 SWAP1 PUSH2 0x20C4 JUMP JUMPDEST PUSH2 0xC15 JUMP JUMPDEST STOP JUMPDEST CALLVALUE DUP1 ISZERO PUSH2 0x314 JUMPI PUSH1 0x0 DUP1 REVERT JUMPDEST POP PUSH2 0x32F PUSH1 0x4 DUP1 CALLDATASIZE SUB DUP2 ADD SWAP1 PUSH2 0x32A SWAP2 SWAP1 PUSH2 0x1C0B JUMP JUMPDEST PUSH2 0x11DD JUMP JUMPDEST STOP JUMPDEST CALLVALUE DUP1 ISZERO PUSH2 0x33D JUMPI PUSH1 0x0 DUP1 REVERT JUMPDEST POP PUSH2 0x346 PUSH2 0x12B6 JUMP JUMPDEST PUSH1 0x40 MLOAD PUSH2 0x353 SWAP2 SWAP1 PUSH2 0x1C51 JUMP JUMPDEST PUSH1 0x40 MLOAD DUP1 SWAP2 SUB SWAP1 RETURN JUMPDEST CALLVALUE DUP1 ISZERO PUSH2 0x368 JUMPI PUSH1 0x0 DUP1 REVERT JUMPDEST POP PUSH2 0x383 PUSH1 0x4 DUP1 CALLDATASIZE SUB DUP2 ADD SWAP1 PUSH2 0x37E SWAP2 SWAP1 PUSH2 0x1C0B JUMP JUMPDEST PUSH2 0x12BC JUMP JUMPDEST STOP JUMPDEST PUSH1 0x3 PUSH1 0x20 MSTORE DUP1 PUSH1 0x0 MSTORE PUSH1 0x40 PUSH1 0x0 KECCAK256 PUSH1 0x0 SWAP2 POP SWAP1 POP SLOAD DUP2 JUMP JUMPDEST PUSH2 0x3A5 PUSH2 0x1405 JUMP JUMPDEST PUSH20 0xFFFFFFFFFFFFFFFFFFFFFFFFFFFFFFFFFFFFFFFF AND PUSH1 0x0 DUP1 SLOAD SWAP1 PUSH2 0x100 EXP SWAP1 DIV PUSH20 0xFFFFFFFFFFFFFFFFFFFFFFFFFFFFFFFFFFFFFFFF AND PUSH20 0xFFFFFFFFFFFFFFFFFFFFFFFFFFFFFFFFFFFFFFFF AND EQ PUSH2 0x432 JUMPI PUSH1 0x40 MLOAD PUSH32 0x8C379A000000000000000000000000000000000000000000000000000000000 DUP2 MSTORE PUSH1 0x4 ADD PUSH2 0x429 SWAP1 PUSH2 0x21D7 JUMP JUMPDEST PUSH1 0x40 MLOAD DUP1 SWAP2 SUB SWAP1 REVERT JUMPDEST DUP1 PUSH1 0x3 PUSH1 0x0 DUP5 PUSH20 0xFFFFFFFFFFFFFFFFFFFFFFFFFFFFFFFFFFFFFFFF AND PUSH20 0xFFFFFFFFFFFFFFFFFFFFFFFFFFFFFFFFFFFFFFFF AND DUP2 MSTORE PUSH1 0x20 ADD SWAP1 DUP2 MSTORE PUSH1 0x20 ADD PUSH1 0x0 KECCAK256 DUP2 SWAP1 SSTORE POP POP POP JUMP JUMPDEST PUSH1 0x5 PUSH1 0x20 MSTORE DUP1 PUSH1 0x0 MSTORE PUSH1 0x40 PUSH1 0x0 KECCAK256 PUSH1 0x0 SWAP2 POP SLOAD SWAP1 PUSH2 0x100 EXP SWAP1 DIV PUSH1 0xFF AND DUP2 JUMP JUMPDEST DUP11 PUSH20 0xFFFFFFFFFFFFFFFFFFFFFFFFFFFFFFFFFFFFFFFF AND CALLER PUSH20 0xFFFFFFFFFFFFFFFFFFFFFFFFFFFFFFFFFFFFFFFF AND EQ PUSH2 0x508 JUMPI PUSH1 0x40 MLOAD PUSH32 0x8C379A000000000000000000000000000000000000000000000000000000000 DUP2 MSTORE PUSH1 0x4 ADD PUSH2 0x4FF SWAP1 PUSH2 0x2243 JUMP JUMPDEST PUSH1 0x40 MLOAD DUP1 SWAP2 SUB SWAP1 REVERT JUMPDEST PUSH1 0x0 PUSH2 0x51A DUP13 DUP13 DUP13 DUP13 PUSH1 0x0 DUP14 DUP14 PUSH2 0x140D JUMP JUMPDEST SWAP1 POP PUSH32 0x573E213380FAA927B1C1335457FE327E653E0604ED6A2C2F878F06A042896511 DUP2 DUP14 DUP14 DUP14 DUP14 DUP14 DUP14 DUP14 DUP14 DUP14 DUP14 DUP14 PUSH1 0x40 MLOAD PUSH2 0x561 SWAP13 SWAP12 SWAP11 SWAP10 SWAP9 SWAP8 SWAP7 SWAP6 SWAP5 SWAP4 SWAP3 SWAP2 SWAP1 PUSH2 0x2281 JUMP JUMPDEST PUSH1 0x40 MLOAD DUP1 SWAP2 SUB SWAP1 LOG1 POP POP POP POP POP POP POP POP POP POP POP POP JUMP JUMPDEST PUSH1 0x4 PUSH1 0x0 SWAP1 SLOAD SWAP1 PUSH2 0x100 EXP SWAP1 DIV PUSH20 0xFFFFFFFFFFFFFFFFFFFFFFFFFFFFFFFFFFFFFFFF AND DUP2 JUMP JUMPDEST DUP9 PUSH20 0xFFFFFFFFFFFFFFFFFFFFFFFFFFFFFFFFFFFFFFFF AND CALLER PUSH20 0xFFFFFFFFFFFFFFFFFFFFFFFFFFFFFFFFFFFFFFFF AND EQ PUSH2 0x60B JUMPI PUSH1 0x40 MLOAD PUSH32 0x8C379A000000000000000000000000000000000000000000000000000000000 DUP2 MSTORE PUSH1 0x4 ADD PUSH2 0x602 SWAP1 PUSH2 0x2243 JUMP JUMPDEST PUSH1 0x40 MLOAD DUP1 SWAP2 SUB SWAP1 REVERT JUMPDEST PUSH1 0x0 PUSH2 0x61C DUP11 DUP11 DUP11 DUP11 DUP11 DUP11 DUP11 PUSH2 0x140D JUMP JUMPDEST SWAP1 POP PUSH32 0x48E8C25194D6EB9633068BB38AEA36F72E1C4B4D6E892FF556B8A63A803C2FD0 DUP2 DUP12 DUP12 DUP12 DUP12 DUP12 DUP12 DUP12 DUP12 DUP12 PUSH1 0x40 MLOAD PUSH2 0x65F SWAP11 SWAP10 SWAP9 SWAP8 SWAP7 SWAP6 SWAP5 SWAP4 SWAP3 SWAP2 SWAP1 PUSH2 0x233B JUMP JUMPDEST PUSH1 0x40 MLOAD DUP1 SWAP2 SUB SWAP1 LOG1 POP POP POP POP POP POP POP POP POP POP JUMP JUMPDEST PUSH2 0x67B PUSH2 0x1405 JUMP JUMPDEST PUSH20 0xFFFFFFFFFFFFFFFFFFFFFFFFFFFFFFFFFFFFFFFF AND PUSH1 0x0 DUP1 SLOAD SWAP1 PUSH2 0x100 EXP SWAP1 DIV PUSH20 0xFFFFFFFFFFFFFFFFFFFFFFFFFFFFFFFFFFFFFFFF AND PUSH20 0xFFFFFFFFFFFFFFFFFFFFFFFFFFFFFFFFFFFFFFFF AND EQ PUSH2 0x708 JUMPI PUSH1 0x40 MLOAD PUSH32 0x8C379A000000000000000000000000000000000000000000000000000000000 DUP2 MSTORE PUSH1 0x4 ADD PUSH2 0x6FF SWAP1 PUSH2 0x21D7 JUMP JUMPDEST PUSH1 0x40 MLOAD DUP1 SWAP2 SUB SWAP1 REVERT JUMPDEST DUP1 PUSH1 0x2 DUP2 SWAP1 SSTORE POP POP JUMP JUMPDEST PUSH1 0x1 PUSH1 0x0 SWAP1 SLOAD SWAP1 PUSH2 0x100 EXP SWAP1 DIV PUSH20 0xFFFFFFFFFFFFFFFFFFFFFFFFFFFFFFFFFFFFFFFF AND DUP2 JUMP JUMPDEST PUSH2 0x740 PUSH2 0x1405 JUMP JUMPDEST PUSH20 0xFFFFFFFFFFFFFFFFFFFFFFFFFFFFFFFFFFFFFFFF AND PUSH1 0x0 DUP1 SLOAD SWAP1 PUSH2 0x100 EXP SWAP1 DIV PUSH20 0xFFFFFFFFFFFFFFFFFFFFFFFFFFFFFFFFFFFFFFFF AND PUSH20 0xFFFFFFFFFFFFFFFFFFFFFFFFFFFFFFFFFFFFFFFF AND EQ PUSH2 0x7CD JUMPI PUSH1 0x40 MLOAD PUSH32 0x8C379A000000000000000000000000000000000000000000000000000000000 DUP2 MSTORE PUSH1 0x4 ADD PUSH2 0x7C4 SWAP1 PUSH2 0x21D7 JUMP JUMPDEST PUSH1 0x40 MLOAD DUP1 SWAP2 SUB SWAP1 REVERT JUMPDEST PUSH2 0x7D7 PUSH1 0x0 PUSH2 0x16D1 JUMP JUMPDEST JUMP JUMPDEST CALLER PUSH20 0xFFFFFFFFFFFFFFFFFFFFFFFFFFFFFFFFFFFFFFFF AND PUSH1 0x1 PUSH1 0x0 SWAP1 SLOAD SWAP1 PUSH2 0x100 EXP SWAP1 DIV PUSH20 0xFFFFFFFFFFFFFFFFFFFFFFFFFFFFFFFFFFFFFFFF AND PUSH20 0xFFFFFFFFFFFFFFFFFFFFFFFFFFFFFFFFFFFFFFFF AND EQ PUSH2 0x833 JUMPI PUSH1 0x0 DUP1 REVERT JUMPDEST PUSH1 0x1 PUSH1 0x0 SWAP1 SLOAD SWAP1 PUSH2 0x100 EXP SWAP1 DIV PUSH20 0xFFFFFFFFFFFFFFFFFFFFFFFFFFFFFFFFFFFFFFFF AND PUSH1 0x0 DUP1 PUSH2 0x100 EXP DUP2 SLOAD DUP2 PUSH20 0xFFFFFFFFFFFFFFFFFFFFFFFFFFFFFFFFFFFFFFFF MUL NOT AND SWAP1 DUP4 PUSH20 0xFFFFFFFFFFFFFFFFFFFFFFFFFFFFFFFFFFFFFFFF AND MUL OR SWAP1 SSTORE POP JUMP JUMPDEST PUSH1 0x0 DUP1 SLOAD SWAP1 PUSH2 0x100 EXP SWAP1 DIV PUSH20 0xFFFFFFFFFFFFFFFFFFFFFFFFFFFFFFFFFFFFFFFF AND DUP2 JUMP JUMPDEST PUSH1 0x0 DUP8 DUP8 DUP5 DUP5 DUP10 DUP10 DUP10 CHAINID PUSH1 0x40 MLOAD PUSH1 0x20 ADD PUSH2 0x8DC SWAP9 SWAP8 SWAP7 SWAP6 SWAP5 SWAP4 SWAP3 SWAP2 SWAP1 PUSH2 0x2497 JUMP JUMPDEST PUSH1 0x40 MLOAD PUSH1 0x20 DUP2 DUP4 SUB SUB DUP2 MSTORE SWAP1 PUSH1 0x40 MSTORE DUP1 MLOAD SWAP1 PUSH1 0x20 ADD KECCAK256 SWAP1 POP PUSH1 0x0 PUSH1 0x5 PUSH1 0x0 DUP4 DUP2 MSTORE PUSH1 0x20 ADD SWAP1 DUP2 MSTORE PUSH1 0x20 ADD PUSH1 0x0 KECCAK256 PUSH1 0x0 SWAP1 SLOAD SWAP1 PUSH2 0x100 EXP SWAP1 DIV PUSH1 0xFF AND SWAP1 POP PUSH1 0x1 PUSH1 0x3 DUP2 GT ISZERO PUSH2 0x92D JUMPI PUSH2 0x92C PUSH2 0x1D3B JUMP JUMPDEST JUMPDEST DUP2 PUSH1 0x3 DUP2 GT ISZERO PUSH2 0x940 JUMPI PUSH2 0x93F PUSH2 0x1D3B JUMP JUMPDEST JUMPDEST EQ PUSH2 0x980 JUMPI PUSH1 0x40 MLOAD PUSH32 0x8C379A000000000000000000000000000000000000000000000000000000000 DUP2 MSTORE PUSH1 0x4 ADD PUSH2 0x977 SWAP1 PUSH2 0x2575 JUMP JUMPDEST PUSH1 0x40 MLOAD DUP1 SWAP2 SUB SWAP1 REVERT JUMPDEST TIMESTAMP DUP4 PUSH8 0xFFFFFFFFFFFFFFFF AND GT ISZERO PUSH2 0x9CD JUMPI PUSH1 0x40 MLOAD PUSH32 0x8C379A000000000000000000000000000000000000000000000000000000000 DUP2 MSTORE PUSH1 0x4 ADD PUSH2 0x9C4 SWAP1 PUSH2 0x25E1 JUMP JUMPDEST PUSH1 0x40 MLOAD DUP1 SWAP2 SUB SWAP1 REVERT JUMPDEST PUSH1 0x3 PUSH1 0x5 PUSH1 0x0 DUP5 DUP2 MSTORE PUSH1 0x20 ADD SWAP1 DUP2 MSTORE PUSH1 0x20 ADD PUSH1 0x0 KECCAK256 PUSH1 0x0 PUSH2 0x100 EXP DUP2 SLOAD DUP2 PUSH1 0xFF MUL NOT AND SWAP1 DUP4 PUSH1 0x3 DUP2 GT ISZERO PUSH2 0xA04 JUMPI PUSH2 0xA03 PUSH2 0x1D3B JUMP JUMPDEST JUMPDEST MUL OR SWAP1 SSTORE POP PUSH1 0x0 PUSH20 0xFFFFFFFFFFFFFFFFFFFFFFFFFFFFFFFFFFFFFFFF AND DUP8 PUSH20 0xFFFFFFFFFFFFFFFFFFFFFFFFFFFFFFFFFFFFFFFF AND EQ ISZERO PUSH2 0xAF0 JUMPI PUSH1 0x0 DUP10 PUSH20 0xFFFFFFFFFFFFFFFFFFFFFFFFFFFFFFFFFFFFFFFF AND DUP8 PUSH1 0x40 MLOAD PUSH2 0xA64 SWAP1 PUSH2 0x2632 JUMP JUMPDEST PUSH1 0x0 PUSH1 0x40 MLOAD DUP1 DUP4 SUB DUP2 DUP6 DUP8 GAS CALL SWAP3 POP POP POP RETURNDATASIZE DUP1 PUSH1 0x0 DUP2 EQ PUSH2 0xAA1 JUMPI PUSH1 0x40 MLOAD SWAP2 POP PUSH1 0x1F NOT PUSH1 0x3F RETURNDATASIZE ADD AND DUP3 ADD PUSH1 0x40 MSTORE RETURNDATASIZE DUP3 MSTORE RETURNDATASIZE PUSH1 0x0 PUSH1 0x20 DUP5 ADD RETURNDATACOPY PUSH2 0xAA6 JUMP JUMPDEST PUSH1 0x60 SWAP2 POP JUMPDEST POP POP SWAP1 POP DUP1 PUSH2 0xAEA JUMPI PUSH1 0x40 MLOAD PUSH32 0x8C379A000000000000000000000000000000000000000000000000000000000 DUP2 MSTORE PUSH1 0x4 ADD PUSH2 0xAE1 SWAP1 PUSH2 0x2693 JUMP JUMPDEST PUSH1 0x40 MLOAD DUP1 SWAP2 SUB SWAP1 REVERT JUMPDEST POP PUSH2 0xBD3 JUMP JUMPDEST PUSH2 0xB1B DUP10 DUP8 DUP10 PUSH20 0xFFFFFFFFFFFFFFFFFFFFFFFFFFFFFFFFFFFFFFFF AND PUSH2 0x1795 SWAP1 SWAP3 SWAP2 SWAP1 PUSH4 0xFFFFFFFF AND JUMP JUMPDEST PUSH1 0x0 DUP6 GT ISZERO PUSH2 0xBD2 JUMPI PUSH1 0x0 DUP10 PUSH20 0xFFFFFFFFFFFFFFFFFFFFFFFFFFFFFFFFFFFFFFFF AND DUP7 PUSH1 0x40 MLOAD PUSH2 0xB4A SWAP1 PUSH2 0x2632 JUMP JUMPDEST PUSH1 0x0 PUSH1 0x40 MLOAD DUP1 DUP4 SUB DUP2 DUP6 DUP8 GAS CALL SWAP3 POP POP POP RETURNDATASIZE DUP1 PUSH1 0x0 DUP2 EQ PUSH2 0xB87 JUMPI PUSH1 0x40 MLOAD SWAP2 POP PUSH1 0x1F NOT PUSH1 0x3F RETURNDATASIZE ADD AND DUP3 ADD PUSH1 0x40 MSTORE RETURNDATASIZE DUP3 MSTORE RETURNDATASIZE PUSH1 0x0 PUSH1 0x20 DUP5 ADD RETURNDATACOPY PUSH2 0xB8C JUMP JUMPDEST PUSH1 0x60 SWAP2 POP JUMPDEST POP POP SWAP1 POP DUP1 PUSH2 0xBD0 JUMPI PUSH1 0x40 MLOAD PUSH32 0x8C379A000000000000000000000000000000000000000000000000000000000 DUP2 MSTORE PUSH1 0x4 ADD PUSH2 0xBC7 SWAP1 PUSH2 0x2693 JUMP JUMPDEST PUSH1 0x40 MLOAD DUP1 SWAP2 SUB SWAP1 REVERT JUMPDEST POP JUMPDEST JUMPDEST PUSH32 0x70A8F332CABB778F79ACC5B97CBB4543970A2F1A34BD0773E4B3012931F752DC DUP3 PUSH1 0x40 MLOAD PUSH2 0xC02 SWAP2 SWAP1 PUSH2 0x26B3 JUMP JUMPDEST PUSH1 0x40 MLOAD DUP1 SWAP2 SUB SWAP1 LOG1 POP POP POP POP POP POP POP POP POP JUMP JUMPDEST PUSH1 0x0 DUP9 DUP9 DUP6 DUP6 DUP11 DUP11 DUP11 CHAINID PUSH1 0x40 MLOAD PUSH1 0x20 ADD PUSH2 0xC36 SWAP9 SWAP8 SWAP7 SWAP6 SWAP5 SWAP4 SWAP3 SWAP2 SWAP1 PUSH2 0x2497 JUMP JUMPDEST PUSH1 0x40 MLOAD PUSH1 0x20 DUP2 DUP4 SUB SUB DUP2 MSTORE SWAP1 PUSH1 0x40 MSTORE DUP1 MLOAD SWAP1 PUSH1 0x20 ADD KECCAK256 SWAP1 POP PUSH1 0x0 PUSH1 0x5 PUSH1 0x0 DUP4 DUP2 MSTORE PUSH1 0x20 ADD SWAP1 DUP2 MSTORE PUSH1 0x20 ADD PUSH1 0x0 KECCAK256 PUSH1 0x0 SWAP1 SLOAD SWAP1 PUSH2 0x100 EXP SWAP1 DIV PUSH1 0xFF AND SWAP1 POP PUSH1 0x1 PUSH1 0x3 DUP2 GT ISZERO PUSH2 0xC87 JUMPI PUSH2 0xC86 PUSH2 0x1D3B JUMP JUMPDEST JUMPDEST DUP2 PUSH1 0x3 DUP2 GT ISZERO PUSH2 0xC9A JUMPI PUSH2 0xC99 PUSH2 0x1D3B JUMP JUMPDEST JUMPDEST EQ PUSH2 0xCDA JUMPI PUSH1 0x40 MLOAD PUSH32 0x8C379A000000000000000000000000000000000000000000000000000000000 DUP2 MSTORE PUSH1 0x4 ADD PUSH2 0xCD1 SWAP1 PUSH2 0x2575 JUMP JUMPDEST PUSH1 0x40 MLOAD DUP1 SWAP2 SUB SWAP1 REVERT JUMPDEST DUP3 PUSH1 0x40 MLOAD PUSH1 0x20 ADD PUSH2 0xCEB SWAP2 SWAP1 PUSH2 0x26CE JUMP JUMPDEST PUSH1 0x40 MLOAD PUSH1 0x20 DUP2 DUP4 SUB SUB DUP2 MSTORE SWAP1 PUSH1 0x40 MSTORE DUP1 MLOAD SWAP1 PUSH1 0x20 ADD KECCAK256 DUP6 EQ PUSH2 0xD42 JUMPI PUSH1 0x40 MLOAD PUSH32 0x8C379A000000000000000000000000000000000000000000000000000000000 DUP2 MSTORE PUSH1 0x4 ADD PUSH2 0xD39 SWAP1 PUSH2 0x2735 JUMP JUMPDEST PUSH1 0x40 MLOAD DUP1 SWAP2 SUB SWAP1 REVERT JUMPDEST PUSH1 0x2 PUSH1 0x5 PUSH1 0x0 DUP5 DUP2 MSTORE PUSH1 0x20 ADD SWAP1 DUP2 MSTORE PUSH1 0x20 ADD PUSH1 0x0 KECCAK256 PUSH1 0x0 PUSH2 0x100 EXP DUP2 SLOAD DUP2 PUSH1 0xFF MUL NOT AND SWAP1 DUP4 PUSH1 0x3 DUP2 GT ISZERO PUSH2 0xD79 JUMPI PUSH2 0xD78 PUSH2 0x1D3B JUMP JUMPDEST JUMPDEST MUL OR SWAP1 SSTORE POP PUSH1 0x0 PUSH20 0xFFFFFFFFFFFFFFFFFFFFFFFFFFFFFFFFFFFFFFFF AND DUP9 PUSH20 0xFFFFFFFFFFFFFFFFFFFFFFFFFFFFFFFFFFFFFFFF AND EQ ISZERO PUSH2 0xF59 JUMPI PUSH1 0x0 PUSH2 0xDBF DUP10 DUP10 PUSH2 0x181B JUMP JUMPDEST SWAP1 POP PUSH1 0x0 DUP2 DUP10 PUSH2 0xDCF SWAP2 SWAP1 PUSH2 0x2784 JUMP JUMPDEST SWAP1 POP PUSH1 0x0 DUP1 DUP13 PUSH20 0xFFFFFFFFFFFFFFFFFFFFFFFFFFFFFFFFFFFFFFFF AND DUP4 PUSH1 0x40 MLOAD PUSH2 0xDF8 SWAP1 PUSH2 0x2632 JUMP JUMPDEST PUSH1 0x0 PUSH1 0x40 MLOAD DUP1 DUP4 SUB DUP2 DUP6 DUP8 GAS CALL SWAP3 POP POP POP RETURNDATASIZE DUP1 PUSH1 0x0 DUP2 EQ PUSH2 0xE35 JUMPI PUSH1 0x40 MLOAD SWAP2 POP PUSH1 0x1F NOT PUSH1 0x3F RETURNDATASIZE ADD AND DUP3 ADD PUSH1 0x40 MSTORE RETURNDATASIZE DUP3 MSTORE RETURNDATASIZE PUSH1 0x0 PUSH1 0x20 DUP5 ADD RETURNDATACOPY PUSH2 0xE3A JUMP JUMPDEST PUSH1 0x60 SWAP2 POP JUMPDEST POP SWAP2 POP SWAP2 POP DUP2 PUSH2 0xE7F JUMPI PUSH1 0x40 MLOAD PUSH32 0x8C379A000000000000000000000000000000000000000000000000000000000 DUP2 MSTORE PUSH1 0x4 ADD PUSH2 0xE76 SWAP1 PUSH2 0x2693 JUMP JUMPDEST PUSH1 0x40 MLOAD DUP1 SWAP2 SUB SWAP1 REVERT JUMPDEST PUSH1 0x4 PUSH1 0x0 SWAP1 SLOAD SWAP1 PUSH2 0x100 EXP SWAP1 DIV PUSH20 0xFFFFFFFFFFFFFFFFFFFFFFFFFFFFFFFFFFFFFFFF AND PUSH20 0xFFFFFFFFFFFFFFFFFFFFFFFFFFFFFFFFFFFFFFFF AND DUP5 PUSH1 0x40 MLOAD PUSH2 0xEC5 SWAP1 PUSH2 0x2632 JUMP JUMPDEST PUSH1 0x0 PUSH1 0x40 MLOAD DUP1 DUP4 SUB DUP2 DUP6 DUP8 GAS CALL SWAP3 POP POP POP RETURNDATASIZE DUP1 PUSH1 0x0 DUP2 EQ PUSH2 0xF02 JUMPI PUSH1 0x40 MLOAD SWAP2 POP PUSH1 0x1F NOT PUSH1 0x3F RETURNDATASIZE ADD AND DUP3 ADD PUSH1 0x40 MSTORE RETURNDATASIZE DUP3 MSTORE RETURNDATASIZE PUSH1 0x0 PUSH1 0x20 DUP5 ADD RETURNDATACOPY PUSH2 0xF07 JUMP JUMPDEST PUSH1 0x60 SWAP2 POP JUMPDEST POP DUP1 SWAP3 POP DUP2 SWAP4 POP POP POP DUP2 PUSH2 0xF50 JUMPI PUSH1 0x40 MLOAD PUSH32 0x8C379A000000000000000000000000000000000000000000000000000000000 DUP2 MSTORE PUSH1 0x4 ADD PUSH2 0xF47 SWAP1 PUSH2 0x2693 JUMP JUMPDEST PUSH1 0x40 MLOAD DUP1 SWAP2 SUB SWAP1 REVERT JUMPDEST POP POP POP POP PUSH2 0x1198 JUMP JUMPDEST PUSH1 0x0 PUSH2 0xF65 DUP10 DUP10 PUSH2 0x181B JUMP JUMPDEST SWAP1 POP PUSH1 0x0 DUP2 DUP10 PUSH2 0xF75 SWAP2 SWAP1 PUSH2 0x2784 JUMP JUMPDEST SWAP1 POP PUSH2 0xFA2 DUP12 DUP3 DUP13 PUSH20 0xFFFFFFFFFFFFFFFFFFFFFFFFFFFFFFFFFFFFFFFF AND PUSH2 0x1795 SWAP1 SWAP3 SWAP2 SWAP1 PUSH4 0xFFFFFFFF AND JUMP JUMPDEST PUSH2 0xFEF PUSH1 0x4 PUSH1 0x0 SWAP1 SLOAD SWAP1 PUSH2 0x100 EXP SWAP1 DIV PUSH20 0xFFFFFFFFFFFFFFFFFFFFFFFFFFFFFFFFFFFFFFFF AND DUP4 DUP13 PUSH20 0xFFFFFFFFFFFFFFFFFFFFFFFFFFFFFFFFFFFFFFFF AND PUSH2 0x1795 SWAP1 SWAP3 SWAP2 SWAP1 PUSH4 0xFFFFFFFF AND JUMP JUMPDEST PUSH1 0x0 DUP9 GT ISZERO PUSH2 0x1195 JUMPI PUSH2 0x1003 PUSH1 0x0 DUP10 PUSH2 0x181B JUMP JUMPDEST SWAP2 POP DUP2 DUP9 PUSH2 0x1011 SWAP2 SWAP1 PUSH2 0x2784 JUMP JUMPDEST SWAP1 POP PUSH1 0x0 DUP1 DUP13 PUSH20 0xFFFFFFFFFFFFFFFFFFFFFFFFFFFFFFFFFFFFFFFF AND DUP4 PUSH1 0x40 MLOAD PUSH2 0x103A SWAP1 PUSH2 0x2632 JUMP JUMPDEST PUSH1 0x0 PUSH1 0x40 MLOAD DUP1 DUP4 SUB DUP2 DUP6 DUP8 GAS CALL SWAP3 POP POP POP RETURNDATASIZE DUP1 PUSH1 0x0 DUP2 EQ PUSH2 0x1077 JUMPI PUSH1 0x40 MLOAD SWAP2 POP PUSH1 0x1F NOT PUSH1 0x3F RETURNDATASIZE ADD AND DUP3 ADD PUSH1 0x40 MSTORE RETURNDATASIZE DUP3 MSTORE RETURNDATASIZE PUSH1 0x0 PUSH1 0x20 DUP5 ADD RETURNDATACOPY PUSH2 0x107C JUMP JUMPDEST PUSH1 0x60 SWAP2 POP JUMPDEST POP SWAP2 POP SWAP2 POP DUP2 PUSH2 0x10C1 JUMPI PUSH1 0x40 MLOAD PUSH32 0x8C379A000000000000000000000000000000000000000000000000000000000 DUP2 MSTORE PUSH1 0x4 ADD PUSH2 0x10B8 SWAP1 PUSH2 0x2693 JUMP JUMPDEST PUSH1 0x40 MLOAD DUP1 SWAP2 SUB SWAP1 REVERT JUMPDEST PUSH1 0x4 PUSH1 0x0 SWAP1 SLOAD SWAP1 PUSH2 0x100 EXP SWAP1 DIV PUSH20 0xFFFFFFFFFFFFFFFFFFFFFFFFFFFFFFFFFFFFFFFF AND PUSH20 0xFFFFFFFFFFFFFFFFFFFFFFFFFFFFFFFFFFFFFFFF AND DUP5 PUSH1 0x40 MLOAD PUSH2 0x1107 SWAP1 PUSH2 0x2632 JUMP JUMPDEST PUSH1 0x0 PUSH1 0x40 MLOAD DUP1 DUP4 SUB DUP2 DUP6 DUP8 GAS CALL SWAP3 POP POP POP RETURNDATASIZE DUP1 PUSH1 0x0 DUP2 EQ PUSH2 0x1144 JUMPI PUSH1 0x40 MLOAD SWAP2 POP PUSH1 0x1F NOT PUSH1 0x3F RETURNDATASIZE ADD AND DUP3 ADD PUSH1 0x40 MSTORE RETURNDATASIZE DUP3 MSTORE RETURNDATASIZE PUSH1 0x0 PUSH1 0x20 DUP5 ADD RETURNDATACOPY PUSH2 0x1149 JUMP JUMPDEST PUSH1 0x60 SWAP2 POP JUMPDEST POP DUP1 SWAP3 POP DUP2 SWAP4 POP POP POP DUP2 PUSH2 0x1192 JUMPI PUSH1 0x40 MLOAD PUSH32 0x8C379A000000000000000000000000000000000000000000000000000000000 DUP2 MSTORE PUSH1 0x4 ADD PUSH2 0x1189 SWAP1 PUSH2 0x2693 JUMP JUMPDEST PUSH1 0x40 MLOAD DUP1 SWAP2 SUB SWAP1 REVERT JUMPDEST POP POP JUMPDEST POP POP JUMPDEST PUSH32 0xB7AE890C7A4721F7ED769DABFEEE74F0E0F5BCDAAD9CAB432CCEA4D9FA435B50 DUP3 DUP5 PUSH1 0x40 MLOAD PUSH2 0x11C9 SWAP3 SWAP2 SWAP1 PUSH2 0x27B8 JUMP JUMPDEST PUSH1 0x40 MLOAD DUP1 SWAP2 SUB SWAP1 LOG1 POP POP POP POP POP POP POP POP POP POP JUMP JUMPDEST PUSH2 0x11E5 PUSH2 0x1405 JUMP JUMPDEST PUSH20 0xFFFFFFFFFFFFFFFFFFFFFFFFFFFFFFFFFFFFFFFF AND PUSH1 0x0 DUP1 SLOAD SWAP1 PUSH2 0x100 EXP SWAP1 DIV PUSH20 0xFFFFFFFFFFFFFFFFFFFFFFFFFFFFFFFFFFFFFFFF AND PUSH20 0xFFFFFFFFFFFFFFFFFFFFFFFFFFFFFFFFFFFFFFFF AND EQ PUSH2 0x1272 JUMPI PUSH1 0x40 MLOAD PUSH32 0x8C379A000000000000000000000000000000000000000000000000000000000 DUP2 MSTORE PUSH1 0x4 ADD PUSH2 0x1269 SWAP1 PUSH2 0x21D7 JUMP JUMPDEST PUSH1 0x40 MLOAD DUP1 SWAP2 SUB SWAP1 REVERT JUMPDEST DUP1 PUSH1 0x4 PUSH1 0x0 PUSH2 0x100 EXP DUP2 SLOAD DUP2 PUSH20 0xFFFFFFFFFFFFFFFFFFFFFFFFFFFFFFFFFFFFFFFF MUL NOT AND SWAP1 DUP4 PUSH20 0xFFFFFFFFFFFFFFFFFFFFFFFFFFFFFFFFFFFFFFFF AND MUL OR SWAP1 SSTORE POP POP JUMP JUMPDEST PUSH1 0x2 SLOAD DUP2 JUMP JUMPDEST PUSH2 0x12C4 PUSH2 0x1405 JUMP JUMPDEST PUSH20 0xFFFFFFFFFFFFFFFFFFFFFFFFFFFFFFFFFFFFFFFF AND PUSH1 0x0 DUP1 SLOAD SWAP1 PUSH2 0x100 EXP SWAP1 DIV PUSH20 0xFFFFFFFFFFFFFFFFFFFFFFFFFFFFFFFFFFFFFFFF AND PUSH20 0xFFFFFFFFFFFFFFFFFFFFFFFFFFFFFFFFFFFFFFFF AND EQ PUSH2 0x1351 JUMPI PUSH1 0x40 MLOAD PUSH32 0x8C379A000000000000000000000000000000000000000000000000000000000 DUP2 MSTORE PUSH1 0x4 ADD PUSH2 0x1348 SWAP1 PUSH2 0x21D7 JUMP JUMPDEST PUSH1 0x40 MLOAD DUP1 SWAP2 SUB SWAP1 REVERT JUMPDEST PUSH1 0x0 PUSH20 0xFFFFFFFFFFFFFFFFFFFFFFFFFFFFFFFFFFFFFFFF AND DUP2 PUSH20 0xFFFFFFFFFFFFFFFFFFFFFFFFFFFFFFFFFFFFFFFF AND EQ ISZERO PUSH2 0x13C1 JUMPI PUSH1 0x40 MLOAD PUSH32 0x8C379A000000000000000000000000000000000000000000000000000000000 DUP2 MSTORE PUSH1 0x4 ADD PUSH2 0x13B8 SWAP1 PUSH2 0x282D JUMP JUMPDEST PUSH1 0x40 MLOAD DUP1 SWAP2 SUB SWAP1 REVERT JUMPDEST DUP1 PUSH1 0x1 PUSH1 0x0 PUSH2 0x100 EXP DUP2 SLOAD DUP2 PUSH20 0xFFFFFFFFFFFFFFFFFFFFFFFFFFFFFFFFFFFFFFFF MUL NOT AND SWAP1 DUP4 PUSH20 0xFFFFFFFFFFFFFFFFFFFFFFFFFFFFFFFFFFFFFFFF AND MUL OR SWAP1 SSTORE POP POP JUMP JUMPDEST PUSH1 0x0 CALLER SWAP1 POP SWAP1 JUMP JUMPDEST PUSH1 0x0 DUP1 DUP6 GT PUSH2 0x1451 JUMPI PUSH1 0x40 MLOAD PUSH32 0x8C379A000000000000000000000000000000000000000000000000000000000 DUP2 MSTORE PUSH1 0x4 ADD PUSH2 0x1448 SWAP1 PUSH2 0x2899 JUMP JUMPDEST PUSH1 0x40 MLOAD DUP1 SWAP2 SUB SWAP1 REVERT JUMPDEST TIMESTAMP DUP3 PUSH8 0xFFFFFFFFFFFFFFFF AND GT PUSH2 0x149D JUMPI PUSH1 0x40 MLOAD PUSH32 0x8C379A000000000000000000000000000000000000000000000000000000000 DUP2 MSTORE PUSH1 0x4 ADD PUSH2 0x1494 SWAP1 PUSH2 0x2905 JUMP JUMPDEST PUSH1 0x40 MLOAD DUP1 SWAP2 SUB SWAP1 REVERT JUMPDEST DUP8 DUP8 DUP5 DUP5 DUP10 DUP10 DUP10 CHAINID PUSH1 0x40 MLOAD PUSH1 0x20 ADD PUSH2 0x14BC SWAP9 SWAP8 SWAP7 SWAP6 SWAP5 SWAP4 SWAP3 SWAP2 SWAP1 PUSH2 0x2497 JUMP JUMPDEST PUSH1 0x40 MLOAD PUSH1 0x20 DUP2 DUP4 SUB SUB DUP2 MSTORE SWAP1 PUSH1 0x40 MSTORE DUP1 MLOAD SWAP1 PUSH1 0x20 ADD KECCAK256 SWAP1 POP PUSH1 0x0 PUSH1 0x3 DUP2 GT ISZERO PUSH2 0x14E8 JUMPI PUSH2 0x14E7 PUSH2 0x1D3B JUMP JUMPDEST JUMPDEST PUSH1 0x5 PUSH1 0x0 DUP4 DUP2 MSTORE PUSH1 0x20 ADD SWAP1 DUP2 MSTORE PUSH1 0x20 ADD PUSH1 0x0 KECCAK256 PUSH1 0x0 SWAP1 SLOAD SWAP1 PUSH2 0x100 EXP SWAP1 DIV PUSH1 0xFF AND PUSH1 0x3 DUP2 GT ISZERO PUSH2 0x151B JUMPI PUSH2 0x151A PUSH2 0x1D3B JUMP JUMPDEST JUMPDEST EQ PUSH2 0x155B JUMPI PUSH1 0x40 MLOAD PUSH32 0x8C379A000000000000000000000000000000000000000000000000000000000 DUP2 MSTORE PUSH1 0x4 ADD PUSH2 0x1552 SWAP1 PUSH2 0x2971 JUMP JUMPDEST PUSH1 0x40 MLOAD DUP1 SWAP2 SUB SWAP1 REVERT JUMPDEST PUSH1 0x0 PUSH20 0xFFFFFFFFFFFFFFFFFFFFFFFFFFFFFFFFFFFFFFFF AND DUP7 PUSH20 0xFFFFFFFFFFFFFFFFFFFFFFFFFFFFFFFFFFFFFFFF AND EQ ISZERO PUSH2 0x161A JUMPI PUSH1 0x0 DUP5 EQ PUSH2 0x15D3 JUMPI PUSH1 0x40 MLOAD PUSH32 0x8C379A000000000000000000000000000000000000000000000000000000000 DUP2 MSTORE PUSH1 0x4 ADD PUSH2 0x15CA SWAP1 PUSH2 0x29DD JUMP JUMPDEST PUSH1 0x40 MLOAD DUP1 SWAP2 SUB SWAP1 REVERT JUMPDEST CALLVALUE DUP6 EQ PUSH2 0x1615 JUMPI PUSH1 0x40 MLOAD PUSH32 0x8C379A000000000000000000000000000000000000000000000000000000000 DUP2 MSTORE PUSH1 0x4 ADD PUSH2 0x160C SWAP1 PUSH2 0x2A49 JUMP JUMPDEST PUSH1 0x40 MLOAD DUP1 SWAP2 SUB SWAP1 REVERT JUMPDEST PUSH2 0x168A JUMP JUMPDEST CALLVALUE DUP5 EQ PUSH2 0x165C JUMPI PUSH1 0x40 MLOAD PUSH32 0x8C379A000000000000000000000000000000000000000000000000000000000 DUP2 MSTORE PUSH1 0x4 ADD PUSH2 0x1653 SWAP1 PUSH2 0x2A49 JUMP JUMPDEST PUSH1 0x40 MLOAD DUP1 SWAP2 SUB SWAP1 REVERT JUMPDEST PUSH2 0x1689 DUP9 ADDRESS DUP8 DUP10 PUSH20 0xFFFFFFFFFFFFFFFFFFFFFFFFFFFFFFFFFFFFFFFF AND PUSH2 0x18A2 SWAP1 SWAP4 SWAP3 SWAP2 SWAP1 PUSH4 0xFFFFFFFF AND JUMP JUMPDEST JUMPDEST PUSH1 0x1 PUSH1 0x5 PUSH1 0x0 DUP4 DUP2 MSTORE PUSH1 0x20 ADD SWAP1 DUP2 MSTORE PUSH1 0x20 ADD PUSH1 0x0 KECCAK256 PUSH1 0x0 PUSH2 0x100 EXP DUP2 SLOAD DUP2 PUSH1 0xFF MUL NOT AND SWAP1 DUP4 PUSH1 0x3 DUP2 GT ISZERO PUSH2 0x16C1 JUMPI PUSH2 0x16C0 PUSH2 0x1D3B JUMP JUMPDEST JUMPDEST MUL OR SWAP1 SSTORE POP SWAP8 SWAP7 POP POP POP POP POP POP POP JUMP JUMPDEST PUSH1 0x0 DUP1 PUSH1 0x0 SWAP1 SLOAD SWAP1 PUSH2 0x100 EXP SWAP1 DIV PUSH20 0xFFFFFFFFFFFFFFFFFFFFFFFFFFFFFFFFFFFFFFFF AND SWAP1 POP DUP2 PUSH1 0x0 DUP1 PUSH2 0x100 EXP DUP2 SLOAD DUP2 PUSH20 0xFFFFFFFFFFFFFFFFFFFFFFFFFFFFFFFFFFFFFFFF MUL NOT AND SWAP1 DUP4 PUSH20 0xFFFFFFFFFFFFFFFFFFFFFFFFFFFFFFFFFFFFFFFF AND MUL OR SWAP1 SSTORE POP DUP2 PUSH20 0xFFFFFFFFFFFFFFFFFFFFFFFFFFFFFFFFFFFFFFFF AND DUP2 PUSH20 0xFFFFFFFFFFFFFFFFFFFFFFFFFFFFFFFFFFFFFFFF AND PUSH32 0x8BE0079C531659141344CD1FD0A4F28419497F9722A3DAAFE3B4186F6B6457E0 PUSH1 0x40 MLOAD PUSH1 0x40 MLOAD DUP1 SWAP2 SUB SWAP1 LOG3 POP POP JUMP JUMPDEST PUSH2 0x1816 DUP4 PUSH4 0xA9059CBB PUSH1 0xE0 SHL DUP5 DUP5 PUSH1 0x40 MLOAD PUSH1 0x24 ADD PUSH2 0x17B4 SWAP3 SWAP2 SWAP1 PUSH2 0x2A69 JUMP JUMPDEST PUSH1 0x40 MLOAD PUSH1 0x20 DUP2 DUP4 SUB SUB DUP2 MSTORE SWAP1 PUSH1 0x40 MSTORE SWAP1 PUSH28 0xFFFFFFFFFFFFFFFFFFFFFFFFFFFFFFFFFFFFFFFFFFFFFFFFFFFFFFFF NOT AND PUSH1 0x20 DUP3 ADD DUP1 MLOAD PUSH28 0xFFFFFFFFFFFFFFFFFFFFFFFFFFFFFFFFFFFFFFFFFFFFFFFFFFFFFFFF DUP4 DUP2 DUP4 AND OR DUP4 MSTORE POP POP POP POP PUSH2 0x192B JUMP JUMPDEST POP POP POP JUMP JUMPDEST PUSH1 0x0 DUP1 PUSH2 0x2710 PUSH1 0x2 SLOAD DUP5 PUSH2 0x182F SWAP2 SWAP1 PUSH2 0x2A92 JUMP JUMPDEST PUSH2 0x1839 SWAP2 SWAP1 PUSH2 0x2B1B JUMP JUMPDEST SWAP1 POP PUSH1 0x0 PUSH1 0x3 PUSH1 0x0 DUP7 PUSH20 0xFFFFFFFFFFFFFFFFFFFFFFFFFFFFFFFFFFFFFFFF AND PUSH20 0xFFFFFFFFFFFFFFFFFFFFFFFFFFFFFFFFFFFFFFFF AND DUP2 MSTORE PUSH1 0x20 ADD SWAP1 DUP2 MSTORE PUSH1 0x20 ADD PUSH1 0x0 KECCAK256 SLOAD SWAP1 POP PUSH1 0x0 DUP2 GT DUP1 ISZERO PUSH2 0x188E JUMPI POP DUP1 DUP3 GT JUMPDEST ISZERO PUSH2 0x1897 JUMPI DUP1 SWAP2 POP JUMPDEST DUP2 SWAP3 POP POP POP SWAP3 SWAP2 POP POP JUMP JUMPDEST PUSH2 0x1925 DUP5 PUSH4 0x23B872DD PUSH1 0xE0 SHL DUP6 DUP6 DUP6 PUSH1 0x40 MLOAD PUSH1 0x24 ADD PUSH2 0x18C3 SWAP4 SWAP3 SWAP2 SWAP1 PUSH2 0x2B4C JUMP JUMPDEST PUSH1 0x40 MLOAD PUSH1 0x20 DUP2 DUP4 SUB SUB DUP2 MSTORE SWAP1 PUSH1 0x40 MSTORE SWAP1 PUSH28 0xFFFFFFFFFFFFFFFFFFFFFFFFFFFFFFFFFFFFFFFFFFFFFFFFFFFFFFFF NOT AND PUSH1 0x20 DUP3 ADD DUP1 MLOAD PUSH28 0xFFFFFFFFFFFFFFFFFFFFFFFFFFFFFFFFFFFFFFFFFFFFFFFFFFFFFFFF DUP4 DUP2 DUP4 AND OR DUP4 MSTORE POP POP POP POP PUSH2 0x192B JUMP JUMPDEST POP POP POP POP JUMP JUMPDEST PUSH1 0x0 PUSH2 0x198D DUP3 PUSH1 0x40 MLOAD DUP1 PUSH1 0x40 ADD PUSH1 0x40 MSTORE DUP1 PUSH1 0x20 DUP2 MSTORE PUSH1 0x20 ADD PUSH32 0x5361666545524332303A206C6F772D6C6576656C2063616C6C206661696C6564 DUP2 MSTORE POP DUP6 PUSH20 0xFFFFFFFFFFFFFFFFFFFFFFFFFFFFFFFFFFFFFFFF AND PUSH2 0x19F2 SWAP1 SWAP3 SWAP2 SWAP1 PUSH4 0xFFFFFFFF AND JUMP JUMPDEST SWAP1 POP PUSH1 0x0 DUP2 MLOAD GT ISZERO PUSH2 0x19ED JUMPI DUP1 DUP1 PUSH1 0x20 ADD SWAP1 MLOAD DUP2 ADD SWAP1 PUSH2 0x19AD SWAP2 SWAP1 PUSH2 0x2BBB JUMP JUMPDEST PUSH2 0x19EC JUMPI PUSH1 0x40 MLOAD PUSH32 0x8C379A000000000000000000000000000000000000000000000000000000000 DUP2 MSTORE PUSH1 0x4 ADD PUSH2 0x19E3 SWAP1 PUSH2 0x2C5A JUMP JUMPDEST PUSH1 0x40 MLOAD DUP1 SWAP2 SUB SWAP1 REVERT JUMPDEST JUMPDEST POP POP POP JUMP JUMPDEST PUSH1 0x60 PUSH2 0x1A01 DUP5 DUP5 PUSH1 0x0 DUP6 PUSH2 0x1A0A JUMP JUMPDEST SWAP1 POP SWAP4 SWAP3 POP POP POP JUMP JUMPDEST PUSH1 0x60 DUP3 SELFBALANCE LT ISZERO PUSH2 0x1A4F JUMPI PUSH1 0x40 MLOAD PUSH32 0x8C379A000000000000000000000000000000000000000000000000000000000 DUP2 MSTORE PUSH1 0x4 ADD PUSH2 0x1A46 SWAP1 PUSH2 0x2CEC JUMP JUMPDEST PUSH1 0x40 MLOAD DUP1 SWAP2 SUB SWAP1 REVERT JUMPDEST PUSH2 0x1A58 DUP6 PUSH2 0x1B1E JUMP JUMPDEST PUSH2 0x1A97 JUMPI PUSH1 0x40 MLOAD PUSH32 0x8C379A000000000000000000000000000000000000000000000000000000000 DUP2 MSTORE PUSH1 0x4 ADD PUSH2 0x1A8E SWAP1 PUSH2 0x2D58 JUMP JUMPDEST PUSH1 0x40 MLOAD DUP1 SWAP2 SUB SWAP1 REVERT JUMPDEST PUSH1 0x0 DUP1 DUP7 PUSH20 0xFFFFFFFFFFFFFFFFFFFFFFFFFFFFFFFFFFFFFFFF AND DUP6 DUP8 PUSH1 0x40 MLOAD PUSH2 0x1AC0 SWAP2 SWAP1 PUSH2 0x2DE7 JUMP JUMPDEST PUSH1 0x0 PUSH1 0x40 MLOAD DUP1 DUP4 SUB DUP2 DUP6 DUP8 GAS CALL SWAP3 POP POP POP RETURNDATASIZE DUP1 PUSH1 0x0 DUP2 EQ PUSH2 0x1AFD JUMPI PUSH1 0x40 MLOAD SWAP2 POP PUSH1 0x1F NOT PUSH1 0x3F RETURNDATASIZE ADD AND DUP3 ADD PUSH1 0x40 MSTORE RETURNDATASIZE DUP3 MSTORE RETURNDATASIZE PUSH1 0x0 PUSH1 0x20 DUP5 ADD RETURNDATACOPY PUSH2 0x1B02 JUMP JUMPDEST PUSH1 0x60 SWAP2 POP JUMPDEST POP SWAP2 POP SWAP2 POP PUSH2 0x1B12 DUP3 DUP3 DUP7 PUSH2 0x1B41 JUMP JUMPDEST SWAP3 POP POP POP SWAP5 SWAP4 POP POP POP POP JUMP JUMPDEST PUSH1 0x0 DUP1 DUP3 PUSH20 0xFFFFFFFFFFFFFFFFFFFFFFFFFFFFFFFFFFFFFFFF AND EXTCODESIZE GT SWAP1 POP SWAP2 SWAP1 POP JUMP JUMPDEST PUSH1 0x60 DUP4 ISZERO PUSH2 0x1B51 JUMPI DUP3 SWAP1 POP PUSH2 0x1BA1 JUMP JUMPDEST PUSH1 0x0 DUP4 MLOAD GT ISZERO PUSH2 0x1B64 JUMPI DUP3 MLOAD DUP1 DUP5 PUSH1 0x20 ADD REVERT JUMPDEST DUP2 PUSH1 0x40 MLOAD PUSH32 0x8C379A000000000000000000000000000000000000000000000000000000000 DUP2 MSTORE PUSH1 0x4 ADD PUSH2 0x1B98 SWAP2 SWAP1 PUSH2 0x2E53 JUMP JUMPDEST PUSH1 0x40 MLOAD DUP1 SWAP2 SUB SWAP1 REVERT JUMPDEST SWAP4 SWAP3 POP POP POP JUMP JUMPDEST PUSH1 0x0 DUP1 REVERT JUMPDEST PUSH1 0x0 PUSH20 0xFFFFFFFFFFFFFFFFFFFFFFFFFFFFFFFFFFFFFFFF DUP3 AND SWAP1 POP SWAP2 SWAP1 POP JUMP JUMPDEST PUSH1 0x0 PUSH2 0x1BD8 DUP3 PUSH2 0x1BAD JUMP JUMPDEST SWAP1 POP SWAP2 SWAP1 POP JUMP JUMPDEST PUSH2 0x1BE8 DUP2 PUSH2 0x1BCD JUMP JUMPDEST DUP2 EQ PUSH2 0x1BF3 JUMPI PUSH1 0x0 DUP1 REVERT JUMPDEST POP JUMP JUMPDEST PUSH1 0x0 DUP2 CALLDATALOAD SWAP1 POP PUSH2 0x1C05 DUP2 PUSH2 0x1BDF JUMP JUMPDEST SWAP3 SWAP2 POP POP JUMP JUMPDEST PUSH1 0x0 PUSH1 0x20 DUP3 DUP5 SUB SLT ISZERO PUSH2 0x1C21 JUMPI PUSH2 0x1C20 PUSH2 0x1BA8 JUMP JUMPDEST JUMPDEST PUSH1 0x0 PUSH2 0x1C2F DUP5 DUP3 DUP6 ADD PUSH2 0x1BF6 JUMP JUMPDEST SWAP2 POP POP SWAP3 SWAP2 POP POP JUMP JUMPDEST PUSH1 0x0 DUP2 SWAP1 POP SWAP2 SWAP1 POP JUMP JUMPDEST PUSH2 0x1C4B DUP2 PUSH2 0x1C38 JUMP JUMPDEST DUP3 MSTORE POP POP JUMP JUMPDEST PUSH1 0x0 PUSH1 0x20 DUP3 ADD SWAP1 POP PUSH2 0x1C66 PUSH1 0x0 DUP4 ADD DUP5 PUSH2 0x1C42 JUMP JUMPDEST SWAP3 SWAP2 POP POP JUMP JUMPDEST PUSH2 0x1C75 DUP2 PUSH2 0x1C38 JUMP JUMPDEST DUP2 EQ PUSH2 0x1C80 JUMPI PUSH1 0x0 DUP1 REVERT JUMPDEST POP JUMP JUMPDEST PUSH1 0x0 DUP2 CALLDATALOAD SWAP1 POP PUSH2 0x1C92 DUP2 PUSH2 0x1C6C JUMP JUMPDEST SWAP3 SWAP2 POP POP JUMP JUMPDEST PUSH1 0x0 DUP1 PUSH1 0x40 DUP4 DUP6 SUB SLT ISZERO PUSH2 0x1CAF JUMPI PUSH2 0x1CAE PUSH2 0x1BA8 JUMP JUMPDEST JUMPDEST PUSH1 0x0 PUSH2 0x1CBD DUP6 DUP3 DUP7 ADD PUSH2 0x1BF6 JUMP JUMPDEST SWAP3 POP POP PUSH1 0x20 PUSH2 0x1CCE DUP6 DUP3 DUP7 ADD PUSH2 0x1C83 JUMP JUMPDEST SWAP2 POP POP SWAP3 POP SWAP3 SWAP1 POP JUMP JUMPDEST PUSH1 0x0 DUP2 SWAP1 POP SWAP2 SWAP1 POP JUMP JUMPDEST PUSH2 0x1CEB DUP2 PUSH2 0x1CD8 JUMP JUMPDEST DUP2 EQ PUSH2 0x1CF6 JUMPI PUSH1 0x0 DUP1 REVERT JUMPDEST POP JUMP JUMPDEST PUSH1 0x0 DUP2 CALLDATALOAD SWAP1 POP PUSH2 0x1D08 DUP2 PUSH2 0x1CE2 JUMP JUMPDEST SWAP3 SWAP2 POP POP JUMP JUMPDEST PUSH1 0x0 PUSH1 0x20 DUP3 DUP5 SUB SLT ISZERO PUSH2 0x1D24 JUMPI PUSH2 0x1D23 PUSH2 0x1BA8 JUMP JUMPDEST JUMPDEST PUSH1 0x0 PUSH2 0x1D32 DUP5 DUP3 DUP6 ADD PUSH2 0x1CF9 JUMP JUMPDEST SWAP2 POP POP SWAP3 SWAP2 POP POP JUMP JUMPDEST PUSH32 0x4E487B7100000000000000000000000000000000000000000000000000000000 PUSH1 0x0 MSTORE PUSH1 0x21 PUSH1 0x4 MSTORE PUSH1 0x24 PUSH1 0x0 REVERT JUMPDEST PUSH1 0x4 DUP2 LT PUSH2 0x1D7B JUMPI PUSH2 0x1D7A PUSH2 0x1D3B JUMP JUMPDEST JUMPDEST POP JUMP JUMPDEST PUSH1 0x0 DUP2 SWAP1 POP PUSH2 0x1D8C DUP3 PUSH2 0x1D6A JUMP JUMPDEST SWAP2 SWAP1 POP JUMP JUMPDEST PUSH1 0x0 PUSH2 0x1D9C DUP3 PUSH2 0x1D7E JUMP JUMPDEST SWAP1 POP SWAP2 SWAP1 POP JUMP JUMPDEST PUSH2 0x1DAC DUP2 PUSH2 0x1D91 JUMP JUMPDEST DUP3 MSTORE POP POP JUMP JUMPDEST PUSH1 0x0 PUSH1 0x20 DUP3 ADD SWAP1 POP PUSH2 0x1DC7 PUSH1 0x0 DUP4 ADD DUP5 PUSH2 0x1DA3 JUMP JUMPDEST SWAP3 SWAP2 POP POP JUMP JUMPDEST PUSH1 0x0 PUSH8 0xFFFFFFFFFFFFFFFF DUP3 AND SWAP1 POP SWAP2 SWAP1 POP JUMP JUMPDEST PUSH2 0x1DEA DUP2 PUSH2 0x1DCD JUMP JUMPDEST DUP2 EQ PUSH2 0x1DF5 JUMPI PUSH1 0x0 DUP1 REVERT JUMPDEST POP JUMP JUMPDEST PUSH1 0x0 DUP2 CALLDATALOAD SWAP1 POP PUSH2 0x1E07 DUP2 PUSH2 0x1DE1 JUMP JUMPDEST SWAP3 SWAP2 POP POP JUMP JUMPDEST PUSH1 0x0 DUP1 PUSH1 0x0 DUP1 PUSH1 0x0 DUP1 PUSH1 0x0 DUP1 PUSH1 0x0 DUP1 PUSH1 0x0 PUSH2 0x160 DUP13 DUP15 SUB SLT ISZERO PUSH2 0x1E33 JUMPI PUSH2 0x1E32 PUSH2 0x1BA8 JUMP JUMPDEST JUMPDEST PUSH1 0x0 PUSH2 0x1E41 DUP15 DUP3 DUP16 ADD PUSH2 0x1BF6 JUMP JUMPDEST SWAP12 POP POP PUSH1 0x20 PUSH2 0x1E52 DUP15 DUP3 DUP16 ADD PUSH2 0x1BF6 JUMP JUMPDEST SWAP11 POP POP PUSH1 0x40 PUSH2 0x1E63 DUP15 DUP3 DUP16 ADD PUSH2 0x1BF6 JUMP JUMPDEST SWAP10 POP POP PUSH1 0x60 PUSH2 0x1E74 DUP15 DUP3 DUP16 ADD PUSH2 0x1C83 JUMP JUMPDEST SWAP9 POP POP PUSH1 0x80 PUSH2 0x1E85 DUP15 DUP3 DUP16 ADD PUSH2 0x1CF9 JUMP JUMPDEST SWAP8 POP POP PUSH1 0xA0 PUSH2 0x1E96 DUP15 DUP3 DUP16 ADD PUSH2 0x1DF8 JUMP JUMPDEST SWAP7 POP POP PUSH1 0xC0 PUSH2 0x1EA7 DUP15 DUP3 DUP16 ADD PUSH2 0x1DF8 JUMP JUMPDEST SWAP6 POP POP PUSH1 0xE0 PUSH2 0x1EB8 DUP15 DUP3 DUP16 ADD PUSH2 0x1C83 JUMP JUMPDEST SWAP5 POP POP PUSH2 0x100 PUSH2 0x1ECA DUP15 DUP3 DUP16 ADD PUSH2 0x1DF8 JUMP JUMPDEST SWAP4 POP POP PUSH2 0x120 PUSH2 0x1EDC DUP15 DUP3 DUP16 ADD PUSH2 0x1C83 JUMP JUMPDEST SWAP3 POP POP PUSH2 0x140 PUSH2 0x1EEE DUP15 DUP3 DUP16 ADD PUSH2 0x1C83 JUMP JUMPDEST SWAP2 POP POP SWAP3 SWAP6 SWAP9 SWAP12 POP SWAP3 SWAP6 SWAP9 SWAP12 SWAP1 SWAP4 SWAP7 SWAP10 POP JUMP JUMPDEST PUSH2 0x1F0A DUP2 PUSH2 0x1BCD JUMP JUMPDEST DUP3 MSTORE POP POP JUMP JUMPDEST PUSH1 0x0 PUSH1 0x20 DUP3 ADD SWAP1 POP PUSH2 0x1F25 PUSH1 0x0 DUP4 ADD DUP5 PUSH2 0x1F01 JUMP JUMPDEST SWAP3 SWAP2 POP POP JUMP JUMPDEST PUSH1 0x0 DUP1 PUSH1 0x0 DUP1 PUSH1 0x0 DUP1 PUSH1 0x0 DUP1 PUSH1 0x0 PUSH2 0x120 DUP11 DUP13 SUB SLT ISZERO PUSH2 0x1F4E JUMPI PUSH2 0x1F4D PUSH2 0x1BA8 JUMP JUMPDEST JUMPDEST PUSH1 0x0 PUSH2 0x1F5C DUP13 DUP3 DUP14 ADD PUSH2 0x1BF6 JUMP JUMPDEST SWAP10 POP POP PUSH1 0x20 PUSH2 0x1F6D DUP13 DUP3 DUP14 ADD PUSH2 0x1BF6 JUMP JUMPDEST SWAP9 POP POP PUSH1 0x40 PUSH2 0x1F7E DUP13 DUP3 DUP14 ADD PUSH2 0x1BF6 JUMP JUMPDEST SWAP8 POP POP PUSH1 0x60 PUSH2 0x1F8F DUP13 DUP3 DUP14 ADD PUSH2 0x1C83 JUMP JUMPDEST SWAP7 POP POP PUSH1 0x80 PUSH2 0x1FA0 DUP13 DUP3 DUP14 ADD PUSH2 0x1C83 JUMP JUMPDEST SWAP6 POP POP PUSH1 0xA0 PUSH2 0x1FB1 DUP13 DUP3 DUP14 ADD PUSH2 0x1CF9 JUMP JUMPDEST SWAP5 POP POP PUSH1 0xC0 PUSH2 0x1FC2 DUP13 DUP3 DUP14 ADD PUSH2 0x1DF8 JUMP JUMPDEST SWAP4 POP POP PUSH1 0xE0 PUSH2 0x1FD3 DUP13 DUP3 DUP14 ADD PUSH2 0x1DF8 JUMP JUMPDEST SWAP3 POP POP PUSH2 0x100 PUSH2 0x1FE5 DUP13 DUP3 DUP14 ADD PUSH2 0x1CF9 JUMP JUMPDEST SWAP2 POP POP SWAP3 SWAP6 SWAP9 POP SWAP3 SWAP6 SWAP9 POP SWAP3 SWAP6 SWAP9 JUMP JUMPDEST PUSH1 0x0 PUSH1 0x20 DUP3 DUP5 SUB SLT ISZERO PUSH2 0x200B JUMPI PUSH2 0x200A PUSH2 0x1BA8 JUMP JUMPDEST JUMPDEST PUSH1 0x0 PUSH2 0x2019 DUP5 DUP3 DUP6 ADD PUSH2 0x1C83 JUMP JUMPDEST SWAP2 POP POP SWAP3 SWAP2 POP POP JUMP JUMPDEST PUSH1 0x0 DUP1 PUSH1 0x0 DUP1 PUSH1 0x0 DUP1 PUSH1 0x0 PUSH1 0xE0 DUP9 DUP11 SUB SLT ISZERO PUSH2 0x2041 JUMPI PUSH2 0x2040 PUSH2 0x1BA8 JUMP JUMPDEST JUMPDEST PUSH1 0x0 PUSH2 0x204F DUP11 DUP3 DUP12 ADD PUSH2 0x1BF6 JUMP JUMPDEST SWAP8 POP POP PUSH1 0x20 PUSH2 0x2060 DUP11 DUP3 DUP12 ADD PUSH2 0x1BF6 JUMP JUMPDEST SWAP7 POP POP PUSH1 0x40 PUSH2 0x2071 DUP11 DUP3 DUP12 ADD PUSH2 0x1BF6 JUMP JUMPDEST SWAP6 POP POP PUSH1 0x60 PUSH2 0x2082 DUP11 DUP3 DUP12 ADD PUSH2 0x1C83 JUMP JUMPDEST SWAP5 POP POP PUSH1 0x80 PUSH2 0x2093 DUP11 DUP3 DUP12 ADD PUSH2 0x1C83 JUMP JUMPDEST SWAP4 POP POP PUSH1 0xA0 PUSH2 0x20A4 DUP11 DUP3 DUP12 ADD PUSH2 0x1CF9 JUMP JUMPDEST SWAP3 POP POP PUSH1 0xC0 PUSH2 0x20B5 DUP11 DUP3 DUP12 ADD PUSH2 0x1DF8 JUMP JUMPDEST SWAP2 POP POP SWAP3 SWAP6 SWAP9 SWAP2 SWAP5 SWAP8 POP SWAP3 SWAP6 POP JUMP JUMPDEST PUSH1 0x0 DUP1 PUSH1 0x0 DUP1 PUSH1 0x0 DUP1 PUSH1 0x0 DUP1 PUSH2 0x100 DUP10 DUP12 SUB SLT ISZERO PUSH2 0x20E5 JUMPI PUSH2 0x20E4 PUSH2 0x1BA8 JUMP JUMPDEST JUMPDEST PUSH1 0x0 PUSH2 0x20F3 DUP12 DUP3 DUP13 ADD PUSH2 0x1BF6 JUMP JUMPDEST SWAP9 POP POP PUSH1 0x20 PUSH2 0x2104 DUP12 DUP3 DUP13 ADD PUSH2 0x1BF6 JUMP JUMPDEST SWAP8 POP POP PUSH1 0x40 PUSH2 0x2115 DUP12 DUP3 DUP13 ADD PUSH2 0x1BF6 JUMP JUMPDEST SWAP7 POP POP PUSH1 0x60 PUSH2 0x2126 DUP12 DUP3 DUP13 ADD PUSH2 0x1C83 JUMP JUMPDEST SWAP6 POP POP PUSH1 0x80 PUSH2 0x2137 DUP12 DUP3 DUP13 ADD PUSH2 0x1C83 JUMP JUMPDEST SWAP5 POP POP PUSH1 0xA0 PUSH2 0x2148 DUP12 DUP3 DUP13 ADD PUSH2 0x1CF9 JUMP JUMPDEST SWAP4 POP POP PUSH1 0xC0 PUSH2 0x2159 DUP12 DUP3 DUP13 ADD PUSH2 0x1DF8 JUMP JUMPDEST SWAP3 POP POP PUSH1 0xE0 PUSH2 0x216A DUP12 DUP3 DUP13 ADD PUSH2 0x1CF9 JUMP JUMPDEST SWAP2 POP POP SWAP3 SWAP6 SWAP9 POP SWAP3 SWAP6 SWAP9 SWAP1 SWAP4 SWAP7 POP JUMP JUMPDEST PUSH1 0x0 DUP3 DUP3 MSTORE PUSH1 0x20 DUP3 ADD SWAP1 POP SWAP3 SWAP2 POP POP JUMP JUMPDEST PUSH32 0x4F776E61626C653A2063616C6C6572206973206E6F7420746865206F776E6572 PUSH1 0x0 DUP3 ADD MSTORE POP JUMP JUMPDEST PUSH1 0x0 PUSH2 0x21C1 PUSH1 0x20 DUP4 PUSH2 0x217A JUMP JUMPDEST SWAP2 POP PUSH2 0x21CC DUP3 PUSH2 0x218B JUMP JUMPDEST PUSH1 0x20 DUP3 ADD SWAP1 POP SWAP2 SWAP1 POP JUMP JUMPDEST PUSH1 0x0 PUSH1 0x20 DUP3 ADD SWAP1 POP DUP2 DUP2 SUB PUSH1 0x0 DUP4 ADD MSTORE PUSH2 0x21F0 DUP2 PUSH2 0x21B4 JUMP JUMPDEST SWAP1 POP SWAP2 SWAP1 POP JUMP JUMPDEST PUSH32 0x726571756972652073656E646572000000000000000000000000000000000000 PUSH1 0x0 DUP3 ADD MSTORE POP JUMP JUMPDEST PUSH1 0x0 PUSH2 0x222D PUSH1 0xE DUP4 PUSH2 0x217A JUMP JUMPDEST SWAP2 POP PUSH2 0x2238 DUP3 PUSH2 0x21F7 JUMP JUMPDEST PUSH1 0x20 DUP3 ADD SWAP1 POP SWAP2 SWAP1 POP JUMP JUMPDEST PUSH1 0x0 PUSH1 0x20 DUP3 ADD SWAP1 POP DUP2 DUP2 SUB PUSH1 0x0 DUP4 ADD MSTORE PUSH2 0x225C DUP2 PUSH2 0x2220 JUMP JUMPDEST SWAP1 POP SWAP2 SWAP1 POP JUMP JUMPDEST PUSH2 0x226C DUP2 PUSH2 0x1CD8 JUMP JUMPDEST DUP3 MSTORE POP POP JUMP JUMPDEST PUSH2 0x227B DUP2 PUSH2 0x1DCD JUMP JUMPDEST DUP3 MSTORE POP POP JUMP JUMPDEST PUSH1 0x0 PUSH2 0x180 DUP3 ADD SWAP1 POP PUSH2 0x2297 PUSH1 0x0 DUP4 ADD DUP16 PUSH2 0x2263 JUMP JUMPDEST PUSH2 0x22A4 PUSH1 0x20 DUP4 ADD DUP15 PUSH2 0x1F01 JUMP JUMPDEST PUSH2 0x22B1 PUSH1 0x40 DUP4 ADD DUP14 PUSH2 0x1F01 JUMP JUMPDEST PUSH2 0x22BE PUSH1 0x60 DUP4 ADD DUP13 PUSH2 0x1F01 JUMP JUMPDEST PUSH2 0x22CB PUSH1 0x80 DUP4 ADD DUP12 PUSH2 0x1C42 JUMP JUMPDEST PUSH2 0x22D8 PUSH1 0xA0 DUP4 ADD DUP11 PUSH2 0x2263 JUMP JUMPDEST PUSH2 0x22E5 PUSH1 0xC0 DUP4 ADD DUP10 PUSH2 0x2272 JUMP JUMPDEST PUSH2 0x22F2 PUSH1 0xE0 DUP4 ADD DUP9 PUSH2 0x2272 JUMP JUMPDEST PUSH2 0x2300 PUSH2 0x100 DUP4 ADD DUP8 PUSH2 0x1C42 JUMP JUMPDEST PUSH2 0x230E PUSH2 0x120 DUP4 ADD DUP7 PUSH2 0x2272 JUMP JUMPDEST PUSH2 0x231C PUSH2 0x140 DUP4 ADD DUP6 PUSH2 0x1C42 JUMP JUMPDEST PUSH2 0x232A PUSH2 0x160 DUP4 ADD DUP5 PUSH2 0x1C42 JUMP JUMPDEST SWAP14 SWAP13 POP POP POP POP POP POP POP POP POP POP POP POP POP JUMP JUMPDEST PUSH1 0x0 PUSH2 0x140 DUP3 ADD SWAP1 POP PUSH2 0x2351 PUSH1 0x0 DUP4 ADD DUP14 PUSH2 0x2263 JUMP JUMPDEST PUSH2 0x235E PUSH1 0x20 DUP4 ADD DUP13 PUSH2 0x1F01 JUMP JUMPDEST PUSH2 0x236B PUSH1 0x40 DUP4 ADD DUP12 PUSH2 0x1F01 JUMP JUMPDEST PUSH2 0x2378 PUSH1 0x60 DUP4 ADD DUP11 PUSH2 0x1F01 JUMP JUMPDEST PUSH2 0x2385 PUSH1 0x80 DUP4 ADD DUP10 PUSH2 0x1C42 JUMP JUMPDEST PUSH2 0x2392 PUSH1 0xA0 DUP4 ADD DUP9 PUSH2 0x1C42 JUMP JUMPDEST PUSH2 0x239F PUSH1 0xC0 DUP4 ADD DUP8 PUSH2 0x2263 JUMP JUMPDEST PUSH2 0x23AC PUSH1 0xE0 DUP4 ADD DUP7 PUSH2 0x2272 JUMP JUMPDEST PUSH2 0x23BA PUSH2 0x100 DUP4 ADD DUP6 PUSH2 0x2272 JUMP JUMPDEST PUSH2 0x23C8 PUSH2 0x120 DUP4 ADD DUP5 PUSH2 0x2263 JUMP JUMPDEST SWAP12 SWAP11 POP POP POP POP POP POP POP POP POP POP POP JUMP JUMPDEST PUSH1 0x0 DUP2 PUSH1 0x60 SHL SWAP1 POP SWAP2 SWAP1 POP JUMP JUMPDEST PUSH1 0x0 PUSH2 0x23EF DUP3 PUSH2 0x23D7 JUMP JUMPDEST SWAP1 POP SWAP2 SWAP1 POP JUMP JUMPDEST PUSH1 0x0 PUSH2 0x2401 DUP3 PUSH2 0x23E4 JUMP JUMPDEST SWAP1 POP SWAP2 SWAP1 POP JUMP JUMPDEST PUSH2 0x2419 PUSH2 0x2414 DUP3 PUSH2 0x1BCD JUMP JUMPDEST PUSH2 0x23F6 JUMP JUMPDEST DUP3 MSTORE POP POP JUMP JUMPDEST PUSH1 0x0 DUP2 SWAP1 POP SWAP2 SWAP1 POP JUMP JUMPDEST PUSH2 0x243A PUSH2 0x2435 DUP3 PUSH2 0x1CD8 JUMP JUMPDEST PUSH2 0x241F JUMP JUMPDEST DUP3 MSTORE POP POP JUMP JUMPDEST PUSH1 0x0 DUP2 PUSH1 0xC0 SHL SWAP1 POP SWAP2 SWAP1 POP JUMP JUMPDEST PUSH1 0x0 PUSH2 0x2458 DUP3 PUSH2 0x2440 JUMP JUMPDEST SWAP1 POP SWAP2 SWAP1 POP JUMP JUMPDEST PUSH2 0x2470 PUSH2 0x246B DUP3 PUSH2 0x1DCD JUMP JUMPDEST PUSH2 0x244D JUMP JUMPDEST DUP3 MSTORE POP POP JUMP JUMPDEST PUSH1 0x0 DUP2 SWAP1 POP SWAP2 SWAP1 POP JUMP JUMPDEST PUSH2 0x2491 PUSH2 0x248C DUP3 PUSH2 0x1C38 JUMP JUMPDEST PUSH2 0x2476 JUMP JUMPDEST DUP3 MSTORE POP POP JUMP JUMPDEST PUSH1 0x0 PUSH2 0x24A3 DUP3 DUP12 PUSH2 0x2408 JUMP JUMPDEST PUSH1 0x14 DUP3 ADD SWAP2 POP PUSH2 0x24B3 DUP3 DUP11 PUSH2 0x2408 JUMP JUMPDEST PUSH1 0x14 DUP3 ADD SWAP2 POP PUSH2 0x24C3 DUP3 DUP10 PUSH2 0x2429 JUMP JUMPDEST PUSH1 0x20 DUP3 ADD SWAP2 POP PUSH2 0x24D3 DUP3 DUP9 PUSH2 0x245F JUMP JUMPDEST PUSH1 0x8 DUP3 ADD SWAP2 POP PUSH2 0x24E3 DUP3 DUP8 PUSH2 0x2408 JUMP JUMPDEST PUSH1 0x14 DUP3 ADD SWAP2 POP PUSH2 0x24F3 DUP3 DUP7 PUSH2 0x2480 JUMP JUMPDEST PUSH1 0x20 DUP3 ADD SWAP2 POP PUSH2 0x2503 DUP3 DUP6 PUSH2 0x2480 JUMP JUMPDEST PUSH1 0x20 DUP3 ADD SWAP2 POP PUSH2 0x2513 DUP3 DUP5 PUSH2 0x2480 JUMP JUMPDEST PUSH1 0x20 DUP3 ADD SWAP2 POP DUP2 SWAP1 POP SWAP10 SWAP9 POP POP POP POP POP POP POP POP POP JUMP JUMPDEST PUSH32 0x6E6F742070656E64696E67207472616E73666572000000000000000000000000 PUSH1 0x0 DUP3 ADD MSTORE POP JUMP JUMPDEST PUSH1 0x0 PUSH2 0x255F PUSH1 0x14 DUP4 PUSH2 0x217A JUMP JUMPDEST SWAP2 POP PUSH2 0x256A DUP3 PUSH2 0x2529 JUMP JUMPDEST PUSH1 0x20 DUP3 ADD SWAP1 POP SWAP2 SWAP1 POP JUMP JUMPDEST PUSH1 0x0 PUSH1 0x20 DUP3 ADD SWAP1 POP DUP2 DUP2 SUB PUSH1 0x0 DUP4 ADD MSTORE PUSH2 0x258E DUP2 PUSH2 0x2552 JUMP JUMPDEST SWAP1 POP SWAP2 SWAP1 POP JUMP JUMPDEST PUSH32 0x74696D656C6F636B206E6F742079657420706173736564000000000000000000 PUSH1 0x0 DUP3 ADD MSTORE POP JUMP JUMPDEST PUSH1 0x0 PUSH2 0x25CB PUSH1 0x17 DUP4 PUSH2 0x217A JUMP JUMPDEST SWAP2 POP PUSH2 0x25D6 DUP3 PUSH2 0x2595 JUMP JUMPDEST PUSH1 0x20 DUP3 ADD SWAP1 POP SWAP2 SWAP1 POP JUMP JUMPDEST PUSH1 0x0 PUSH1 0x20 DUP3 ADD SWAP1 POP DUP2 DUP2 SUB PUSH1 0x0 DUP4 ADD MSTORE PUSH2 0x25FA DUP2 PUSH2 0x25BE JUMP JUMPDEST SWAP1 POP SWAP2 SWAP1 POP JUMP JUMPDEST PUSH1 0x0 DUP2 SWAP1 POP SWAP3 SWAP2 POP POP JUMP JUMPDEST POP JUMP JUMPDEST PUSH1 0x0 PUSH2 0x261C PUSH1 0x0 DUP4 PUSH2 0x2601 JUMP JUMPDEST SWAP2 POP PUSH2 0x2627 DUP3 PUSH2 0x260C JUMP JUMPDEST PUSH1 0x0 DUP3 ADD SWAP1 POP SWAP2 SWAP1 POP JUMP JUMPDEST PUSH1 0x0 PUSH2 0x263D DUP3 PUSH2 0x260F JUMP JUMPDEST SWAP2 POP DUP2 SWAP1 POP SWAP2 SWAP1 POP JUMP JUMPDEST PUSH32 0x4661696C656420746F2073656E64204574686572000000000000000000000000 PUSH1 0x0 DUP3 ADD MSTORE POP JUMP JUMPDEST PUSH1 0x0 PUSH2 0x267D PUSH1 0x14 DUP4 PUSH2 0x217A JUMP JUMPDEST SWAP2 POP PUSH2 0x2688 DUP3 PUSH2 0x2647 JUMP JUMPDEST PUSH1 0x20 DUP3 ADD SWAP1 POP SWAP2 SWAP1 POP JUMP JUMPDEST PUSH1 0x0 PUSH1 0x20 DUP3 ADD SWAP1 POP DUP2 DUP2 SUB PUSH1 0x0 DUP4 ADD MSTORE PUSH2 0x26AC DUP2 PUSH2 0x2670 JUMP JUMPDEST SWAP1 POP SWAP2 SWAP1 POP JUMP JUMPDEST PUSH1 0x0 PUSH1 0x20 DUP3 ADD SWAP1 POP PUSH2 0x26C8 PUSH1 0x0 DUP4 ADD DUP5 PUSH2 0x2263 JUMP JUMPDEST SWAP3 SWAP2 POP POP JUMP JUMPDEST PUSH1 0x0 PUSH2 0x26DA DUP3 DUP5 PUSH2 0x2429 JUMP JUMPDEST PUSH1 0x20 DUP3 ADD SWAP2 POP DUP2 SWAP1 POP SWAP3 SWAP2 POP POP JUMP JUMPDEST PUSH32 0x696E636F727265637420707265696D6167650000000000000000000000000000 PUSH1 0x0 DUP3 ADD MSTORE POP JUMP JUMPDEST PUSH1 0x0 PUSH2 0x271F PUSH1 0x12 DUP4 PUSH2 0x217A JUMP JUMPDEST SWAP2 POP PUSH2 0x272A DUP3 PUSH2 0x26E9 JUMP JUMPDEST PUSH1 0x20 DUP3 ADD SWAP1 POP SWAP2 SWAP1 POP JUMP JUMPDEST PUSH1 0x0 PUSH1 0x20 DUP3 ADD SWAP1 POP DUP2 DUP2 SUB PUSH1 0x0 DUP4 ADD MSTORE PUSH2 0x274E DUP2 PUSH2 0x2712 JUMP JUMPDEST SWAP1 POP SWAP2 SWAP1 POP JUMP JUMPDEST PUSH32 0x4E487B7100000000000000000000000000000000000000000000000000000000 PUSH1 0x0 MSTORE PUSH1 0x11 PUSH1 0x4 MSTORE PUSH1 0x24 PUSH1 0x0 REVERT JUMPDEST PUSH1 0x0 PUSH2 0x278F DUP3 PUSH2 0x1C38 JUMP JUMPDEST SWAP2 POP PUSH2 0x279A DUP4 PUSH2 0x1C38 JUMP JUMPDEST SWAP3 POP DUP3 DUP3 LT ISZERO PUSH2 0x27AD JUMPI PUSH2 0x27AC PUSH2 0x2755 JUMP JUMPDEST JUMPDEST DUP3 DUP3 SUB SWAP1 POP SWAP3 SWAP2 POP POP JUMP JUMPDEST PUSH1 0x0 PUSH1 0x40 DUP3 ADD SWAP1 POP PUSH2 0x27CD PUSH1 0x0 DUP4 ADD DUP6 PUSH2 0x2263 JUMP JUMPDEST PUSH2 0x27DA PUSH1 0x20 DUP4 ADD DUP5 PUSH2 0x2263 JUMP JUMPDEST SWAP4 SWAP3 POP POP POP JUMP JUMPDEST PUSH32 0x416464726573732073686F756C64206E6F742062652030780000000000000000 PUSH1 0x0 DUP3 ADD MSTORE POP JUMP JUMPDEST PUSH1 0x0 PUSH2 0x2817 PUSH1 0x18 DUP4 PUSH2 0x217A JUMP JUMPDEST SWAP2 POP PUSH2 0x2822 DUP3 PUSH2 0x27E1 JUMP JUMPDEST PUSH1 0x20 DUP3 ADD SWAP1 POP SWAP2 SWAP1 POP JUMP JUMPDEST PUSH1 0x0 PUSH1 0x20 DUP3 ADD SWAP1 POP DUP2 DUP2 SUB PUSH1 0x0 DUP4 ADD MSTORE PUSH2 0x2846 DUP2 PUSH2 0x280A JUMP JUMPDEST SWAP1 POP SWAP2 SWAP1 POP JUMP JUMPDEST PUSH32 0x696E76616C696420616D6F756E74000000000000000000000000000000000000 PUSH1 0x0 DUP3 ADD MSTORE POP JUMP JUMPDEST PUSH1 0x0 PUSH2 0x2883 PUSH1 0xE DUP4 PUSH2 0x217A JUMP JUMPDEST SWAP2 POP PUSH2 0x288E DUP3 PUSH2 0x284D JUMP JUMPDEST PUSH1 0x20 DUP3 ADD SWAP1 POP SWAP2 SWAP1 POP JUMP JUMPDEST PUSH1 0x0 PUSH1 0x20 DUP3 ADD SWAP1 POP DUP2 DUP2 SUB PUSH1 0x0 DUP4 ADD MSTORE PUSH2 0x28B2 DUP2 PUSH2 0x2876 JUMP JUMPDEST SWAP1 POP SWAP2 SWAP1 POP JUMP JUMPDEST PUSH32 0x696E76616C69642074696D656C6F636B00000000000000000000000000000000 PUSH1 0x0 DUP3 ADD MSTORE POP JUMP JUMPDEST PUSH1 0x0 PUSH2 0x28EF PUSH1 0x10 DUP4 PUSH2 0x217A JUMP JUMPDEST SWAP2 POP PUSH2 0x28FA DUP3 PUSH2 0x28B9 JUMP JUMPDEST PUSH1 0x20 DUP3 ADD SWAP1 POP SWAP2 SWAP1 POP JUMP JUMPDEST PUSH1 0x0 PUSH1 0x20 DUP3 ADD SWAP1 POP DUP2 DUP2 SUB PUSH1 0x0 DUP4 ADD MSTORE PUSH2 0x291E DUP2 PUSH2 0x28E2 JUMP JUMPDEST SWAP1 POP SWAP2 SWAP1 POP JUMP JUMPDEST PUSH32 0x7472616E73666572206578697374730000000000000000000000000000000000 PUSH1 0x0 DUP3 ADD MSTORE POP JUMP JUMPDEST PUSH1 0x0 PUSH2 0x295B PUSH1 0xF DUP4 PUSH2 0x217A JUMP JUMPDEST SWAP2 POP PUSH2 0x2966 DUP3 PUSH2 0x2925 JUMP JUMPDEST PUSH1 0x20 DUP3 ADD SWAP1 POP SWAP2 SWAP1 POP JUMP JUMPDEST PUSH1 0x0 PUSH1 0x20 DUP3 ADD SWAP1 POP DUP2 DUP2 SUB PUSH1 0x0 DUP4 ADD MSTORE PUSH2 0x298A DUP2 PUSH2 0x294E JUMP JUMPDEST SWAP1 POP SWAP2 SWAP1 POP JUMP JUMPDEST PUSH32 0x45746820416D6F756E742073686F756C64207A65726F00000000000000000000 PUSH1 0x0 DUP3 ADD MSTORE POP JUMP JUMPDEST PUSH1 0x0 PUSH2 0x29C7 PUSH1 0x16 DUP4 PUSH2 0x217A JUMP JUMPDEST SWAP2 POP PUSH2 0x29D2 DUP3 PUSH2 0x2991 JUMP JUMPDEST PUSH1 0x20 DUP3 ADD SWAP1 POP SWAP2 SWAP1 POP JUMP JUMPDEST PUSH1 0x0 PUSH1 0x20 DUP3 ADD SWAP1 POP DUP2 DUP2 SUB PUSH1 0x0 DUP4 ADD MSTORE PUSH2 0x29F6 DUP2 PUSH2 0x29BA JUMP JUMPDEST SWAP1 POP SWAP2 SWAP1 POP JUMP JUMPDEST PUSH32 0x45746820416D6F756E74206D69736D6174636800000000000000000000000000 PUSH1 0x0 DUP3 ADD MSTORE POP JUMP JUMPDEST PUSH1 0x0 PUSH2 0x2A33 PUSH1 0x13 DUP4 PUSH2 0x217A JUMP JUMPDEST SWAP2 POP PUSH2 0x2A3E DUP3 PUSH2 0x29FD JUMP JUMPDEST PUSH1 0x20 DUP3 ADD SWAP1 POP SWAP2 SWAP1 POP JUMP JUMPDEST PUSH1 0x0 PUSH1 0x20 DUP3 ADD SWAP1 POP DUP2 DUP2 SUB PUSH1 0x0 DUP4 ADD MSTORE PUSH2 0x2A62 DUP2 PUSH2 0x2A26 JUMP JUMPDEST SWAP1 POP SWAP2 SWAP1 POP JUMP JUMPDEST PUSH1 0x0 PUSH1 0x40 DUP3 ADD SWAP1 POP PUSH2 0x2A7E PUSH1 0x0 DUP4 ADD DUP6 PUSH2 0x1F01 JUMP JUMPDEST PUSH2 0x2A8B PUSH1 0x20 DUP4 ADD DUP5 PUSH2 0x1C42 JUMP JUMPDEST SWAP4 SWAP3 POP POP POP JUMP JUMPDEST PUSH1 0x0 PUSH2 0x2A9D DUP3 PUSH2 0x1C38 JUMP JUMPDEST SWAP2 POP PUSH2 0x2AA8 DUP4 PUSH2 0x1C38 JUMP JUMPDEST SWAP3 POP DUP2 PUSH32 0xFFFFFFFFFFFFFFFFFFFFFFFFFFFFFFFFFFFFFFFFFFFFFFFFFFFFFFFFFFFFFFFF DIV DUP4 GT DUP3 ISZERO ISZERO AND ISZERO PUSH2 0x2AE1 JUMPI PUSH2 0x2AE0 PUSH2 0x2755 JUMP JUMPDEST JUMPDEST DUP3 DUP3 MUL SWAP1 POP SWAP3 SWAP2 POP POP JUMP JUMPDEST PUSH32 0x4E487B7100000000000000000000000000000000000000000000000000000000 PUSH1 0x0 MSTORE PUSH1 0x12 PUSH1 0x4 MSTORE PUSH1 0x24 PUSH1 0x0 REVERT JUMPDEST PUSH1 0x0 PUSH2 0x2B26 DUP3 PUSH2 0x1C38 JUMP JUMPDEST SWAP2 POP PUSH2 0x2B31 DUP4 PUSH2 0x1C38 JUMP JUMPDEST SWAP3 POP DUP3 PUSH2 0x2B41 JUMPI PUSH2 0x2B40 PUSH2 0x2AEC JUMP JUMPDEST JUMPDEST DUP3 DUP3 DIV SWAP1 POP SWAP3 SWAP2 POP POP JUMP JUMPDEST PUSH1 0x0 PUSH1 0x60 DUP3 ADD SWAP1 POP PUSH2 0x2B61 PUSH1 0x0 DUP4 ADD DUP7 PUSH2 0x1F01 JUMP JUMPDEST PUSH2 0x2B6E PUSH1 0x20 DUP4 ADD DUP6 PUSH2 0x1F01 JUMP JUMPDEST PUSH2 0x2B7B PUSH1 0x40 DUP4 ADD DUP5 PUSH2 0x1C42 JUMP JUMPDEST SWAP5 SWAP4 POP POP POP POP JUMP JUMPDEST PUSH1 0x0 DUP2 ISZERO ISZERO SWAP1 POP SWAP2 SWAP1 POP JUMP JUMPDEST PUSH2 0x2B98 DUP2 PUSH2 0x2B83 JUMP JUMPDEST DUP2 EQ PUSH2 0x2BA3 JUMPI PUSH1 0x0 DUP1 REVERT JUMPDEST POP JUMP JUMPDEST PUSH1 0x0 DUP2 MLOAD SWAP1 POP PUSH2 0x2BB5 DUP2 PUSH2 0x2B8F JUMP JUMPDEST SWAP3 SWAP2 POP POP JUMP JUMPDEST PUSH1 0x0 PUSH1 0x20 DUP3 DUP5 SUB SLT ISZERO PUSH2 0x2BD1 JUMPI PUSH2 0x2BD0 PUSH2 0x1BA8 JUMP JUMPDEST JUMPDEST PUSH1 0x0 PUSH2 0x2BDF DUP5 DUP3 DUP6 ADD PUSH2 0x2BA6 JUMP JUMPDEST SWAP2 POP POP SWAP3 SWAP2 POP POP JUMP JUMPDEST PUSH32 0x5361666545524332303A204552433230206F7065726174696F6E20646964206E PUSH1 0x0 DUP3 ADD MSTORE PUSH32 0x6F74207375636365656400000000000000000000000000000000000000000000 PUSH1 0x20 DUP3 ADD MSTORE POP JUMP JUMPDEST PUSH1 0x0 PUSH2 0x2C44 PUSH1 0x2A DUP4 PUSH2 0x217A JUMP JUMPDEST SWAP2 POP PUSH2 0x2C4F DUP3 PUSH2 0x2BE8 JUMP JUMPDEST PUSH1 0x40 DUP3 ADD SWAP1 POP SWAP2 SWAP1 POP JUMP JUMPDEST PUSH1 0x0 PUSH1 0x20 DUP3 ADD SWAP1 POP DUP2 DUP2 SUB PUSH1 0x0 DUP4 ADD MSTORE PUSH2 0x2C73 DUP2 PUSH2 0x2C37 JUMP JUMPDEST SWAP1 POP SWAP2 SWAP1 POP JUMP JUMPDEST PUSH32 0x416464726573733A20696E73756666696369656E742062616C616E636520666F PUSH1 0x0 DUP3 ADD MSTORE PUSH32 0x722063616C6C0000000000000000000000000000000000000000000000000000 PUSH1 0x20 DUP3 ADD MSTORE POP JUMP JUMPDEST PUSH1 0x0 PUSH2 0x2CD6 PUSH1 0x26 DUP4 PUSH2 0x217A JUMP JUMPDEST SWAP2 POP PUSH2 0x2CE1 DUP3 PUSH2 0x2C7A JUMP JUMPDEST PUSH1 0x40 DUP3 ADD SWAP1 POP SWAP2 SWAP1 POP JUMP JUMPDEST PUSH1 0x0 PUSH1 0x20 DUP3 ADD SWAP1 POP DUP2 DUP2 SUB PUSH1 0x0 DUP4 ADD MSTORE PUSH2 0x2D05 DUP2 PUSH2 0x2CC9 JUMP JUMPDEST SWAP1 POP SWAP2 SWAP1 POP JUMP JUMPDEST PUSH32 0x416464726573733A2063616C6C20746F206E6F6E2D636F6E7472616374000000 PUSH1 0x0 DUP3 ADD MSTORE POP JUMP JUMPDEST PUSH1 0x0 PUSH2 0x2D42 PUSH1 0x1D DUP4 PUSH2 0x217A JUMP JUMPDEST SWAP2 POP PUSH2 0x2D4D DUP3 PUSH2 0x2D0C JUMP JUMPDEST PUSH1 0x20 DUP3 ADD SWAP1 POP SWAP2 SWAP1 POP JUMP JUMPDEST PUSH1 0x0 PUSH1 0x20 DUP3 ADD SWAP1 POP DUP2 DUP2 SUB PUSH1 0x0 DUP4 ADD MSTORE PUSH2 0x2D71 DUP2 PUSH2 0x2D35 JUMP JUMPDEST SWAP1 POP SWAP2 SWAP1 POP JUMP JUMPDEST PUSH1 0x0 DUP2 MLOAD SWAP1 POP SWAP2 SWAP1 POP JUMP JUMPDEST PUSH1 0x0 JUMPDEST DUP4 DUP2 LT ISZERO PUSH2 0x2DA1 JUMPI DUP1 DUP3 ADD MLOAD DUP2 DUP5 ADD MSTORE PUSH1 0x20 DUP2 ADD SWAP1 POP PUSH2 0x2D86 JUMP JUMPDEST DUP4 DUP2 GT ISZERO PUSH2 0x2DB0 JUMPI PUSH1 0x0 DUP5 DUP5 ADD MSTORE JUMPDEST POP POP POP POP JUMP JUMPDEST PUSH1 0x0 PUSH2 0x2DC1 DUP3 PUSH2 0x2D78 JUMP JUMPDEST PUSH2 0x2DCB DUP2 DUP6 PUSH2 0x2601 JUMP JUMPDEST SWAP4 POP PUSH2 0x2DDB DUP2 DUP6 PUSH1 0x20 DUP7 ADD PUSH2 0x2D83 JUMP JUMPDEST DUP1 DUP5 ADD SWAP2 POP POP SWAP3 SWAP2 POP POP JUMP JUMPDEST PUSH1 0x0 PUSH2 0x2DF3 DUP3 DUP5 PUSH2 0x2DB6 JUMP JUMPDEST SWAP2 POP DUP2 SWAP1 POP SWAP3 SWAP2 POP POP JUMP JUMPDEST PUSH1 0x0 DUP2 MLOAD SWAP1 POP SWAP2 SWAP1 POP JUMP JUMPDEST PUSH1 0x0 PUSH1 0x1F NOT PUSH1 0x1F DUP4 ADD AND SWAP1 POP SWAP2 SWAP1 POP JUMP JUMPDEST PUSH1 0x0 PUSH2 0x2E25 DUP3 PUSH2 0x2DFE JUMP JUMPDEST PUSH2 0x2E2F DUP2 DUP6 PUSH2 0x217A JUMP JUMPDEST SWAP4 POP PUSH2 0x2E3F DUP2 DUP6 PUSH1 0x20 DUP7 ADD PUSH2 0x2D83 JUMP JUMPDEST PUSH2 0x2E48 DUP2 PUSH2 0x2E09 JUMP JUMPDEST DUP5 ADD SWAP2 POP POP SWAP3 SWAP2 POP POP JUMP JUMPDEST PUSH1 0x0 PUSH1 0x20 DUP3 ADD SWAP1 POP DUP2 DUP2 SUB PUSH1 0x0 DUP4 ADD MSTORE PUSH2 0x2E6D DUP2 DUP5 PUSH2 0x2E1A JUMP JUMPDEST SWAP1 POP SWAP3 SWAP2 POP POP JUMP INVALID LOG2 PUSH5 0x6970667358 0x22 SLT KECCAK256 0x2A 0xE5 0xC9 SWAP15 SMOD SWAP13 TIMESTAMP 0x28 PUSH2 0x4415 CODESIZE PC SWAP5 0xB5 ORIGIN GAS 0xBD 0x24 0xCE 0xAB PC 0xD5 0xD 0x5F CALLDATASIZE 0xD5 0xBD DUP6 0xDE PUSH2 0xE864 PUSH20 0x6F6C634300080900330000000000000000000000 "
				},
				"gasEstimates": {
					"creation": {
						"codeDepositCost": "2389400",
						"executionCost": "infinite",
						"totalCost": "infinite"
					},
					"external": {
						"approveOwnership()": "28762",
						"basisPointsRate()": "2495",
						"confirm(address,address,address,uint256,uint256,bytes32,uint64,bytes32)": "infinite",
						"maximumFee(address)": "2838",
						"nextOwner()": "2603",
						"owner()": "2578",
						"refund(address,address,address,uint256,uint256,bytes32,uint64)": "infinite",
						"renounceOwnership()": "30359",
						"setBasisPointsRate(uint256)": "24789",
						"setMaximumFee(address,uint256)": "25080",
						"setTollAddress(address)": "26968",
						"tollAddress()": "2537",
						"transferIn(address,address,address,uint256,uint256,bytes32,uint64,uint64,bytes32)": "infinite",
						"transferOut(address,address,address,uint256,bytes32,uint64,uint64,uint256,uint64,uint256,uint256)": "infinite",
						"transferOwnership(address)": "27050",
						"transfers(bytes32)": "2953"
					},
					"internal": {
						"_transfer(address,address,address,uint256,uint256,bytes32,uint64)": "infinite"
					}
				},
				"methodIdentifiers": {
					"approveOwnership()": "742c81e4",
					"basisPointsRate()": "dd644f72",
					"confirm(address,address,address,uint256,uint256,bytes32,uint64,bytes32)": "b1f6beaf",
					"maximumFee(address)": "05d06f5a",
					"nextOwner()": "69f3331d",
					"owner()": "8da5cb5b",
					"refund(address,address,address,uint256,uint256,bytes32,uint64)": "af1df20f",
					"renounceOwnership()": "715018a6",
					"setBasisPointsRate(uint256)": "5fdf2be0",
					"setMaximumFee(address,uint256)": "36bdcab8",
					"setTollAddress(address)": "b451192d",
					"tollAddress()": "497b32d7",
					"transferIn(address,address,address,uint256,uint256,bytes32,uint64,uint64,bytes32)": "5e5e7fa1",
					"transferOut(address,address,address,uint256,bytes32,uint64,uint64,uint256,uint64,uint256,uint256)": "46ce4a94",
					"transferOwnership(address)": "f2fde38b",
					"transfers(bytes32)": "3c64f04b"
				}
			},
			"storageLayout": {
				"storage": [
					{
						"astId": 718,
						"contract": "contracts/OBridge.sol:OBridge",
						"label": "owner",
						"offset": 0,
						"slot": "0",
						"type": "t_address"
					},
					{
						"astId": 720,
						"contract": "contracts/OBridge.sol:OBridge",
						"label": "nextOwner",
						"offset": 0,
						"slot": "1",
						"type": "t_address"
					},
					{
						"astId": 826,
						"contract": "contracts/OBridge.sol:OBridge",
						"label": "basisPointsRate",
						"offset": 0,
						"slot": "2",
						"type": "t_uint256"
					},
					{
						"astId": 830,
						"contract": "contracts/OBridge.sol:OBridge",
						"label": "maximumFee",
						"offset": 0,
						"slot": "3",
						"type": "t_mapping(t_address,t_uint256)"
					},
					{
						"astId": 832,
						"contract": "contracts/OBridge.sol:OBridge",
						"label": "tollAddress",
						"offset": 0,
						"slot": "4",
						"type": "t_address"
					},
					{
						"astId": 938,
						"contract": "contracts/OBridge.sol:OBridge",
						"label": "transfers",
						"offset": 0,
						"slot": "5",
						"type": "t_mapping(t_bytes32,t_enum(TransferStatus)933)"
					}
				],
				"types": {
					"t_address": {
						"encoding": "inplace",
						"label": "address",
						"numberOfBytes": "20"
					},
					"t_bytes32": {
						"encoding": "inplace",
						"label": "bytes32",
						"numberOfBytes": "32"
					},
					"t_enum(TransferStatus)933": {
						"encoding": "inplace",
						"label": "enum OBridge.TransferStatus",
						"numberOfBytes": "1"
					},
					"t_mapping(t_address,t_uint256)": {
						"encoding": "mapping",
						"key": "t_address",
						"label": "mapping(address => uint256)",
						"numberOfBytes": "32",
						"value": "t_uint256"
					},
					"t_mapping(t_bytes32,t_enum(TransferStatus)933)": {
						"encoding": "mapping",
						"key": "t_bytes32",
						"label": "mapping(bytes32 => enum OBridge.TransferStatus)",
						"numberOfBytes": "32",
						"value": "t_enum(TransferStatus)933"
					},
					"t_uint256": {
						"encoding": "inplace",
						"label": "uint256",
						"numberOfBytes": "32"
					}
				}
			},
			"userdoc": {
				"kind": "user",
				"methods": {},
				"version": 1
			}
		}
	}
}